{
  "_format": "hh-sol-artifact-1",
  "contractName": "RewardsEscrow",
  "sourceName": "contracts/core/utils/RewardsEscrow.sol",
  "abi": [
    {
      "inputs": [
        {
          "internalType": "contract IContractRegistry",
          "name": "contractRegistry_",
          "type": "address"
        }
      ],
      "stateMutability": "nonpayable",
      "type": "constructor"
    },
    {
      "anonymous": false,
      "inputs": [
        {
          "indexed": false,
          "internalType": "uint256",
          "name": "_escrowDuration",
          "type": "uint256"
        }
      ],
      "name": "EscrowDurationChanged",
      "type": "event"
    },
    {
      "anonymous": false,
      "inputs": [
        {
          "indexed": false,
          "internalType": "address",
          "name": "account",
          "type": "address"
        },
        {
          "indexed": false,
          "internalType": "uint256",
          "name": "amount",
          "type": "uint256"
        }
      ],
      "name": "Locked",
      "type": "event"
    },
    {
      "anonymous": false,
      "inputs": [
        {
          "indexed": false,
          "internalType": "address",
          "name": "account_",
          "type": "address"
        },
        {
          "indexed": false,
          "internalType": "uint256",
          "name": "amount",
          "type": "uint256"
        }
      ],
      "name": "RewardsClaimed",
      "type": "event"
    },
    {
      "anonymous": false,
      "inputs": [
        {
          "indexed": false,
          "internalType": "uint256",
          "name": "_vestingCliff",
          "type": "uint256"
        }
      ],
      "name": "VestingCliffChanged",
      "type": "event"
    },
    {
      "inputs": [
        {
          "internalType": "bytes32",
          "name": "escrowId_",
          "type": "bytes32"
        }
      ],
      "name": "claimReward",
      "outputs": [],
      "stateMutability": "nonpayable",
      "type": "function"
    },
    {
      "inputs": [
        {
          "internalType": "bytes32[]",
          "name": "escrowIds_",
          "type": "bytes32[]"
        }
      ],
      "name": "claimRewards",
      "outputs": [],
      "stateMutability": "nonpayable",
      "type": "function"
    },
    {
      "inputs": [],
      "name": "contractRegistry",
      "outputs": [
        {
          "internalType": "contract IContractRegistry",
          "name": "",
          "type": "address"
        }
      ],
      "stateMutability": "view",
      "type": "function"
    },
    {
      "inputs": [],
      "name": "escrowDuration",
      "outputs": [
        {
          "internalType": "uint256",
          "name": "",
          "type": "uint256"
        }
      ],
      "stateMutability": "view",
      "type": "function"
    },
    {
      "inputs": [
        {
          "internalType": "address",
          "name": "",
          "type": "address"
        },
        {
          "internalType": "uint256",
          "name": "",
          "type": "uint256"
        }
      ],
      "name": "escrowIds",
      "outputs": [
        {
          "internalType": "bytes32",
          "name": "",
          "type": "bytes32"
        }
      ],
      "stateMutability": "view",
      "type": "function"
    },
    {
      "inputs": [
        {
          "internalType": "bytes32",
          "name": "",
          "type": "bytes32"
        }
      ],
      "name": "escrows",
      "outputs": [
        {
          "internalType": "uint256",
          "name": "start",
          "type": "uint256"
        },
        {
          "internalType": "uint256",
          "name": "end",
          "type": "uint256"
        },
        {
          "internalType": "uint256",
          "name": "balance",
          "type": "uint256"
        },
        {
          "internalType": "bool",
          "name": "claimed",
          "type": "bool"
        }
      ],
      "stateMutability": "view",
      "type": "function"
    },
    {
      "inputs": [
        {
          "internalType": "address",
          "name": "account",
          "type": "address"
        }
      ],
      "name": "getEscrowsByUser",
      "outputs": [
        {
          "internalType": "bytes32[]",
          "name": "",
          "type": "bytes32[]"
        }
      ],
      "stateMutability": "view",
      "type": "function"
    },
    {
      "inputs": [
        {
          "internalType": "bytes32",
          "name": "escrowId_",
          "type": "bytes32"
        }
      ],
      "name": "isClaimable",
      "outputs": [
        {
          "internalType": "bool",
          "name": "",
          "type": "bool"
        }
      ],
      "stateMutability": "view",
      "type": "function"
    },
    {
      "inputs": [
        {
          "internalType": "address",
          "name": "account_",
          "type": "address"
        },
        {
          "internalType": "uint256",
          "name": "amount_",
          "type": "uint256"
        }
      ],
      "name": "lock",
      "outputs": [],
      "stateMutability": "nonpayable",
      "type": "function"
    },
    {
      "inputs": [
        {
          "internalType": "uint256",
          "name": "_vestingCliff",
          "type": "uint256"
        }
      ],
      "name": "updateCliff",
      "outputs": [],
      "stateMutability": "nonpayable",
      "type": "function"
    },
    {
      "inputs": [
        {
          "internalType": "uint256",
          "name": "_escrowDuration",
          "type": "uint256"
        }
      ],
      "name": "updateEscrowDuration",
      "outputs": [],
      "stateMutability": "nonpayable",
      "type": "function"
    },
    {
      "inputs": [],
      "name": "vestingCliff",
      "outputs": [
        {
          "internalType": "uint256",
          "name": "",
          "type": "uint256"
        }
      ],
      "stateMutability": "view",
      "type": "function"
    }
  ],
  "bytecode": "0x60806040526276a7006004556276a70060055534801561001e57600080fd5b506040516116803803806116808339818101604052602081101561004157600080fd5b50516001600081905580546001600160a01b039092166001600160a01b0319909216919091179055611608806100786000396000f3fe608060405234801561001057600080fd5b50600436106100d45760003560e01c8063abf410e511610081578063f1d9d2181161005b578063f1d9d21814610291578063f3640e7414610307578063f54140231461030f576100d4565b8063abf410e514610233578063bb9c9fad14610257578063e8a7bf9114610274576100d4565b8063455f468f116100b2578063455f468f146101bc57806357c2c2ba146101ed578063a861d04a14610207576100d4565b80630f3c34d1146100d9578063282d3fdf1461014b5780632d83549c14610177575b600080fd5b610149600480360360208110156100ef57600080fd5b81019060208101813564010000000081111561010a57600080fd5b82018360208201111561011c57600080fd5b8035906020019184602083028401116401000000008311171561013e57600080fd5b50909250905061032c565b005b6101496004803603604081101561016157600080fd5b506001600160a01b038135169060200135610552565b6101946004803603602081101561018d57600080fd5b50356109ba565b6040805194855260208501939093528383019190915215156060830152519081900360800190f35b6101d9600480360360208110156101d257600080fd5b50356109e6565b604080519115158252519081900360200190f35b6101f5610a37565b60408051918252519081900360200190f35b6101f56004803603604081101561021d57600080fd5b506001600160a01b038135169060200135610a3d565b61023b610a6b565b604080516001600160a01b039092168252519081900360200190f35b6101496004803603602081101561026d57600080fd5b5035610a7a565b6101496004803603602081101561028a57600080fd5b5035610bd2565b6102b7600480360360208110156102a757600080fd5b50356001600160a01b0316610d2a565b60408051602080825283518183015283519192839290830191858101910280838360005b838110156102f35781810151838201526020016102db565b505050509050019250505060405180910390f35b6101f5610d96565b6101496004803603602081101561032557600080fd5b5035610d9c565b60026000541415610384576040805162461bcd60e51b815260206004820152601f60248201527f5265656e7472616e637947756172643a207265656e7472616e742063616c6c00604482015290519081900360640190fd5b600260005560148111156103df576040805162461bcd60e51b815260206004820152601960248201527f636c61696d696e6720746f6f206d616e7920657363726f777300000000000000604482015290519081900360640190fd5b6000805b8281101561041b5761041161040a338686858181106103fe57fe5b90506020020135610f00565b8390610f88565b91506001016103e3565b506000811161045e576040805162461bcd60e51b815260206004820152600a6024820152696e6f207265776172647360b01b604482015290519081900360640190fd5b60015460408051631c2d8fb360e31b81527f69e547947a4514871bf84679401f91758bd0fe92e4c005143f6d0e5213dab0cb6004820152905161050d92339285926001600160a01b039092169163e16c7d9891602480820192602092909190829003018186803b1580156104d157600080fd5b505afa1580156104e5573d6000803e3d6000fd5b505050506040513d60208110156104fb57600080fd5b50516001600160a01b03169190610fe9565b604080513381526020810183905281517ffc30cddea38e2bf4d6ea7d3f9ed3b6ad7f176419f4963bd81318067a4aee73fe929181900390910190a15050600160005550565b600260005414156105aa576040805162461bcd60e51b815260206004820152601f60248201527f5265656e7472616e637947756172643a207265656e7472616e742063616c6c00604482015290519081900360640190fd5b6002600090815560015460408051631c2d8fb360e31b81527f69e547947a4514871bf84679401f91758bd0fe92e4c005143f6d0e5213dab0cb600482015290516001600160a01b039092169163e16c7d9891602480820192602092909190829003018186803b15801561061c57600080fd5b505afa158015610630573d6000803e3d6000fd5b505050506040513d602081101561064657600080fd5b505160015460408051631c2d8fb360e31b81527f1df41cd916959d1163dc8f0671a666ea8a3e434c13e40faef527133b5d167034600482015290519293506001600160a01b039091169163e16c7d9891602480820192602092909190829003018186803b1580156106b657600080fd5b505afa1580156106ca573d6000803e3d6000fd5b505050506040513d60208110156106e057600080fd5b50516001600160a01b0316331461073e576040805162461bcd60e51b815260206004820152601b60248201527f796f752063616e742063616c6c20746869732066756e6374696f6e0000000000604482015290519081900360640190fd5b60008211610793576040805162461bcd60e51b815260206004820152601d60248201527f616d6f756e74206d7573742062652067726561746572207468616e2030000000604482015290519081900360640190fd5b81816001600160a01b03166370a08231336040518263ffffffff1660e01b815260040180826001600160a01b0316815260200191505060206040518083038186803b1580156107e157600080fd5b505afa1580156107f5573d6000803e3d6000fd5b505050506040513d602081101561080b57600080fd5b50511015610860576040805162461bcd60e51b815260206004820152601460248201527f696e73756666696369656e742062616c616e6365000000000000000000000000604482015290519081900360640190fd5b6005544290600090610873908390610f88565b9050600061088c60045483610f8890919063ffffffff16565b60408051606089901b6bffffffffffffffffffffffff1916602080830191909152603482018990526054808301889052835180840390910181526074830180855281519183019190912060f4840185528782526094840186815260b485018c8152600060d4909601868152838752600280875288882095518655925160018087019190915591519285019290925590516003938401805460ff19169115159190911790556001600160a01b03808e168652928452948420805495860181558452919092209092018290559192509061096890861633308961106e565b604080516001600160a01b03891681526020810188905281517f9f1ec8c880f76798e7b793325d625e9b60e4082a553c98f42b6cda368dd60008929181900390910190a1505060016000555050505050565b600260208190526000918252604090912080546001820154928201546003909201549092919060ff1684565b6000818152600260205260408120544210801590610a11575060008281526002602052604090205415155b8015610a2f575060008281526002602052604090206003015460ff16155b90505b919050565b60045481565b60036020528160005260406000208181548110610a5657fe5b90600052602060002001600091509150505481565b6001546001600160a01b031681565b60015460408051631c2d8fb360e31b81527f15fa0125f52e5705da1148bfcf00974823c4381bee4314203ede255f9477b73e600482015290516001600160a01b039092169163e16c7d9891602480820192602092909190829003018186803b158015610ae557600080fd5b505afa158015610af9573d6000803e3d6000fd5b505050506040513d6020811015610b0f57600080fd5b50516040805163d09a20c560e01b81527fd0a4ad96d49edb1c33461cebc6fb2609190f32c904e3c3f5877edb4488dee91e600482015233602482015290516001600160a01b039092169163d09a20c591604480820192600092909190829003018186803b158015610b7f57600080fd5b505afa158015610b93573d6000803e3d6000fd5b5050506005829055506040805182815290517f0a8e2a4f72f14cbee03810df2301973e09f5149f6f9734490a9155b75cadf3cf9181900360200190a150565b60015460408051631c2d8fb360e31b81527f15fa0125f52e5705da1148bfcf00974823c4381bee4314203ede255f9477b73e600482015290516001600160a01b039092169163e16c7d9891602480820192602092909190829003018186803b158015610c3d57600080fd5b505afa158015610c51573d6000803e3d6000fd5b505050506040513d6020811015610c6757600080fd5b50516040805163d09a20c560e01b81527fd0a4ad96d49edb1c33461cebc6fb2609190f32c904e3c3f5877edb4488dee91e600482015233602482015290516001600160a01b039092169163d09a20c591604480820192600092909190829003018186803b158015610cd757600080fd5b505afa158015610ceb573d6000803e3d6000fd5b5050506004829055506040805182815290517facb2ab6d02fafbae9aab5b75beb76be199b67e646a65ac2fb423dbb97fface6d9181900360200190a150565b6001600160a01b038116600090815260036020908152604091829020805483518184028101840190945280845260609392830182828015610d8a57602002820191906000526020600020905b815481526020019060010190808311610d76575b50505050509050919050565b60055481565b60026000541415610df4576040805162461bcd60e51b815260206004820152601f60248201527f5265656e7472616e637947756172643a207265656e7472616e742063616c6c00604482015290519081900360640190fd5b60026000908155610e053383610f00565b905060008111610e49576040805162461bcd60e51b815260206004820152600a6024820152696e6f207265776172647360b01b604482015290519081900360640190fd5b60015460408051631c2d8fb360e31b81527f69e547947a4514871bf84679401f91758bd0fe92e4c005143f6d0e5213dab0cb60048201529051610ebc92339285926001600160a01b039092169163e16c7d9891602480820192602092909190829003018186803b1580156104d157600080fd5b604080513381526020810183905281517ffc30cddea38e2bf4d6ea7d3f9ed3b6ad7f176419f4963bd81318067a4aee73fe929181900390910190a150506001600055565b600081815260026020526040812080544210610f7c57604080516080810182528254815260018301546020820152600283015491810191909152600382015460ff1615156060820152600090610f55906110fc565b90508160020154811415610f735760038201805460ff191660011790555b9150610f829050565b60009150505b92915050565b600082820183811015610fe2576040805162461bcd60e51b815260206004820152601b60248201527f536166654d6174683a206164646974696f6e206f766572666c6f770000000000604482015290519081900360640190fd5b9392505050565b604080516001600160a01b038416602482015260448082018490528251808303909101815260649091019091526020810180517bffffffffffffffffffffffffffffffffffffffffffffffffffffffff167fa9059cbb00000000000000000000000000000000000000000000000000000000179052611069908490611160565b505050565b604080516001600160a01b0380861660248301528416604482015260648082018490528251808303909101815260849091019091526020810180517bffffffffffffffffffffffffffffffffffffffffffffffffffffffff167f23b872dd000000000000000000000000000000000000000000000000000000001790526110f6908590611160565b50505050565b8051600090158061110f57506020820151155b1561111c57506000610a32565b81516020830151610a2f916111569161113491611211565b845161115090611145904290611211565b60408701519061126e565b906112c7565b836040015161132e565b60606111b5826040518060400160405280602081526020017f5361666545524332303a206c6f772d6c6576656c2063616c6c206661696c6564815250856001600160a01b03166113449092919063ffffffff16565b805190915015611069578080602001905160208110156111d457600080fd5b50516110695760405162461bcd60e51b815260040180806020018281038252602a8152602001806115a9602a913960400191505060405180910390fd5b600082821115611268576040805162461bcd60e51b815260206004820152601e60248201527f536166654d6174683a207375627472616374696f6e206f766572666c6f770000604482015290519081900360640190fd5b50900390565b60008261127d57506000610f82565b8282028284828161128a57fe5b0414610fe25760405162461bcd60e51b81526004018080602001828103825260218152602001806115886021913960400191505060405180910390fd5b600080821161131d576040805162461bcd60e51b815260206004820152601a60248201527f536166654d6174683a206469766973696f6e206279207a65726f000000000000604482015290519081900360640190fd5b81838161132657fe5b049392505050565b600081831061133d5781610fe2565b5090919050565b6060611353848460008561135b565b949350505050565b60608247101561139c5760405162461bcd60e51b81526004018080602001828103825260268152602001806115626026913960400191505060405180910390fd5b6113a5856114b7565b6113f6576040805162461bcd60e51b815260206004820152601d60248201527f416464726573733a2063616c6c20746f206e6f6e2d636f6e7472616374000000604482015290519081900360640190fd5b60006060866001600160a01b031685876040518082805190602001908083835b602083106114355780518252601f199092019160209182019101611416565b6001836020036101000a03801982511681845116808217855250505050505090500191505060006040518083038185875af1925050503d8060008114611497576040519150601f19603f3d011682016040523d82523d6000602084013e61149c565b606091505b50915091506114ac8282866114bd565b979650505050505050565b3b151590565b606083156114cc575081610fe2565b8251156114dc5782518084602001fd5b8160405162461bcd60e51b81526004018080602001828103825283818151815260200191508051906020019080838360005b8381101561152657818101518382015260200161150e565b50505050905090810190601f1680156115535780820380516001836020036101000a031916815260200191505b509250505060405180910390fdfe416464726573733a20696e73756666696369656e742062616c616e636520666f722063616c6c536166654d6174683a206d756c7469706c69636174696f6e206f766572666c6f775361666545524332303a204552433230206f7065726174696f6e20646964206e6f742073756363656564a26469706673582212200e62519ac45e3a2d8ad1c257f5e2a43c5e970de3de9106c7e55c352dfc4b83fe64736f6c63430007030033",
  "linkReferences": {},
  "deployedLinkReferences": {}
}