{
  "_format": "hh-sol-artifact-1",
  "contractName": "KeeperIncentiveHelper",
  "sourceName": "contracts/test_helpers/KeeperIncentiveHelper.sol",
  "abi": [
    {
      "inputs": [
        {
          "internalType": "contract KeeperIncentive",
          "name": "keeperIncentive_",
          "type": "address"
        }
      ],
      "stateMutability": "nonpayable",
      "type": "constructor"
    },
    {
      "anonymous": false,
      "inputs": [
        {
          "indexed": false,
          "internalType": "address",
          "name": "account",
          "type": "address"
        }
      ],
      "name": "FunctionCalled",
      "type": "event"
    },
    {
      "inputs": [],
      "name": "contractName",
      "outputs": [
        {
          "internalType": "bytes32",
          "name": "",
          "type": "bytes32"
        }
      ],
      "stateMutability": "view",
      "type": "function"
    },
    {
      "inputs": [],
      "name": "incentivisedFunction",
      "outputs": [],
      "stateMutability": "nonpayable",
      "type": "function"
    },
    {
      "inputs": [],
      "name": "keeperIncentive",
      "outputs": [
        {
          "internalType": "contract KeeperIncentive",
          "name": "",
          "type": "address"
        }
      ],
      "stateMutability": "view",
      "type": "function"
    }
  ],
  "bytecode": "0x60a06040527f4b6565706572496e63656e7469766548656c706572000000000000000000000060805234801561003457600080fd5b506040516102913803806102918339818101604052602081101561005757600080fd5b5051600080546001600160a01b039092166001600160a01b03199092169190911790556080516101f96100986000398060b9528061010852506101f96000f3fe608060405234801561001057600080fd5b50600436106100415760003560e01c80632cc139b11461004657806375d0c0dc14610077578063b57df14d14610091575b600080fd5b61004e61009b565b6040805173ffffffffffffffffffffffffffffffffffffffff9092168252519081900360200190f35b61007f6100b7565b60408051918252519081900360200190f35b6100996100db565b005b60005473ffffffffffffffffffffffffffffffffffffffff1681565b7f000000000000000000000000000000000000000000000000000000000000000081565b60008054604080517f55b8efcc0000000000000000000000000000000000000000000000000000000081527f0000000000000000000000000000000000000000000000000000000000000000600482015260248101849052336044820152905173ffffffffffffffffffffffffffffffffffffffff909216926355b8efcc9260648084019382900301818387803b15801561017557600080fd5b505af1158015610189573d6000803e3d6000fd5b50506040805133815290517f02bd09a7b664c69b1dd1010bba77cd5117065da368f2f0d034767eec1a109b589350908190036020019150a156fea26469706673582212209b6f1d72fbf854dcb1fc466df72cb670c09251fe5450f6fb09f6e717366a601464736f6c63430007030033",
  "linkReferences": {},
  "deployedLinkReferences": {}
}