{
  "_format": "hh-sol-artifact-1",
  "contractName": "Pool",
  "sourceName": "contracts/core/defi/pool/Pool.sol",
  "abi": [
    {
      "inputs": [
        {
          "internalType": "address",
          "name": "token_",
          "type": "address"
        },
        {
          "internalType": "address",
          "name": "yearnRegistry_",
          "type": "address"
        },
        {
          "internalType": "contract IContractRegistry",
          "name": "contractRegistry_",
          "type": "address"
        }
      ],
      "stateMutability": "nonpayable",
      "type": "constructor"
    },
    {
      "anonymous": false,
      "inputs": [
        {
          "indexed": true,
          "internalType": "address",
          "name": "owner",
          "type": "address"
        },
        {
          "indexed": true,
          "internalType": "address",
          "name": "spender",
          "type": "address"
        },
        {
          "indexed": false,
          "internalType": "uint256",
          "name": "value",
          "type": "uint256"
        }
      ],
      "name": "Approval",
      "type": "event"
    },
    {
      "anonymous": false,
      "inputs": [
        {
          "indexed": true,
          "internalType": "address",
          "name": "from",
          "type": "address"
        },
        {
          "indexed": false,
          "internalType": "uint256",
          "name": "deposit",
          "type": "uint256"
        },
        {
          "indexed": false,
          "internalType": "uint256",
          "name": "poolTokens",
          "type": "uint256"
        }
      ],
      "name": "Deposit",
      "type": "event"
    },
    {
      "anonymous": false,
      "inputs": [
        {
          "indexed": false,
          "internalType": "uint256",
          "name": "amount",
          "type": "uint256"
        }
      ],
      "name": "ManagementFee",
      "type": "event"
    },
    {
      "anonymous": false,
      "inputs": [
        {
          "indexed": false,
          "internalType": "uint256",
          "name": "previousBps",
          "type": "uint256"
        },
        {
          "indexed": false,
          "internalType": "uint256",
          "name": "newBps",
          "type": "uint256"
        }
      ],
      "name": "ManagementFeeChanged",
      "type": "event"
    },
    {
      "anonymous": false,
      "inputs": [
        {
          "indexed": false,
          "internalType": "address",
          "name": "account",
          "type": "address"
        }
      ],
      "name": "Paused",
      "type": "event"
    },
    {
      "anonymous": false,
      "inputs": [
        {
          "indexed": false,
          "internalType": "uint256",
          "name": "amount",
          "type": "uint256"
        }
      ],
      "name": "PerformanceFee",
      "type": "event"
    },
    {
      "anonymous": false,
      "inputs": [
        {
          "indexed": false,
          "internalType": "uint256",
          "name": "previousBps",
          "type": "uint256"
        },
        {
          "indexed": false,
          "internalType": "uint256",
          "name": "newBps",
          "type": "uint256"
        }
      ],
      "name": "PerformanceFeeChanged",
      "type": "event"
    },
    {
      "anonymous": false,
      "inputs": [
        {
          "indexed": true,
          "internalType": "address",
          "name": "from",
          "type": "address"
        },
        {
          "indexed": true,
          "internalType": "address",
          "name": "to",
          "type": "address"
        },
        {
          "indexed": false,
          "internalType": "uint256",
          "name": "value",
          "type": "uint256"
        }
      ],
      "name": "Transfer",
      "type": "event"
    },
    {
      "anonymous": false,
      "inputs": [
        {
          "indexed": false,
          "internalType": "address",
          "name": "account",
          "type": "address"
        }
      ],
      "name": "Unpaused",
      "type": "event"
    },
    {
      "anonymous": false,
      "inputs": [
        {
          "indexed": true,
          "internalType": "address",
          "name": "to",
          "type": "address"
        },
        {
          "indexed": false,
          "internalType": "uint256",
          "name": "amount",
          "type": "uint256"
        }
      ],
      "name": "Withdrawal",
      "type": "event"
    },
    {
      "anonymous": false,
      "inputs": [
        {
          "indexed": true,
          "internalType": "address",
          "name": "to",
          "type": "address"
        },
        {
          "indexed": false,
          "internalType": "uint256",
          "name": "amount",
          "type": "uint256"
        }
      ],
      "name": "WithdrawalFee",
      "type": "event"
    },
    {
      "anonymous": false,
      "inputs": [
        {
          "indexed": false,
          "internalType": "uint256",
          "name": "previousBps",
          "type": "uint256"
        },
        {
          "indexed": false,
          "internalType": "uint256",
          "name": "newBps",
          "type": "uint256"
        }
      ],
      "name": "WithdrawalFeeChanged",
      "type": "event"
    },
    {
      "inputs": [],
      "name": "DOMAIN_SEPARATOR",
      "outputs": [
        {
          "internalType": "bytes32",
          "name": "",
          "type": "bytes32"
        }
      ],
      "stateMutability": "view",
      "type": "function"
    },
    {
      "inputs": [],
      "name": "DOMAIN_TYPEHASH",
      "outputs": [
        {
          "internalType": "bytes32",
          "name": "",
          "type": "bytes32"
        }
      ],
      "stateMutability": "view",
      "type": "function"
    },
    {
      "inputs": [],
      "name": "PERMIT_TYPEHASH",
      "outputs": [
        {
          "internalType": "bytes32",
          "name": "",
          "type": "bytes32"
        }
      ],
      "stateMutability": "view",
      "type": "function"
    },
    {
      "inputs": [],
      "name": "acceptAffiliate",
      "outputs": [],
      "stateMutability": "nonpayable",
      "type": "function"
    },
    {
      "inputs": [],
      "name": "affiliate",
      "outputs": [
        {
          "internalType": "address",
          "name": "",
          "type": "address"
        }
      ],
      "stateMutability": "view",
      "type": "function"
    },
    {
      "inputs": [],
      "name": "allVaults",
      "outputs": [
        {
          "internalType": "contract VaultAPI[]",
          "name": "",
          "type": "address[]"
        }
      ],
      "stateMutability": "view",
      "type": "function"
    },
    {
      "inputs": [
        {
          "internalType": "address",
          "name": "owner",
          "type": "address"
        },
        {
          "internalType": "address",
          "name": "spender",
          "type": "address"
        }
      ],
      "name": "allowance",
      "outputs": [
        {
          "internalType": "uint256",
          "name": "",
          "type": "uint256"
        }
      ],
      "stateMutability": "view",
      "type": "function"
    },
    {
      "inputs": [
        {
          "internalType": "address",
          "name": "spender",
          "type": "address"
        },
        {
          "internalType": "uint256",
          "name": "amount",
          "type": "uint256"
        }
      ],
      "name": "approve",
      "outputs": [
        {
          "internalType": "bool",
          "name": "",
          "type": "bool"
        }
      ],
      "stateMutability": "nonpayable",
      "type": "function"
    },
    {
      "inputs": [
        {
          "internalType": "address",
          "name": "account",
          "type": "address"
        }
      ],
      "name": "balanceOf",
      "outputs": [
        {
          "internalType": "uint256",
          "name": "",
          "type": "uint256"
        }
      ],
      "stateMutability": "view",
      "type": "function"
    },
    {
      "inputs": [],
      "name": "bestVault",
      "outputs": [
        {
          "internalType": "contract VaultAPI",
          "name": "",
          "type": "address"
        }
      ],
      "stateMutability": "view",
      "type": "function"
    },
    {
      "inputs": [
        {
          "internalType": "address",
          "name": "",
          "type": "address"
        }
      ],
      "name": "blockLocks",
      "outputs": [
        {
          "internalType": "uint256",
          "name": "",
          "type": "uint256"
        }
      ],
      "stateMutability": "view",
      "type": "function"
    },
    {
      "inputs": [],
      "name": "contractRegistry",
      "outputs": [
        {
          "internalType": "contract IContractRegistry",
          "name": "",
          "type": "address"
        }
      ],
      "stateMutability": "view",
      "type": "function"
    },
    {
      "inputs": [],
      "name": "decimals",
      "outputs": [
        {
          "internalType": "uint8",
          "name": "",
          "type": "uint8"
        }
      ],
      "stateMutability": "view",
      "type": "function"
    },
    {
      "inputs": [
        {
          "internalType": "address",
          "name": "spender",
          "type": "address"
        },
        {
          "internalType": "uint256",
          "name": "subtractedValue",
          "type": "uint256"
        }
      ],
      "name": "decreaseAllowance",
      "outputs": [
        {
          "internalType": "bool",
          "name": "",
          "type": "bool"
        }
      ],
      "stateMutability": "nonpayable",
      "type": "function"
    },
    {
      "inputs": [
        {
          "internalType": "uint256",
          "name": "amount",
          "type": "uint256"
        }
      ],
      "name": "deposit",
      "outputs": [
        {
          "internalType": "uint256",
          "name": "",
          "type": "uint256"
        }
      ],
      "stateMutability": "nonpayable",
      "type": "function"
    },
    {
      "inputs": [
        {
          "internalType": "uint256",
          "name": "amount",
          "type": "uint256"
        },
        {
          "internalType": "address",
          "name": "recipient",
          "type": "address"
        }
      ],
      "name": "depositFor",
      "outputs": [
        {
          "internalType": "uint256",
          "name": "",
          "type": "uint256"
        }
      ],
      "stateMutability": "nonpayable",
      "type": "function"
    },
    {
      "inputs": [],
      "name": "feesUpdatedAt",
      "outputs": [
        {
          "internalType": "uint256",
          "name": "",
          "type": "uint256"
        }
      ],
      "stateMutability": "view",
      "type": "function"
    },
    {
      "inputs": [
        {
          "internalType": "address",
          "name": "spender",
          "type": "address"
        },
        {
          "internalType": "uint256",
          "name": "addedValue",
          "type": "uint256"
        }
      ],
      "name": "increaseAllowance",
      "outputs": [
        {
          "internalType": "bool",
          "name": "",
          "type": "bool"
        }
      ],
      "stateMutability": "nonpayable",
      "type": "function"
    },
    {
      "inputs": [],
      "name": "managementFee",
      "outputs": [
        {
          "internalType": "uint256",
          "name": "",
          "type": "uint256"
        }
      ],
      "stateMutability": "view",
      "type": "function"
    },
    {
      "inputs": [
        {
          "internalType": "uint256",
          "name": "amount",
          "type": "uint256"
        },
        {
          "internalType": "uint256",
          "name": "maxMigrationLoss",
          "type": "uint256"
        }
      ],
      "name": "migrate",
      "outputs": [
        {
          "internalType": "uint256",
          "name": "",
          "type": "uint256"
        }
      ],
      "stateMutability": "nonpayable",
      "type": "function"
    },
    {
      "inputs": [
        {
          "internalType": "uint256",
          "name": "amount",
          "type": "uint256"
        }
      ],
      "name": "migrate",
      "outputs": [
        {
          "internalType": "uint256",
          "name": "",
          "type": "uint256"
        }
      ],
      "stateMutability": "nonpayable",
      "type": "function"
    },
    {
      "inputs": [],
      "name": "migrate",
      "outputs": [
        {
          "internalType": "uint256",
          "name": "",
          "type": "uint256"
        }
      ],
      "stateMutability": "nonpayable",
      "type": "function"
    },
    {
      "inputs": [],
      "name": "name",
      "outputs": [
        {
          "internalType": "string",
          "name": "",
          "type": "string"
        }
      ],
      "stateMutability": "view",
      "type": "function"
    },
    {
      "inputs": [
        {
          "internalType": "address",
          "name": "",
          "type": "address"
        }
      ],
      "name": "nonces",
      "outputs": [
        {
          "internalType": "uint256",
          "name": "",
          "type": "uint256"
        }
      ],
      "stateMutability": "view",
      "type": "function"
    },
    {
      "inputs": [],
      "name": "pauseContract",
      "outputs": [],
      "stateMutability": "nonpayable",
      "type": "function"
    },
    {
      "inputs": [],
      "name": "paused",
      "outputs": [
        {
          "internalType": "bool",
          "name": "",
          "type": "bool"
        }
      ],
      "stateMutability": "view",
      "type": "function"
    },
    {
      "inputs": [],
      "name": "pendingAffiliate",
      "outputs": [
        {
          "internalType": "address",
          "name": "",
          "type": "address"
        }
      ],
      "stateMutability": "view",
      "type": "function"
    },
    {
      "inputs": [],
      "name": "performanceFee",
      "outputs": [
        {
          "internalType": "uint256",
          "name": "",
          "type": "uint256"
        }
      ],
      "stateMutability": "view",
      "type": "function"
    },
    {
      "inputs": [
        {
          "internalType": "address",
          "name": "owner",
          "type": "address"
        },
        {
          "internalType": "address",
          "name": "spender",
          "type": "address"
        },
        {
          "internalType": "uint256",
          "name": "amount",
          "type": "uint256"
        },
        {
          "internalType": "uint256",
          "name": "deadline",
          "type": "uint256"
        },
        {
          "internalType": "uint8",
          "name": "v",
          "type": "uint8"
        },
        {
          "internalType": "bytes32",
          "name": "r",
          "type": "bytes32"
        },
        {
          "internalType": "bytes32",
          "name": "s",
          "type": "bytes32"
        }
      ],
      "name": "permit",
      "outputs": [],
      "stateMutability": "nonpayable",
      "type": "function"
    },
    {
      "inputs": [],
      "name": "poolTokenHWM",
      "outputs": [
        {
          "internalType": "uint256",
          "name": "",
          "type": "uint256"
        }
      ],
      "stateMutability": "view",
      "type": "function"
    },
    {
      "inputs": [],
      "name": "pricePerPoolToken",
      "outputs": [
        {
          "internalType": "uint256",
          "name": "",
          "type": "uint256"
        }
      ],
      "stateMutability": "view",
      "type": "function"
    },
    {
      "inputs": [],
      "name": "pricePerShare",
      "outputs": [
        {
          "internalType": "uint256",
          "name": "",
          "type": "uint256"
        }
      ],
      "stateMutability": "view",
      "type": "function"
    },
    {
      "inputs": [],
      "name": "registry",
      "outputs": [
        {
          "internalType": "contract RegistryAPI",
          "name": "",
          "type": "address"
        }
      ],
      "stateMutability": "view",
      "type": "function"
    },
    {
      "inputs": [
        {
          "internalType": "address",
          "name": "_affiliate",
          "type": "address"
        }
      ],
      "name": "setAffiliate",
      "outputs": [],
      "stateMutability": "nonpayable",
      "type": "function"
    },
    {
      "inputs": [
        {
          "internalType": "uint256",
          "name": "managementFee_",
          "type": "uint256"
        }
      ],
      "name": "setManagementFee",
      "outputs": [],
      "stateMutability": "nonpayable",
      "type": "function"
    },
    {
      "inputs": [
        {
          "internalType": "uint256",
          "name": "performanceFee_",
          "type": "uint256"
        }
      ],
      "name": "setPerformanceFee",
      "outputs": [],
      "stateMutability": "nonpayable",
      "type": "function"
    },
    {
      "inputs": [
        {
          "internalType": "address",
          "name": "_registry",
          "type": "address"
        }
      ],
      "name": "setRegistry",
      "outputs": [],
      "stateMutability": "nonpayable",
      "type": "function"
    },
    {
      "inputs": [
        {
          "internalType": "uint256",
          "name": "withdrawalFee_",
          "type": "uint256"
        }
      ],
      "name": "setWithdrawalFee",
      "outputs": [],
      "stateMutability": "nonpayable",
      "type": "function"
    },
    {
      "inputs": [],
      "name": "symbol",
      "outputs": [
        {
          "internalType": "string",
          "name": "",
          "type": "string"
        }
      ],
      "stateMutability": "view",
      "type": "function"
    },
    {
      "inputs": [],
      "name": "takeFees",
      "outputs": [],
      "stateMutability": "nonpayable",
      "type": "function"
    },
    {
      "inputs": [],
      "name": "token",
      "outputs": [
        {
          "internalType": "contract IERC20",
          "name": "",
          "type": "address"
        }
      ],
      "stateMutability": "view",
      "type": "function"
    },
    {
      "inputs": [],
      "name": "totalAssets",
      "outputs": [
        {
          "internalType": "uint256",
          "name": "assets",
          "type": "uint256"
        }
      ],
      "stateMutability": "view",
      "type": "function"
    },
    {
      "inputs": [],
      "name": "totalSupply",
      "outputs": [
        {
          "internalType": "uint256",
          "name": "",
          "type": "uint256"
        }
      ],
      "stateMutability": "view",
      "type": "function"
    },
    {
      "inputs": [],
      "name": "totalValue",
      "outputs": [
        {
          "internalType": "uint256",
          "name": "",
          "type": "uint256"
        }
      ],
      "stateMutability": "view",
      "type": "function"
    },
    {
      "inputs": [
        {
          "internalType": "address",
          "name": "account",
          "type": "address"
        }
      ],
      "name": "totalVaultBalance",
      "outputs": [
        {
          "internalType": "uint256",
          "name": "balance",
          "type": "uint256"
        }
      ],
      "stateMutability": "view",
      "type": "function"
    },
    {
      "inputs": [
        {
          "internalType": "address",
          "name": "recipient",
          "type": "address"
        },
        {
          "internalType": "uint256",
          "name": "amount",
          "type": "uint256"
        }
      ],
      "name": "transfer",
      "outputs": [
        {
          "internalType": "bool",
          "name": "",
          "type": "bool"
        }
      ],
      "stateMutability": "nonpayable",
      "type": "function"
    },
    {
      "inputs": [
        {
          "internalType": "address",
          "name": "sender",
          "type": "address"
        },
        {
          "internalType": "address",
          "name": "recipient",
          "type": "address"
        },
        {
          "internalType": "uint256",
          "name": "amount",
          "type": "uint256"
        }
      ],
      "name": "transferFrom",
      "outputs": [
        {
          "internalType": "bool",
          "name": "",
          "type": "bool"
        }
      ],
      "stateMutability": "nonpayable",
      "type": "function"
    },
    {
      "inputs": [],
      "name": "unpauseContract",
      "outputs": [],
      "stateMutability": "nonpayable",
      "type": "function"
    },
    {
      "inputs": [
        {
          "internalType": "uint256",
          "name": "amount",
          "type": "uint256"
        }
      ],
      "name": "valueFor",
      "outputs": [
        {
          "internalType": "uint256",
          "name": "",
          "type": "uint256"
        }
      ],
      "stateMutability": "view",
      "type": "function"
    },
    {
      "inputs": [
        {
          "internalType": "uint256",
          "name": "amount",
          "type": "uint256"
        }
      ],
      "name": "withdraw",
      "outputs": [
        {
          "internalType": "uint256",
          "name": "",
          "type": "uint256"
        }
      ],
      "stateMutability": "nonpayable",
      "type": "function"
    },
    {
      "inputs": [],
      "name": "withdrawAccruedFees",
      "outputs": [],
      "stateMutability": "nonpayable",
      "type": "function"
    },
    {
      "inputs": [],
      "name": "withdrawalFee",
      "outputs": [
        {
          "internalType": "uint256",
          "name": "",
          "type": "uint256"
        }
      ],
      "stateMutability": "view",
      "type": "function"
    }
  ],
  "bytecode": "0x60a06040526032600d5560c8600e556107d0600f55670de0b6b3a76400006010553480156200002d57600080fd5b50604051620050d7380380620050d7833981810160405260608110156200005357600080fd5b508051602082015160409283015183516306fdde0360e01b81529351929391929091849184916001600160a01b038416916306fdde0391600480820192600092909190829003018186803b158015620000ab57600080fd5b505afa158015620000c0573d6000803e3d6000fd5b505050506040513d6000823e601f3d908101601f191682016040526020811015620000ea57600080fd5b81019080805160405193929190846401000000008211156200010b57600080fd5b9083019060208201858111156200012157600080fd5b82516401000000008111828201881017156200013c57600080fd5b82525081516020918201929091019080838360005b838110156200016b57818101518382015260200162000151565b50505050905090810190601f168015620001995780820380516001836020036101000a031916815260200191505b5060405250505060405160200180806702837b831b7b937160c51b81525060080182805190602001908083835b60208310620001e75780518252601f199092019160209182019101620001c6565b6001836020036101000a038019825116818451168082178552505050505050905001806408141bdbdb60da1b815250600501915050604051602081830303815290604052856001600160a01b03166395d89b416040518163ffffffff1660e01b815260040160006040518083038186803b1580156200026557600080fd5b505afa1580156200027a573d6000803e3d6000fd5b505050506040513d6000823e601f3d908101601f191682016040526020811015620002a457600080fd5b8101908080516040519392919084640100000000821115620002c557600080fd5b908301906020820185811115620002db57600080fd5b8251640100000000811182820188101715620002f657600080fd5b82525081516020918201929091019080838360005b83811015620003255781810151838201526020016200030b565b50505050905090810190601f168015620003535780820380516001836020036101000a031916815260200191505b506040525050506040516020018080620706f760ec1b81525060030182805190602001908083835b602083106200039c5780518252601f1990920191602091820191016200037b565b6001836020036101000a038019825116818451168082178552505050505050905001915050604051602081830303815290604052838383838160039080519060200190620003ec92919062000684565b5080516200040290600490602084019062000684565b505060058054601260ff1990911617610100600160a81b0319166101006001600160a01b039586160217905550600780546001600160a01b0319169190921617905581516020808401919091206040805180820190915260018152603160f81b9201919091527f8b73c3c69bb8fe3d512ecc4cf759cc79239f7b179b0ffacaa9a75d522b39400f907fc89efdaa54c0f20c7adf612882df0950f5a951637e0307cdcb4c672f298b8bc6620004b56200066a565b604080516020808201969096528082019490945260608401929092526080808401919091523060a0808501919091528251808503909101815260c08401808452815191860191909120909152600980546001600160a01b0319163317905560055463313ce56760e01b90915290516200058f936101009092046001600160a01b03169263313ce5679260c4808301939192829003018186803b1580156200055b57600080fd5b505afa15801562000570573d6000803e3d6000fd5b505050506040513d60208110156200058757600080fd5b50516200066e565b50506001600b555050600c805460ff191690556001600160a01b038216620005ed576040805162461bcd60e51b815260206004820152600c60248201526b5a65726f206164647265737360a01b604482015290519081900360640190fd5b6001600160a01b03811662000638576040805162461bcd60e51b815260206004820152600c60248201526b5a65726f206164647265737360a01b604482015290519081900360640190fd5b600c80546001600160a01b0390921661010002610100600160a81b031990921691909117905550504260115562000720565b4690565b6005805460ff191660ff92909216919091179055565b828054600181600116156101000203166002900490600052602060002090601f016020900481019282601f10620006c757805160ff1916838001178555620006f7565b82800160010185558215620006f7579182015b82811115620006f7578251825591602001919060010190620006da565b506200070592915062000709565b5090565b5b808211156200070557600081556001016200070a565b6080516149976200074060003980611268528061250352506149976000f3fe608060405234801561001057600080fd5b506004361061034c5760003560e01c80637b103999116101bd578063ac1e5025116100f9578063d4c3eea0116100a2578063e95b2de81161007c578063e95b2de81461088e578063fb18eedc14610896578063fc0c546a1461089e578063fe56e232146108a65761034c565b8063d4c3eea014610807578063d505accf1461080f578063dd62ed3e146108605761034c565b8063b38a440e116100d3578063b38a440e146107da578063b6b55f25146107e2578063c0d94193146107ff5761034c565b8063ac1e5025146107ad578063ada82c7d146107ca578063b33712c5146107d25761034c565b806399530b0611610166578063a6f7f5d611610140578063a6f7f5d61461074b578063a9059cbb14610753578063a91ee0dc1461077f578063abf410e5146107a55761034c565b806399530b061461070f5780639f3d0a4814610717578063a457c2d71461071f5761034c565b80638bc7e8c4116101975780638bc7e8c4146106f75780638fd3ab80146106ff57806395d89b41146107075761034c565b80637b103999146106c15780637ecebe00146106c957806387788782146106ef5761034c565b80633644e5151161028c57806345c53fba116102355780635dd912f51161020f5780635dd912f51461066e5780636c31b5f01461067657806370897b231461067e57806370a082311461069b5761034c565b806345c53fba1461061c57806345e05f43146106425780635c975abb146106665761034c565b80633e54bacb116102665780633e54bacb146105d4578063439766ce146105f7578063454b0608146105ff5761034c565b80633644e5151461057457806336efd16f1461057c57806339509351146105a85761034c565b806323b872dd116102f95780632e1a7d4d116102d35780632e1a7d4d1461050b57806330adf81f1461052857806330e5065e14610530578063313ce567146105565761034c565b806323b872dd146104905780632b0cc6a7146104c65780632bbb56d9146104e35761034c565b8063095ea7b31161032a578063095ea7b31461044057806318160ddd1461048057806320606b70146104885761034c565b806301e1d11414610351578063063effeb1461036b57806306fdde03146103c3575b600080fd5b6103596108c3565b60408051918252519081900360200190f35b61037361096e565b60408051602080825283518183015283519192839290830191858101910280838360005b838110156103af578181015183820152602001610397565b505050509050019250505060405180910390f35b6103cb610c08565b6040805160208082528351818301528351919283929083019185019080838360005b838110156104055781810151838201526020016103ed565b50505050905090810190601f1680156104325780820380516001836020036101000a031916815260200191505b509250505060405180910390f35b61046c6004803603604081101561045657600080fd5b506001600160a01b038135169060200135610c9e565b604080519115158252519081900360200190f35b610359610cbc565b610359610cc2565b61046c600480360360608110156104a657600080fd5b506001600160a01b03813581169160208101359091169060400135610ce6565b610359600480360360208110156104dc57600080fd5b5035610d5e565b610509600480360360208110156104f957600080fd5b50356001600160a01b0316610d71565b005b6103596004803603602081101561052157600080fd5b5035610daa565b61035961106a565b6103596004803603602081101561054657600080fd5b50356001600160a01b031661108e565b61055e61125d565b6040805160ff9092168252519081900360200190f35b610359611266565b6103596004803603604081101561059257600080fd5b50803590602001356001600160a01b031661128a565b61046c600480360360408110156105be57600080fd5b506001600160a01b0381351690602001356114b4565b610359600480360360408110156105ea57600080fd5b5080359060200135611507565b61050961152c565b6103596004803603602081101561061557600080fd5b5035611661565b6103596004803603602081101561063257600080fd5b50356001600160a01b0316611685565b61064a611697565b604080516001600160a01b039092168252519081900360200190f35b61046c6116a6565b6105096116af565b610509611723565b6105096004803603602081101561069457600080fd5b503561174e565b610359600480360360208110156106b157600080fd5b50356001600160a01b0316611917565b61064a611932565b610359600480360360208110156106df57600080fd5b50356001600160a01b0316611941565b610359611953565b610359611959565b61035961195f565b6103cb611987565b6103596119e8565b610359611a15565b61046c6004803603604081101561073557600080fd5b506001600160a01b038135169060200135611a1b565b610359611a83565b61046c6004803603604081101561076957600080fd5b506001600160a01b038135169060200135611a89565b6105096004803603602081101561079557600080fd5b50356001600160a01b0316611af6565b61064a611c3c565b610509600480360360208110156107c357600080fd5b5035611c50565b610509611e19565b610509612018565b61064a61214b565b610359600480360360208110156107f857600080fd5b503561215a565b610359612383565b610359612396565b610509600480360360e081101561082557600080fd5b506001600160a01b03813581169160208101359091169060408101359060608101359060ff6080820135169060a08101359060c001356123a1565b6103596004803603604081101561087657600080fd5b506001600160a01b0381358116916020013516612630565b61064a61265b565b6103596126fe565b61064a612704565b610509600480360360208110156108bc57600080fd5b5035612718565b600060606108cf61096e565b905060005b81518110156109695761095f8282815181106108ec57fe5b60200260200101516001600160a01b03166301e1d1146040518163ffffffff1660e01b815260040160206040518083038186803b15801561092c57600080fd5b505afa158015610940573d6000803e3d6000fd5b505050506040513d602081101561095657600080fd5b505184906128e1565b92506001016108d4565b505090565b600654600754600554604080517ff9c7bba50000000000000000000000000000000000000000000000000000000081526001600160a01b0361010090930483166004820152905160609493600093169163f9c7bba5916024808301926020929190829003018186803b1580156109e357600080fd5b505afa1580156109f7573d6000803e3d6000fd5b505050506040513d6020811015610a0d57600080fd5b5051905081811415610a7d576006805480602002602001604051908101604052809291908181526020018280548015610a6f57602002820191906000526020600020905b81546001600160a01b03168152600190910190602001808311610a51575b505050505092505050610c05565b60608167ffffffffffffffff81118015610a9657600080fd5b50604051908082528060200260200182016040528015610ac0578160200160208202803683370190505b50905060005b83811015610b255760068181548110610adb57fe5b9060005260206000200160009054906101000a90046001600160a01b0316828281518110610b0557fe5b6001600160a01b0390921660209283029190910190910152600101610ac6565b50825b82811015610bff57600754600554604080517f7bbfc69e0000000000000000000000000000000000000000000000000000000081526101009092046001600160a01b039081166004840152602483018590529051921691637bbfc69e91604480820192602092909190829003018186803b158015610ba557600080fd5b505afa158015610bb9573d6000803e3d6000fd5b505050506040513d6020811015610bcf57600080fd5b50518251839083908110610bdf57fe5b6001600160a01b0390921660209283029190910190910152600101610b28565b50925050505b90565b60038054604080516020601f6002600019610100600188161502019095169490940493840181900481028201810190925282815260609390929091830182828015610c945780601f10610c6957610100808354040283529160200191610c94565b820191906000526020600020905b815481529060010190602001808311610c7757829003601f168201915b5050505050905090565b6000610cb2610cab61293b565b848461293f565b5060015b92915050565b60025490565b7f8b73c3c69bb8fe3d512ecc4cf759cc79239f7b179b0ffacaa9a75d522b39400f81565b336000908152601260205260408120544311610d49576040805162461bcd60e51b815260206004820152601760248201527f4c6f636b656420756e74696c206e65787420626c6f636b000000000000000000604482015290519081900360640190fd5b610d54848484612a2b565b90505b9392505050565b6000610d6982612aad565b90505b919050565b6009546001600160a01b03163314610d8857600080fd5b600a80546001600160a01b0319166001600160a01b0392909216919091179055565b60006002600b541415610e04576040805162461bcd60e51b815260206004820152601f60248201527f5265656e7472616e637947756172643a207265656e7472616e742063616c6c00604482015290519081900360640190fd5b6002600b55336000908152601260205260409020544311610e6c576040805162461bcd60e51b815260206004820152601760248201527f4c6f636b656420756e74696c206e65787420626c6f636b000000000000000000604482015290519081900360640190fd5b610e7533611917565b821115610ec9576040805162461bcd60e51b815260206004820152601f60248201527f496e73756666696369656e7420706f6f6c20746f6b656e2062616c616e636500604482015290519081900360640190fd5b610ed233612ae2565b610eda612afe565b6000610ee583612b14565b90506000610ef38483612b31565b90506000610f0083610d5e565b90506000610f0d83610d5e565b90506000600c60019054906101000a90046001600160a01b03166001600160a01b031663e16c7d987f966f1e8d8d8014e05f6ec4a57138da9be1f7c5a7f802928a18072f7c531807616040518263ffffffff1660e01b81526004018082815260200191505060206040518083038186803b158015610f8a57600080fd5b505afa158015610f9e573d6000803e3d6000fd5b505050506040513d6020811015610fb457600080fd5b50519050610fc23388612b8e565b610fcf3033846001612c8a565b50610fdd3082856001612c8a565b506040805184815290516001600160a01b038316917fc18340ba98721bcff47f10f30da90ced66f2b96b9afed4cbdf4e0184b4a70469919081900360200190a260408051838152905133917f7fcf532c15f0a6db0bd6d0e038bea71d30d808c7d98cb3bf7268a95bf5081b65919081900360200190a261105b61349c565b506001600b5595945050505050565b7f6e71edae12b1b97f4d1f60370fef10105fa2faae0126114a169c64845d6126c981565b6000606061109a61096e565b905060005b81518110156112565761124c6112458383815181106110ba57fe5b60200260200101516001600160a01b031663313ce5676040518163ffffffff1660e01b815260040160206040518083038186803b1580156110fa57600080fd5b505afa15801561110e573d6000803e3d6000fd5b505050506040513d602081101561112457600080fd5b50518451600a9190910a9061123f9086908690811061113f57fe5b60200260200101516001600160a01b03166399530b066040518163ffffffff1660e01b815260040160206040518083038186803b15801561117f57600080fd5b505afa158015611193573d6000803e3d6000fd5b505050506040513d60208110156111a957600080fd5b505186518790879081106111b957fe5b60200260200101516001600160a01b03166370a082318a6040518263ffffffff1660e01b815260040180826001600160a01b0316815260200191505060206040518083038186803b15801561120d57600080fd5b505afa158015611221573d6000803e3d6000fd5b505050506040513d602081101561123757600080fd5b5051906134ba565b90613513565b84906128e1565b925060010161109f565b5050919050565b60055460ff1690565b7f000000000000000000000000000000000000000000000000000000000000000081565b60006002600b5414156112e4576040805162461bcd60e51b815260206004820152601f60248201527f5265656e7472616e637947756172643a207265656e7472616e742063616c6c00604482015290519081900360640190fd5b6002600b556112f16116a6565b15611336576040805162461bcd60e51b815260206004820152601060248201526f14185d5cd8589b194e881c185d5cd95960821b604482015290519081900360640190fd5b336000908152601260205260409020544311611399576040805162461bcd60e51b815260206004820152601760248201527f4c6f636b656420756e74696c206e65787420626c6f636b000000000000000000604482015290519081900360640190fd5b600c60019054906101000a90046001600160a01b03166001600160a01b031663e16c7d987f15fa0125f52e5705da1148bfcf00974823c4381bee4314203ede255f9477b73e6040518263ffffffff1660e01b81526004018082815260200191505060206040518083038186803b15801561141257600080fd5b505afa158015611426573d6000803e3d6000fd5b505050506040513d602081101561143c57600080fd5b505160408051636da3ea1b60e11b815233600482015290516001600160a01b039092169163db47d43691602480820192600092909190829003018186803b15801561148657600080fd5b505afa15801561149a573d6000803e3d6000fd5b505050506114a8838361357a565b6001600b559392505050565b6000610cb26114c161293b565b8461150285600160006114d261293b565b6001600160a01b03908116825260208083019390935260409182016000908120918c1681529252902054906128e1565b61293f565b6009546000906001600160a01b0316331461152157600080fd5b610d573084846136d6565b600c60019054906101000a90046001600160a01b03166001600160a01b031663e16c7d987f15fa0125f52e5705da1148bfcf00974823c4381bee4314203ede255f9477b73e6040518263ffffffff1660e01b81526004018082815260200191505060206040518083038186803b1580156115a557600080fd5b505afa1580156115b9573d6000803e3d6000fd5b505050506040513d60208110156115cf57600080fd5b50516040805163d09a20c560e01b81527fd0a4ad96d49edb1c33461cebc6fb2609190f32c904e3c3f5877edb4488dee91e600482015233602482015290516001600160a01b039092169163d09a20c591604480820192600092909190829003018186803b15801561163f57600080fd5b505afa158015611653573d6000803e3d6000fd5b5050505061165f61387a565b565b6009546000906001600160a01b0316331461167b57600080fd5b610d69308361391a565b60126020526000908152604090205481565b6009546001600160a01b031681565b600c5460ff1690565b6002600b541415611707576040805162461bcd60e51b815260206004820152601f60248201527f5265656e7472616e637947756172643a207265656e7472616e742063616c6c00604482015290519081900360640190fd5b6002600b55611714612afe565b61171c61349c565b6001600b55565b600a546001600160a01b0316331461173a57600080fd5b600980546001600160a01b03191633179055565b600c60019054906101000a90046001600160a01b03166001600160a01b031663e16c7d987f15fa0125f52e5705da1148bfcf00974823c4381bee4314203ede255f9477b73e6040518263ffffffff1660e01b81526004018082815260200191505060206040518083038186803b1580156117c757600080fd5b505afa1580156117db573d6000803e3d6000fd5b505050506040513d60208110156117f157600080fd5b50516040805163d09a20c560e01b81527fd0a4ad96d49edb1c33461cebc6fb2609190f32c904e3c3f5877edb4488dee91e600482015233602482015290516001600160a01b039092169163d09a20c591604480820192600092909190829003018186803b15801561186157600080fd5b505afa158015611875573d6000803e3d6000fd5b5050505080600f5414156118d0576040805162461bcd60e51b815260206004820152601360248201527f53616d6520706572666f726d616e636546656500000000000000000000000000604482015290519081900360640190fd5b600f805490829055604080518281526020810184905281517f44e5243903d4f21681121bff9dd91691edc7fa0b9d87cc40d6d65f1755a9b1b3929181900390910190a15050565b6001600160a01b031660009081526020819052604090205490565b6007546001600160a01b031681565b60086020526000908152604090205481565b600f5481565b600d5481565b6009546000906001600160a01b0316331461197957600080fd5b61198230613928565b905090565b60048054604080516020601f6002600019610100600188161502019095169490940493840181900481028201810190925282815260609390929091830182828015610c945780601f10610c6957610100808354040283529160200191610c94565b60006119826119f5610cbc565b61123f611a0061125d565b60ff16600a0a611a0f3061108e565b906134ba565b60115481565b6000610cb2611a2861293b565b846115028560405180606001604052806025815260200161493d6025913960016000611a5261293b565b6001600160a01b03908116825260208083019390935260409182016000908120918d16815292529020549190613936565b600e5481565b336000908152601260205260408120544311611aec576040805162461bcd60e51b815260206004820152601760248201527f4c6f636b656420756e74696c206e65787420626c6f636b000000000000000000604482015290519081900360640190fd5b610d5783836139cd565b600760009054906101000a90046001600160a01b03166001600160a01b0316635aa6e6756040518163ffffffff1660e01b815260040160206040518083038186803b158015611b4457600080fd5b505afa158015611b58573d6000803e3d6000fd5b505050506040513d6020811015611b6e57600080fd5b50516001600160a01b03163314611b8457600080fd5b600780546001600160a01b0319166001600160a01b038381169190911791829055604080517f5aa6e67500000000000000000000000000000000000000000000000000000000815290519290911691635aa6e67591600480820192602092909190829003018186803b158015611bf957600080fd5b505afa158015611c0d573d6000803e3d6000fd5b505050506040513d6020811015611c2357600080fd5b50516001600160a01b03163314611c3957600080fd5b50565b600c5461010090046001600160a01b031681565b600c60019054906101000a90046001600160a01b03166001600160a01b031663e16c7d987f15fa0125f52e5705da1148bfcf00974823c4381bee4314203ede255f9477b73e6040518263ffffffff1660e01b81526004018082815260200191505060206040518083038186803b158015611cc957600080fd5b505afa158015611cdd573d6000803e3d6000fd5b505050506040513d6020811015611cf357600080fd5b50516040805163d09a20c560e01b81527fd0a4ad96d49edb1c33461cebc6fb2609190f32c904e3c3f5877edb4488dee91e600482015233602482015290516001600160a01b039092169163d09a20c591604480820192600092909190829003018186803b158015611d6357600080fd5b505afa158015611d77573d6000803e3d6000fd5b5050505080600d541415611dd2576040805162461bcd60e51b815260206004820152601260248201527f53616d65207769746864726177616c4665650000000000000000000000000000604482015290519081900360640190fd5b600d805490829055604080518281526020810184905281517f291c528d785ac95f46964a836543fea7be1412dfc51d98e6e937c84aa12a7c6d929181900390910190a15050565b600c60019054906101000a90046001600160a01b03166001600160a01b031663e16c7d987f15fa0125f52e5705da1148bfcf00974823c4381bee4314203ede255f9477b73e6040518263ffffffff1660e01b81526004018082815260200191505060206040518083038186803b158015611e9257600080fd5b505afa158015611ea6573d6000803e3d6000fd5b505050506040513d6020811015611ebc57600080fd5b50516040805163d09a20c560e01b81527fd0a4ad96d49edb1c33461cebc6fb2609190f32c904e3c3f5877edb4488dee91e600482015233602482015290516001600160a01b039092169163d09a20c591604480820192600092909190829003018186803b158015611f2c57600080fd5b505afa158015611f40573d6000803e3d6000fd5b505050506000611f4f30611917565b9050611f5b3082612b8e565b61201430600c60019054906101000a90046001600160a01b03166001600160a01b031663e16c7d987f966f1e8d8d8014e05f6ec4a57138da9be1f7c5a7f802928a18072f7c531807616040518263ffffffff1660e01b81526004018082815260200191505060206040518083038186803b158015611fd857600080fd5b505afa158015611fec573d6000803e3d6000fd5b505050506040513d602081101561200257600080fd5b505161200d84610d5e565b6001612c8a565b5050565b600c60019054906101000a90046001600160a01b03166001600160a01b031663e16c7d987f15fa0125f52e5705da1148bfcf00974823c4381bee4314203ede255f9477b73e6040518263ffffffff1660e01b81526004018082815260200191505060206040518083038186803b15801561209157600080fd5b505afa1580156120a5573d6000803e3d6000fd5b505050506040513d60208110156120bb57600080fd5b50516040805163d09a20c560e01b81527fd0a4ad96d49edb1c33461cebc6fb2609190f32c904e3c3f5877edb4488dee91e600482015233602482015290516001600160a01b039092169163d09a20c591604480820192600092909190829003018186803b15801561212b57600080fd5b505afa15801561213f573d6000803e3d6000fd5b5050505061165f6139e1565b600a546001600160a01b031681565b60006002600b5414156121b4576040805162461bcd60e51b815260206004820152601f60248201527f5265656e7472616e637947756172643a207265656e7472616e742063616c6c00604482015290519081900360640190fd5b6002600b556121c16116a6565b15612206576040805162461bcd60e51b815260206004820152601060248201526f14185d5cd8589b194e881c185d5cd95960821b604482015290519081900360640190fd5b336000908152601260205260409020544311612269576040805162461bcd60e51b815260206004820152601760248201527f4c6f636b656420756e74696c206e65787420626c6f636b000000000000000000604482015290519081900360640190fd5b600c60019054906101000a90046001600160a01b03166001600160a01b031663e16c7d987f15fa0125f52e5705da1148bfcf00974823c4381bee4314203ede255f9477b73e6040518263ffffffff1660e01b81526004018082815260200191505060206040518083038186803b1580156122e257600080fd5b505afa1580156122f6573d6000803e3d6000fd5b505050506040513d602081101561230c57600080fd5b505160408051636da3ea1b60e11b815233600482015290516001600160a01b039092169163db47d43691602480820192600092909190829003018186803b15801561235657600080fd5b505afa15801561236a573d6000803e3d6000fd5b50505050612378823361357a565b6001600b5592915050565b6000611982670de0b6b3a7640000610d5e565b60006119823061108e565b6001600160a01b0387166123fc576040805162461bcd60e51b815260206004820152601160248201527f7065726d69743a207369676e6174757265000000000000000000000000000000604482015290519081900360640190fd5b83421115612451576040805162461bcd60e51b815260206004820152600f60248201527f7065726d69743a20657870697265640000000000000000000000000000000000604482015290519081900360640190fd5b6001600160a01b0380881660008181526008602090815260408083208054600180820190925582517f6e71edae12b1b97f4d1f60370fef10105fa2faae0126114a169c64845d6126c98186015280840196909652958c166060860152608085018b905260a085019590955260c08085018a90528151808603909101815260e0850182528051908301207f19010000000000000000000000000000000000000000000000000000000000006101008601527f000000000000000000000000000000000000000000000000000000000000000061010286015261012280860182905282518087039091018152610142860180845281519185019190912090859052610162860180845281905260ff8a166101828701526101a286018990526101c2860188905291519095919491926101e2808401939192601f1981019281900390910190855afa1580156125a7573d6000803e3d6000fd5b505050602060405103519050896001600160a01b0316816001600160a01b031614612619576040805162461bcd60e51b815260206004820152601460248201527f7065726d69743a20756e617574686f72697a6564000000000000000000000000604482015290519081900360640190fd5b6126248a8a8a61293f565b50505050505050505050565b6001600160a01b03918216600090815260016020908152604080832093909416825291909152205490565b600754600554604080517fe177dc700000000000000000000000000000000000000000000000000000000081526101009092046001600160a01b0390811660048401529051600093919091169163e177dc70916024808301926020929190829003018186803b1580156126cd57600080fd5b505afa1580156126e1573d6000803e3d6000fd5b505050506040513d60208110156126f757600080fd5b5051905090565b60105481565b60055461010090046001600160a01b031681565b600c60019054906101000a90046001600160a01b03166001600160a01b031663e16c7d987f15fa0125f52e5705da1148bfcf00974823c4381bee4314203ede255f9477b73e6040518263ffffffff1660e01b81526004018082815260200191505060206040518083038186803b15801561279157600080fd5b505afa1580156127a5573d6000803e3d6000fd5b505050506040513d60208110156127bb57600080fd5b50516040805163d09a20c560e01b81527fd0a4ad96d49edb1c33461cebc6fb2609190f32c904e3c3f5877edb4488dee91e600482015233602482015290516001600160a01b039092169163d09a20c591604480820192600092909190829003018186803b15801561282b57600080fd5b505afa15801561283f573d6000803e3d6000fd5b5050505080600e54141561289a576040805162461bcd60e51b815260206004820152601260248201527f53616d65206d616e6167656d656e744665650000000000000000000000000000604482015290519081900360640190fd5b600e805490829055604080518281526020810184905281517ffac39c9265fbab8fd6b4293b3f584cb3b1c0c39fb315acbcd4d1bef067c340cd929181900390910190a15050565b600082820183811015610d57576040805162461bcd60e51b815260206004820152601b60248201527f536166654d6174683a206164646974696f6e206f766572666c6f770000000000604482015290519081900360640190fd5b3390565b6001600160a01b0383166129845760405162461bcd60e51b81526004018080602001828103825260248152602001806148b96024913960400191505060405180910390fd5b6001600160a01b0382166129c95760405162461bcd60e51b81526004018080602001828103825260228152602001806147e26022913960400191505060405180910390fd5b6001600160a01b03808416600081815260016020908152604080832094871680845294825291829020859055815185815291517f8c5be1e5ebec7d5bd14f71427d1e84f3dd0314c0f7b2291e5b200ac8c7c3b9259281900390910190a3505050565b6000612a38848484613a6d565b612aa384612a4461293b565b6115028560405180606001604052806028815260200161484b602891396001600160a01b038a16600090815260016020526040812090612a8261293b565b6001600160a01b031681526020810191909152604001600020549190613936565b5060019392505050565b600080612ab8610cbc565b90508015612ad957612ad18161123f85611a0f3061108e565b915050610d6c565b82915050610d6c565b6001600160a01b03166000908152601260205260409020439055565b612b06613bc8565b612b0e613c5c565b42601155565b6000610d6961271061123f600d54856134ba90919063ffffffff16565b600082821115612b88576040805162461bcd60e51b815260206004820152601e60248201527f536166654d6174683a207375627472616374696f6e206f766572666c6f770000604482015290519081900360640190fd5b50900390565b6001600160a01b038216612bd35760405162461bcd60e51b81526004018080602001828103825260218152602001806148736021913960400191505060405180910390fd5b612bdf82600083613cf5565b612c1c816040518060600160405280602281526020016147c0602291396001600160a01b0385166000908152602081905260409020549190613936565b6001600160a01b038316600090815260208190526040902055600254612c429082612b31565b6002556040805182815290516000916001600160a01b038516917fddf252ad1be2c89b69c2b068fc378daa952ba7f163c4a11628f55a4df523b3ef9181900360200190a35050565b600080612c9561265b565b90506060612ca161096e565b9050612cac81613cfa565b60005b815181101561320d5784158015612cea5750826001600160a01b0316828281518110612cd757fe5b60200260200101516001600160a01b0316145b15612cf457613205565b6000828281518110612d0257fe5b60200260200101516001600160a01b03166370a082318a6040518263ffffffff1660e01b815260040180826001600160a01b0316815260200191505060206040518083038186803b158015612d5657600080fd5b505afa158015612d6a573d6000803e3d6000fd5b505050506040513d6020811015612d8057600080fd5b505190506001600160a01b0389163014612e3d57612e3a81848481518110612da457fe5b60200260200101516001600160a01b031663dd62ed3e8c306040518363ffffffff1660e01b815260040180836001600160a01b03168152602001826001600160a01b031681526020019250505060206040518083038186803b158015612e0957600080fd5b505afa158015612e1d573d6000803e3d6000fd5b505050506040513d6020811015612e3357600080fd5b5051613d18565b90505b612e8d81848481518110612e4d57fe5b60200260200101516001600160a01b03166375de29026040518163ffffffff1660e01b815260040160206040518083038186803b158015612e0957600080fd5b90508015613203576001600160a01b0389163014612f4d57828281518110612eb157fe5b60200260200101516001600160a01b03166323b872dd8a30846040518463ffffffff1660e01b815260040180846001600160a01b03168152602001836001600160a01b031681526020018281526020019350505050602060405180830381600087803b158015612f2057600080fd5b505af1158015612f34573d6000803e3d6000fd5b505050506040513d6020811015612f4a57600080fd5b50505b600019871461316f57600061305e848481518110612f6757fe5b60200260200101516001600160a01b03166399530b066040518163ffffffff1660e01b815260040160206040518083038186803b158015612fa757600080fd5b505afa158015612fbb573d6000803e3d6000fd5b505050506040513d6020811015612fd157600080fd5b5051855161123f90879087908110612fe557fe5b60200260200101516001600160a01b031663313ce5676040518163ffffffff1660e01b815260040160206040518083038186803b15801561302557600080fd5b505afa158015613039573d6000803e3d6000fd5b505050506040513d602081101561304f57600080fd5b5051600a0a611a0f8c8b612b31565b905060008111801561306f57508181105b1561310a5761310384848151811061308357fe5b60200260200101516001600160a01b0316632e1a7d4d836040518263ffffffff1660e01b815260040180828152602001915050602060405180830381600087803b1580156130d057600080fd5b505af11580156130e4573d6000803e3d6000fd5b505050506040513d60208110156130fa57600080fd5b505187906128e1565b9550613169565b61316684848151811061311957fe5b60200260200101516001600160a01b0316632e1a7d4d846040518263ffffffff1660e01b815260040180828152602001915050602060405180830381600087803b1580156130d057600080fd5b95505b506131f6565b6131f383838151811061317e57fe5b60200260200101516001600160a01b0316633ccfd60b6040518163ffffffff1660e01b8152600401602060405180830381600087803b1580156131c057600080fd5b505af11580156131d4573d6000803e3d6000fd5b505050506040513d60208110156131ea57600080fd5b505186906128e1565b94505b848711613203575061320d565b505b600101612caf565b50848311801561331e5750613312826001600160a01b031663313ce5676040518163ffffffff1660e01b815260040160206040518083038186803b15801561325457600080fd5b505afa158015613268573d6000803e3d6000fd5b505050506040513d602081101561327e57600080fd5b5051604080517f99530b060000000000000000000000000000000000000000000000000000000081529051600a9290920a916001600160a01b038616916399530b06916004808301926020929190829003018186803b1580156132e057600080fd5b505afa1580156132f4573d6000803e3d6000fd5b505050506040513d602081101561330a57600080fd5b505190613513565b61331c8487612b31565b115b156134665761332d8386612b31565b60055460408051636eb1769f60e11b81523060048201526001600160a01b03868116602483015291516101009093049091169163dd62ed3e91604480820192602092909190829003018186803b15801561338657600080fd5b505afa15801561339a573d6000803e3d6000fd5b505050506040513d60208110156133b057600080fd5b505110156133d6576005546133d69061010090046001600160a01b031683600019613d2e565b6001600160a01b038216636e553f656133ef8588612b31565b896040518363ffffffff1660e01b815260040180838152602001826001600160a01b0316815260200192505050602060405180830381600087803b15801561343657600080fd5b505af115801561344a573d6000803e3d6000fd5b505050506040513d602081101561346057600080fd5b50859350505b6001600160a01b0386163014613492576005546134929061010090046001600160a01b03168785613e5a565b5050949350505050565b6010546134a7612383565b111561165f576134b5612383565b601055565b6000826134c957506000610cb6565b828202828482816134d657fe5b0414610d575760405162461bcd60e51b815260040180806020018281038252602181526020018061482a6021913960400191505060405180910390fd5b6000808211613569576040805162461bcd60e51b815260206004820152601a60248201527f536166654d6174683a206469766973696f6e206279207a65726f000000000000604482015290519081900360640190fd5b81838161357257fe5b049392505050565b600554604080516370a0823160e01b8152336004820152905160009261010090046001600160a01b0316916370a08231916024808301926020929190829003018186803b1580156135ca57600080fd5b505afa1580156135de573d6000803e3d6000fd5b505050506040513d60208110156135f457600080fd5b505183111561364a576040805162461bcd60e51b815260206004820152601460248201527f496e73756666696369656e742062616c616e6365000000000000000000000000604482015290519081900360640190fd5b61365333612ae2565b61365b612afe565b600061366a3330866001613ec5565b9050600061367782614313565b90506136838482614342565b604080518681526020810183905281516001600160a01b038716927f90890809c654f11d6e72a28fa60149770a0d11ec6c92319d6ceb2bb0a4ea1a15928290030190a26136ce61349c565b949350505050565b6000806136e161265b565b90506000816001600160a01b031663ecf708586040518163ffffffff1660e01b815260040160206040518083038186803b15801561371e57600080fd5b505afa158015613732573d6000803e3d6000fd5b505050506040513d602081101561374857600080fd5b5051604080517f01e1d11400000000000000000000000000000000000000000000000000000000815290519192506000916001600160a01b038516916301e1d114916004808301926020929190829003018186803b1580156137a957600080fd5b505afa1580156137bd573d6000803e3d6000fd5b505050506040513d60208110156137d357600080fd5b505190508082116137ea5760009350505050610d57565b85600019831080156137fd575060001981105b1561381e57600061380e8484612b31565b90508082111561381c578091505b505b801561386f5760006138338930846000612c8a565b90508061384857600095505050505050610d57565b613855308a836000613ec5565b9550866138628288612b31565b111561386d57600080fd5b505b505050509392505050565b6138826116a6565b156138c7576040805162461bcd60e51b815260206004820152601060248201526f14185d5cd8589b194e881c185d5cd95960821b604482015290519081900360640190fd5b600c805460ff191660011790557f62e78cea01bee320cd4e420270b5ea74000d11b0c9f74754ebdbfc544b05a2586138fd61293b565b604080516001600160a01b039092168252519081900360200190a1565b6000610d57838360006136d6565b6000610d698260001961391a565b600081848411156139c55760405162461bcd60e51b81526004018080602001828103825283818151815260200191508051906020019080838360005b8381101561398a578181015183820152602001613972565b50505050905090810190601f1680156139b75780820380516001836020036101000a031916815260200191505b509250505060405180910390fd5b505050900390565b6000610cb26139da61293b565b8484613a6d565b6139e96116a6565b613a3a576040805162461bcd60e51b815260206004820152601460248201527f5061757361626c653a206e6f7420706175736564000000000000000000000000604482015290519081900360640190fd5b600c805460ff191690557f5db9ee0a495bf2e6ff9c91a7834c1ba4fdd244a5e8aa4e537bd38aeae4b073aa6138fd61293b565b6001600160a01b038316613ab25760405162461bcd60e51b81526004018080602001828103825260258152602001806148946025913960400191505060405180910390fd5b6001600160a01b038216613af75760405162461bcd60e51b815260040180806020018281038252602381526020018061479d6023913960400191505060405180910390fd5b613b02838383613cf5565b613b3f81604051806060016040528060268152602001614804602691396001600160a01b0386166000908152602081905260409020549190613936565b6001600160a01b038085166000908152602081905260408082209390935590841681522054613b6e90826128e1565b6001600160a01b038084166000818152602081815260409182902094909455805185815290519193928716927fddf252ad1be2c89b69c2b068fc378daa952ba7f163c4a11628f55a4df523b3ef92918290030190a3505050565b6000613be4603c61123f60115442612b3190919063ffffffff16565b90506000613c12613bfa620805206127106134ba565b61123f84611a0f613c09612396565b600e54906134ba565b9050801561201457613c243082614432565b506040805182815290517ff87c0f8ad312d5441c433caa79ac7e44a7c9e1445da8d2aea7b5b7d58de66d3f9181900360200190a15050565b601054613c67612383565b111561165f576000613c83601054613c7d612383565b90612b31565b90506000613cb1670de0b6b3a764000061123f61271061123f613ca4610cbc565b600f54611a0f90896134ba565b9050613cbd3082614432565b506040805182815290517f7d073ff7c6d54f7f4d8fb7912c4f4d37dfab6331775fd876ad8d6bc045df85d79181900360200190a15050565b505050565b60065481511115611c39578051612014906006906020840190614718565b6000818310613d275781610d57565b5090919050565b801580613db4575060408051636eb1769f60e11b81523060048201526001600160a01b03848116602483015291519185169163dd62ed3e91604480820192602092909190829003018186803b158015613d8657600080fd5b505afa158015613d9a573d6000803e3d6000fd5b505050506040513d6020811015613db057600080fd5b5051155b613def5760405162461bcd60e51b81526004018080602001828103825260368152602001806149076036913960400191505060405180910390fd5b604080516001600160a01b038416602482015260448082018490528251808303909101815260649091019091526020810180516001600160e01b03167f095ea7b300000000000000000000000000000000000000000000000000000000179052613cf590849061444a565b604080516001600160a01b038416602482015260448082018490528251808303909101815260649091019091526020810180516001600160e01b03167fa9059cbb00000000000000000000000000000000000000000000000000000000179052613cf590849061444a565b600080613ed061265b565b90508215613faf576000198414613f0357600554613efe9061010090046001600160a01b03168730876144fb565b613faf565b613faf8630600560019054906101000a90046001600160a01b03166001600160a01b03166370a082318a6040518263ffffffff1660e01b815260040180826001600160a01b0316815260200191505060206040518083038186803b158015613f6a57600080fd5b505afa158015613f7e573d6000803e3d6000fd5b505050506040513d6020811015613f9457600080fd5b505160055461010090046001600160a01b03169291906144fb565b60055460408051636eb1769f60e11b81523060048201526001600160a01b0384811660248301529151879361010090049092169163dd62ed3e91604480820192602092909190829003018186803b15801561400957600080fd5b505afa15801561401d573d6000803e3d6000fd5b505050506040513d602081101561403357600080fd5b50511015614076576005546140589061010090046001600160a01b0316826000613d2e565b6005546140769061010090046001600160a01b031682600019613d2e565b600554604080516370a0823160e01b8152306004820152905160009261010090046001600160a01b0316916370a08231916024808301926020929190829003018186803b1580156140c657600080fd5b505afa1580156140da573d6000803e3d6000fd5b505050506040513d60208110156140f057600080fd5b505190506001600160a01b038616301461418d57816001600160a01b0316636e553f6586886040518363ffffffff1660e01b815260040180838152602001826001600160a01b0316815260200192505050602060405180830381600087803b15801561415b57600080fd5b505af115801561416f573d6000803e3d6000fd5b505050506040513d602081101561418557600080fd5b506142449050565b60001985146141dc57816001600160a01b031663b6b55f25866040518263ffffffff1660e01b815260040180828152602001915050602060405180830381600087803b15801561415b57600080fd5b816001600160a01b031663d0e30db06040518163ffffffff1660e01b8152600401602060405180830381600087803b15801561421757600080fd5b505af115801561422b573d6000803e3d6000fd5b505050506040513d602081101561424157600080fd5b50505b600554604080516370a0823160e01b8152306004820152905160009261010090046001600160a01b0316916370a08231916024808301926020929190829003018186803b15801561429457600080fd5b505afa1580156142a8573d6000803e3d6000fd5b505050506040513d60208110156142be57600080fd5b505190506142cc8282612b31565b93506001600160a01b03881630148015906142e75750600081115b15614308576005546143089061010090046001600160a01b03168983613e5a565b505050949350505050565b60008061431f3061108e565b905082811115612ad957612ad16143368285612b31565b61123f85611a0f610cbc565b6001600160a01b03821661439d576040805162461bcd60e51b815260206004820152601f60248201527f45524332303a206d696e7420746f20746865207a65726f206164647265737300604482015290519081900360640190fd5b6143a960008383613cf5565b6002546143b690826128e1565b6002556001600160a01b0382166000908152602081905260409020546143dc90826128e1565b6001600160a01b0383166000818152602081815260408083209490945583518581529351929391927fddf252ad1be2c89b69c2b068fc378daa952ba7f163c4a11628f55a4df523b3ef9281900390910190a35050565b60008061443e83614313565b90506136ce8482614574565b606061449f826040518060400160405280602081526020017f5361666545524332303a206c6f772d6c6576656c2063616c6c206661696c6564815250856001600160a01b03166145869092919063ffffffff16565b805190915015613cf5578080602001905160208110156144be57600080fd5b5051613cf55760405162461bcd60e51b815260040180806020018281038252602a8152602001806148dd602a913960400191505060405180910390fd5b604080516001600160a01b0380861660248301528416604482015260648082018490528251808303909101815260849091019091526020810180516001600160e01b03167f23b872dd0000000000000000000000000000000000000000000000000000000017905261456e90859061444a565b50505050565b60006145808383614342565b50919050565b6060610d5484846000858561459a856146ac565b6145eb576040805162461bcd60e51b815260206004820152601d60248201527f416464726573733a2063616c6c20746f206e6f6e2d636f6e7472616374000000604482015290519081900360640190fd5b60006060866001600160a01b031685876040518082805190602001908083835b6020831061462a5780518252601f19909201916020918201910161460b565b6001836020036101000a03801982511681845116808217855250505050505090500191505060006040518083038185875af1925050503d806000811461468c576040519150601f19603f3d011682016040523d82523d6000602084013e614691565b606091505b50915091506146a18282866146b2565b979650505050505050565b3b151590565b606083156146c1575081610d57565b8251156146d15782518084602001fd5b60405162461bcd60e51b815260206004820181815284516024840152845185939192839260440191908501908083836000831561398a578181015183820152602001613972565b82805482825590600052602060002090810192821561476d579160200282015b8281111561476d57825182546001600160a01b0319166001600160a01b03909116178255602090920191600190910190614738565b5061477992915061477d565b5090565b5b808211156147795780546001600160a01b031916815560010161477e56fe45524332303a207472616e7366657220746f20746865207a65726f206164647265737345524332303a206275726e20616d6f756e7420657863656564732062616c616e636545524332303a20617070726f766520746f20746865207a65726f206164647265737345524332303a207472616e7366657220616d6f756e7420657863656564732062616c616e6365536166654d6174683a206d756c7469706c69636174696f6e206f766572666c6f7745524332303a207472616e7366657220616d6f756e74206578636565647320616c6c6f77616e636545524332303a206275726e2066726f6d20746865207a65726f206164647265737345524332303a207472616e736665722066726f6d20746865207a65726f206164647265737345524332303a20617070726f76652066726f6d20746865207a65726f20616464726573735361666545524332303a204552433230206f7065726174696f6e20646964206e6f7420737563636565645361666545524332303a20617070726f76652066726f6d206e6f6e2d7a65726f20746f206e6f6e2d7a65726f20616c6c6f77616e636545524332303a2064656372656173656420616c6c6f77616e63652062656c6f77207a65726fa2646970667358221220f246b71f9295ec15a4952f1d6ccc2cdd8d6e1fc4c7af59c5c4ccf125deccf2b664736f6c634300060c0033",
  "linkReferences": {},
  "deployedLinkReferences": {}
}