{
  "_format": "hh-sol-artifact-1",
  "contractName": "Pool",
  "sourceName": "contracts/core/defi/pool/Pool.sol",
  "abi": [
    {
      "inputs": [
        {
          "internalType": "address",
          "name": "token_",
          "type": "address"
        },
        {
          "internalType": "address",
          "name": "yearnRegistry_",
          "type": "address"
        },
        {
          "internalType": "contract IContractRegistry",
          "name": "contractRegistry_",
          "type": "address"
        }
      ],
      "stateMutability": "nonpayable",
      "type": "constructor"
    },
    {
      "anonymous": false,
      "inputs": [
        {
          "indexed": true,
          "internalType": "address",
          "name": "owner",
          "type": "address"
        },
        {
          "indexed": true,
          "internalType": "address",
          "name": "spender",
          "type": "address"
        },
        {
          "indexed": false,
          "internalType": "uint256",
          "name": "value",
          "type": "uint256"
        }
      ],
      "name": "Approval",
      "type": "event"
    },
    {
      "anonymous": false,
      "inputs": [
        {
          "indexed": true,
          "internalType": "address",
          "name": "from",
          "type": "address"
        },
        {
          "indexed": false,
          "internalType": "uint256",
          "name": "deposit",
          "type": "uint256"
        },
        {
          "indexed": false,
          "internalType": "uint256",
          "name": "poolTokens",
          "type": "uint256"
        }
      ],
      "name": "Deposit",
      "type": "event"
    },
    {
      "anonymous": false,
      "inputs": [
        {
          "indexed": false,
          "internalType": "uint256",
          "name": "amount",
          "type": "uint256"
        }
      ],
      "name": "ManagementFee",
      "type": "event"
    },
    {
      "anonymous": false,
      "inputs": [
        {
          "indexed": false,
          "internalType": "uint256",
          "name": "previousBps",
          "type": "uint256"
        },
        {
          "indexed": false,
          "internalType": "uint256",
          "name": "newBps",
          "type": "uint256"
        }
      ],
      "name": "ManagementFeeChanged",
      "type": "event"
    },
    {
      "anonymous": false,
      "inputs": [
        {
          "indexed": false,
          "internalType": "address",
          "name": "account",
          "type": "address"
        }
      ],
      "name": "Paused",
      "type": "event"
    },
    {
      "anonymous": false,
      "inputs": [
        {
          "indexed": false,
          "internalType": "uint256",
          "name": "amount",
          "type": "uint256"
        }
      ],
      "name": "PerformanceFee",
      "type": "event"
    },
    {
      "anonymous": false,
      "inputs": [
        {
          "indexed": false,
          "internalType": "uint256",
          "name": "previousBps",
          "type": "uint256"
        },
        {
          "indexed": false,
          "internalType": "uint256",
          "name": "newBps",
          "type": "uint256"
        }
      ],
      "name": "PerformanceFeeChanged",
      "type": "event"
    },
    {
      "anonymous": false,
      "inputs": [
        {
          "indexed": true,
          "internalType": "address",
          "name": "from",
          "type": "address"
        },
        {
          "indexed": true,
          "internalType": "address",
          "name": "to",
          "type": "address"
        },
        {
          "indexed": false,
          "internalType": "uint256",
          "name": "value",
          "type": "uint256"
        }
      ],
      "name": "Transfer",
      "type": "event"
    },
    {
      "anonymous": false,
      "inputs": [
        {
          "indexed": false,
          "internalType": "address",
          "name": "account",
          "type": "address"
        }
      ],
      "name": "Unpaused",
      "type": "event"
    },
    {
      "anonymous": false,
      "inputs": [
        {
          "indexed": true,
          "internalType": "address",
          "name": "to",
          "type": "address"
        },
        {
          "indexed": false,
          "internalType": "uint256",
          "name": "amount",
          "type": "uint256"
        }
      ],
      "name": "Withdrawal",
      "type": "event"
    },
    {
      "anonymous": false,
      "inputs": [
        {
          "indexed": true,
          "internalType": "address",
          "name": "to",
          "type": "address"
        },
        {
          "indexed": false,
          "internalType": "uint256",
          "name": "amount",
          "type": "uint256"
        }
      ],
      "name": "WithdrawalFee",
      "type": "event"
    },
    {
      "anonymous": false,
      "inputs": [
        {
          "indexed": false,
          "internalType": "uint256",
          "name": "previousBps",
          "type": "uint256"
        },
        {
          "indexed": false,
          "internalType": "uint256",
          "name": "newBps",
          "type": "uint256"
        }
      ],
      "name": "WithdrawalFeeChanged",
      "type": "event"
    },
    {
      "inputs": [],
      "name": "DOMAIN_SEPARATOR",
      "outputs": [
        {
          "internalType": "bytes32",
          "name": "",
          "type": "bytes32"
        }
      ],
      "stateMutability": "view",
      "type": "function"
    },
    {
      "inputs": [],
      "name": "DOMAIN_TYPEHASH",
      "outputs": [
        {
          "internalType": "bytes32",
          "name": "",
          "type": "bytes32"
        }
      ],
      "stateMutability": "view",
      "type": "function"
    },
    {
      "inputs": [],
      "name": "PERMIT_TYPEHASH",
      "outputs": [
        {
          "internalType": "bytes32",
          "name": "",
          "type": "bytes32"
        }
      ],
      "stateMutability": "view",
      "type": "function"
    },
    {
      "inputs": [],
      "name": "acceptAffiliate",
      "outputs": [],
      "stateMutability": "nonpayable",
      "type": "function"
    },
    {
      "inputs": [],
      "name": "affiliate",
      "outputs": [
        {
          "internalType": "address",
          "name": "",
          "type": "address"
        }
      ],
      "stateMutability": "view",
      "type": "function"
    },
    {
      "inputs": [],
      "name": "allVaults",
      "outputs": [
        {
          "internalType": "contract VaultAPI[]",
          "name": "",
          "type": "address[]"
        }
      ],
      "stateMutability": "view",
      "type": "function"
    },
    {
      "inputs": [
        {
          "internalType": "address",
          "name": "owner",
          "type": "address"
        },
        {
          "internalType": "address",
          "name": "spender",
          "type": "address"
        }
      ],
      "name": "allowance",
      "outputs": [
        {
          "internalType": "uint256",
          "name": "",
          "type": "uint256"
        }
      ],
      "stateMutability": "view",
      "type": "function"
    },
    {
      "inputs": [
        {
          "internalType": "address",
          "name": "spender",
          "type": "address"
        },
        {
          "internalType": "uint256",
          "name": "amount",
          "type": "uint256"
        }
      ],
      "name": "approve",
      "outputs": [
        {
          "internalType": "bool",
          "name": "",
          "type": "bool"
        }
      ],
      "stateMutability": "nonpayable",
      "type": "function"
    },
    {
      "inputs": [
        {
          "internalType": "address",
          "name": "account",
          "type": "address"
        }
      ],
      "name": "balanceOf",
      "outputs": [
        {
          "internalType": "uint256",
          "name": "",
          "type": "uint256"
        }
      ],
      "stateMutability": "view",
      "type": "function"
    },
    {
      "inputs": [],
      "name": "bestVault",
      "outputs": [
        {
          "internalType": "contract VaultAPI",
          "name": "",
          "type": "address"
        }
      ],
      "stateMutability": "view",
      "type": "function"
    },
    {
      "inputs": [
        {
          "internalType": "address",
          "name": "",
          "type": "address"
        }
      ],
      "name": "blockLocks",
      "outputs": [
        {
          "internalType": "uint256",
          "name": "",
          "type": "uint256"
        }
      ],
      "stateMutability": "view",
      "type": "function"
    },
    {
      "inputs": [],
      "name": "contractRegistry",
      "outputs": [
        {
          "internalType": "contract IContractRegistry",
          "name": "",
          "type": "address"
        }
      ],
      "stateMutability": "view",
      "type": "function"
    },
    {
      "inputs": [],
      "name": "decimals",
      "outputs": [
        {
          "internalType": "uint8",
          "name": "",
          "type": "uint8"
        }
      ],
      "stateMutability": "view",
      "type": "function"
    },
    {
      "inputs": [
        {
          "internalType": "address",
          "name": "spender",
          "type": "address"
        },
        {
          "internalType": "uint256",
          "name": "subtractedValue",
          "type": "uint256"
        }
      ],
      "name": "decreaseAllowance",
      "outputs": [
        {
          "internalType": "bool",
          "name": "",
          "type": "bool"
        }
      ],
      "stateMutability": "nonpayable",
      "type": "function"
    },
    {
      "inputs": [
        {
          "internalType": "uint256",
          "name": "amount",
          "type": "uint256"
        }
      ],
      "name": "deposit",
      "outputs": [
        {
          "internalType": "uint256",
          "name": "",
          "type": "uint256"
        }
      ],
      "stateMutability": "nonpayable",
      "type": "function"
    },
    {
      "inputs": [
        {
          "internalType": "uint256",
          "name": "amount",
          "type": "uint256"
        },
        {
          "internalType": "address",
          "name": "recipient",
          "type": "address"
        }
      ],
      "name": "depositFor",
      "outputs": [
        {
          "internalType": "uint256",
          "name": "",
          "type": "uint256"
        }
      ],
      "stateMutability": "nonpayable",
      "type": "function"
    },
    {
      "inputs": [],
      "name": "feesUpdatedAt",
      "outputs": [
        {
          "internalType": "uint256",
          "name": "",
          "type": "uint256"
        }
      ],
      "stateMutability": "view",
      "type": "function"
    },
    {
      "inputs": [
        {
          "internalType": "address",
          "name": "spender",
          "type": "address"
        },
        {
          "internalType": "uint256",
          "name": "addedValue",
          "type": "uint256"
        }
      ],
      "name": "increaseAllowance",
      "outputs": [
        {
          "internalType": "bool",
          "name": "",
          "type": "bool"
        }
      ],
      "stateMutability": "nonpayable",
      "type": "function"
    },
    {
      "inputs": [],
      "name": "managementFee",
      "outputs": [
        {
          "internalType": "uint256",
          "name": "",
          "type": "uint256"
        }
      ],
      "stateMutability": "view",
      "type": "function"
    },
    {
      "inputs": [
        {
          "internalType": "uint256",
          "name": "amount",
          "type": "uint256"
        },
        {
          "internalType": "uint256",
          "name": "maxMigrationLoss",
          "type": "uint256"
        }
      ],
      "name": "migrate",
      "outputs": [
        {
          "internalType": "uint256",
          "name": "",
          "type": "uint256"
        }
      ],
      "stateMutability": "nonpayable",
      "type": "function"
    },
    {
      "inputs": [
        {
          "internalType": "uint256",
          "name": "amount",
          "type": "uint256"
        }
      ],
      "name": "migrate",
      "outputs": [
        {
          "internalType": "uint256",
          "name": "",
          "type": "uint256"
        }
      ],
      "stateMutability": "nonpayable",
      "type": "function"
    },
    {
      "inputs": [],
      "name": "migrate",
      "outputs": [
        {
          "internalType": "uint256",
          "name": "",
          "type": "uint256"
        }
      ],
      "stateMutability": "nonpayable",
      "type": "function"
    },
    {
      "inputs": [],
      "name": "name",
      "outputs": [
        {
          "internalType": "string",
          "name": "",
          "type": "string"
        }
      ],
      "stateMutability": "view",
      "type": "function"
    },
    {
      "inputs": [
        {
          "internalType": "address",
          "name": "",
          "type": "address"
        }
      ],
      "name": "nonces",
      "outputs": [
        {
          "internalType": "uint256",
          "name": "",
          "type": "uint256"
        }
      ],
      "stateMutability": "view",
      "type": "function"
    },
    {
      "inputs": [],
      "name": "pauseContract",
      "outputs": [],
      "stateMutability": "nonpayable",
      "type": "function"
    },
    {
      "inputs": [],
      "name": "paused",
      "outputs": [
        {
          "internalType": "bool",
          "name": "",
          "type": "bool"
        }
      ],
      "stateMutability": "view",
      "type": "function"
    },
    {
      "inputs": [],
      "name": "pendingAffiliate",
      "outputs": [
        {
          "internalType": "address",
          "name": "",
          "type": "address"
        }
      ],
      "stateMutability": "view",
      "type": "function"
    },
    {
      "inputs": [],
      "name": "performanceFee",
      "outputs": [
        {
          "internalType": "uint256",
          "name": "",
          "type": "uint256"
        }
      ],
      "stateMutability": "view",
      "type": "function"
    },
    {
      "inputs": [
        {
          "internalType": "address",
          "name": "owner",
          "type": "address"
        },
        {
          "internalType": "address",
          "name": "spender",
          "type": "address"
        },
        {
          "internalType": "uint256",
          "name": "amount",
          "type": "uint256"
        },
        {
          "internalType": "uint256",
          "name": "deadline",
          "type": "uint256"
        },
        {
          "internalType": "uint8",
          "name": "v",
          "type": "uint8"
        },
        {
          "internalType": "bytes32",
          "name": "r",
          "type": "bytes32"
        },
        {
          "internalType": "bytes32",
          "name": "s",
          "type": "bytes32"
        }
      ],
      "name": "permit",
      "outputs": [],
      "stateMutability": "nonpayable",
      "type": "function"
    },
    {
      "inputs": [],
      "name": "poolTokenHWM",
      "outputs": [
        {
          "internalType": "uint256",
          "name": "",
          "type": "uint256"
        }
      ],
      "stateMutability": "view",
      "type": "function"
    },
    {
      "inputs": [],
      "name": "pricePerPoolToken",
      "outputs": [
        {
          "internalType": "uint256",
          "name": "",
          "type": "uint256"
        }
      ],
      "stateMutability": "view",
      "type": "function"
    },
    {
      "inputs": [],
      "name": "pricePerShare",
      "outputs": [
        {
          "internalType": "uint256",
          "name": "",
          "type": "uint256"
        }
      ],
      "stateMutability": "view",
      "type": "function"
    },
    {
      "inputs": [],
      "name": "registry",
      "outputs": [
        {
          "internalType": "contract RegistryAPI",
          "name": "",
          "type": "address"
        }
      ],
      "stateMutability": "view",
      "type": "function"
    },
    {
      "inputs": [
        {
          "internalType": "address",
          "name": "_affiliate",
          "type": "address"
        }
      ],
      "name": "setAffiliate",
      "outputs": [],
      "stateMutability": "nonpayable",
      "type": "function"
    },
    {
      "inputs": [
        {
          "internalType": "uint256",
          "name": "managementFee_",
          "type": "uint256"
        }
      ],
      "name": "setManagementFee",
      "outputs": [],
      "stateMutability": "nonpayable",
      "type": "function"
    },
    {
      "inputs": [
        {
          "internalType": "uint256",
          "name": "performanceFee_",
          "type": "uint256"
        }
      ],
      "name": "setPerformanceFee",
      "outputs": [],
      "stateMutability": "nonpayable",
      "type": "function"
    },
    {
      "inputs": [
        {
          "internalType": "address",
          "name": "_registry",
          "type": "address"
        }
      ],
      "name": "setRegistry",
      "outputs": [],
      "stateMutability": "nonpayable",
      "type": "function"
    },
    {
      "inputs": [
        {
          "internalType": "uint256",
          "name": "withdrawalFee_",
          "type": "uint256"
        }
      ],
      "name": "setWithdrawalFee",
      "outputs": [],
      "stateMutability": "nonpayable",
      "type": "function"
    },
    {
      "inputs": [],
      "name": "symbol",
      "outputs": [
        {
          "internalType": "string",
          "name": "",
          "type": "string"
        }
      ],
      "stateMutability": "view",
      "type": "function"
    },
    {
      "inputs": [],
      "name": "takeFees",
      "outputs": [],
      "stateMutability": "nonpayable",
      "type": "function"
    },
    {
      "inputs": [],
      "name": "token",
      "outputs": [
        {
          "internalType": "contract IERC20",
          "name": "",
          "type": "address"
        }
      ],
      "stateMutability": "view",
      "type": "function"
    },
    {
      "inputs": [],
      "name": "totalAssets",
      "outputs": [
        {
          "internalType": "uint256",
          "name": "assets",
          "type": "uint256"
        }
      ],
      "stateMutability": "view",
      "type": "function"
    },
    {
      "inputs": [],
      "name": "totalSupply",
      "outputs": [
        {
          "internalType": "uint256",
          "name": "",
          "type": "uint256"
        }
      ],
      "stateMutability": "view",
      "type": "function"
    },
    {
      "inputs": [],
      "name": "totalValue",
      "outputs": [
        {
          "internalType": "uint256",
          "name": "",
          "type": "uint256"
        }
      ],
      "stateMutability": "view",
      "type": "function"
    },
    {
      "inputs": [
        {
          "internalType": "address",
          "name": "account",
          "type": "address"
        }
      ],
      "name": "totalVaultBalance",
      "outputs": [
        {
          "internalType": "uint256",
          "name": "balance",
          "type": "uint256"
        }
      ],
      "stateMutability": "view",
      "type": "function"
    },
    {
      "inputs": [
        {
          "internalType": "address",
          "name": "recipient",
          "type": "address"
        },
        {
          "internalType": "uint256",
          "name": "amount",
          "type": "uint256"
        }
      ],
      "name": "transfer",
      "outputs": [
        {
          "internalType": "bool",
          "name": "",
          "type": "bool"
        }
      ],
      "stateMutability": "nonpayable",
      "type": "function"
    },
    {
      "inputs": [
        {
          "internalType": "address",
          "name": "sender",
          "type": "address"
        },
        {
          "internalType": "address",
          "name": "recipient",
          "type": "address"
        },
        {
          "internalType": "uint256",
          "name": "amount",
          "type": "uint256"
        }
      ],
      "name": "transferFrom",
      "outputs": [
        {
          "internalType": "bool",
          "name": "",
          "type": "bool"
        }
      ],
      "stateMutability": "nonpayable",
      "type": "function"
    },
    {
      "inputs": [],
      "name": "unpauseContract",
      "outputs": [],
      "stateMutability": "nonpayable",
      "type": "function"
    },
    {
      "inputs": [
        {
          "internalType": "uint256",
          "name": "poolTokens",
          "type": "uint256"
        }
      ],
      "name": "valueFor",
      "outputs": [
        {
          "internalType": "uint256",
          "name": "",
          "type": "uint256"
        }
      ],
      "stateMutability": "view",
      "type": "function"
    },
    {
      "inputs": [
        {
          "internalType": "uint256",
          "name": "amount",
          "type": "uint256"
        }
      ],
      "name": "withdraw",
      "outputs": [
        {
          "internalType": "uint256",
          "name": "",
          "type": "uint256"
        }
      ],
      "stateMutability": "nonpayable",
      "type": "function"
    },
    {
      "inputs": [],
      "name": "withdrawAccruedFees",
      "outputs": [],
      "stateMutability": "nonpayable",
      "type": "function"
    },
    {
      "inputs": [],
      "name": "withdrawalFee",
      "outputs": [
        {
          "internalType": "uint256",
          "name": "",
          "type": "uint256"
        }
      ],
      "stateMutability": "view",
      "type": "function"
    }
  ],
  "bytecode": "0x60a06040526032600d5560c8600e556107d0600f55670de0b6b3a76400006010553480156200002d57600080fd5b50604051620051ca380380620051ca833981810160405260608110156200005357600080fd5b508051602082015160409283015183516306fdde0360e01b81529351929391929091849184916001600160a01b038416916306fdde0391600480820192600092909190829003018186803b158015620000ab57600080fd5b505afa158015620000c0573d6000803e3d6000fd5b505050506040513d6000823e601f3d908101601f191682016040526020811015620000ea57600080fd5b81019080805160405193929190846401000000008211156200010b57600080fd5b9083019060208201858111156200012157600080fd5b82516401000000008111828201881017156200013c57600080fd5b82525081516020918201929091019080838360005b838110156200016b57818101518382015260200162000151565b50505050905090810190601f168015620001995780820380516001836020036101000a031916815260200191505b5060405250505060405160200180806702837b831b7b937160c51b81525060080182805190602001908083835b60208310620001e75780518252601f199092019160209182019101620001c6565b6001836020036101000a038019825116818451168082178552505050505050905001806408141bdbdb60da1b815250600501915050604051602081830303815290604052856001600160a01b03166395d89b416040518163ffffffff1660e01b815260040160006040518083038186803b1580156200026557600080fd5b505afa1580156200027a573d6000803e3d6000fd5b505050506040513d6000823e601f3d908101601f191682016040526020811015620002a457600080fd5b8101908080516040519392919084640100000000821115620002c557600080fd5b908301906020820185811115620002db57600080fd5b8251640100000000811182820188101715620002f657600080fd5b82525081516020918201929091019080838360005b83811015620003255781810151838201526020016200030b565b50505050905090810190601f168015620003535780820380516001836020036101000a031916815260200191505b506040525050506040516020018080620706f760ec1b81525060030182805190602001908083835b602083106200039c5780518252601f1990920191602091820191016200037b565b6001836020036101000a038019825116818451168082178552505050505050905001915050604051602081830303815290604052838383838160039080519060200190620003ec92919062000616565b5080516200040290600490602084019062000616565b505060058054601260ff1990911617610100600160a81b0319166101006001600160a01b039586160217905550600780546001600160a01b0319169190921617905581516020808401919091206040805180820190915260018152603160f81b9201919091527f8b73c3c69bb8fe3d512ecc4cf759cc79239f7b179b0ffacaa9a75d522b39400f907fc89efdaa54c0f20c7adf612882df0950f5a951637e0307cdcb4c672f298b8bc6620004b5620005fc565b604080516020808201969096528082019490945260608401929092526080808401919091523060a0808501919091528251808503909101815260c08401808452815191860191909120909152600980546001600160a01b0319163317905560055463313ce56760e01b90915290516200058f936101009092046001600160a01b03169263313ce5679260c4808301939192829003018186803b1580156200055b57600080fd5b505afa15801562000570573d6000803e3d6000fd5b505050506040513d60208110156200058757600080fd5b505162000600565b50506001600b555050600c805460ff191690556001600160a01b038216620005b657600080fd5b6001600160a01b038316620005ca57600080fd5b600c80546001600160a01b0390921661010002610100600160a81b0319909216919091179055505042601155620006b2565b4690565b6005805460ff191660ff92909216919091179055565b828054600181600116156101000203166002900490600052602060002090601f016020900481019282601f106200065957805160ff191683800117855562000689565b8280016001018555821562000689579182015b82811115620006895782518255916020019190600101906200066c565b50620006979291506200069b565b5090565b5b808211156200069757600081556001016200069c565b608051614af8620006d26000398061126852806127905250614af86000f3fe608060405234801561001057600080fd5b506004361061034c5760003560e01c80637b103999116101bd578063ac1e5025116100f9578063d4c3eea0116100a2578063e95b2de81161007c578063e95b2de81461088e578063fb18eedc14610896578063fc0c546a1461089e578063fe56e232146108a65761034c565b8063d4c3eea014610807578063d505accf1461080f578063dd62ed3e146108605761034c565b8063b38a440e116100d3578063b38a440e146107da578063b6b55f25146107e2578063c0d94193146107ff5761034c565b8063ac1e5025146107ad578063ada82c7d146107ca578063b33712c5146107d25761034c565b806399530b0611610166578063a6f7f5d611610140578063a6f7f5d61461074b578063a9059cbb14610753578063a91ee0dc1461077f578063abf410e5146107a55761034c565b806399530b061461070f5780639f3d0a4814610717578063a457c2d71461071f5761034c565b80638bc7e8c4116101975780638bc7e8c4146106f75780638fd3ab80146106ff57806395d89b41146107075761034c565b80637b103999146106c15780637ecebe00146106c957806387788782146106ef5761034c565b80633644e5151161028c57806345c53fba116102355780635dd912f51161020f5780635dd912f51461066e5780636c31b5f01461067657806370897b231461067e57806370a082311461069b5761034c565b806345c53fba1461061c57806345e05f43146106425780635c975abb146106665761034c565b80633e54bacb116102665780633e54bacb146105d4578063439766ce146105f7578063454b0608146105ff5761034c565b80633644e5151461057457806336efd16f1461057c57806339509351146105a85761034c565b806323b872dd116102f95780632e1a7d4d116102d35780632e1a7d4d1461050b57806330adf81f1461052857806330e5065e14610530578063313ce567146105565761034c565b806323b872dd146104905780632b0cc6a7146104c65780632bbb56d9146104e35761034c565b8063095ea7b31161032a578063095ea7b31461044057806318160ddd1461048057806320606b70146104885761034c565b806301e1d11414610351578063063effeb1461036b57806306fdde03146103c3575b600080fd5b6103596108c3565b60408051918252519081900360200190f35b61037361096e565b60408051602080825283518183015283519192839290830191858101910280838360005b838110156103af578181015183820152602001610397565b505050509050019250505060405180910390f35b6103cb610c08565b6040805160208082528351818301528351919283929083019185019080838360005b838110156104055781810151838201526020016103ed565b50505050905090810190601f1680156104325780820380516001836020036101000a031916815260200191505b509250505060405180910390f35b61046c6004803603604081101561045657600080fd5b506001600160a01b038135169060200135610c9e565b604080519115158252519081900360200190f35b610359610cbc565b610359610cc2565b61046c600480360360608110156104a657600080fd5b506001600160a01b03813581169160208101359091169060400135610ce6565b610359600480360360208110156104dc57600080fd5b5035610d5e565b610509600480360360208110156104f957600080fd5b50356001600160a01b0316610d71565b005b6103596004803603602081101561052157600080fd5b5035610daa565b61035961106a565b6103596004803603602081101561054657600080fd5b50356001600160a01b031661108e565b61055e61125d565b6040805160ff9092168252519081900360200190f35b610359611266565b6103596004803603604081101561059257600080fd5b50803590602001356001600160a01b031661128a565b61046c600480360360408110156105be57600080fd5b506001600160a01b0381351690602001356115fe565b610359600480360360408110156105ea57600080fd5b5080359060200135611651565b610509611676565b6103596004803603602081101561061557600080fd5b50356117ab565b6103596004803603602081101561063257600080fd5b50356001600160a01b03166117cf565b61064a6117e1565b604080516001600160a01b039092168252519081900360200190f35b61046c6117f0565b6105096117f9565b61050961186d565b6105096004803603602081101561069457600080fd5b5035611898565b610359600480360360208110156106b157600080fd5b50356001600160a01b0316611a61565b61064a611a7c565b610359600480360360208110156106df57600080fd5b50356001600160a01b0316611a8b565b610359611a9d565b610359611aa3565b610359611aa9565b6103cb611ad1565b610359611b32565b610359611b5f565b61046c6004803603604081101561073557600080fd5b506001600160a01b038135169060200135611b65565b610359611bcd565b61046c6004803603604081101561076957600080fd5b506001600160a01b038135169060200135611bd3565b6105096004803603602081101561079557600080fd5b50356001600160a01b0316611c40565b61064a611d86565b610509600480360360208110156107c357600080fd5b5035611d9a565b610509611f63565b610509612162565b61064a612295565b610359600480360360208110156107f857600080fd5b50356122a4565b610359612610565b610359612623565b610509600480360360e081101561082557600080fd5b506001600160a01b03813581169160208101359091169060408101359060608101359060ff6080820135169060a08101359060c0013561262e565b6103596004803603604081101561087657600080fd5b506001600160a01b03813581169160200135166128bd565b61064a6128e8565b61035961298b565b61064a612991565b610509600480360360208110156108bc57600080fd5b50356129a5565b600060606108cf61096e565b905060005b81518110156109695761095f8282815181106108ec57fe5b60200260200101516001600160a01b03166301e1d1146040518163ffffffff1660e01b815260040160206040518083038186803b15801561092c57600080fd5b505afa158015610940573d6000803e3d6000fd5b505050506040513d602081101561095657600080fd5b50518490612b6e565b92506001016108d4565b505090565b600654600754600554604080517ff9c7bba50000000000000000000000000000000000000000000000000000000081526001600160a01b0361010090930483166004820152905160609493600093169163f9c7bba5916024808301926020929190829003018186803b1580156109e357600080fd5b505afa1580156109f7573d6000803e3d6000fd5b505050506040513d6020811015610a0d57600080fd5b5051905081811415610a7d576006805480602002602001604051908101604052809291908181526020018280548015610a6f57602002820191906000526020600020905b81546001600160a01b03168152600190910190602001808311610a51575b505050505092505050610c05565b60608167ffffffffffffffff81118015610a9657600080fd5b50604051908082528060200260200182016040528015610ac0578160200160208202803683370190505b50905060005b83811015610b255760068181548110610adb57fe5b9060005260206000200160009054906101000a90046001600160a01b0316828281518110610b0557fe5b6001600160a01b0390921660209283029190910190910152600101610ac6565b50825b82811015610bff57600754600554604080517f7bbfc69e0000000000000000000000000000000000000000000000000000000081526101009092046001600160a01b039081166004840152602483018590529051921691637bbfc69e91604480820192602092909190829003018186803b158015610ba557600080fd5b505afa158015610bb9573d6000803e3d6000fd5b505050506040513d6020811015610bcf57600080fd5b50518251839083908110610bdf57fe5b6001600160a01b0390921660209283029190910190910152600101610b28565b50925050505b90565b60038054604080516020601f6002600019610100600188161502019095169490940493840181900481028201810190925282815260609390929091830182828015610c945780601f10610c6957610100808354040283529160200191610c94565b820191906000526020600020905b815481529060010190602001808311610c7757829003601f168201915b5050505050905090565b6000610cb2610cab612bc8565b8484612bcc565b5060015b92915050565b60025490565b7f8b73c3c69bb8fe3d512ecc4cf759cc79239f7b179b0ffacaa9a75d522b39400f81565b336000908152601260205260408120544311610d49576040805162461bcd60e51b815260206004820152601760248201527f4c6f636b656420756e74696c206e65787420626c6f636b000000000000000000604482015290519081900360640190fd5b610d54848484612cb8565b90505b9392505050565b6000610d6982612d3a565b90505b919050565b6009546001600160a01b03163314610d8857600080fd5b600a80546001600160a01b0319166001600160a01b0392909216919091179055565b60006002600b541415610e04576040805162461bcd60e51b815260206004820152601f60248201527f5265656e7472616e637947756172643a207265656e7472616e742063616c6c00604482015290519081900360640190fd5b6002600b55336000908152601260205260409020544311610e6c576040805162461bcd60e51b815260206004820152601760248201527f4c6f636b656420756e74696c206e65787420626c6f636b000000000000000000604482015290519081900360640190fd5b610e7533611a61565b821115610ec9576040805162461bcd60e51b815260206004820152601f60248201527f496e73756666696369656e7420706f6f6c20746f6b656e2062616c616e636500604482015290519081900360640190fd5b610ed233612d75565b610eda612d91565b6000610ee583612da7565b90506000610ef38483612dc4565b90506000610f0083610d5e565b90506000610f0d83610d5e565b90506000600c60019054906101000a90046001600160a01b03166001600160a01b031663e16c7d987f966f1e8d8d8014e05f6ec4a57138da9be1f7c5a7f802928a18072f7c531807616040518263ffffffff1660e01b81526004018082815260200191505060206040518083038186803b158015610f8a57600080fd5b505afa158015610f9e573d6000803e3d6000fd5b505050506040513d6020811015610fb457600080fd5b50519050610fc23388612e21565b610fcf3033846001612f1d565b50610fdd3082856001612f1d565b506040805184815290516001600160a01b038316917fc18340ba98721bcff47f10f30da90ced66f2b96b9afed4cbdf4e0184b4a70469919081900360200190a260408051838152905133917f7fcf532c15f0a6db0bd6d0e038bea71d30d808c7d98cb3bf7268a95bf5081b65919081900360200190a261105b61372f565b506001600b5595945050505050565b7f6e71edae12b1b97f4d1f60370fef10105fa2faae0126114a169c64845d6126c981565b6000606061109a61096e565b905060005b81518110156112565761124c6112458383815181106110ba57fe5b60200260200101516001600160a01b031663313ce5676040518163ffffffff1660e01b815260040160206040518083038186803b1580156110fa57600080fd5b505afa15801561110e573d6000803e3d6000fd5b505050506040513d602081101561112457600080fd5b50518451600a9190910a9061123f9086908690811061113f57fe5b60200260200101516001600160a01b03166399530b066040518163ffffffff1660e01b815260040160206040518083038186803b15801561117f57600080fd5b505afa158015611193573d6000803e3d6000fd5b505050506040513d60208110156111a957600080fd5b505186518790879081106111b957fe5b60200260200101516001600160a01b03166370a082318a6040518263ffffffff1660e01b815260040180826001600160a01b0316815260200191505060206040518083038186803b15801561120d57600080fd5b505afa158015611221573d6000803e3d6000fd5b505050506040513d602081101561123757600080fd5b50519061374d565b906137a6565b8490612b6e565b925060010161109f565b5050919050565b60055460ff1690565b7f000000000000000000000000000000000000000000000000000000000000000081565b60006002600b5414156112e4576040805162461bcd60e51b815260206004820152601f60248201527f5265656e7472616e637947756172643a207265656e7472616e742063616c6c00604482015290519081900360640190fd5b6002600b556112f16117f0565b15611336576040805162461bcd60e51b815260206004820152601060248201526f14185d5cd8589b194e881c185d5cd95960821b604482015290519081900360640190fd5b336000908152601260205260409020544311611399576040805162461bcd60e51b815260206004820152601760248201527f4c6f636b656420756e74696c206e65787420626c6f636b000000000000000000604482015290519081900360640190fd5b600c60019054906101000a90046001600160a01b03166001600160a01b031663e16c7d987f15fa0125f52e5705da1148bfcf00974823c4381bee4314203ede255f9477b73e6040518263ffffffff1660e01b81526004018082815260200191505060206040518083038186803b15801561141257600080fd5b505afa158015611426573d6000803e3d6000fd5b505050506040513d602081101561143c57600080fd5b505160408051636da3ea1b60e11b815233600482015290516001600160a01b039092169163db47d43691602480820192600092909190829003018186803b15801561148657600080fd5b505afa15801561149a573d6000803e3d6000fd5b5050600554604080516370a0823160e01b815233600482015290516101009092046001600160a01b031693506370a082319250602480820192602092909190829003018186803b1580156114ed57600080fd5b505afa158015611501573d6000803e3d6000fd5b505050506040513d602081101561151757600080fd5b505183111561156d576040805162461bcd60e51b815260206004820152601460248201527f496e73756666696369656e742062616c616e6365000000000000000000000000604482015290519081900360640190fd5b61157633612d75565b61157e612d91565b600061158d333086600161380d565b9050600061159a82613c5b565b90506115a68482613c8a565b604080518681526020810183905281516001600160a01b038716927f90890809c654f11d6e72a28fa60149770a0d11ec6c92319d6ceb2bb0a4ea1a15928290030190a26115f161372f565b6001600b55949350505050565b6000610cb261160b612bc8565b8461164c856001600061161c612bc8565b6001600160a01b03908116825260208083019390935260409182016000908120918c168152925290205490612b6e565b612bcc565b6009546000906001600160a01b0316331461166b57600080fd5b610d57308484613d7a565b600c60019054906101000a90046001600160a01b03166001600160a01b031663e16c7d987f15fa0125f52e5705da1148bfcf00974823c4381bee4314203ede255f9477b73e6040518263ffffffff1660e01b81526004018082815260200191505060206040518083038186803b1580156116ef57600080fd5b505afa158015611703573d6000803e3d6000fd5b505050506040513d602081101561171957600080fd5b50516040805163d09a20c560e01b81527fd0a4ad96d49edb1c33461cebc6fb2609190f32c904e3c3f5877edb4488dee91e600482015233602482015290516001600160a01b039092169163d09a20c591604480820192600092909190829003018186803b15801561178957600080fd5b505afa15801561179d573d6000803e3d6000fd5b505050506117a9613f1e565b565b6009546000906001600160a01b031633146117c557600080fd5b610d693083613fbe565b60126020526000908152604090205481565b6009546001600160a01b031681565b600c5460ff1690565b6002600b541415611851576040805162461bcd60e51b815260206004820152601f60248201527f5265656e7472616e637947756172643a207265656e7472616e742063616c6c00604482015290519081900360640190fd5b6002600b5561185e612d91565b61186661372f565b6001600b55565b600a546001600160a01b0316331461188457600080fd5b600980546001600160a01b03191633179055565b600c60019054906101000a90046001600160a01b03166001600160a01b031663e16c7d987f15fa0125f52e5705da1148bfcf00974823c4381bee4314203ede255f9477b73e6040518263ffffffff1660e01b81526004018082815260200191505060206040518083038186803b15801561191157600080fd5b505afa158015611925573d6000803e3d6000fd5b505050506040513d602081101561193b57600080fd5b50516040805163d09a20c560e01b81527fd0a4ad96d49edb1c33461cebc6fb2609190f32c904e3c3f5877edb4488dee91e600482015233602482015290516001600160a01b039092169163d09a20c591604480820192600092909190829003018186803b1580156119ab57600080fd5b505afa1580156119bf573d6000803e3d6000fd5b5050505080600f541415611a1a576040805162461bcd60e51b815260206004820152601360248201527f53616d6520706572666f726d616e636546656500000000000000000000000000604482015290519081900360640190fd5b600f805490829055604080518281526020810184905281517f44e5243903d4f21681121bff9dd91691edc7fa0b9d87cc40d6d65f1755a9b1b3929181900390910190a15050565b6001600160a01b031660009081526020819052604090205490565b6007546001600160a01b031681565b60086020526000908152604090205481565b600f5481565b600d5481565b6009546000906001600160a01b03163314611ac357600080fd5b611acc30613fcc565b905090565b60048054604080516020601f6002600019610100600188161502019095169490940493840181900481028201810190925282815260609390929091830182828015610c945780601f10610c6957610100808354040283529160200191610c94565b6000611acc611b3f610cbc565b61123f611b4a61125d565b60ff16600a0a611b593061108e565b9061374d565b60115481565b6000610cb2611b72612bc8565b8461164c85604051806060016040528060258152602001614a9e6025913960016000611b9c612bc8565b6001600160a01b03908116825260208083019390935260409182016000908120918d16815292529020549190613fda565b600e5481565b336000908152601260205260408120544311611c36576040805162461bcd60e51b815260206004820152601760248201527f4c6f636b656420756e74696c206e65787420626c6f636b000000000000000000604482015290519081900360640190fd5b610d578383614071565b600760009054906101000a90046001600160a01b03166001600160a01b0316635aa6e6756040518163ffffffff1660e01b815260040160206040518083038186803b158015611c8e57600080fd5b505afa158015611ca2573d6000803e3d6000fd5b505050506040513d6020811015611cb857600080fd5b50516001600160a01b03163314611cce57600080fd5b600780546001600160a01b0319166001600160a01b038381169190911791829055604080517f5aa6e67500000000000000000000000000000000000000000000000000000000815290519290911691635aa6e67591600480820192602092909190829003018186803b158015611d4357600080fd5b505afa158015611d57573d6000803e3d6000fd5b505050506040513d6020811015611d6d57600080fd5b50516001600160a01b03163314611d8357600080fd5b50565b600c5461010090046001600160a01b031681565b600c60019054906101000a90046001600160a01b03166001600160a01b031663e16c7d987f15fa0125f52e5705da1148bfcf00974823c4381bee4314203ede255f9477b73e6040518263ffffffff1660e01b81526004018082815260200191505060206040518083038186803b158015611e1357600080fd5b505afa158015611e27573d6000803e3d6000fd5b505050506040513d6020811015611e3d57600080fd5b50516040805163d09a20c560e01b81527fd0a4ad96d49edb1c33461cebc6fb2609190f32c904e3c3f5877edb4488dee91e600482015233602482015290516001600160a01b039092169163d09a20c591604480820192600092909190829003018186803b158015611ead57600080fd5b505afa158015611ec1573d6000803e3d6000fd5b5050505080600d541415611f1c576040805162461bcd60e51b815260206004820152601260248201527f53616d65207769746864726177616c4665650000000000000000000000000000604482015290519081900360640190fd5b600d805490829055604080518281526020810184905281517f291c528d785ac95f46964a836543fea7be1412dfc51d98e6e937c84aa12a7c6d929181900390910190a15050565b600c60019054906101000a90046001600160a01b03166001600160a01b031663e16c7d987f15fa0125f52e5705da1148bfcf00974823c4381bee4314203ede255f9477b73e6040518263ffffffff1660e01b81526004018082815260200191505060206040518083038186803b158015611fdc57600080fd5b505afa158015611ff0573d6000803e3d6000fd5b505050506040513d602081101561200657600080fd5b50516040805163d09a20c560e01b81527fd0a4ad96d49edb1c33461cebc6fb2609190f32c904e3c3f5877edb4488dee91e600482015233602482015290516001600160a01b039092169163d09a20c591604480820192600092909190829003018186803b15801561207657600080fd5b505afa15801561208a573d6000803e3d6000fd5b50505050600061209930611a61565b90506120a53082612e21565b61215e30600c60019054906101000a90046001600160a01b03166001600160a01b031663e16c7d987f966f1e8d8d8014e05f6ec4a57138da9be1f7c5a7f802928a18072f7c531807616040518263ffffffff1660e01b81526004018082815260200191505060206040518083038186803b15801561212257600080fd5b505afa158015612136573d6000803e3d6000fd5b505050506040513d602081101561214c57600080fd5b505161215784610d5e565b6001612f1d565b5050565b600c60019054906101000a90046001600160a01b03166001600160a01b031663e16c7d987f15fa0125f52e5705da1148bfcf00974823c4381bee4314203ede255f9477b73e6040518263ffffffff1660e01b81526004018082815260200191505060206040518083038186803b1580156121db57600080fd5b505afa1580156121ef573d6000803e3d6000fd5b505050506040513d602081101561220557600080fd5b50516040805163d09a20c560e01b81527fd0a4ad96d49edb1c33461cebc6fb2609190f32c904e3c3f5877edb4488dee91e600482015233602482015290516001600160a01b039092169163d09a20c591604480820192600092909190829003018186803b15801561227557600080fd5b505afa158015612289573d6000803e3d6000fd5b505050506117a9614085565b600a546001600160a01b031681565b60006002600b5414156122fe576040805162461bcd60e51b815260206004820152601f60248201527f5265656e7472616e637947756172643a207265656e7472616e742063616c6c00604482015290519081900360640190fd5b6002600b5561230b6117f0565b15612350576040805162461bcd60e51b815260206004820152601060248201526f14185d5cd8589b194e881c185d5cd95960821b604482015290519081900360640190fd5b3360009081526012602052604090205443116123b3576040805162461bcd60e51b815260206004820152601760248201527f4c6f636b656420756e74696c206e65787420626c6f636b000000000000000000604482015290519081900360640190fd5b600c60019054906101000a90046001600160a01b03166001600160a01b031663e16c7d987f15fa0125f52e5705da1148bfcf00974823c4381bee4314203ede255f9477b73e6040518263ffffffff1660e01b81526004018082815260200191505060206040518083038186803b15801561242c57600080fd5b505afa158015612440573d6000803e3d6000fd5b505050506040513d602081101561245657600080fd5b505160408051636da3ea1b60e11b815233600482015290516001600160a01b039092169163db47d43691602480820192600092909190829003018186803b1580156124a057600080fd5b505afa1580156124b4573d6000803e3d6000fd5b5050600554604080516370a0823160e01b815233600482015290516101009092046001600160a01b031693506370a082319250602480820192602092909190829003018186803b15801561250757600080fd5b505afa15801561251b573d6000803e3d6000fd5b505050506040513d602081101561253157600080fd5b5051821115612587576040805162461bcd60e51b815260206004820152601460248201527f496e73756666696369656e742062616c616e6365000000000000000000000000604482015290519081900360640190fd5b61259033612d75565b612598612d91565b60006125a333611a61565b90506125ae83614111565b5060006125ba33611a61565b905060006125c88284612dc4565b6040805187815260208101839052815192935033927f90890809c654f11d6e72a28fa60149770a0d11ec6c92319d6ceb2bb0a4ea1a15929181900390910190a26115f161372f565b6000611acc670de0b6b3a7640000610d5e565b6000611acc3061108e565b6001600160a01b038716612689576040805162461bcd60e51b815260206004820152601160248201527f7065726d69743a207369676e6174757265000000000000000000000000000000604482015290519081900360640190fd5b834211156126de576040805162461bcd60e51b815260206004820152600f60248201527f7065726d69743a20657870697265640000000000000000000000000000000000604482015290519081900360640190fd5b6001600160a01b0380881660008181526008602090815260408083208054600180820190925582517f6e71edae12b1b97f4d1f60370fef10105fa2faae0126114a169c64845d6126c98186015280840196909652958c166060860152608085018b905260a085019590955260c08085018a90528151808603909101815260e0850182528051908301207f19010000000000000000000000000000000000000000000000000000000000006101008601527f000000000000000000000000000000000000000000000000000000000000000061010286015261012280860182905282518087039091018152610142860180845281519185019190912090859052610162860180845281905260ff8a166101828701526101a286018990526101c2860188905291519095919491926101e2808401939192601f1981019281900390910190855afa158015612834573d6000803e3d6000fd5b505050602060405103519050896001600160a01b0316816001600160a01b0316146128a6576040805162461bcd60e51b815260206004820152601460248201527f7065726d69743a20756e617574686f72697a6564000000000000000000000000604482015290519081900360640190fd5b6128b18a8a8a612bcc565b50505050505050505050565b6001600160a01b03918216600090815260016020908152604080832093909416825291909152205490565b600754600554604080517fe177dc700000000000000000000000000000000000000000000000000000000081526101009092046001600160a01b0390811660048401529051600093919091169163e177dc70916024808301926020929190829003018186803b15801561295a57600080fd5b505afa15801561296e573d6000803e3d6000fd5b505050506040513d602081101561298457600080fd5b5051905090565b60105481565b60055461010090046001600160a01b031681565b600c60019054906101000a90046001600160a01b03166001600160a01b031663e16c7d987f15fa0125f52e5705da1148bfcf00974823c4381bee4314203ede255f9477b73e6040518263ffffffff1660e01b81526004018082815260200191505060206040518083038186803b158015612a1e57600080fd5b505afa158015612a32573d6000803e3d6000fd5b505050506040513d6020811015612a4857600080fd5b50516040805163d09a20c560e01b81527fd0a4ad96d49edb1c33461cebc6fb2609190f32c904e3c3f5877edb4488dee91e600482015233602482015290516001600160a01b039092169163d09a20c591604480820192600092909190829003018186803b158015612ab857600080fd5b505afa158015612acc573d6000803e3d6000fd5b5050505080600e541415612b27576040805162461bcd60e51b815260206004820152601260248201527f53616d65206d616e6167656d656e744665650000000000000000000000000000604482015290519081900360640190fd5b600e805490829055604080518281526020810184905281517ffac39c9265fbab8fd6b4293b3f584cb3b1c0c39fb315acbcd4d1bef067c340cd929181900390910190a15050565b600082820183811015610d57576040805162461bcd60e51b815260206004820152601b60248201527f536166654d6174683a206164646974696f6e206f766572666c6f770000000000604482015290519081900360640190fd5b3390565b6001600160a01b038316612c115760405162461bcd60e51b8152600401808060200182810382526024815260200180614a1a6024913960400191505060405180910390fd5b6001600160a01b038216612c565760405162461bcd60e51b81526004018080602001828103825260228152602001806149436022913960400191505060405180910390fd5b6001600160a01b03808416600081815260016020908152604080832094871680845294825291829020859055815185815291517f8c5be1e5ebec7d5bd14f71427d1e84f3dd0314c0f7b2291e5b200ac8c7c3b9259281900390910190a3505050565b6000612cc5848484614139565b612d3084612cd1612bc8565b61164c856040518060600160405280602881526020016149ac602891396001600160a01b038a16600090815260016020526040812090612d0f612bc8565b6001600160a01b031681526020810191909152604001600020549190613fda565b5060019392505050565b600080612d45610cbc565b90508015612d6657612d5e8161123f85611b593061108e565b915050610d6c565b82915050610d6c565b50919050565b6001600160a01b03166000908152601260205260409020439055565b612d99614294565b612da1614328565b42601155565b6000610d6961271061123f600d548561374d90919063ffffffff16565b600082821115612e1b576040805162461bcd60e51b815260206004820152601e60248201527f536166654d6174683a207375627472616374696f6e206f766572666c6f770000604482015290519081900360640190fd5b50900390565b6001600160a01b038216612e665760405162461bcd60e51b81526004018080602001828103825260218152602001806149d46021913960400191505060405180910390fd5b612e72826000836143c1565b612eaf81604051806060016040528060228152602001614921602291396001600160a01b0385166000908152602081905260409020549190613fda565b6001600160a01b038316600090815260208190526040902055600254612ed59082612dc4565b6002556040805182815290516000916001600160a01b038516917fddf252ad1be2c89b69c2b068fc378daa952ba7f163c4a11628f55a4df523b3ef9181900360200190a35050565b600080612f286128e8565b90506060612f3461096e565b9050612f3f816143c6565b60005b81518110156134a05784158015612f7d5750826001600160a01b0316828281518110612f6a57fe5b60200260200101516001600160a01b0316145b15612f8757613498565b6000828281518110612f9557fe5b60200260200101516001600160a01b03166370a082318a6040518263ffffffff1660e01b815260040180826001600160a01b0316815260200191505060206040518083038186803b158015612fe957600080fd5b505afa158015612ffd573d6000803e3d6000fd5b505050506040513d602081101561301357600080fd5b505190506001600160a01b03891630146130d0576130cd8184848151811061303757fe5b60200260200101516001600160a01b031663dd62ed3e8c306040518363ffffffff1660e01b815260040180836001600160a01b03168152602001826001600160a01b031681526020019250505060206040518083038186803b15801561309c57600080fd5b505afa1580156130b0573d6000803e3d6000fd5b505050506040513d60208110156130c657600080fd5b50516143e4565b90505b613120818484815181106130e057fe5b60200260200101516001600160a01b03166375de29026040518163ffffffff1660e01b815260040160206040518083038186803b15801561309c57600080fd5b90508015613496576001600160a01b03891630146131e05782828151811061314457fe5b60200260200101516001600160a01b03166323b872dd8a30846040518463ffffffff1660e01b815260040180846001600160a01b03168152602001836001600160a01b031681526020018281526020019350505050602060405180830381600087803b1580156131b357600080fd5b505af11580156131c7573d6000803e3d6000fd5b505050506040513d60208110156131dd57600080fd5b50505b60001987146134025760006132f18484815181106131fa57fe5b60200260200101516001600160a01b03166399530b066040518163ffffffff1660e01b815260040160206040518083038186803b15801561323a57600080fd5b505afa15801561324e573d6000803e3d6000fd5b505050506040513d602081101561326457600080fd5b5051855161123f9087908790811061327857fe5b60200260200101516001600160a01b031663313ce5676040518163ffffffff1660e01b815260040160206040518083038186803b1580156132b857600080fd5b505afa1580156132cc573d6000803e3d6000fd5b505050506040513d60208110156132e257600080fd5b5051600a0a611b598c8b612dc4565b905060008111801561330257508181105b1561339d5761339684848151811061331657fe5b60200260200101516001600160a01b0316632e1a7d4d836040518263ffffffff1660e01b815260040180828152602001915050602060405180830381600087803b15801561336357600080fd5b505af1158015613377573d6000803e3d6000fd5b505050506040513d602081101561338d57600080fd5b50518790612b6e565b95506133fc565b6133f98484815181106133ac57fe5b60200260200101516001600160a01b0316632e1a7d4d846040518263ffffffff1660e01b815260040180828152602001915050602060405180830381600087803b15801561336357600080fd5b95505b50613489565b61348683838151811061341157fe5b60200260200101516001600160a01b0316633ccfd60b6040518163ffffffff1660e01b8152600401602060405180830381600087803b15801561345357600080fd5b505af1158015613467573d6000803e3d6000fd5b505050506040513d602081101561347d57600080fd5b50518690612b6e565b94505b84871161349657506134a0565b505b600101612f42565b5084831180156135b157506135a5826001600160a01b031663313ce5676040518163ffffffff1660e01b815260040160206040518083038186803b1580156134e757600080fd5b505afa1580156134fb573d6000803e3d6000fd5b505050506040513d602081101561351157600080fd5b5051604080517f99530b060000000000000000000000000000000000000000000000000000000081529051600a9290920a916001600160a01b038616916399530b06916004808301926020929190829003018186803b15801561357357600080fd5b505afa158015613587573d6000803e3d6000fd5b505050506040513d602081101561359d57600080fd5b5051906137a6565b6135af8487612dc4565b115b156136f9576135c08386612dc4565b60055460408051636eb1769f60e11b81523060048201526001600160a01b03868116602483015291516101009093049091169163dd62ed3e91604480820192602092909190829003018186803b15801561361957600080fd5b505afa15801561362d573d6000803e3d6000fd5b505050506040513d602081101561364357600080fd5b50511015613669576005546136699061010090046001600160a01b0316836000196143fa565b6001600160a01b038216636e553f656136828588612dc4565b896040518363ffffffff1660e01b815260040180838152602001826001600160a01b0316815260200192505050602060405180830381600087803b1580156136c957600080fd5b505af11580156136dd573d6000803e3d6000fd5b505050506040513d60208110156136f357600080fd5b50859350505b6001600160a01b0386163014613725576005546137259061010090046001600160a01b03168785614526565b5050949350505050565b60105461373a612610565b11156117a957613748612610565b601055565b60008261375c57506000610cb6565b8282028284828161376957fe5b0414610d575760405162461bcd60e51b815260040180806020018281038252602181526020018061498b6021913960400191505060405180910390fd5b60008082116137fc576040805162461bcd60e51b815260206004820152601a60248201527f536166654d6174683a206469766973696f6e206279207a65726f000000000000604482015290519081900360640190fd5b81838161380557fe5b049392505050565b6000806138186128e8565b905082156138f757600019841461384b576005546138469061010090046001600160a01b0316873087614591565b6138f7565b6138f78630600560019054906101000a90046001600160a01b03166001600160a01b03166370a082318a6040518263ffffffff1660e01b815260040180826001600160a01b0316815260200191505060206040518083038186803b1580156138b257600080fd5b505afa1580156138c6573d6000803e3d6000fd5b505050506040513d60208110156138dc57600080fd5b505160055461010090046001600160a01b0316929190614591565b60055460408051636eb1769f60e11b81523060048201526001600160a01b0384811660248301529151879361010090049092169163dd62ed3e91604480820192602092909190829003018186803b15801561395157600080fd5b505afa158015613965573d6000803e3d6000fd5b505050506040513d602081101561397b57600080fd5b505110156139be576005546139a09061010090046001600160a01b03168260006143fa565b6005546139be9061010090046001600160a01b0316826000196143fa565b600554604080516370a0823160e01b8152306004820152905160009261010090046001600160a01b0316916370a08231916024808301926020929190829003018186803b158015613a0e57600080fd5b505afa158015613a22573d6000803e3d6000fd5b505050506040513d6020811015613a3857600080fd5b505190506001600160a01b0386163014613ad557816001600160a01b0316636e553f6586886040518363ffffffff1660e01b815260040180838152602001826001600160a01b0316815260200192505050602060405180830381600087803b158015613aa357600080fd5b505af1158015613ab7573d6000803e3d6000fd5b505050506040513d6020811015613acd57600080fd5b50613b8c9050565b6000198514613b2457816001600160a01b031663b6b55f25866040518263ffffffff1660e01b815260040180828152602001915050602060405180830381600087803b158015613aa357600080fd5b816001600160a01b031663d0e30db06040518163ffffffff1660e01b8152600401602060405180830381600087803b158015613b5f57600080fd5b505af1158015613b73573d6000803e3d6000fd5b505050506040513d6020811015613b8957600080fd5b50505b600554604080516370a0823160e01b8152306004820152905160009261010090046001600160a01b0316916370a08231916024808301926020929190829003018186803b158015613bdc57600080fd5b505afa158015613bf0573d6000803e3d6000fd5b505050506040513d6020811015613c0657600080fd5b50519050613c148282612dc4565b93506001600160a01b0388163014801590613c2f5750600081115b15613c5057600554613c509061010090046001600160a01b03168983614526565b505050949350505050565b600080613c673061108e565b905082811115612d6657612d5e613c7e8285612dc4565b61123f85611b59610cbc565b6001600160a01b038216613ce5576040805162461bcd60e51b815260206004820152601f60248201527f45524332303a206d696e7420746f20746865207a65726f206164647265737300604482015290519081900360640190fd5b613cf1600083836143c1565b600254613cfe9082612b6e565b6002556001600160a01b038216600090815260208190526040902054613d249082612b6e565b6001600160a01b0383166000818152602081815260408083209490945583518581529351929391927fddf252ad1be2c89b69c2b068fc378daa952ba7f163c4a11628f55a4df523b3ef9281900390910190a35050565b600080613d856128e8565b90506000816001600160a01b031663ecf708586040518163ffffffff1660e01b815260040160206040518083038186803b158015613dc257600080fd5b505afa158015613dd6573d6000803e3d6000fd5b505050506040513d6020811015613dec57600080fd5b5051604080517f01e1d11400000000000000000000000000000000000000000000000000000000815290519192506000916001600160a01b038516916301e1d114916004808301926020929190829003018186803b158015613e4d57600080fd5b505afa158015613e61573d6000803e3d6000fd5b505050506040513d6020811015613e7757600080fd5b50519050808211613e8e5760009350505050610d57565b8560001983108015613ea1575060001981105b15613ec2576000613eb28484612dc4565b905080821115613ec0578091505b505b8015613f13576000613ed78930846000612f1d565b905080613eec57600095505050505050610d57565b613ef9308a83600061380d565b955086613f068288612dc4565b1115613f1157600080fd5b505b505050509392505050565b613f266117f0565b15613f6b576040805162461bcd60e51b815260206004820152601060248201526f14185d5cd8589b194e881c185d5cd95960821b604482015290519081900360640190fd5b600c805460ff191660011790557f62e78cea01bee320cd4e420270b5ea74000d11b0c9f74754ebdbfc544b05a258613fa1612bc8565b604080516001600160a01b039092168252519081900360200190a1565b6000610d5783836000613d7a565b6000610d6982600019613fbe565b600081848411156140695760405162461bcd60e51b81526004018080602001828103825283818151815260200191508051906020019080838360005b8381101561402e578181015183820152602001614016565b50505050905090810190601f16801561405b5780820380516001836020036101000a031916815260200191505b509250505060405180910390fd5b505050900390565b6000610cb261407e612bc8565b8484614139565b61408d6117f0565b6140de576040805162461bcd60e51b815260206004820152601460248201527f5061757361626c653a206e6f7420706175736564000000000000000000000000604482015290519081900360640190fd5b600c805460ff191690557f5db9ee0a495bf2e6ff9c91a7834c1ba4fdd244a5e8aa4e537bd38aeae4b073aa613fa1612bc8565b6000614120333084600161380d565b9050600061412d82613c5b565b9050612d6f3382613c8a565b6001600160a01b03831661417e5760405162461bcd60e51b81526004018080602001828103825260258152602001806149f56025913960400191505060405180910390fd5b6001600160a01b0382166141c35760405162461bcd60e51b81526004018080602001828103825260238152602001806148fe6023913960400191505060405180910390fd5b6141ce8383836143c1565b61420b81604051806060016040528060268152602001614965602691396001600160a01b0386166000908152602081905260409020549190613fda565b6001600160a01b03808516600090815260208190526040808220939093559084168152205461423a9082612b6e565b6001600160a01b038084166000818152602081815260409182902094909455805185815290519193928716927fddf252ad1be2c89b69c2b068fc378daa952ba7f163c4a11628f55a4df523b3ef92918290030190a3505050565b60006142b0603c61123f60115442612dc490919063ffffffff16565b905060006142de6142c66208052061271061374d565b61123f84611b596142d5612623565b600e549061374d565b9050801561215e576142f0308261460a565b506040805182815290517ff87c0f8ad312d5441c433caa79ac7e44a7c9e1445da8d2aea7b5b7d58de66d3f9181900360200190a15050565b601054614333612610565b11156117a957600061434f601054614349612610565b90612dc4565b9050600061437d670de0b6b3a764000061123f61271061123f614370610cbc565b600f54611b59908961374d565b9050614389308261460a565b506040805182815290517f7d073ff7c6d54f7f4d8fb7912c4f4d37dfab6331775fd876ad8d6bc045df85d79181900360200190a15050565b505050565b60065481511115611d8357805161215e906006906020840190614879565b60008183106143f35781610d57565b5090919050565b801580614480575060408051636eb1769f60e11b81523060048201526001600160a01b03848116602483015291519185169163dd62ed3e91604480820192602092909190829003018186803b15801561445257600080fd5b505afa158015614466573d6000803e3d6000fd5b505050506040513d602081101561447c57600080fd5b5051155b6144bb5760405162461bcd60e51b8152600401808060200182810382526036815260200180614a686036913960400191505060405180910390fd5b604080516001600160a01b038416602482015260448082018490528251808303909101815260649091019091526020810180516001600160e01b03167f095ea7b3000000000000000000000000000000000000000000000000000000001790526143c190849061462a565b604080516001600160a01b038416602482015260448082018490528251808303909101815260649091019091526020810180516001600160e01b03167fa9059cbb000000000000000000000000000000000000000000000000000000001790526143c190849061462a565b604080516001600160a01b0380861660248301528416604482015260648082018490528251808303909101815260849091019091526020810180516001600160e01b03167f23b872dd0000000000000000000000000000000000000000000000000000000017905261460490859061462a565b50505050565b60008061461683613c5b565b905061462284826146db565b949350505050565b606061467f826040518060400160405280602081526020017f5361666545524332303a206c6f772d6c6576656c2063616c6c206661696c6564815250856001600160a01b03166146e79092919063ffffffff16565b8051909150156143c15780806020019051602081101561469e57600080fd5b50516143c15760405162461bcd60e51b815260040180806020018281038252602a815260200180614a3e602a913960400191505060405180910390fd5b6000612d6f8383613c8a565b6060610d548484600085856146fb8561480d565b61474c576040805162461bcd60e51b815260206004820152601d60248201527f416464726573733a2063616c6c20746f206e6f6e2d636f6e7472616374000000604482015290519081900360640190fd5b60006060866001600160a01b031685876040518082805190602001908083835b6020831061478b5780518252601f19909201916020918201910161476c565b6001836020036101000a03801982511681845116808217855250505050505090500191505060006040518083038185875af1925050503d80600081146147ed576040519150601f19603f3d011682016040523d82523d6000602084013e6147f2565b606091505b5091509150614802828286614813565b979650505050505050565b3b151590565b60608315614822575081610d57565b8251156148325782518084602001fd5b60405162461bcd60e51b815260206004820181815284516024840152845185939192839260440191908501908083836000831561402e578181015183820152602001614016565b8280548282559060005260206000209081019282156148ce579160200282015b828111156148ce57825182546001600160a01b0319166001600160a01b03909116178255602090920191600190910190614899565b506148da9291506148de565b5090565b5b808211156148da5780546001600160a01b03191681556001016148df56fe45524332303a207472616e7366657220746f20746865207a65726f206164647265737345524332303a206275726e20616d6f756e7420657863656564732062616c616e636545524332303a20617070726f766520746f20746865207a65726f206164647265737345524332303a207472616e7366657220616d6f756e7420657863656564732062616c616e6365536166654d6174683a206d756c7469706c69636174696f6e206f766572666c6f7745524332303a207472616e7366657220616d6f756e74206578636565647320616c6c6f77616e636545524332303a206275726e2066726f6d20746865207a65726f206164647265737345524332303a207472616e736665722066726f6d20746865207a65726f206164647265737345524332303a20617070726f76652066726f6d20746865207a65726f20616464726573735361666545524332303a204552433230206f7065726174696f6e20646964206e6f7420737563636565645361666545524332303a20617070726f76652066726f6d206e6f6e2d7a65726f20746f206e6f6e2d7a65726f20616c6c6f77616e636545524332303a2064656372656173656420616c6c6f77616e63652062656c6f77207a65726fa264697066735822122074d1b2a23a9804fae68eb379b026881f065f5ab42175de0211b81d3b6724043364736f6c634300060c0033",
  "linkReferences": {},
  "deployedLinkReferences": {}
}