{
  "_format": "hh-sol-artifact-1",
  "contractName": "BeneficiaryRegistry",
  "sourceName": "contracts/core/dao/BeneficiaryRegistry.sol",
  "abi": [
    {
      "inputs": [
        {
          "internalType": "contract IContractRegistry",
          "name": "_contractRegistry",
          "type": "address"
        }
      ],
      "stateMutability": "nonpayable",
      "type": "constructor"
    },
    {
      "anonymous": false,
      "inputs": [
        {
          "indexed": true,
          "internalType": "address",
          "name": "_address",
          "type": "address"
        },
        {
          "indexed": true,
          "internalType": "bytes",
          "name": "_applicationCid",
          "type": "bytes"
        }
      ],
      "name": "BeneficiaryAdded",
      "type": "event"
    },
    {
      "anonymous": false,
      "inputs": [
        {
          "indexed": true,
          "internalType": "address",
          "name": "_address",
          "type": "address"
        }
      ],
      "name": "BeneficiaryRevoked",
      "type": "event"
    },
    {
      "inputs": [
        {
          "internalType": "address",
          "name": "account",
          "type": "address"
        },
        {
          "internalType": "bytes32",
          "name": "region",
          "type": "bytes32"
        },
        {
          "internalType": "bytes",
          "name": "applicationCid",
          "type": "bytes"
        }
      ],
      "name": "addBeneficiary",
      "outputs": [],
      "stateMutability": "nonpayable",
      "type": "function"
    },
    {
      "inputs": [
        {
          "internalType": "address",
          "name": "_address",
          "type": "address"
        }
      ],
      "name": "beneficiaryExists",
      "outputs": [
        {
          "internalType": "bool",
          "name": "",
          "type": "bool"
        }
      ],
      "stateMutability": "view",
      "type": "function"
    },
    {
      "inputs": [
        {
          "internalType": "address",
          "name": "_address",
          "type": "address"
        }
      ],
      "name": "getBeneficiary",
      "outputs": [
        {
          "internalType": "bytes",
          "name": "",
          "type": "bytes"
        }
      ],
      "stateMutability": "view",
      "type": "function"
    },
    {
      "inputs": [],
      "name": "getBeneficiaryList",
      "outputs": [
        {
          "internalType": "address[]",
          "name": "",
          "type": "address[]"
        }
      ],
      "stateMutability": "view",
      "type": "function"
    },
    {
      "inputs": [
        {
          "internalType": "address",
          "name": "_address",
          "type": "address"
        }
      ],
      "name": "revokeBeneficiary",
      "outputs": [],
      "stateMutability": "nonpayable",
      "type": "function"
    }
  ],
  "bytecode": "0x608060405234801561001057600080fd5b50604051610c26380380610c268339818101604052602081101561003357600080fd5b5051600080546001600160a01b039092166001600160a01b0319909216919091179055610bc1806100656000396000f3fe608060405234801561001057600080fd5b50600436106100675760003560e01c806375e71d6d1161005057806375e71d6d1461012f5780638f57350214610169578063de5602bd146101ee57610067565b806346dd6fcd1461006c578063505a1b3114610094575b600080fd5b6100926004803603602081101561008257600080fd5b50356001600160a01b0316610246565b005b6100ba600480360360208110156100aa57600080fd5b50356001600160a01b03166105fc565b6040805160208082528351818301528351919283929083019185019080838360005b838110156100f45781810151838201526020016100dc565b50505050905090810190601f1680156101215780820380516001836020036101000a031916815260200191505b509250505060405180910390f35b6101556004803603602081101561014557600080fd5b50356001600160a01b03166106a7565b604080519115158252519081900360200190f35b6100926004803603606081101561017f57600080fd5b6001600160a01b03823516916020810135918101906060810160408201356401000000008111156101af57600080fd5b8201836020820111156101c157600080fd5b803590602001918460018302840111640100000000831117156101e357600080fd5b5090925090506106fd565b6101f6610a0e565b60408051602080825283518183015283519192839290830191858101910280838360005b8381101561023257818101518382015260200161021a565b505050509050019250505060405180910390f35b6000805460408051631c2d8fb360e31b81527f15fa0125f52e5705da1148bfcf00974823c4381bee4314203ede255f9477b73e600482015290516001600160a01b039092169163e16c7d9891602480820192602092909190829003018186803b1580156102b257600080fd5b505afa1580156102c6573d6000803e3d6000fd5b505050506040513d60208110156102dc57600080fd5b505160408051632474521560e21b81527f8c76b2d2fc4ae4e9d0199f96be776a295610c24a3241321fd18909fa728e1453600482015233602482015290519192506001600160a01b038316916391d1485491604480820192602092909190829003018186803b15801561034e57600080fd5b505afa158015610362573d6000803e3d6000fd5b505050506040513d602081101561037857600080fd5b5051806104c8575060408051632474521560e21b81527fb2337fc5a2f91a6f604f756fa93a6fbbe3275be9b1ff5e177f59433ce2060bd1600482015233602482015290516001600160a01b038316916391d14854916044808301926020929190829003018186803b1580156103ec57600080fd5b505afa158015610400573d6000803e3d6000fd5b505050506040513d602081101561041657600080fd5b505180156104c857506001600160a01b038281166000908152600160208181526040928390209091015482517f28545c0d00000000000000000000000000000000000000000000000000000000815260048101919091523360248201529151928416926328545c0d926044808201939291829003018186803b15801561049b57600080fd5b505afa1580156104af573d6000803e3d6000fd5b505050506040513d60208110156104c557600080fd5b50515b6105035760405162461bcd60e51b8152600401808060200182810382526041815260200180610b4b6041913960600191505060405180910390fd5b61050c826106a7565b610546576040805162461bcd60e51b815260206004820152600660248201526565786973747360d01b604482015290519081900360640190fd5b6001600160a01b03821660009081526001602052604090206002908101548154811061056e57fe5b60009182526020808320909101805473ffffffffffffffffffffffffffffffffffffffff191690556001600160a01b03841682526001905260408120906105b58282610a70565b5060006001820181905560029091018190556040516001600160a01b038416917f7b027da1a28f458aa3cefd63d63a37582e6f7e75810d158a112a7379a761aa7a91a25050565b6001600160a01b03811660009081526001602081815260409283902080548451600294821615610100026000190190911693909304601f8101839004830284018301909452838352606093909183018282801561069a5780601f1061066f5761010080835404028352916020019161069a565b820191906000526020600020905b81548152906001019060200180831161067d57829003601f168201915b505050505090505b919050565b6002546000906106b9575060006106a2565b6001600160a01b0382166000818152600160205260409020600290810154815481106106e157fe5b6000918252602090912001546001600160a01b03161492915050565b60005460408051631c2d8fb360e31b81527f15fa0125f52e5705da1148bfcf00974823c4381bee4314203ede255f9477b73e600482015290516001600160a01b039092169163e16c7d9891602480820192602092909190829003018186803b15801561076857600080fd5b505afa15801561077c573d6000803e3d6000fd5b505050506040513d602081101561079257600080fd5b5051604080517fd09a20c50000000000000000000000000000000000000000000000000000000081527f8c76b2d2fc4ae4e9d0199f96be776a295610c24a3241321fd18909fa728e1453600482015233602482015290516001600160a01b039092169163d09a20c591604480820192600092909190829003018186803b15801561081b57600080fd5b505afa15801561082f573d6000803e3d6000fd5b5061083992505050565b8061088b576040805162461bcd60e51b815260206004820152600c60248201527f216170706c69636174696f6e0000000000000000000000000000000000000000604482015290519081900360640190fd5b610894846106a7565b156108cf576040805162461bcd60e51b815260206004820152600660248201526565786973747360d01b604482015290519081900360640190fd5b600280546001810182556000919091527f405787fa12a823e0f2b7631cc41b3ba8828b3321ca811111fa75cd3aa3bb5ace01805473ffffffffffffffffffffffffffffffffffffffff19166001600160a01b038616179055604080516020601f84018190040281016080908101909252606081018381529091829190859085908190850183828082843760009201829052509385525050506020808301879052600254600019016040938401526001600160a01b0388168252600181529190208251805191926109a492849290910190610ab7565b506020820151816001015560408201518160020155905050818160405180838380828437604051920182900382209450506001600160a01b03881692507fe92868fcb00104d3ad5698eb6bc746d17ea8ea392da32cd0fba0bbdbde0658a09150600090a350505050565b60606002805480602002602001604051908101604052809291908181526020018280548015610a6657602002820191906000526020600020905b81546001600160a01b03168152600190910190602001808311610a48575b5050505050905090565b50805460018160011615610100020316600290046000825580601f10610a965750610ab4565b601f016020900490600052602060002090810190610ab49190610b35565b50565b828054600181600116156101000203166002900490600052602060002090601f016020900481019282601f10610af857805160ff1916838001178555610b25565b82800160010185558215610b25579182015b82811115610b25578251825591602001919060010190610b0a565b50610b31929150610b35565b5090565b5b80821115610b315760008155600101610b3656fe4f6e6c79207468652042656e6566696369617279476f7665726e616e6365206f7220636f756e63696c206d617920706572666f726d207468697320616374696f6ea264697066735822122062d397e372277b0839f381b48f2710a9becd20fb566ddc6a225300dae726f9b164736f6c63430007030033",
  "linkReferences": {},
  "deployedLinkReferences": {}
}