{
  "_format": "hh-sol-artifact-1",
  "contractName": "ACLRegistryHelper",
  "sourceName": "contracts/test_helpers/ACLRegistryHelper.sol",
  "abi": [
    {
      "inputs": [
        {
          "internalType": "contract IACLRegistry",
          "name": "_aclRegistry",
          "type": "address"
        }
      ],
      "stateMutability": "nonpayable",
      "type": "constructor"
    },
    {
      "inputs": [],
      "name": "aclRegistry",
      "outputs": [
        {
          "internalType": "contract IACLRegistry",
          "name": "",
          "type": "address"
        }
      ],
      "stateMutability": "view",
      "type": "function"
    },
    {
      "inputs": [
        {
          "internalType": "bytes32",
          "name": "role",
          "type": "bytes32"
        }
      ],
      "name": "senderProtected",
      "outputs": [],
      "stateMutability": "nonpayable",
      "type": "function"
    }
  ],
  "bytecode": "0x608060405234801561001057600080fd5b506040516102543803806102548339818101604052602081101561003357600080fd5b5051600080546001600160a01b039092166001600160a01b03199092169190911790556101ef806100656000396000f3fe608060405234801561001057600080fd5b50600436106100365760003560e01c80634b9304a41461003b5780639160380e1461005a575b600080fd5b6100586004803603602081101561005157600080fd5b503561008b565b005b61006261019d565b6040805173ffffffffffffffffffffffffffffffffffffffff9092168252519081900360200190f35b600054604080517f91d1485400000000000000000000000000000000000000000000000000000000815260048101849052336024820152905173ffffffffffffffffffffffffffffffffffffffff909216916391d1485491604480820192602092909190829003018186803b15801561010357600080fd5b505afa158015610117573d6000803e3d6000fd5b505050506040513d602081101561012d57600080fd5b505161019a57604080517f08c379a000000000000000000000000000000000000000000000000000000000815260206004820152601f60248201527f796f7520646f6e7420686176652074686520726571756972656420726f6c6500604482015290519081900360640190fd5b50565b60005473ffffffffffffffffffffffffffffffffffffffff168156fea2646970667358221220c5919363c7e5685e288fb8f98b5b14565a7ba247b6fce450c28979e7d9b0cf3d64736f6c63430007030033",
  "linkReferences": {},
  "deployedLinkReferences": {}
}