{
  "_format": "hh-sol-artifact-1",
  "contractName": "ContractRegistry",
  "sourceName": "contracts/core/utils/ContractRegistry.sol",
  "abi": [
    {
      "inputs": [
        {
          "internalType": "contract IACLRegistry",
          "name": "_aclRegistry",
          "type": "address"
        }
      ],
      "stateMutability": "nonpayable",
      "type": "constructor"
    },
    {
      "anonymous": false,
      "inputs": [
        {
          "indexed": false,
          "internalType": "bytes32",
          "name": "_name",
          "type": "bytes32"
        },
        {
          "indexed": false,
          "internalType": "address",
          "name": "_address",
          "type": "address"
        },
        {
          "indexed": false,
          "internalType": "bytes32",
          "name": "_version",
          "type": "bytes32"
        }
      ],
      "name": "ContractAdded",
      "type": "event"
    },
    {
      "anonymous": false,
      "inputs": [
        {
          "indexed": false,
          "internalType": "bytes32",
          "name": "_name",
          "type": "bytes32"
        }
      ],
      "name": "ContractDeleted",
      "type": "event"
    },
    {
      "anonymous": false,
      "inputs": [
        {
          "indexed": false,
          "internalType": "bytes32",
          "name": "_name",
          "type": "bytes32"
        },
        {
          "indexed": false,
          "internalType": "address",
          "name": "_address",
          "type": "address"
        },
        {
          "indexed": false,
          "internalType": "bytes32",
          "name": "_version",
          "type": "bytes32"
        }
      ],
      "name": "ContractUpdated",
      "type": "event"
    },
    {
      "inputs": [],
      "name": "aclRegistry",
      "outputs": [
        {
          "internalType": "contract IACLRegistry",
          "name": "",
          "type": "address"
        }
      ],
      "stateMutability": "view",
      "type": "function"
    },
    {
      "inputs": [
        {
          "internalType": "bytes32",
          "name": "_name",
          "type": "bytes32"
        },
        {
          "internalType": "address",
          "name": "_address",
          "type": "address"
        },
        {
          "internalType": "bytes32",
          "name": "_version",
          "type": "bytes32"
        }
      ],
      "name": "addContract",
      "outputs": [],
      "stateMutability": "nonpayable",
      "type": "function"
    },
    {
      "inputs": [
        {
          "internalType": "uint256",
          "name": "",
          "type": "uint256"
        }
      ],
      "name": "contractNames",
      "outputs": [
        {
          "internalType": "bytes32",
          "name": "",
          "type": "bytes32"
        }
      ],
      "stateMutability": "view",
      "type": "function"
    },
    {
      "inputs": [
        {
          "internalType": "bytes32",
          "name": "",
          "type": "bytes32"
        }
      ],
      "name": "contracts",
      "outputs": [
        {
          "internalType": "address",
          "name": "contractAddress",
          "type": "address"
        },
        {
          "internalType": "bytes32",
          "name": "version",
          "type": "bytes32"
        }
      ],
      "stateMutability": "view",
      "type": "function"
    },
    {
      "inputs": [
        {
          "internalType": "bytes32",
          "name": "_name",
          "type": "bytes32"
        },
        {
          "internalType": "uint256",
          "name": "_contractIndex",
          "type": "uint256"
        }
      ],
      "name": "deleteContract",
      "outputs": [],
      "stateMutability": "nonpayable",
      "type": "function"
    },
    {
      "inputs": [
        {
          "internalType": "bytes32",
          "name": "_name",
          "type": "bytes32"
        }
      ],
      "name": "getContract",
      "outputs": [
        {
          "internalType": "address",
          "name": "",
          "type": "address"
        }
      ],
      "stateMutability": "view",
      "type": "function"
    },
    {
      "inputs": [],
      "name": "getContractNames",
      "outputs": [
        {
          "internalType": "bytes32[]",
          "name": "",
          "type": "bytes32[]"
        }
      ],
      "stateMutability": "view",
      "type": "function"
    },
    {
      "inputs": [
        {
          "internalType": "bytes32",
          "name": "_name",
          "type": "bytes32"
        },
        {
          "internalType": "address",
          "name": "_newAddress",
          "type": "address"
        },
        {
          "internalType": "bytes32",
          "name": "_version",
          "type": "bytes32"
        }
      ],
      "name": "updateContract",
      "outputs": [],
      "stateMutability": "nonpayable",
      "type": "function"
    }
  ],
  "bytecode": "0x608060405234801561001057600080fd5b5060405161099e38038061099e8339818101604052602081101561003357600080fd5b5051600080546001600160a01b039283166001600160a01b031991821681178355604080518082019091529081527fc89efdaa54c0f20c7adf612882df0950f5a951637e0307cdcb4c672f298b8bc660208281019182527f15fa0125f52e5705da1148bfcf00974823c4381bee4314203ede255f9477b73e80865260019182905292517f7361e8ccf7a27163a98e050d746a5c73d23616ea599eb9af9e4a86e96a9dfc0880549190971694169390931790945592517f7361e8ccf7a27163a98e050d746a5c73d23616ea599eb9af9e4a86e96a9dfc09556002805491820181559091527f405787fa12a823e0f2b7631cc41b3ba8828b3321ca811111fa75cd3aa3bb5ace0155610856806101486000396000f3fe608060405234801561001057600080fd5b50600436106100885760003560e01c8063d5a161091161005b578063d5a161091461016c578063e16c7d981461018f578063ec56a373146101ac578063fe3c458e146101ec57610088565b806334d40a8f1461008d57806337df1e9d146100c15780633ca6bb92146101195780639160380e14610148575b600080fd5b6100bf600480360360608110156100a357600080fd5b508035906001600160a01b03602082013516906040013561021e565b005b6100c96103ab565b60408051602080825283518183015283519192839290830191858101910280838360005b838110156101055781810151838201526020016100ed565b505050509050019250505060405180910390f35b6101366004803603602081101561012f57600080fd5b5035610403565b60408051918252519081900360200190f35b610150610421565b604080516001600160a01b039092168252519081900360200190f35b6100bf6004803603604081101561018257600080fd5b5080359060200135610430565b610150600480360360208110156101a557600080fd5b50356105f9565b6101c9600480360360208110156101c257600080fd5b5035610614565b604080516001600160a01b03909316835260208301919091528051918290030190f35b6100bf6004803603606081101561020257600080fd5b508035906001600160a01b036020820135169060400135610639565b600080546040805163d09a20c560e01b81527fd0a4ad96d49edb1c33461cebc6fb2609190f32c904e3c3f5877edb4488dee91e600482015233602482015290516001600160a01b039092169263d09a20c592604480840193829003018186803b15801561028a57600080fd5b505afa15801561029e573d6000803e3d6000fd5b5050506000848152600160205260409020546001600160a01b03161515905061030e576040805162461bcd60e51b815260206004820152601560248201527f636f6e747261637420646f65736e742065786973740000000000000000000000604482015290519081900360640190fd5b6040805180820182526001600160a01b03848116808352602080840186815260008981526001808452908790209551865473ffffffffffffffffffffffffffffffffffffffff1916951694909417855551939092019290925582518681529081019190915280820183905290517fb69768dcac5758cdbac4aa0c3113c765359474832ce059d53f5e799e0922db6f916060908290030190a1505050565b606060028054806020026020016040519081016040528092919081815260200182805480156103f957602002820191906000526020600020905b8154815260200190600101908083116103e5575b5050505050905090565b6002818154811061041057fe5b600091825260209091200154905081565b6000546001600160a01b031681565b600080546040805163d09a20c560e01b81527fd0a4ad96d49edb1c33461cebc6fb2609190f32c904e3c3f5877edb4488dee91e600482015233602482015290516001600160a01b039092169263d09a20c592604480840193829003018186803b15801561049c57600080fd5b505afa1580156104b0573d6000803e3d6000fd5b5050506000838152600160205260409020546001600160a01b031615159050610520576040805162461bcd60e51b815260206004820152601560248201527f636f6e747261637420646f65736e742065786973740000000000000000000000604482015290519081900360640190fd5b816002828154811061052e57fe5b9060005260206000200154146105755760405162461bcd60e51b815260040180806020018281038252602c8152602001806107f5602c913960400191505060405180910390fd5b60008281526001602081905260408220805473ffffffffffffffffffffffffffffffffffffffff19168155015560028054829081106105b057fe5b90600052602060002001600090557ffcb9b89d9fdad6183290641024092e3a078212303eda7df8d64648902cd7600b826040518082815260200191505060405180910390a15050565b6000908152600160205260409020546001600160a01b031690565b600160208190526000918252604090912080549101546001600160a01b039091169082565b600080546040805163d09a20c560e01b81527fd0a4ad96d49edb1c33461cebc6fb2609190f32c904e3c3f5877edb4488dee91e600482015233602482015290516001600160a01b039092169263d09a20c592604480840193829003018186803b1580156106a557600080fd5b505afa1580156106b9573d6000803e3d6000fd5b5050506000848152600160205260409020546001600160a01b0316159050610728576040805162461bcd60e51b815260206004820152601760248201527f636f6e747261637420616c726561647920657869737473000000000000000000604482015290519081900360640190fd5b6040805180820182526001600160a01b038481168083526020808401868152600089815260018084528782209651875473ffffffffffffffffffffffffffffffffffffffff191696169590951786559051948401949094556002805493840181559093527f405787fa12a823e0f2b7631cc41b3ba8828b3321ca811111fa75cd3aa3bb5ace90910186905582518681529182015280820183905290517f41f0868602f01af184ca25746dd5d2fff355679ad1861385cf8bd3f6d3da8a57916060908290030190a150505056fe74686973206973206e6f742074686520636f6e747261637420796f7520617265206c6f6f6b696e6720666f72a2646970667358221220a00d24831c3ab7473a88f8b7b7d4c92c9fef98a2c3c1b05a66d94cb0963aa40c64736f6c63430007030033",
  "linkReferences": {},
  "deployedLinkReferences": {}
}