{
  "_format": "hh-sol-artifact-1",
  "contractName": "Staking",
  "sourceName": "contracts/core/dao/Staking.sol",
  "abi": [
    {
      "inputs": [
        {
          "internalType": "contract IContractRegistry",
          "name": "_contractRegistry",
          "type": "address"
        }
      ],
      "stateMutability": "nonpayable",
      "type": "constructor"
    },
    {
      "anonymous": false,
      "inputs": [
        {
          "indexed": false,
          "internalType": "uint256",
          "name": "reward",
          "type": "uint256"
        }
      ],
      "name": "RewardAdded",
      "type": "event"
    },
    {
      "anonymous": false,
      "inputs": [
        {
          "indexed": false,
          "internalType": "address",
          "name": "_address",
          "type": "address"
        },
        {
          "indexed": false,
          "internalType": "uint256",
          "name": "reward",
          "type": "uint256"
        }
      ],
      "name": "RewardPaid",
      "type": "event"
    },
    {
      "anonymous": false,
      "inputs": [
        {
          "indexed": false,
          "internalType": "address",
          "name": "_address",
          "type": "address"
        },
        {
          "indexed": false,
          "internalType": "uint256",
          "name": "amount",
          "type": "uint256"
        }
      ],
      "name": "StakingDeposited",
      "type": "event"
    },
    {
      "anonymous": false,
      "inputs": [
        {
          "indexed": false,
          "internalType": "address",
          "name": "_address",
          "type": "address"
        },
        {
          "indexed": false,
          "internalType": "uint256",
          "name": "amount",
          "type": "uint256"
        }
      ],
      "name": "StakingWithdrawn",
      "type": "event"
    },
    {
      "inputs": [
        {
          "internalType": "address",
          "name": "_address",
          "type": "address"
        }
      ],
      "name": "balanceOf",
      "outputs": [
        {
          "internalType": "uint256",
          "name": "",
          "type": "uint256"
        }
      ],
      "stateMutability": "view",
      "type": "function"
    },
    {
      "inputs": [],
      "name": "contractRegistry",
      "outputs": [
        {
          "internalType": "contract IContractRegistry",
          "name": "",
          "type": "address"
        }
      ],
      "stateMutability": "view",
      "type": "function"
    },
    {
      "inputs": [
        {
          "internalType": "address",
          "name": "account",
          "type": "address"
        }
      ],
      "name": "earned",
      "outputs": [
        {
          "internalType": "uint256",
          "name": "",
          "type": "uint256"
        }
      ],
      "stateMutability": "view",
      "type": "function"
    },
    {
      "inputs": [],
      "name": "exit",
      "outputs": [],
      "stateMutability": "nonpayable",
      "type": "function"
    },
    {
      "inputs": [],
      "name": "getReward",
      "outputs": [],
      "stateMutability": "nonpayable",
      "type": "function"
    },
    {
      "inputs": [],
      "name": "getRewardForDuration",
      "outputs": [
        {
          "internalType": "uint256",
          "name": "",
          "type": "uint256"
        }
      ],
      "stateMutability": "view",
      "type": "function"
    },
    {
      "inputs": [
        {
          "internalType": "address",
          "name": "_address",
          "type": "address"
        }
      ],
      "name": "getVoiceCredits",
      "outputs": [
        {
          "internalType": "uint256",
          "name": "",
          "type": "uint256"
        }
      ],
      "stateMutability": "view",
      "type": "function"
    },
    {
      "inputs": [
        {
          "internalType": "address",
          "name": "_address",
          "type": "address"
        }
      ],
      "name": "getWithdrawableBalance",
      "outputs": [
        {
          "internalType": "uint256",
          "name": "",
          "type": "uint256"
        }
      ],
      "stateMutability": "view",
      "type": "function"
    },
    {
      "inputs": [
        {
          "internalType": "uint256",
          "name": "lengthOfTime",
          "type": "uint256"
        }
      ],
      "name": "increaseLock",
      "outputs": [],
      "stateMutability": "nonpayable",
      "type": "function"
    },
    {
      "inputs": [
        {
          "internalType": "uint256",
          "name": "amount",
          "type": "uint256"
        }
      ],
      "name": "increaseStake",
      "outputs": [],
      "stateMutability": "nonpayable",
      "type": "function"
    },
    {
      "inputs": [],
      "name": "lastTimeRewardApplicable",
      "outputs": [
        {
          "internalType": "uint256",
          "name": "",
          "type": "uint256"
        }
      ],
      "stateMutability": "view",
      "type": "function"
    },
    {
      "inputs": [],
      "name": "lastUpdateTime",
      "outputs": [
        {
          "internalType": "uint256",
          "name": "",
          "type": "uint256"
        }
      ],
      "stateMutability": "view",
      "type": "function"
    },
    {
      "inputs": [
        {
          "internalType": "address",
          "name": "",
          "type": "address"
        }
      ],
      "name": "lockedBalances",
      "outputs": [
        {
          "internalType": "uint256",
          "name": "_balance",
          "type": "uint256"
        },
        {
          "internalType": "uint256",
          "name": "_end",
          "type": "uint256"
        }
      ],
      "stateMutability": "view",
      "type": "function"
    },
    {
      "inputs": [
        {
          "internalType": "uint256",
          "name": "reward",
          "type": "uint256"
        }
      ],
      "name": "notifyRewardAmount",
      "outputs": [],
      "stateMutability": "nonpayable",
      "type": "function"
    },
    {
      "inputs": [],
      "name": "periodFinish",
      "outputs": [
        {
          "internalType": "uint256",
          "name": "",
          "type": "uint256"
        }
      ],
      "stateMutability": "view",
      "type": "function"
    },
    {
      "inputs": [
        {
          "internalType": "address",
          "name": "_address",
          "type": "address"
        }
      ],
      "name": "recalculateVoiceCredits",
      "outputs": [],
      "stateMutability": "nonpayable",
      "type": "function"
    },
    {
      "inputs": [],
      "name": "rewardPerToken",
      "outputs": [
        {
          "internalType": "uint256",
          "name": "",
          "type": "uint256"
        }
      ],
      "stateMutability": "view",
      "type": "function"
    },
    {
      "inputs": [],
      "name": "rewardPerTokenStored",
      "outputs": [
        {
          "internalType": "uint256",
          "name": "",
          "type": "uint256"
        }
      ],
      "stateMutability": "view",
      "type": "function"
    },
    {
      "inputs": [],
      "name": "rewardRate",
      "outputs": [
        {
          "internalType": "uint256",
          "name": "",
          "type": "uint256"
        }
      ],
      "stateMutability": "view",
      "type": "function"
    },
    {
      "inputs": [
        {
          "internalType": "address",
          "name": "",
          "type": "address"
        }
      ],
      "name": "rewards",
      "outputs": [
        {
          "internalType": "uint256",
          "name": "",
          "type": "uint256"
        }
      ],
      "stateMutability": "view",
      "type": "function"
    },
    {
      "inputs": [],
      "name": "rewardsDuration",
      "outputs": [
        {
          "internalType": "uint256",
          "name": "",
          "type": "uint256"
        }
      ],
      "stateMutability": "view",
      "type": "function"
    },
    {
      "inputs": [
        {
          "internalType": "uint256",
          "name": "amount",
          "type": "uint256"
        },
        {
          "internalType": "uint256",
          "name": "lengthOfTime",
          "type": "uint256"
        }
      ],
      "name": "stake",
      "outputs": [],
      "stateMutability": "nonpayable",
      "type": "function"
    },
    {
      "inputs": [],
      "name": "totalLocked",
      "outputs": [
        {
          "internalType": "uint256",
          "name": "",
          "type": "uint256"
        }
      ],
      "stateMutability": "view",
      "type": "function"
    },
    {
      "inputs": [],
      "name": "totalVoiceCredits",
      "outputs": [
        {
          "internalType": "uint256",
          "name": "",
          "type": "uint256"
        }
      ],
      "stateMutability": "view",
      "type": "function"
    },
    {
      "inputs": [
        {
          "internalType": "uint256",
          "name": "timestamp",
          "type": "uint256"
        }
      ],
      "name": "updatePeriodFinish",
      "outputs": [],
      "stateMutability": "nonpayable",
      "type": "function"
    },
    {
      "inputs": [
        {
          "internalType": "address",
          "name": "",
          "type": "address"
        }
      ],
      "name": "userRewardPerTokenPaid",
      "outputs": [
        {
          "internalType": "uint256",
          "name": "",
          "type": "uint256"
        }
      ],
      "stateMutability": "view",
      "type": "function"
    },
    {
      "inputs": [
        {
          "internalType": "address",
          "name": "",
          "type": "address"
        }
      ],
      "name": "voiceCredits",
      "outputs": [
        {
          "internalType": "uint256",
          "name": "",
          "type": "uint256"
        }
      ],
      "stateMutability": "view",
      "type": "function"
    },
    {
      "inputs": [
        {
          "internalType": "uint256",
          "name": "amount",
          "type": "uint256"
        }
      ],
      "name": "withdraw",
      "outputs": [],
      "stateMutability": "nonpayable",
      "type": "function"
    }
  ],
  "bytecode": "0x60806040526000600255600060035562093a8060045534801561002157600080fd5b506040516126653803806126658339818101604052602081101561004457600080fd5b50516001600081905580546001600160a01b039092166001600160a01b03199092169190911790556125ea8061007b6000396000f3fe608060405234801561001057600080fd5b50600436106101c35760003560e01c806370a08231116100f9578063c8f33c9111610097578063df136d6511610071578063df136d651461044e578063e9fad8ee14610456578063ebe2b12b1461045e578063eedad66b14610466576101c3565b8063c8f33c9114610436578063cd3daf9d1461043e578063df0dd6bb14610446576101c3565b806380faa57d116100d357806380faa57d146103be578063843592d3146103c65780638b876347146103ec578063abf410e514610412576101c3565b806370a082311461036d5780637b0472f0146103935780637b0a47ee146103b6576101c3565b806320d43db0116101665780633c6b16ab116101405780633c6b16ab146103235780633d18b91214610340578063556f6e6b146103485780635689141214610365576101c3565b806320d43db0146102d85780632e1a7d4d146102fe578063386a95251461031b576101c3565b80630700037d116101a25780630700037d14610265578063127ad3531461028b5780631c1f78eb146102b35780631c5a0914146102bb576101c3565b80628cc262146101c8578063034f98e5146102005780630483a7f614610226575b600080fd5b6101ee600480360360208110156101de57600080fd5b50356001600160a01b0316610483565b60408051918252519081900360200190f35b6101ee6004803603602081101561021657600080fd5b50356001600160a01b0316610503565b61024c6004803603602081101561023c57600080fd5b50356001600160a01b0316610583565b6040805192835260208301919091528051918290030190f35b6101ee6004803603602081101561027b57600080fd5b50356001600160a01b031661059c565b6102b1600480360360208110156102a157600080fd5b50356001600160a01b03166105ae565b005b6101ee61060e565b6102b1600480360360208110156102d157600080fd5b503561062d565b6101ee600480360360208110156102ee57600080fd5b50356001600160a01b03166107ba565b6102b16004803603602081101561031457600080fd5b50356107cc565b6101ee610a64565b6102b16004803603602081101561033957600080fd5b5035610a6a565b6102b1610f45565b6102b16004803603602081101561035e57600080fd5b503561126b565b6101ee611457565b6101ee6004803603602081101561038357600080fd5b50356001600160a01b031661145d565b6102b1600480360360408110156103a957600080fd5b5080359060200135611478565b6101ee611963565b6101ee611969565b6101ee600480360360208110156103dc57600080fd5b50356001600160a01b0316611977565b6101ee6004803603602081101561040257600080fd5b50356001600160a01b03166119c0565b61041a6119d2565b604080516001600160a01b039092168252519081900360200190f35b6101ee6119e1565b6101ee6119e7565b6101ee611a2f565b6101ee611a35565b6102b1611a3b565b6101ee611a56565b6102b16004803603602081101561047c57600080fd5b5035611a5c565b6001600160a01b0381166000908152600b6020908152604080832054600a9092528220546104fb91906104f590670de0b6b3a7640000906104ef906104d0906104ca6119e7565b90611d40565b6001600160a01b0388166000908152600c602052604090205490611da2565b90611e02565b90611e69565b90505b919050565b6001600160a01b0381166000908152600c60205260408120600181015490544282158061052f57508083105b80610538575081155b1561054957600093505050506104fe565b6000610565610e1061055f816104ef8887611d40565b90611da2565b9050610579630784ce006104ef8584611da2565b9695505050505050565b600c602052600090815260409020805460019091015482565b600b6020526000908152604090205481565b6001600160a01b0381166000908152600960205260409020546008546105d49082611d40565b6008556105e082610503565b6001600160a01b038316600090815260096020526040902081905560085461060791611e69565b6008555050565b6000610627600454600354611da290919063ffffffff16565b90505b90565b4262093a808210156106705760405162461bcd60e51b81526004018080602001828103825260248152602001806125176024913960400191505060405180910390fd5b630784ce008211156106b35760405162461bcd60e51b815260040180806020018281038252602f81526020018061255c602f913960400191505060405180910390fd5b336000908152600c6020526040902054610714576040805162461bcd60e51b815260206004820152601760248201527f6e6f206c6f636b656442616c616e636520657869737473000000000000000000604482015290519081900360640190fd5b336000908152600c6020526040902060010154811061077a576040805162461bcd60e51b815260206004820152601660248201527f77697468647261772062616c616e636520666972737400000000000000000000604482015290519081900360640190fd5b336000908152600c60205260409020600101546107979083611e69565b336000818152600c60205260409020600101919091556107b6906105ae565b5050565b60096020526000908152604090205481565b60026000541415610824576040805162461bcd60e51b815260206004820152601f60248201527f5265656e7472616e637947756172643a207265656e7472616e742063616c6c00604482015290519081900360640190fd5b6002600055336108326119e7565b60065561083d611969565b6005556001600160a01b038116156108845761085881610483565b6001600160a01b0382166000908152600b6020908152604080832093909355600654600a909152919020555b600082116108d9576040805162461bcd60e51b815260206004820152601d60248201527f616d6f756e74206d7573742062652067726561746572207468616e2030000000604482015290519081900360640190fd5b336000908152600c602052604090205461093a576040805162461bcd60e51b815260206004820152601460248201527f696e73756666696369656e742062616c616e6365000000000000000000000000604482015290519081900360640190fd5b61094333611977565b82111561094f57600080fd5b60015460408051631c2d8fb360e31b81527f69e547947a4514871bf84679401f91758bd0fe92e4c005143f6d0e5213dab0cb600482015290516109fe92339286926001600160a01b039092169163e16c7d9891602480820192602092909190829003018186803b1580156109c257600080fd5b505afa1580156109d6573d6000803e3d6000fd5b505050506040513d60208110156109ec57600080fd5b50516001600160a01b03169190611ec3565b600754610a0b9083611d40565b600755610a1782611f2e565b610a20336105ae565b604080513381526020810184905281517f31b1dcbb078c03f6346db59ee77d2cd25542dcdc90c03978beea4e90362d5f5f929181900390910190a150506001600055565b60045481565b6000610a746119e7565b600655610a7f611969565b6005556001600160a01b03811615610ac657610a9a81610483565b6001600160a01b0382166000908152600b6020908152604080832093909355600654600a909152919020555b60015460408051631c2d8fb360e31b81527f966f1e8d8d8014e05f6ec4a57138da9be1f7c5a7f802928a18072f7c53180761600482015290516001600160a01b039092169163e16c7d9891602480820192602092909190829003018186803b158015610b3157600080fd5b505afa158015610b45573d6000803e3d6000fd5b505050506040513d6020811015610b5b57600080fd5b50516001600160a01b0316331480610cb9575060015460408051631c2d8fb360e31b81527f15fa0125f52e5705da1148bfcf00974823c4381bee4314203ede255f9477b73e600482015290516001600160a01b039092169163e16c7d9891602480820192602092909190829003018186803b158015610bd957600080fd5b505afa158015610bed573d6000803e3d6000fd5b505050506040513d6020811015610c0357600080fd5b5051604080517f91d148540000000000000000000000000000000000000000000000000000000081527fd0a4ad96d49edb1c33461cebc6fb2609190f32c904e3c3f5877edb4488dee91e600482015233602482015290516001600160a01b03909216916391d1485491604480820192602092909190829003018186803b158015610c8c57600080fd5b505afa158015610ca0573d6000803e3d6000fd5b505050506040513d6020811015610cb657600080fd5b50515b610d0a576040805162461bcd60e51b815260206004820152600b60248201527f4e6f7420616c6c6f776564000000000000000000000000000000000000000000604482015290519081900360640190fd5b6002544210610d2957600454610d21908390611e02565b600355610d6c565b600254600090610d399042611d40565b90506000610d5260035483611da290919063ffffffff16565b600454909150610d66906104ef8684611e69565b60035550505b60015460408051631c2d8fb360e31b81527f69e547947a4514871bf84679401f91758bd0fe92e4c005143f6d0e5213dab0cb600482015290516000926001600160a01b03169163e16c7d98916024808301926020929190829003018186803b158015610dd757600080fd5b505afa158015610deb573d6000803e3d6000fd5b505050506040513d6020811015610e0157600080fd5b5051604080517f70a0823100000000000000000000000000000000000000000000000000000000815230600482015290516001600160a01b03909216916370a0823191602480820192602092909190829003018186803b158015610e6457600080fd5b505afa158015610e78573d6000803e3d6000fd5b505050506040513d6020811015610e8e57600080fd5b5051600454909150610ea1908290611e02565b6003541115610ef7576040805162461bcd60e51b815260206004820152601860248201527f50726f76696465642072657761726420746f6f20686967680000000000000000604482015290519081900360640190fd5b426005819055600454610f0a9190611e69565b6002556040805184815290517fde88a922e0d3b88b24e9623efeb464919c6bf9f66857a65e2bfcf2ce87a9433d9181900360200190a1505050565b60026000541415610f9d576040805162461bcd60e51b815260206004820152601f60248201527f5265656e7472616e637947756172643a207265656e7472616e742063616c6c00604482015290519081900360640190fd5b600260005533610fab6119e7565b600655610fb6611969565b6005556001600160a01b03811615610ffd57610fd181610483565b6001600160a01b0382166000908152600b6020908152604080832093909355600654600a909152919020555b336000908152600b6020526040902054801561126257336000908152600b60205260408120819055611030826003611e02565b9050600061103f826002611da2565b60015460408051631c2d8fb360e31b81527f69e547947a4514871bf84679401f91758bd0fe92e4c005143f6d0e5213dab0cb600482015290519293506000926001600160a01b039092169163e16c7d9891602480820192602092909190829003018186803b1580156110b057600080fd5b505afa1580156110c4573d6000803e3d6000fd5b505050506040513d60208110156110da57600080fd5b505160015460408051631c2d8fb360e31b81527f4c4c638469e08918953da4d00fe172675b324d995fc7ae47c898e4db0cbad647600482015290519293506000926001600160a01b039092169163e16c7d9891602480820192602092909190829003018186803b15801561114d57600080fd5b505afa158015611161573d6000803e3d6000fd5b505050506040513d602081101561117757600080fd5b5051905061118f6001600160a01b0383163386611ec3565b6111a36001600160a01b0383168285611fa9565b604080517f282d3fdf0000000000000000000000000000000000000000000000000000000081523360048201526024810185905290516001600160a01b0383169163282d3fdf91604480830192600092919082900301818387803b15801561120a57600080fd5b505af115801561121e573d6000803e3d6000fd5b5050604080513381526020810188905281517fe2403640ba68fed3a2f88b7557551d1993f84b99bb10ff833f0cf8db0c5e04869450908190039091019150a1505050505b50506001600055565b60006112756119e7565b600655611280611969565b6005556001600160a01b038116156112c75761129b81610483565b6001600160a01b0382166000908152600b6020908152604080832093909355600654600a909152919020555b60015460408051631c2d8fb360e31b81527f15fa0125f52e5705da1148bfcf00974823c4381bee4314203ede255f9477b73e600482015290516001600160a01b039092169163e16c7d9891602480820192602092909190829003018186803b15801561133257600080fd5b505afa158015611346573d6000803e3d6000fd5b505050506040513d602081101561135c57600080fd5b5051604080517fd09a20c50000000000000000000000000000000000000000000000000000000081527fd0a4ad96d49edb1c33461cebc6fb2609190f32c904e3c3f5877edb4488dee91e600482015233602482015290516001600160a01b039092169163d09a20c591604480820192600092909190829003018186803b1580156113e557600080fd5b505afa1580156113f9573d6000803e3d6000fd5b50505050428211611451576040805162461bcd60e51b815260206004820152601d60248201527f74696d657374616d702063616e7420626520696e207468652070617374000000604482015290519081900360640190fd5b50600255565b60075481565b6001600160a01b03166000908152600c602052604090205490565b600260005414156114d0576040805162461bcd60e51b815260206004820152601f60248201527f5265656e7472616e637947756172643a207265656e7472616e742063616c6c00604482015290519081900360640190fd5b6002600055336114de6119e7565b6006556114e9611969565b6005556001600160a01b038116156115305761150481610483565b6001600160a01b0382166000908152600b6020908152604080832093909355600654600a909152919020555b60015460408051631c2d8fb360e31b81527f15fa0125f52e5705da1148bfcf00974823c4381bee4314203ede255f9477b73e600482015290516001600160a01b039092169163e16c7d9891602480820192602092909190829003018186803b15801561159b57600080fd5b505afa1580156115af573d6000803e3d6000fd5b505050506040513d60208110156115c557600080fd5b5051604080517fdb47d43600000000000000000000000000000000000000000000000000000000815233600482015290516001600160a01b039092169163db47d43691602480820192600092909190829003018186803b15801561162857600080fd5b505afa15801561163c573d6000803e3d6000fd5b505060015460408051631c2d8fb360e31b81527f69e547947a4514871bf84679401f91758bd0fe92e4c005143f6d0e5213dab0cb60048201529051429450600093506001600160a01b039092169163e16c7d9891602480820192602092909190829003018186803b1580156116b057600080fd5b505afa1580156116c4573d6000803e3d6000fd5b505050506040513d60208110156116da57600080fd5b5051905084611730576040805162461bcd60e51b815260206004820152601d60248201527f616d6f756e74206d7573742062652067726561746572207468616e2030000000604482015290519081900360640190fd5b62093a808410156117725760405162461bcd60e51b81526004018080602001828103825260248152602001806125176024913960400191505060405180910390fd5b630784ce008411156117b55760405162461bcd60e51b815260040180806020018281038252602f81526020018061255c602f913960400191505060405180910390fd5b84816001600160a01b03166370a08231336040518263ffffffff1660e01b815260040180826001600160a01b0316815260200191505060206040518083038186803b15801561180357600080fd5b505afa158015611817573d6000803e3d6000fd5b505050506040513d602081101561182d57600080fd5b50511015611882576040805162461bcd60e51b815260206004820152601460248201527f696e73756666696369656e742062616c616e6365000000000000000000000000604482015290519081900360640190fd5b336000908152600c6020526040902054156118e4576040805162461bcd60e51b815260206004820152601660248201527f77697468647261772062616c616e636520666972737400000000000000000000604482015290519081900360640190fd5b6118f96001600160a01b0382163330886120b3565b6007546119069086611e69565b6007556119138585612126565b61191c336105ae565b604080513381526020810187905281517f6340a0e6b8ea35da618479a712fc50894736e440f8adf9c52f61e62b52b1d97a929181900390910190a150506001600055505050565b60035481565b60006106274260025461220c565b6001600160a01b0381166000908152600c60205260408120600101548190429081106119b9576001600160a01b0384166000908152600c602052604090205491505b5092915050565b600a6020526000908152604090205481565b6001546001600160a01b031681565b60055481565b6000600754600014156119fd575060065461062a565b610627611a266007546104ef670de0b6b3a764000061055f60035461055f6005546104ca611969565b60065490611e69565b60085481565b60065481565b611a4c611a4733611977565b6107cc565b611a54610f45565b565b60025481565b60015460408051631c2d8fb360e31b81527f69e547947a4514871bf84679401f91758bd0fe92e4c005143f6d0e5213dab0cb6004820152905142926000926001600160a01b039091169163e16c7d9891602480820192602092909190829003018186803b158015611acc57600080fd5b505afa158015611ae0573d6000803e3d6000fd5b505050506040513d6020811015611af657600080fd5b5051905082611b4c576040805162461bcd60e51b815260206004820152601d60248201527f616d6f756e74206d7573742062652067726561746572207468616e2030000000604482015290519081900360640190fd5b82816001600160a01b03166370a08231336040518263ffffffff1660e01b815260040180826001600160a01b0316815260200191505060206040518083038186803b158015611b9a57600080fd5b505afa158015611bae573d6000803e3d6000fd5b505050506040513d6020811015611bc457600080fd5b50511015611c19576040805162461bcd60e51b815260206004820152601460248201527f696e73756666696369656e742062616c616e6365000000000000000000000000604482015290519081900360640190fd5b336000908152600c6020526040902054611c7a576040805162461bcd60e51b815260206004820152601760248201527f6e6f206c6f636b656442616c616e636520657869737473000000000000000000604482015290519081900360640190fd5b336000908152600c60205260409020600101548210611ce0576040805162461bcd60e51b815260206004820152601660248201527f77697468647261772062616c616e636520666972737400000000000000000000604482015290519081900360640190fd5b611cf56001600160a01b0382163330866120b3565b600754611d029084611e69565b600755336000908152600c6020526040902054611d1f9084611e69565b336000818152600c6020526040902091909155611d3b906105ae565b505050565b600082821115611d97576040805162461bcd60e51b815260206004820152601e60248201527f536166654d6174683a207375627472616374696f6e206f766572666c6f770000604482015290519081900360640190fd5b508082035b92915050565b600082611db157506000611d9c565b82820282848281611dbe57fe5b0414611dfb5760405162461bcd60e51b815260040180806020018281038252602181526020018061253b6021913960400191505060405180910390fd5b9392505050565b6000808211611e58576040805162461bcd60e51b815260206004820152601a60248201527f536166654d6174683a206469766973696f6e206279207a65726f000000000000604482015290519081900360640190fd5b818381611e6157fe5b049392505050565b600082820183811015611dfb576040805162461bcd60e51b815260206004820152601b60248201527f536166654d6174683a206164646974696f6e206f766572666c6f770000000000604482015290519081900360640190fd5b604080516001600160a01b038416602482015260448082018490528251808303909101815260649091019091526020810180516001600160e01b03167fa9059cbb00000000000000000000000000000000000000000000000000000000179052611d3b908490612222565b336000908152600c6020526040902060010154429081106107b657336000908152600c6020526040902054821415611f7b57336000908152600c60205260408120818155600101556107b6565b336000908152600c6020526040902054611f959083611d40565b336000908152600c60205260409020555050565b600061203f82856001600160a01b031663dd62ed3e30876040518363ffffffff1660e01b815260040180836001600160a01b03168152602001826001600160a01b031681526020019250505060206040518083038186803b15801561200d57600080fd5b505afa158015612021573d6000803e3d6000fd5b505050506040513d602081101561203757600080fd5b505190611e69565b604080516001600160a01b038616602482015260448082018490528251808303909101815260649091019091526020810180516001600160e01b03167f095ea7b3000000000000000000000000000000000000000000000000000000001790529091506120ad908590612222565b50505050565b604080516001600160a01b0380861660248301528416604482015260648082018490528251808303909101815260849091019091526020810180516001600160e01b03167f23b872dd000000000000000000000000000000000000000000000000000000001790526120ad908590612222565b336000908152600c6020526040902060010154429081111561219c57604080518082018252336000908152600c602052919091205481906121679086611e69565b81526020016121768385611e69565b9052336000908152600c6020908152604090912082518155910151600190910155611d3b565b604080518082018252336000908152600c602052919091205481906121c19086611e69565b8152336000908152600c60209081526040909120600101549101906121e69085611e69565b9052336000908152600c6020908152604090912082518155910151600190910155505050565b600081831061221b5781611dfb565b5090919050565b6060612277826040518060400160405280602081526020017f5361666545524332303a206c6f772d6c6576656c2063616c6c206661696c6564815250856001600160a01b03166122d39092919063ffffffff16565b805190915015611d3b5780806020019051602081101561229657600080fd5b5051611d3b5760405162461bcd60e51b815260040180806020018281038252602a81526020018061258b602a913960400191505060405180910390fd5b60606122e284846000856122ea565b949350505050565b60608247101561232b5760405162461bcd60e51b81526004018080602001828103825260268152602001806124f16026913960400191505060405180910390fd5b61233485612446565b612385576040805162461bcd60e51b815260206004820152601d60248201527f416464726573733a2063616c6c20746f206e6f6e2d636f6e7472616374000000604482015290519081900360640190fd5b60006060866001600160a01b031685876040518082805190602001908083835b602083106123c45780518252601f1990920191602091820191016123a5565b6001836020036101000a03801982511681845116808217855250505050505090500191505060006040518083038185875af1925050503d8060008114612426576040519150601f19603f3d011682016040523d82523d6000602084013e61242b565b606091505b509150915061243b82828661244c565b979650505050505050565b3b151590565b6060831561245b575081611dfb565b82511561246b5782518084602001fd5b8160405162461bcd60e51b81526004018080602001828103825283818151815260200191508051906020019080838360005b838110156124b557818101518382015260200161249d565b50505050905090810190601f1680156124e25780820380516001836020036101000a031916815260200191505b509250505060405180910390fdfe416464726573733a20696e73756666696369656e742062616c616e636520666f722063616c6c6d757374206c6f636b20746f6b656e7320666f72206174206c656173742031207765656b536166654d6174683a206d756c7469706c69636174696f6e206f766572666c6f776d757374206c6f636b20746f6b656e7320666f72206c657373207468616e2f657175616c20746f20203420796561725361666545524332303a204552433230206f7065726174696f6e20646964206e6f742073756363656564a2646970667358221220c99173d6ad5fb915b937a16c7275db4c47e9b6d4f5db4c905af1aceceb03429664736f6c63430007030033",
  "linkReferences": {},
  "deployedLinkReferences": {}
}