{
  "_format": "hh-sol-artifact-1",
  "contractName": "HysiBatchZapper",
  "sourceName": "contracts/core/defi/HysiBatchZapper.sol",
  "abi": [
    {
      "inputs": [
        {
          "internalType": "contract IContractRegistry",
          "name": "contractRegistry_",
          "type": "address"
        },
        {
          "internalType": "contract Curve3Pool",
          "name": "curve3Pool_",
          "type": "address"
        },
        {
          "internalType": "contract IERC20",
          "name": "threeCrv_",
          "type": "address"
        }
      ],
      "stateMutability": "nonpayable",
      "type": "constructor"
    },
    {
      "anonymous": false,
      "inputs": [
        {
          "indexed": false,
          "internalType": "bytes32",
          "name": "batchId",
          "type": "bytes32"
        },
        {
          "indexed": false,
          "internalType": "uint8",
          "name": "stableCoinIndex",
          "type": "uint8"
        },
        {
          "indexed": false,
          "internalType": "uint256",
          "name": "threeCurveAmount",
          "type": "uint256"
        },
        {
          "indexed": false,
          "internalType": "uint256",
          "name": "stableCoinAmount",
          "type": "uint256"
        },
        {
          "indexed": false,
          "internalType": "address",
          "name": "account",
          "type": "address"
        }
      ],
      "name": "ClaimedIntoStable",
      "type": "event"
    },
    {
      "anonymous": false,
      "inputs": [
        {
          "indexed": false,
          "internalType": "uint256",
          "name": "threeCurveAmount",
          "type": "uint256"
        },
        {
          "indexed": false,
          "internalType": "address",
          "name": "account",
          "type": "address"
        }
      ],
      "name": "ZappedIntoBatch",
      "type": "event"
    },
    {
      "anonymous": false,
      "inputs": [
        {
          "indexed": false,
          "internalType": "bytes32",
          "name": "batchId",
          "type": "bytes32"
        },
        {
          "indexed": false,
          "internalType": "uint8",
          "name": "stableCoinIndex",
          "type": "uint8"
        },
        {
          "indexed": false,
          "internalType": "uint256",
          "name": "threeCurveAmount",
          "type": "uint256"
        },
        {
          "indexed": false,
          "internalType": "uint256",
          "name": "stableCoinAmount",
          "type": "uint256"
        },
        {
          "indexed": false,
          "internalType": "address",
          "name": "account",
          "type": "address"
        }
      ],
      "name": "ZappedOutOfBatch",
      "type": "event"
    },
    {
      "inputs": [
        {
          "internalType": "bytes32",
          "name": "batchId_",
          "type": "bytes32"
        },
        {
          "internalType": "uint8",
          "name": "stableCoinIndex_",
          "type": "uint8"
        },
        {
          "internalType": "uint256",
          "name": "min_amount_",
          "type": "uint256"
        }
      ],
      "name": "claimAndSwapToStable",
      "outputs": [],
      "stateMutability": "nonpayable",
      "type": "function"
    },
    {
      "inputs": [
        {
          "internalType": "uint256[3]",
          "name": "amounts_",
          "type": "uint256[3]"
        },
        {
          "internalType": "uint256",
          "name": "min_mint_amounts_",
          "type": "uint256"
        }
      ],
      "name": "zapIntoBatch",
      "outputs": [],
      "stateMutability": "nonpayable",
      "type": "function"
    },
    {
      "inputs": [
        {
          "internalType": "bytes32",
          "name": "batchId_",
          "type": "bytes32"
        },
        {
          "internalType": "uint256",
          "name": "amountToWithdraw_",
          "type": "uint256"
        },
        {
          "internalType": "uint8",
          "name": "stableCoinIndex_",
          "type": "uint8"
        },
        {
          "internalType": "uint256",
          "name": "min_amount_",
          "type": "uint256"
        }
      ],
      "name": "zapOutOfBatch",
      "outputs": [],
      "stateMutability": "nonpayable",
      "type": "function"
    }
  ],
  "bytecode": "0x608060405234801561001057600080fd5b5060405161135f38038061135f83398101604081905261002f91610071565b600080546001600160a01b039485166001600160a01b0319918216179091556001805493851693821693909317909255600280549190931691161790556100d5565b600080600060608486031215610085578283fd5b8351610090816100bd565b60208501519093506100a1816100bd565b60408501519092506100b2816100bd565b809150509250925092565b6001600160a01b03811681146100d257600080fd5b50565b61127b806100e46000396000f3fe608060405234801561001057600080fd5b50600436106100415760003560e01c80636a1c241314610046578063bb03c5c21461005b578063ea2b15c51461006e575b600080fd5b610059610054366004610e66565b610081565b005b610059610069366004610dc9565b6101d7565b61005961007c366004610ea2565b6105cb565b600054604051631c2d8fb360e31b81526001600160a01b039091169063e16c7d98906100d1907faa821177e27c4d8c5b6e0ea8808c02d26a94b8d2b70e222f4a392ed9113644bb9060040161104f565b60206040518083038186803b1580156100e957600080fd5b505afa1580156100fd573d6000803e3d6000fd5b505050506040513d601f19601f820116820180604052508101906101219190610daf565b6001600160a01b0316633af3bfb58585336040518463ffffffff1660e01b81526004016101509392919061106f565b600060405180830381600087803b15801561016a57600080fd5b505af115801561017e573d6000803e3d6000fd5b50505050600061018f84848461082b565b90507f488e809ec3972782422dc6e318706816f07653f88f15bfa0c345418d9892ad7e85848684336040516101c895949392919061108e565b60405180910390a15050505050565b60008054604051631c2d8fb360e31b81526001600160a01b039091169063e16c7d9890610228907faa821177e27c4d8c5b6e0ea8808c02d26a94b8d2b70e222f4a392ed9113644bb9060040161104f565b60206040518083038186803b15801561024057600080fd5b505afa158015610254573d6000803e3d6000fd5b505050506040513d601f19601f820116820180604052508101906102789190610daf565b905060005b60038160ff1610156103df576000848260ff166003811061029a57fe5b602002015111156103d757835160015460405163c661065760e01b815261034092339230926001600160a01b039091169063c6610657906102df90889060040161120b565b60206040518083038186803b1580156102f757600080fd5b505afa15801561030b573d6000803e3d6000fd5b505050506040513d601f19601f8201168201806040525081019061032f9190610daf565b6001600160a01b0316929190610a6d565b600154845160405163c661065760e01b81526103d7926001600160a01b03169190829063c66106579061037790879060040161120b565b60206040518083038186803b15801561038f57600080fd5b505afa1580156103a3573d6000803e3d6000fd5b505050506040513d601f19601f820116820180604052508101906103c79190610daf565b6001600160a01b03169190610af8565b60010161027d565b506001546040517f4515cef30000000000000000000000000000000000000000000000000000000081526001600160a01b0390911690634515cef39061042b9086908690600401611017565b600060405180830381600087803b15801561044557600080fd5b505af1158015610459573d6000803e3d6000fd5b50506002546040517f70a08231000000000000000000000000000000000000000000000000000000008152600093506001600160a01b0390911691506370a08231906104a9903090600401610fac565b60206040518083038186803b1580156104c157600080fd5b505afa1580156104d5573d6000803e3d6000fd5b505050506040513d601f19601f820116820180604052508101906104f99190610f78565b600254909150610513906001600160a01b03168383610af8565b6040517f961b7d860000000000000000000000000000000000000000000000000000000081526001600160a01b0383169063961b7d869061055a9084903390600401611058565b600060405180830381600087803b15801561057457600080fd5b505af1158015610588573d6000803e3d6000fd5b505050507fa59c8e0fff5360b5d65a99cba38825db122305108affae79287f0029d5b4b6e381336040516105bd929190611058565b60405180910390a150505050565b60008054604051631c2d8fb360e31b81526001600160a01b039091169063e16c7d989061061c907faa821177e27c4d8c5b6e0ea8808c02d26a94b8d2b70e222f4a392ed9113644bb9060040161104f565b60206040518083038186803b15801561063457600080fd5b505afa158015610648573d6000803e3d6000fd5b505050506040513d601f19601f8201168201806040525081019061066c9190610daf565b905060016040517fc81e25ab0000000000000000000000000000000000000000000000000000000081526001600160a01b0383169063c81e25ab906106b590889060040161104f565b6101006040518083038186803b1580156106ce57600080fd5b505afa1580156106e2573d6000803e3d6000fd5b505050506040513d601f19601f820116820180604052508101906107069190610ed6565b51600181111561071257fe5b146107385760405162461bcd60e51b815260040161072f90611127565b60405180910390fd5b6040517f96c144f00000000000000000000000000000000000000000000000000000000081526000906001600160a01b038316906396c144f0906107829088903390600401611058565b602060405180830381600087803b15801561079c57600080fd5b505af11580156107b0573d6000803e3d6000fd5b505050506040513d601f19601f820116820180604052508101906107d49190610f78565b905060006107e382868661082b565b90507e4f8bcfa3280478204e9c5d36884938428f1ab9462917d29faed37570b5978b868684843360405161081b95949392919061108e565b60405180910390a1505050505050565b60015460025460009161084b916001600160a01b03908116911686610af8565b6001546040517f1a4d01d20000000000000000000000000000000000000000000000000000000081526001600160a01b0390911690631a4d01d290610898908790879087906004016111f2565b600060405180830381600087803b1580156108b257600080fd5b505af11580156108c6573d6000803e3d6000fd5b505060015460405163c661065760e01b8152600093506001600160a01b03909116915063c6610657906108fd90879060040161120b565b60206040518083038186803b15801561091557600080fd5b505afa158015610929573d6000803e3d6000fd5b505050506040513d601f19601f8201168201806040525081019061094d9190610daf565b6001600160a01b03166370a08231306040518263ffffffff1660e01b81526004016109789190610fac565b60206040518083038186803b15801561099057600080fd5b505afa1580156109a4573d6000803e3d6000fd5b505050506040513d601f19601f820116820180604052508101906109c89190610f78565b60015460405163c661065760e01b8152919250610a6391339184916001600160a01b039091169063c661065790610a03908a9060040161120b565b60206040518083038186803b158015610a1b57600080fd5b505afa158015610a2f573d6000803e3d6000fd5b505050506040513d601f19601f82011682018060405250810190610a539190610daf565b6001600160a01b03169190610ba3565b90505b9392505050565b610af2846323b872dd60e01b858585604051602401610a8e93929190610fda565b60408051601f198184030181529190526020810180517bffffffffffffffffffffffffffffffffffffffffffffffffffffffff167fffffffff0000000000000000000000000000000000000000000000000000000090931692909217909152610bc7565b50505050565b6000610b8282856001600160a01b031663dd62ed3e30876040518363ffffffff1660e01b8152600401610b2c929190610fc0565b60206040518083038186803b158015610b4457600080fd5b505afa158015610b58573d6000803e3d6000fd5b505050506040513d601f19601f82011682018060405250810190610b7c9190610f78565b90610c56565b9050610af28463095ea7b360e01b8584604051602401610a8e929190610ffe565b610bc28363a9059cbb60e01b8484604051602401610a8e929190610ffe565b505050565b6060610c1c826040518060400160405280602081526020017f5361666545524332303a206c6f772d6c6576656c2063616c6c206661696c6564815250856001600160a01b0316610c7b9092919063ffffffff16565b805190915015610bc25780806020019051810190610c3a9190610e4c565b610bc25760405162461bcd60e51b815260040161072f90611195565b600082820183811015610a665760405162461bcd60e51b815260040161072f906110f0565b6060610a63848460008585610c8f85610d25565b610cab5760405162461bcd60e51b815260040161072f9061115e565b60006060866001600160a01b03168587604051610cc89190610f90565b60006040518083038185875af1925050503d8060008114610d05576040519150601f19603f3d011682016040523d82523d6000602084013e610d0a565b606091505b5091509150610d1a828286610d2f565b979650505050505050565b803b15155b919050565b60608315610d3e575081610a66565b825115610d4e5782518084602001fd5b8160405162461bcd60e51b815260040161072f91906110bd565b80516001600160a01b0381168114610d2a57600080fd5b80518015158114610d2a57600080fd5b805160028110610d2a57600080fd5b803560ff81168114610d2a57600080fd5b600060208284031215610dc0578081fd5b610a6682610d68565b60008060808385031215610ddb578081fd5b83601f840112610de9578081fd5b6040516060810181811067ffffffffffffffff82111715610e0657fe5b60405280846060810187811115610e1b578485fd5b845b6003811015610e3c578235845260209384019390920191600101610e1d565b5092979235965091945050505050565b600060208284031215610e5d578081fd5b610a6682610d7f565b60008060008060808587031215610e7b578182fd5b8435935060208501359250610e9260408601610d9e565b9396929550929360600135925050565b600080600060608486031215610eb6578283fd5b83359250610ec660208501610d9e565b9150604084013590509250925092565b6000610100808385031215610ee9578182fd5b6040519081019067ffffffffffffffff82118183101715610f0657fe5b81604052610f1384610d8f565b815260208401516020820152610f2b60408501610d7f565b6040820152606084015160608201526080840151608082015260a084015160a0820152610f5a60c08501610d68565b60c0820152610f6b60e08501610d68565b60e0820152949350505050565b600060208284031215610f89578081fd5b5051919050565b60008251610fa2818460208701611219565b9190910192915050565b6001600160a01b0391909116815260200190565b6001600160a01b0392831681529116602082015260400190565b6001600160a01b039384168152919092166020820152604081019190915260600190565b6001600160a01b03929092168252602082015260400190565b60808101818460005b600381101561103f578151835260209283019290910190600101611020565b5050508260608301529392505050565b90815260200190565b9182526001600160a01b0316602082015260400190565b92835260208301919091526001600160a01b0316604082015260600190565b94855260ff939093166020850152604084019190915260608301526001600160a01b0316608082015260a00190565b60006020825282518060208401526110dc816040850160208701611219565b601f01601f19169190910160400192915050565b6020808252601b908201527f536166654d6174683a206164646974696f6e206f766572666c6f770000000000604082015260600190565b60208082526014908201527f6e6565647320746f2072657475726e2033637276000000000000000000000000604082015260600190565b6020808252601d908201527f416464726573733a2063616c6c20746f206e6f6e2d636f6e7472616374000000604082015260600190565b6020808252602a908201527f5361666545524332303a204552433230206f7065726174696f6e20646964206e60408201527f6f74207375636365656400000000000000000000000000000000000000000000606082015260800190565b92835260ff919091166020830152604082015260600190565b60ff91909116815260200190565b60005b8381101561123457818101518382015260200161121c565b83811115610af2575050600091015256fea2646970667358221220cbf6692a1c7be2a3d32aec78529ee171ea82875ea64448669a40efeed7dd2b9e64736f6c63430007030033",
  "linkReferences": {},
  "deployedLinkReferences": {}
}