{
  "_format": "hh-sol-artifact-1",
  "contractName": "ParticipationRewardHelper",
  "sourceName": "contracts/test_helpers/ParticipationRewardHelper.sol",
  "abi": [
    {
      "inputs": [
        {
          "internalType": "contract ParticipationReward",
          "name": "_participationReward",
          "type": "address"
        }
      ],
      "stateMutability": "nonpayable",
      "type": "constructor"
    },
    {
      "inputs": [
        {
          "internalType": "bytes32",
          "name": "vaultId_",
          "type": "bytes32"
        },
        {
          "internalType": "address",
          "name": "account_",
          "type": "address"
        },
        {
          "internalType": "uint256",
          "name": "shares_",
          "type": "uint256"
        }
      ],
      "name": "addShares",
      "outputs": [],
      "stateMutability": "nonpayable",
      "type": "function"
    },
    {
      "inputs": [],
      "name": "contractName",
      "outputs": [
        {
          "internalType": "bytes32",
          "name": "",
          "type": "bytes32"
        }
      ],
      "stateMutability": "view",
      "type": "function"
    },
    {
      "inputs": [
        {
          "internalType": "bytes32",
          "name": "vaultId_",
          "type": "bytes32"
        },
        {
          "internalType": "uint256",
          "name": "endTime_",
          "type": "uint256"
        }
      ],
      "name": "initializeVault",
      "outputs": [],
      "stateMutability": "nonpayable",
      "type": "function"
    },
    {
      "inputs": [
        {
          "internalType": "bytes32",
          "name": "vaultId_",
          "type": "bytes32"
        }
      ],
      "name": "openVault",
      "outputs": [],
      "stateMutability": "nonpayable",
      "type": "function"
    },
    {
      "inputs": [],
      "name": "participationReward",
      "outputs": [
        {
          "internalType": "contract ParticipationReward",
          "name": "",
          "type": "address"
        }
      ],
      "stateMutability": "view",
      "type": "function"
    }
  ],
  "bytecode": "0x60a06040527f50617274696369706174696f6e52657761726448656c7065720000000000000060805234801561003457600080fd5b506040516104443803806104448339818101604052602081101561005757600080fd5b5051600080546001600160a01b039092166001600160a01b03199092169190911790556080516103a16100a36000398061014b52806101d5528061023352806102f652506103a16000f3fe608060405234801561001057600080fd5b50600436106100675760003560e01c806389afec6d1161005057806389afec6d146100ba578063a7bcc5d6146100de578063fab9bd5e1461010157610067565b8063255e12611461006c57806375d0c0dc146100a0575b600080fd5b61009e6004803603606081101561008257600080fd5b508035906001600160a01b03602082013516906040013561011e565b005b6100a86101d3565b60408051918252519081900360200190f35b6100c26101f7565b604080516001600160a01b039092168252519081900360200190f35b61009e600480360360408110156100f457600080fd5b5080359060200135610206565b61009e6004803603602081101561011757600080fd5b50356102c9565b60008054604080517fdb4dc5f00000000000000000000000000000000000000000000000000000000081527f00000000000000000000000000000000000000000000000000000000000000006004820152602481018790526001600160a01b038681166044830152606482018690529151919092169263db4dc5f0926084808201939182900301818387803b1580156101b657600080fd5b505af11580156101ca573d6000803e3d6000fd5b50505050505050565b7f000000000000000000000000000000000000000000000000000000000000000081565b6000546001600160a01b031681565b60008054604080517f66308e130000000000000000000000000000000000000000000000000000000081527f00000000000000000000000000000000000000000000000000000000000000006004820152602481018690526044810185905281516001600160a01b03909316936366308e1393606480840194939192918390030190829087803b15801561029957600080fd5b505af11580156102ad573d6000803e3d6000fd5b505050506040513d60408110156102c357600080fd5b50505050565b60008054604080517fefff46dd0000000000000000000000000000000000000000000000000000000081527f000000000000000000000000000000000000000000000000000000000000000060048201526024810185905290516001600160a01b039092169263efff46dd9260448084019382900301818387803b15801561035057600080fd5b505af1158015610364573d6000803e3d6000fd5b505050505056fea2646970667358221220f7e887aea16993d15e272c5cdad3e77f478d582224ee5647e23a42efa0911bff64736f6c63430007030033",
  "linkReferences": {},
  "deployedLinkReferences": {}
}