{
  "_format": "hh-sol-artifact-1",
  "contractName": "Region",
  "sourceName": "contracts/core/utils/Region.sol",
  "abi": [
    {
      "inputs": [
        {
          "internalType": "address",
          "name": "beneficiaryVault_",
          "type": "address"
        },
        {
          "internalType": "contract IContractRegistry",
          "name": "contractRegistry_",
          "type": "address"
        }
      ],
      "stateMutability": "nonpayable",
      "type": "constructor"
    },
    {
      "anonymous": false,
      "inputs": [
        {
          "indexed": false,
          "internalType": "bytes32",
          "name": "region",
          "type": "bytes32"
        }
      ],
      "name": "RegionAdded",
      "type": "event"
    },
    {
      "inputs": [
        {
          "internalType": "bytes32",
          "name": "region_",
          "type": "bytes32"
        },
        {
          "internalType": "address",
          "name": "beneficiaryVault_",
          "type": "address"
        }
      ],
      "name": "addRegion",
      "outputs": [],
      "stateMutability": "nonpayable",
      "type": "function"
    },
    {
      "inputs": [
        {
          "internalType": "uint256",
          "name": "",
          "type": "uint256"
        }
      ],
      "name": "beneficiaryVaults",
      "outputs": [
        {
          "internalType": "address",
          "name": "",
          "type": "address"
        }
      ],
      "stateMutability": "view",
      "type": "function"
    },
    {
      "inputs": [],
      "name": "contractRegistry",
      "outputs": [
        {
          "internalType": "contract IContractRegistry",
          "name": "",
          "type": "address"
        }
      ],
      "stateMutability": "view",
      "type": "function"
    },
    {
      "inputs": [],
      "name": "defaultRegion",
      "outputs": [
        {
          "internalType": "bytes32",
          "name": "",
          "type": "bytes32"
        }
      ],
      "stateMutability": "view",
      "type": "function"
    },
    {
      "inputs": [],
      "name": "getAllRegions",
      "outputs": [
        {
          "internalType": "bytes32[]",
          "name": "",
          "type": "bytes32[]"
        }
      ],
      "stateMutability": "view",
      "type": "function"
    },
    {
      "inputs": [],
      "name": "getAllVaults",
      "outputs": [
        {
          "internalType": "address[]",
          "name": "",
          "type": "address[]"
        }
      ],
      "stateMutability": "view",
      "type": "function"
    },
    {
      "inputs": [
        {
          "internalType": "bytes32",
          "name": "",
          "type": "bytes32"
        }
      ],
      "name": "regionExists",
      "outputs": [
        {
          "internalType": "bool",
          "name": "",
          "type": "bool"
        }
      ],
      "stateMutability": "view",
      "type": "function"
    },
    {
      "inputs": [
        {
          "internalType": "bytes32",
          "name": "",
          "type": "bytes32"
        }
      ],
      "name": "regionVaults",
      "outputs": [
        {
          "internalType": "address",
          "name": "",
          "type": "address"
        }
      ],
      "stateMutability": "view",
      "type": "function"
    },
    {
      "inputs": [
        {
          "internalType": "uint256",
          "name": "",
          "type": "uint256"
        }
      ],
      "name": "regions",
      "outputs": [
        {
          "internalType": "bytes32",
          "name": "",
          "type": "bytes32"
        }
      ],
      "stateMutability": "view",
      "type": "function"
    }
  ],
  "bytecode": "0x60a06040526000805160206107b083398151915260805234801561002257600080fd5b506040516107d03803806107d08339818101604052604081101561004557600080fd5b5080516020918201516001805480820182556000805160206107b08339815191527fb10e2d527612073b26eecdfd717e6a320cf44b4afac2b0732d9fcbe2b7fa0cf69091018190557f0274da8a205877ac920aec8ef3375edaefd079413524fbe4f632e0ab00902533805460ff1916831790556002805492830190557f405787fa12a823e0f2b7631cc41b3ba8828b3321ca811111fa75cd3aa3bb5ace90910180546001600160a01b039485166001600160a01b03199182168117909255600092835260049095527f403a34c2059516b9732659234ecdd926a14c20f483214bc448c3c7e65ff47c3e8054861690911790558054929091169190921617905560805161065261015e600039806102ff52506106526000f3fe608060405234801561001057600080fd5b50600436106100a35760003560e01c8063abf410e511610076578063b5a4a8761161005b578063b5a4a87614610180578063be856eda1461019d578063d40feef8146101ce576100a3565b8063abf410e514610170578063aed621c014610178576100a3565b8063132abfb6146100a85780635c2cc7ae146100d757806366c76ad91461011057806397331bf914610168575b600080fd5b6100c5600480360360208110156100be57600080fd5b50356101fc565b60408051918252519081900360200190f35b6100f4600480360360208110156100ed57600080fd5b503561021a565b604080516001600160a01b039092168252519081900360200190f35b610118610235565b60408051602080825283518183015283519192839290830191858101910280838360005b8381101561015457818101518382015260200161013c565b505050509050019250505060405180910390f35b61011861028d565b6100f46102ee565b6100c56102fd565b6100f46004803603602081101561019657600080fd5b5035610321565b6101ba600480360360208110156101b357600080fd5b5035610348565b604080519115158252519081900360200190f35b6101fa600480360360408110156101e457600080fd5b50803590602001356001600160a01b031661035d565b005b6001818154811061020957fe5b600091825260209091200154905081565b6004602052600090815260409020546001600160a01b031681565b6060600180548060200260200160405190810160405280929190818152602001828054801561028357602002820191906000526020600020905b81548152602001906001019080831161026f575b5050505050905090565b6060600280548060200260200160405190810160405280929190818152602001828054801561028357602002820191906000526020600020905b81546001600160a01b031681526001909101906020018083116102c7575050505050905090565b6000546001600160a01b031681565b7f000000000000000000000000000000000000000000000000000000000000000081565b6002818154811061032e57fe5b6000918252602090912001546001600160a01b0316905081565b60036020526000908152604090205460ff1681565b600054604080517fe16c7d980000000000000000000000000000000000000000000000000000000081527f15fa0125f52e5705da1148bfcf00974823c4381bee4314203ede255f9477b73e600482015290516001600160a01b039092169163e16c7d9891602480820192602092909190829003018186803b1580156103e157600080fd5b505afa1580156103f5573d6000803e3d6000fd5b505050506040513d602081101561040b57600080fd5b5051604080517fd09a20c50000000000000000000000000000000000000000000000000000000081527fd0a4ad96d49edb1c33461cebc6fb2609190f32c904e3c3f5877edb4488dee91e600482015233602482015290516001600160a01b039092169163d09a20c591604480820192600092909190829003018186803b15801561049457600080fd5b505afa1580156104a8573d6000803e3d6000fd5b50505060008381526003602052604090205460ff1615905061052b57604080517f08c379a000000000000000000000000000000000000000000000000000000000815260206004820152601560248201527f726567696f6e20616c7265616479206578697374730000000000000000000000604482015290519081900360640190fd5b6001805480820182557fb10e2d527612073b26eecdfd717e6a320cf44b4afac2b0732d9fcbe2b7fa0cf6018390556000838152600360209081526040808320805460ff1916851790556002805494850190557f405787fa12a823e0f2b7631cc41b3ba8828b3321ca811111fa75cd3aa3bb5ace90930180546001600160a01b0386167fffffffffffffffffffffffff000000000000000000000000000000000000000091821681179092556004835292849020805490931617909155815184815291517fd256121956711d0e11c5a41d66b9d462e3a2b312a43489d8d408945ddf6a8a729281900390910190a1505056fea2646970667358221220340916ba70c603b8df79ffc71fc03e95ac32c9063a865d96a3adfb5f67c7c3d164736f6c63430007030033f2208c967df089f60420785795c0a9ba8896b0f6f1867fa7f1f12ad6f79c1a18",
  "linkReferences": {},
  "deployedLinkReferences": {}
}