{
  "_format": "hh-sol-artifact-1",
  "contractName": "RewardsManager",
  "sourceName": "contracts/core/utils/RewardsManager.sol",
  "abi": [
    {
      "inputs": [
        {
          "internalType": "contract IContractRegistry",
          "name": "contractRegistry_",
          "type": "address"
        },
        {
          "internalType": "contract IUniswapV2Router02",
          "name": "uniswapV2Router_",
          "type": "address"
        }
      ],
      "stateMutability": "nonpayable",
      "type": "constructor"
    },
    {
      "anonymous": false,
      "inputs": [
        {
          "indexed": false,
          "internalType": "uint256",
          "name": "amount",
          "type": "uint256"
        }
      ],
      "name": "BeneficiaryVaultsDeposited",
      "type": "event"
    },
    {
      "anonymous": false,
      "inputs": [
        {
          "indexed": false,
          "internalType": "address",
          "name": "to",
          "type": "address"
        },
        {
          "indexed": false,
          "internalType": "uint256",
          "name": "amount",
          "type": "uint256"
        }
      ],
      "name": "InsuranceDeposited",
      "type": "event"
    },
    {
      "anonymous": false,
      "inputs": [
        {
          "indexed": false,
          "internalType": "contract IRegion",
          "name": "from",
          "type": "address"
        },
        {
          "indexed": false,
          "internalType": "contract IRegion",
          "name": "to",
          "type": "address"
        }
      ],
      "name": "RegionChanged",
      "type": "event"
    },
    {
      "anonymous": false,
      "inputs": [
        {
          "indexed": false,
          "internalType": "uint256[4]",
          "name": "splits",
          "type": "uint256[4]"
        }
      ],
      "name": "RewardSplitsUpdated",
      "type": "event"
    },
    {
      "anonymous": false,
      "inputs": [
        {
          "indexed": false,
          "internalType": "uint256",
          "name": "amount",
          "type": "uint256"
        }
      ],
      "name": "RewardsDistributed",
      "type": "event"
    },
    {
      "anonymous": false,
      "inputs": [
        {
          "indexed": false,
          "internalType": "address",
          "name": "to",
          "type": "address"
        },
        {
          "indexed": false,
          "internalType": "uint256",
          "name": "amount",
          "type": "uint256"
        }
      ],
      "name": "StakingDeposited",
      "type": "event"
    },
    {
      "anonymous": false,
      "inputs": [
        {
          "indexed": false,
          "internalType": "address",
          "name": "token",
          "type": "address"
        },
        {
          "indexed": false,
          "internalType": "uint256",
          "name": "amountIn",
          "type": "uint256"
        },
        {
          "indexed": false,
          "internalType": "uint256",
          "name": "amountOut",
          "type": "uint256"
        }
      ],
      "name": "TokenSwapped",
      "type": "event"
    },
    {
      "anonymous": false,
      "inputs": [
        {
          "indexed": false,
          "internalType": "address",
          "name": "to",
          "type": "address"
        },
        {
          "indexed": false,
          "internalType": "uint256",
          "name": "amount",
          "type": "uint256"
        }
      ],
      "name": "TreasuryDeposited",
      "type": "event"
    },
    {
      "inputs": [],
      "name": "SWAP_TIMEOUT",
      "outputs": [
        {
          "internalType": "uint256",
          "name": "",
          "type": "uint256"
        }
      ],
      "stateMutability": "view",
      "type": "function"
    },
    {
      "inputs": [],
      "name": "contractName",
      "outputs": [
        {
          "internalType": "bytes32",
          "name": "",
          "type": "bytes32"
        }
      ],
      "stateMutability": "view",
      "type": "function"
    },
    {
      "inputs": [],
      "name": "contractRegistry",
      "outputs": [
        {
          "internalType": "contract IContractRegistry",
          "name": "",
          "type": "address"
        }
      ],
      "stateMutability": "view",
      "type": "function"
    },
    {
      "inputs": [],
      "name": "distributeRewards",
      "outputs": [],
      "stateMutability": "nonpayable",
      "type": "function"
    },
    {
      "inputs": [],
      "name": "getRewardSplits",
      "outputs": [
        {
          "internalType": "uint256[4]",
          "name": "",
          "type": "uint256[4]"
        }
      ],
      "stateMutability": "view",
      "type": "function"
    },
    {
      "inputs": [
        {
          "internalType": "uint256",
          "name": "",
          "type": "uint256"
        }
      ],
      "name": "rewardSplits",
      "outputs": [
        {
          "internalType": "uint256",
          "name": "",
          "type": "uint256"
        }
      ],
      "stateMutability": "view",
      "type": "function"
    },
    {
      "inputs": [
        {
          "internalType": "uint256[4]",
          "name": "splits_",
          "type": "uint256[4]"
        }
      ],
      "name": "setRewardSplits",
      "outputs": [],
      "stateMutability": "nonpayable",
      "type": "function"
    },
    {
      "inputs": [
        {
          "internalType": "address[]",
          "name": "path_",
          "type": "address[]"
        },
        {
          "internalType": "uint256",
          "name": "minAmountOut_",
          "type": "uint256"
        }
      ],
      "name": "swapTokenForRewards",
      "outputs": [
        {
          "internalType": "uint256[]",
          "name": "",
          "type": "uint256[]"
        }
      ],
      "stateMutability": "nonpayable",
      "type": "function"
    },
    {
      "inputs": [],
      "name": "uniswapV2Router",
      "outputs": [
        {
          "internalType": "contract IUniswapV2Router02",
          "name": "",
          "type": "address"
        }
      ],
      "stateMutability": "view",
      "type": "function"
    },
    {
      "stateMutability": "payable",
      "type": "receive"
    }
  ],
  "bytecode": "0x60c06040526d2932bbb0b93239a6b0b730b3b2b960911b6080523480156200002657600080fd5b506040516200244138038062002441833981810160405260408110156200004c57600080fd5b5080516020918201516001600081815581546001600160a01b0319166001600160a01b03851617909155606082901b6001600160601b03191660a052604080518082019091526801158e460913d0000081526804563918244f4000008186015290805260069093529091620000e5907f54cdd369e4e8a8515e52ca72ec816c2101831ad1f18bf44102ed171459c9b4f890600262000256565b5060408051808201909152678ac7230489e8000081526804563918244f40000060208083019190915260016000526006905262000146907f3e5fec24aa4dc4e5aee2e025e51e1392c72a2500577559fae9665c6d52bd6a3190600262000256565b50604080518082019091526000808252678ac7230489e80000602080840191909152600291829052600690526200019f917f8819ef417987f8ae7a81f42cdfb18815282fe989326fbff903d13cf0e03ace2991620002a4565b50604080518082019091526801158e460913d0000081526804e1003b28d928000060208083019190915260036000526006905262000201907f75f96ab15d697e93042dc45b5c896c4b27e89bb6eaf39475c5c371cb2513f7d290600262000256565b50604080516080810182526801bc16d674ec8000008082526020820152671bc16d674ec80000918101919091526801d7d843dc3b48000060608201526200024d906002906004620002e0565b50505062000332565b826002810192821562000292579160200282015b828111156200029257825182906001600160481b03169055916020019190600101906200026a565b50620002a09291506200031b565b5090565b826002810192821562000292579160200282015b828111156200029257825182906001600160401b0316905591602001919060010190620002b8565b82600481019282156200029257916020028201828111156200029257825182906001600160481b03169055916020019190600101906200026a565b5b80821115620002a057600081556001016200031c565b60805160a05160601c6120d46200036d600039806102e95280610e675280610e985250806106f452806109d95280610b2452506120d46000f3fe60806040526004361061009a5760003560e01c80636f4a2cd0116100695780638b620cff1161004e5780638b620cff146101a0578063abf410e5146101ca578063f5f38361146101df576100a1565b80636f4a2cd01461017657806375d0c0dc1461018b576100a1565b806308b8c19a146100a65780631694505e146100f357806329fc1bcc1461012457806353732cad1461014f576100a1565b366100a157005b600080fd5b3480156100b257600080fd5b506100bb6102ac565b6040518082608080838360005b838110156100e05781810151838201526020016100c8565b5050505090500191505060405180910390f35b3480156100ff57600080fd5b506101086102e7565b604080516001600160a01b039092168252519081900360200190f35b34801561013057600080fd5b5061014d6004803603608081101561014757600080fd5b5061030b565b005b34801561015b57600080fd5b506101646105ea565b60408051918252519081900360200190f35b34801561018257600080fd5b5061014d6105f0565b34801561019757600080fd5b506101646109d7565b3480156101ac57600080fd5b50610164600480360360208110156101c357600080fd5b50356109fb565b3480156101d657600080fd5b50610108610a0f565b3480156101eb57600080fd5b5061025c6004803603604081101561020257600080fd5b81019060208101813564010000000081111561021d57600080fd5b82018360208201111561022f57600080fd5b8035906020019184602083028401116401000000008311171561025157600080fd5b919350915035610a1e565b60408051602080825283518183015283519192839290830191858101910280838360005b83811015610298578181015183820152602001610280565b505050509050019250505060405180910390f35b6102b4611fbc565b6040805160808101918290529060029060049082845b8154815260200190600101908083116102ca575050505050905090565b7f000000000000000000000000000000000000000000000000000000000000000081565b60015460408051631c2d8fb360e31b81527f15fa0125f52e5705da1148bfcf00974823c4381bee4314203ede255f9477b73e600482015290516001600160a01b039092169163e16c7d9891602480820192602092909190829003018186803b15801561037657600080fd5b505afa15801561038a573d6000803e3d6000fd5b505050506040513d60208110156103a057600080fd5b5051604080517fd09a20c50000000000000000000000000000000000000000000000000000000081527fd0a4ad96d49edb1c33461cebc6fb2609190f32c904e3c3f5877edb4488dee91e600482015233602482015290516001600160a01b039092169163d09a20c591604480820192600092909190829003018186803b15801561042957600080fd5b505afa15801561043d573d6000803e3d6000fd5b505050506000805b60048160ff16101561052b5760ff81166000818152600660205260409020549084906004811061047157fe5b6020020135101580156104aa575060ff8116600081815260066020526040902060010154908490600481106104a257fe5b602002013511155b6104fb576040805162461bcd60e51b815260206004820152600d60248201527f496e76616c69642073706c697400000000000000000000000000000000000000604482015290519081900360640190fd5b610521838260ff166004811061050d57fe5b6020020135836110c590919063ffffffff16565b9150600101610445565b508068056bc75e2d6310000014610589576040805162461bcd60e51b815260206004820152601360248201527f496e76616c69642073706c697420746f74616c00000000000000000000000000604482015290519081900360640190fd5b6105966002836004611fda565b507f8526975e8f19dfdda4e91ec2ccc03f20d0fba43d603541708603f0fa4767dcd4826040518082600460200280828437600083820152604051601f909101601f1916909201829003935090915050a15050565b61025881565b60026000541415610648576040805162461bcd60e51b815260206004820152601f60248201527f5265656e7472616e637947756172643a207265656e7472616e742063616c6c00604482015290519081900360640190fd5b600260005560015460408051631c2d8fb360e31b81527f35ed2e1befd3b2dcf1ec7a6834437fa3212881ed81fd3a13dc97c3438896e1ba600482015290516001600160a01b039092169163e16c7d9891602480820192602092909190829003018186803b1580156106b857600080fd5b505afa1580156106cc573d6000803e3d6000fd5b505050506040513d60208110156106e257600080fd5b50516040805163156e3bf360e21b81527f000000000000000000000000000000000000000000000000000000000000000060048201526001602482015233604482015290516001600160a01b03909216916355b8efcc9160648082019260009290919082900301818387803b15801561075a57600080fd5b505af115801561076e573d6000803e3d6000fd5b505060015460408051631c2d8fb360e31b81527f69e547947a4514871bf84679401f91758bd0fe92e4c005143f6d0e5213dab0cb60048201529051600094506001600160a01b03909216925063e16c7d98916024808301926020929190829003018186803b1580156107df57600080fd5b505afa1580156107f3573d6000803e3d6000fd5b505050506040513d602081101561080957600080fd5b5051604080517f70a0823100000000000000000000000000000000000000000000000000000000815230600482015290516001600160a01b03909216916370a0823191602480820192602092909190829003018186803b15801561086c57600080fd5b505afa158015610880573d6000803e3d6000fd5b505050506040513d602081101561089657600080fd5b50519050806108ec576040805162461bcd60e51b815260206004820152600e60248201527f4e6f20504f502062616c616e6365000000000000000000000000000000000000604482015290519081900360640190fd5b600061091068056bc75e2d6310000061090a60028401548590611128565b90611181565b9050600061093168056bc75e2d6310000061090a6002600101548690611128565b9050600061095168056bc75e2d6310000061090a60028001548790611128565b9050600061097268056bc75e2d6310000061090a6002600301548890611128565b905061097d846111e8565b61098683611464565b61098f82611666565b61099881611868565b6040805186815290517f6d1c76d614228b523baa4dcd9539e2c713b54ff4ab3ff2d1627e7f6cd32be4429181900360200190a150506001600055505050565b7f000000000000000000000000000000000000000000000000000000000000000081565b60028160048110610a0857fe5b0154905081565b6001546001600160a01b031681565b606060026000541415610a78576040805162461bcd60e51b815260206004820152601f60248201527f5265656e7472616e637947756172643a207265656e7472616e742063616c6c00604482015290519081900360640190fd5b600260005560015460408051631c2d8fb360e31b81527f35ed2e1befd3b2dcf1ec7a6834437fa3212881ed81fd3a13dc97c3438896e1ba600482015290516001600160a01b039092169163e16c7d9891602480820192602092909190829003018186803b158015610ae857600080fd5b505afa158015610afc573d6000803e3d6000fd5b505050506040513d6020811015610b1257600080fd5b50516040805163156e3bf360e21b81527f0000000000000000000000000000000000000000000000000000000000000000600482015260006024820181905233604483015291516001600160a01b03909316926355b8efcc9260648084019391929182900301818387803b158015610b8957600080fd5b505af1158015610b9d573d6000803e3d6000fd5b50505060028410159050610bf8576040805162461bcd60e51b815260206004820152601160248201527f496e76616c696420737761702070617468000000000000000000000000000000604482015290519081900360640190fd5b60008211610c4d576040805162461bcd60e51b815260206004820152600e60248201527f496e76616c696420616d6f756e74000000000000000000000000000000000000604482015290519081900360640190fd5b60015460408051631c2d8fb360e31b81527f69e547947a4514871bf84679401f91758bd0fe92e4c005143f6d0e5213dab0cb600482015290516001600160a01b039092169163e16c7d9891602480820192602092909190829003018186803b158015610cb857600080fd5b505afa158015610ccc573d6000803e3d6000fd5b505050506040513d6020811015610ce257600080fd5b50516001600160a01b031684846000198101818110610cfd57fe5b905060200201356001600160a01b03166001600160a01b031614610d68576040805162461bcd60e51b815260206004820152601860248201527f504f50206d757374206265206c61737420696e20706174680000000000000000604482015290519081900360640190fd5b600084846000818110610d7757fe5b905060200201356001600160a01b031690506000816001600160a01b03166370a08231306040518263ffffffff1660e01b815260040180826001600160a01b0316815260200191505060206040518083038186803b158015610dd857600080fd5b505afa158015610dec573d6000803e3d6000fd5b505050506040513d6020811015610e0257600080fd5b5051905080610e58576040805162461bcd60e51b815260206004820152601460248201527f4e6f20737761707061626c652062616c616e6365000000000000000000000000604482015290519081900360640190fd5b610e8c6001600160a01b0383167f000000000000000000000000000000000000000000000000000000000000000083611bc8565b60606001600160a01b037f0000000000000000000000000000000000000000000000000000000000000000166338ed173983878a8a30610ece426102586110c5565b6040518763ffffffff1660e01b81526004018087815260200186815260200180602001846001600160a01b031681526020018381526020018281038252868682818152602001925060200280828437600081840152601f19601f820116905080830192505050975050505050505050600060405180830381600087803b158015610f5757600080fd5b505af1158015610f6b573d6000803e3d6000fd5b505050506040513d6000823e601f3d908101601f191682016040526020811015610f9457600080fd5b8101908080516040519392919084640100000000821115610fb457600080fd5b908301906020820185811115610fc957600080fd5b8251866020820283011164010000000082111715610fe657600080fd5b82525081516020918201928201910280838360005b83811015611013578181015183820152602001610ffb565b5050505090500160405250505090507fd5a1cd88ddd329cc1ddf861a21708efa9ef3136b88e1420c21f91ef6f95ad0248787600081811061105057fe5b905060200201356001600160a01b03168260008151811061106d57fe5b60200260200101518360018151811061108257fe5b602002602001015160405180846001600160a01b03168152602001838152602001828152602001935050505060405180910390a160016000559695505050505050565b60008282018381101561111f576040805162461bcd60e51b815260206004820152601b60248201527f536166654d6174683a206164646974696f6e206f766572666c6f770000000000604482015290519081900360640190fd5b90505b92915050565b60008261113757506000611122565b8282028284828161114457fe5b041461111f5760405162461bcd60e51b81526004018080602001828103825260218152602001806120546021913960400191505060405180910390fd5b60008082116111d7576040805162461bcd60e51b815260206004820152601a60248201527f536166654d6174683a206469766973696f6e206279207a65726f000000000000604482015290519081900360640190fd5b8183816111e057fe5b049392505050565b806111f257611461565b60015460408051631c2d8fb360e31b81527f1df41cd916959d1163dc8f0671a666ea8a3e434c13e40faef527133b5d167034600482015290516000926001600160a01b03169163e16c7d98916024808301926020929190829003018186803b15801561125d57600080fd5b505afa158015611271573d6000803e3d6000fd5b505050506040513d602081101561128757600080fd5b505160015460408051631c2d8fb360e31b81527f69e547947a4514871bf84679401f91758bd0fe92e4c005143f6d0e5213dab0cb600482015290519293506001600160a01b039091169163e16c7d9891602480820192602092909190829003018186803b1580156112f757600080fd5b505afa15801561130b573d6000803e3d6000fd5b505050506040513d602081101561132157600080fd5b50516040805163a9059cbb60e01b81526001600160a01b038481166004830152602482018690529151919092169163a9059cbb9160448083019260209291908290030181600087803b15801561137657600080fd5b505af115801561138a573d6000803e3d6000fd5b505050506040513d60208110156113a057600080fd5b5050604080517f3c6b16ab0000000000000000000000000000000000000000000000000000000081526004810184905290516001600160a01b03831691633c6b16ab91602480830192600092919082900301818387803b15801561140357600080fd5b505af1158015611417573d6000803e3d6000fd5b5050604080516001600160a01b03851681526020810186905281517f6340a0e6b8ea35da618479a712fc50894736e440f8adf9c52f61e62b52b1d97a9450908190039091019150a1505b50565b8061146e57611461565b60015460408051631c2d8fb360e31b81527f6efca2866b731ee4984990bacad4cde10f1ef764fb54a5206bdfd291695b1a9b600482015290516000926001600160a01b03169163e16c7d98916024808301926020929190829003018186803b1580156114d957600080fd5b505afa1580156114ed573d6000803e3d6000fd5b505050506040513d602081101561150357600080fd5b505160015460408051631c2d8fb360e31b81527f69e547947a4514871bf84679401f91758bd0fe92e4c005143f6d0e5213dab0cb600482015290519293506001600160a01b039091169163e16c7d9891602480820192602092909190829003018186803b15801561157357600080fd5b505afa158015611587573d6000803e3d6000fd5b505050506040513d602081101561159d57600080fd5b50516040805163a9059cbb60e01b81526001600160a01b038481166004830152602482018690529151919092169163a9059cbb9160448083019260209291908290030181600087803b1580156115f257600080fd5b505af1158015611606573d6000803e3d6000fd5b505050506040513d602081101561161c57600080fd5b5050604080516001600160a01b03831681526020810184905281517f8283e6b33f7f1cfc32820a5fd82cd9e5224d98c14133977f1e7902ce920e51ce929181900390910190a15050565b8061167057611461565b60015460408051631c2d8fb360e31b81527f3e32c6f6a91a143c456ec82523fdccc82f6f397e9666c93e065e6a5d6b19567b600482015290516000926001600160a01b03169163e16c7d98916024808301926020929190829003018186803b1580156116db57600080fd5b505afa1580156116ef573d6000803e3d6000fd5b505050506040513d602081101561170557600080fd5b505160015460408051631c2d8fb360e31b81527f69e547947a4514871bf84679401f91758bd0fe92e4c005143f6d0e5213dab0cb600482015290519293506001600160a01b039091169163e16c7d9891602480820192602092909190829003018186803b15801561177557600080fd5b505afa158015611789573d6000803e3d6000fd5b505050506040513d602081101561179f57600080fd5b50516040805163a9059cbb60e01b81526001600160a01b038481166004830152602482018690529151919092169163a9059cbb9160448083019260209291908290030181600087803b1580156117f457600080fd5b505af1158015611808573d6000803e3d6000fd5b505050506040513d602081101561181e57600080fd5b5050604080516001600160a01b03831681526020810184905281517fe6b81755e9a8d33c17416b71b3f0961808da876dbc287641d63f868e4fce0673929181900390910190a15050565b8061187257611461565b60015460408051631c2d8fb360e31b81527f69e547947a4514871bf84679401f91758bd0fe92e4c005143f6d0e5213dab0cb600482015290516000926001600160a01b03169163e16c7d98916024808301926020929190829003018186803b1580156118dd57600080fd5b505afa1580156118f1573d6000803e3d6000fd5b505050506040513d602081101561190757600080fd5b505160015460408051631c2d8fb360e31b81527f169c5aa5b339507e0d95e149f6ebeaf527bb9067f2601a2d762aec9d5850b8b1600482015290519293506060926001600160a01b039092169163e16c7d9891602480820192602092909190829003018186803b15801561197a57600080fd5b505afa15801561198e573d6000803e3d6000fd5b505050506040513d60208110156119a457600080fd5b5051604080517f97331bf900000000000000000000000000000000000000000000000000000000815290516001600160a01b03909216916397331bf991600480820192600092909190829003018186803b158015611a0157600080fd5b505afa158015611a15573d6000803e3d6000fd5b505050506040513d6000823e601f3d908101601f191682016040526020811015611a3e57600080fd5b8101908080516040519392919084640100000000821115611a5e57600080fd5b908301906020820185811115611a7357600080fd5b8251866020820283011164010000000082111715611a9057600080fd5b82525081516020918201928201910280838360005b83811015611abd578181015183820152602001611aa5565b5050505090500160405250505090506000611ae282518561118190919063ffffffff16565b905060005b8251811015611b8e57836001600160a01b031663a9059cbb848381518110611b0b57fe5b6020026020010151846040518363ffffffff1660e01b815260040180836001600160a01b0316815260200182815260200192505050602060405180830381600087803b158015611b5a57600080fd5b505af1158015611b6e573d6000803e3d6000fd5b505050506040513d6020811015611b8457600080fd5b5050600101611ae7565b506040805185815290517fe7208817b3eb80f013fb0e43f9ad639656bdeba727de0e343ee8f949f0f688e39181900360200190a150505050565b6000611c5e82856001600160a01b031663dd62ed3e30876040518363ffffffff1660e01b815260040180836001600160a01b03168152602001826001600160a01b031681526020019250505060206040518083038186803b158015611c2c57600080fd5b505afa158015611c40573d6000803e3d6000fd5b505050506040513d6020811015611c5657600080fd5b5051906110c5565b604080516001600160a01b038616602482015260448082018490528251808303909101815260649091019091526020810180517bffffffffffffffffffffffffffffffffffffffffffffffffffffffff167f095ea7b300000000000000000000000000000000000000000000000000000000179052909150611ce1908590611ce7565b50505050565b6060611d3c826040518060400160405280602081526020017f5361666545524332303a206c6f772d6c6576656c2063616c6c206661696c6564815250856001600160a01b0316611d9d9092919063ffffffff16565b805190915015611d9857808060200190516020811015611d5b57600080fd5b5051611d985760405162461bcd60e51b815260040180806020018281038252602a815260200180612075602a913960400191505060405180910390fd5b505050565b6060611dac8484600085611db6565b90505b9392505050565b606082471015611df75760405162461bcd60e51b815260040180806020018281038252602681526020018061202e6026913960400191505060405180910390fd5b611e0085611f12565b611e51576040805162461bcd60e51b815260206004820152601d60248201527f416464726573733a2063616c6c20746f206e6f6e2d636f6e7472616374000000604482015290519081900360640190fd5b60006060866001600160a01b031685876040518082805190602001908083835b60208310611e905780518252601f199092019160209182019101611e71565b6001836020036101000a03801982511681845116808217855250505050505090500191505060006040518083038185875af1925050503d8060008114611ef2576040519150601f19603f3d011682016040523d82523d6000602084013e611ef7565b606091505b5091509150611f07828286611f18565b979650505050505050565b3b151590565b60608315611f27575081611daf565b825115611f375782518084602001fd5b8160405162461bcd60e51b81526004018080602001828103825283818151815260200191508051906020019080838360005b83811015611f81578181015183820152602001611f69565b50505050905090810190601f168015611fae5780820380516001836020036101000a031916815260200191505b509250505060405180910390fd5b60405180608001604052806004906020820280368337509192915050565b8260048101928215612008579160200282015b82811115612008578235825591602001919060010190611fed565b50612014929150612018565b5090565b5b80821115612014576000815560010161201956fe416464726573733a20696e73756666696369656e742062616c616e636520666f722063616c6c536166654d6174683a206d756c7469706c69636174696f6e206f766572666c6f775361666545524332303a204552433230206f7065726174696f6e20646964206e6f742073756363656564a2646970667358221220f2340f646502c217f9ac43c5de9a00c625c0c817ff7e295e2137551a0a1307b564736f6c63430007030033",
  "linkReferences": {},
  "deployedLinkReferences": {}
}