{
  "_format": "hh-sol-artifact-1",
  "contractName": "BeneficiaryVaults",
  "sourceName": "contracts/core/dao/BeneficiaryVaults.sol",
  "abi": [
    {
      "inputs": [
        {
          "internalType": "contract IContractRegistry",
          "name": "contractRegistry_",
          "type": "address"
        }
      ],
      "stateMutability": "nonpayable",
      "type": "constructor"
    },
    {
      "anonymous": false,
      "inputs": [
        {
          "indexed": false,
          "internalType": "uint8",
          "name": "vaultId",
          "type": "uint8"
        },
        {
          "indexed": false,
          "internalType": "address",
          "name": "beneficiary",
          "type": "address"
        },
        {
          "indexed": false,
          "internalType": "uint256",
          "name": "amount",
          "type": "uint256"
        }
      ],
      "name": "RewardClaimed",
      "type": "event"
    },
    {
      "anonymous": false,
      "inputs": [
        {
          "indexed": false,
          "internalType": "uint256",
          "name": "amount",
          "type": "uint256"
        }
      ],
      "name": "RewardsAllocated",
      "type": "event"
    },
    {
      "anonymous": false,
      "inputs": [
        {
          "indexed": false,
          "internalType": "uint8",
          "name": "vaultId",
          "type": "uint8"
        }
      ],
      "name": "VaultClosed",
      "type": "event"
    },
    {
      "anonymous": false,
      "inputs": [
        {
          "indexed": false,
          "internalType": "uint8",
          "name": "vaultId",
          "type": "uint8"
        },
        {
          "indexed": false,
          "internalType": "bytes32",
          "name": "merkleRoot",
          "type": "bytes32"
        }
      ],
      "name": "VaultOpened",
      "type": "event"
    },
    {
      "inputs": [],
      "name": "allocateRewards",
      "outputs": [],
      "stateMutability": "nonpayable",
      "type": "function"
    },
    {
      "inputs": [
        {
          "internalType": "uint8",
          "name": "vaultId_",
          "type": "uint8"
        },
        {
          "internalType": "bytes32[]",
          "name": "proof_",
          "type": "bytes32[]"
        },
        {
          "internalType": "address",
          "name": "beneficiary_",
          "type": "address"
        },
        {
          "internalType": "uint256",
          "name": "share_",
          "type": "uint256"
        }
      ],
      "name": "claimReward",
      "outputs": [],
      "stateMutability": "nonpayable",
      "type": "function"
    },
    {
      "inputs": [
        {
          "internalType": "uint8",
          "name": "vaultId_",
          "type": "uint8"
        }
      ],
      "name": "closeVault",
      "outputs": [],
      "stateMutability": "nonpayable",
      "type": "function"
    },
    {
      "inputs": [],
      "name": "contractRegistry",
      "outputs": [
        {
          "internalType": "contract IContractRegistry",
          "name": "",
          "type": "address"
        }
      ],
      "stateMutability": "view",
      "type": "function"
    },
    {
      "inputs": [
        {
          "internalType": "uint8",
          "name": "vaultId_",
          "type": "uint8"
        }
      ],
      "name": "getVault",
      "outputs": [
        {
          "internalType": "uint256",
          "name": "totalAllocated",
          "type": "uint256"
        },
        {
          "internalType": "uint256",
          "name": "currentBalance",
          "type": "uint256"
        },
        {
          "internalType": "uint256",
          "name": "unclaimedShare",
          "type": "uint256"
        },
        {
          "internalType": "bytes32",
          "name": "merkleRoot",
          "type": "bytes32"
        },
        {
          "internalType": "enum BeneficiaryVaults.VaultStatus",
          "name": "status",
          "type": "uint8"
        }
      ],
      "stateMutability": "view",
      "type": "function"
    },
    {
      "inputs": [
        {
          "internalType": "uint8",
          "name": "vaultId_",
          "type": "uint8"
        },
        {
          "internalType": "address",
          "name": "beneficiary_",
          "type": "address"
        }
      ],
      "name": "hasClaimed",
      "outputs": [
        {
          "internalType": "bool",
          "name": "",
          "type": "bool"
        }
      ],
      "stateMutability": "view",
      "type": "function"
    },
    {
      "inputs": [
        {
          "internalType": "uint8",
          "name": "vaultId_",
          "type": "uint8"
        },
        {
          "internalType": "bytes32",
          "name": "merkleRoot_",
          "type": "bytes32"
        }
      ],
      "name": "openVault",
      "outputs": [],
      "stateMutability": "nonpayable",
      "type": "function"
    },
    {
      "inputs": [],
      "name": "totalDistributedBalance",
      "outputs": [
        {
          "internalType": "uint256",
          "name": "",
          "type": "uint256"
        }
      ],
      "stateMutability": "view",
      "type": "function"
    },
    {
      "inputs": [
        {
          "internalType": "uint8",
          "name": "vaultId_",
          "type": "uint8"
        }
      ],
      "name": "vaultExists",
      "outputs": [
        {
          "internalType": "bool",
          "name": "",
          "type": "bool"
        }
      ],
      "stateMutability": "view",
      "type": "function"
    },
    {
      "inputs": [
        {
          "internalType": "uint256",
          "name": "",
          "type": "uint256"
        }
      ],
      "name": "vaults",
      "outputs": [
        {
          "internalType": "uint256",
          "name": "totalAllocated",
          "type": "uint256"
        },
        {
          "internalType": "uint256",
          "name": "currentBalance",
          "type": "uint256"
        },
        {
          "internalType": "uint256",
          "name": "unclaimedShare",
          "type": "uint256"
        },
        {
          "internalType": "bytes32",
          "name": "merkleRoot",
          "type": "bytes32"
        },
        {
          "internalType": "enum BeneficiaryVaults.VaultStatus",
          "name": "status",
          "type": "uint8"
        }
      ],
      "stateMutability": "view",
      "type": "function"
    },
    {
      "inputs": [
        {
          "internalType": "uint8",
          "name": "vaultId_",
          "type": "uint8"
        },
        {
          "internalType": "bytes32[]",
          "name": "proof_",
          "type": "bytes32[]"
        },
        {
          "internalType": "address",
          "name": "beneficiary_",
          "type": "address"
        },
        {
          "internalType": "uint256",
          "name": "share_",
          "type": "uint256"
        }
      ],
      "name": "verifyClaim",
      "outputs": [
        {
          "internalType": "bool",
          "name": "",
          "type": "bool"
        }
      ],
      "stateMutability": "view",
      "type": "function"
    }
  ],
  "bytecode": "0x6080604052600060025534801561001557600080fd5b506040516118753803806118758339818101604052602081101561003857600080fd5b50516001600081905580546001600160a01b039092166001600160a01b03199092169190911790556118068061006f6000396000f3fe608060405234801561001057600080fd5b50600436106100c95760003560e01c8063a3bc61a511610081578063abf410e51161005b578063abf410e51461034b578063bd6ad5ac1461036f578063dd5c7e4d1461038f576100c9565b8063a3bc61a51461026e578063a53af58614610276578063a998ad6614610290576100c9565b806336bcf216116100b257806336bcf2161461012a5780637784e8cb146101595780638c64ea4a14610214576100c9565b80631ff87068146100ce57806330ca9d5914610102575b600080fd5b6100ee600480360360208110156100e457600080fd5b503560ff166103af565b604080519115158252519081900360200190f35b6101286004803603604081101561011857600080fd5b5060ff81351690602001356103e2565b005b6100ee6004803603604081101561014057600080fd5b50803560ff1690602001356001600160a01b03166106c0565b6100ee6004803603608081101561016f57600080fd5b60ff823516919081019060408101602082013564010000000081111561019457600080fd5b8201836020820111156101a657600080fd5b803590602001918460208302840111640100000000831117156101c857600080fd5b919080806020026020016040519081016040528093929190818152602001838360200280828437600092019190915250929550506001600160a01b03833516935050506020013561074d565b6102316004803603602081101561022a57600080fd5b5035610a56565b6040518086815260200185815260200184815260200183815260200182600181111561025957fe5b81526020019550505050505060405180910390f35b610128610a8b565b61027e610e14565b60408051918252519081900360200190f35b610128600480360360808110156102a657600080fd5b60ff82351691908101906040810160208201356401000000008111156102cb57600080fd5b8201836020820111156102dd57600080fd5b803590602001918460208302840111640100000000831117156102ff57600080fd5b919080806020026020016040519081016040528093929190818152602001838360200280828437600092019190915250929550506001600160a01b038335169350505060200135610e1a565b6103536111f5565b604080516001600160a01b039092168252519081900360200190f35b6102316004803603602081101561038557600080fd5b503560ff16611204565b610128600480360360208110156103a557600080fd5b503560ff1661129d565b600060038260ff161080156103dc575060038260ff16600381106103cf57fe5b6006020160040154600014155b92915050565b60015460408051631c2d8fb360e31b81527f15fa0125f52e5705da1148bfcf00974823c4381bee4314203ede255f9477b73e600482015290516001600160a01b039092169163e16c7d9891602480820192602092909190829003018186803b15801561044d57600080fd5b505afa158015610461573d6000803e3d6000fd5b505050506040513d602081101561047757600080fd5b50516040805163d09a20c560e01b81527f8c76b2d2fc4ae4e9d0199f96be776a295610c24a3241321fd18909fa728e1453600482015233602482015290516001600160a01b039092169163d09a20c591604480820192600092909190829003018186803b1580156104e757600080fd5b505afa1580156104fb573d6000803e3d6000fd5b5050505060038260ff1610610557576040805162461bcd60e51b815260206004820152601060248201527f496e76616c6964207661756c7420696400000000000000000000000000000000604482015290519081900360640190fd5b60038260ff166003811061056757fe5b6006020160040154600014806105a25750600160038360ff166003811061058a57fe5b600602016005015460ff1660018111156105a057fe5b145b6105f3576040805162461bcd60e51b815260206004820152601660248201527f5661756c74206d757374206e6f74206265206f70656e00000000000000000000604482015290519081900360640190fd5b60038260ff166003811061060357fe5b600060069190910291909101818155600181018290556002810182905560048101829055600501805460ff19169055600360ff841681811061064157fe5b600060069190910291909101818155600181019190915568056bc75e2d6310000060028201556004810183905560058101805460ff191690556040805160ff861681526020810185905281519293507f94332a312ce2d963c5551d5f555b44816411faa9f4f197a90f9fab3caca7c06f929081900390910190a1505050565b6000826106cc816103af565b610710576040805162461bcd60e51b815260206004820152601060248201526f1d985d5b1d081b5d5cdd08195e1a5cdd60821b604482015290519081900360640190fd5b60038460ff166003811061072057fe5b6001600160a01b03949094166000908152600694909402016003016020525050604090205460ff16919050565b600084610759816103af565b61079d576040805162461bcd60e51b815260206004820152601060248201526f1d985d5b1d081b5d5cdd08195e1a5cdd60821b604482015290519081900360640190fd5b336001600160a01b038516146107fa576040805162461bcd60e51b815260206004820152601a60248201527f53656e646572206d7573742062652062656e6566696369617279000000000000604482015290519081900360640190fd5b600060038760ff166003811061080c57fe5b600602016005015460ff16600181111561082257fe5b14610874576040805162461bcd60e51b815260206004820152601260248201527f5661756c74206d757374206265206f70656e0000000000000000000000000000604482015290519081900360640190fd5b60015460408051631c2d8fb360e31b81527fc06005761aecdce9d8037400137cccfbffed4be85bf152e41fc11b29e23182e7600482015290516001600160a01b039092169163e16c7d9891602480820192602092909190829003018186803b1580156108df57600080fd5b505afa1580156108f3573d6000803e3d6000fd5b505050506040513d602081101561090957600080fd5b5051604080517f75e71d6d0000000000000000000000000000000000000000000000000000000081526001600160a01b038781166004830152915191909216916375e71d6d916024808301926020929190829003018186803b15801561096e57600080fd5b505afa158015610982573d6000803e3d6000fd5b505050506040513d602081101561099857600080fd5b505115156001146109f0576040805162461bcd60e51b815260206004820152601a60248201527f42656e656669636961727920646f6573206e6f74206578697374000000000000604482015290519081900360640190fd5b610a4c8560038860ff1660038110610a0457fe5b6006020160040154868660405160200180836001600160a01b031660601b81526014018281526020019250505060405160208183030381529060405280519060200120611510565b9695505050505050565b60038160038110610a6357fe5b6006020180546001820154600283015460048401546005909401549294509092909160ff1685565b60026000541415610ae3576040805162461bcd60e51b815260206004820152601f60248201527f5265656e7472616e637947756172643a207265656e7472616e742063616c6c00604482015290519081900360640190fd5b60026000818155905460015460408051631c2d8fb360e31b81527f69e547947a4514871bf84679401f91758bd0fe92e4c005143f6d0e5213dab0cb60048201529051610c1893926001600160a01b03169163e16c7d98916024808301926020929190829003018186803b158015610b5957600080fd5b505afa158015610b6d573d6000803e3d6000fd5b505050506040513d6020811015610b8357600080fd5b5051604080517f70a0823100000000000000000000000000000000000000000000000000000000815230600482015290516001600160a01b03909216916370a0823191602480820192602092909190829003018186803b158015610be657600080fd5b505afa158015610bfa573d6000803e3d6000fd5b505050506040513d6020811015610c1057600080fd5b5051906115b9565b905060008111610c6f576040805162461bcd60e51b815260206004820152601460248201527f6e6f207265776172647320617661696c61626c65000000000000000000000000604482015290519081900360640190fd5b6000610c79611616565b905060008160ff1611610cd3576040805162461bcd60e51b815260206004820152600e60248201527f6e6f206f70656e207661756c7473000000000000000000000000000000000000604482015290519081900360640190fd5b6000610ce28360ff841661168e565b905060005b60038160ff161015610dc657600060038260ff1660038110610d0557fe5b600602016005015460ff166001811115610d1b57fe5b148015610d40575060038160ff1660038110610d3357fe5b6006020160040154600014155b15610dbe57610d648260038360ff1660038110610d5957fe5b6006020154906116f5565b60038260ff1660038110610d7457fe5b6006020155610da282600360ff8416818110610d8c57fe5b60060201600101546116f590919063ffffffff16565b60038260ff1660038110610db257fe5b60060201600101819055505b600101610ce7565b50600254610dd490846116f5565b6002556040805184815290517f81d41c1164884f982ea287ef660cfc57fcb017b60a636db1b8045e7f0edda6b89181900360200190a15050600160005550565b60025481565b60026000541415610e72576040805162461bcd60e51b815260206004820152601f60248201527f5265656e7472616e637947756172643a207265656e7472616e742063616c6c00604482015290519081900360640190fd5b600260005583610e81816103af565b610ec5576040805162461bcd60e51b815260206004820152601060248201526f1d985d5b1d081b5d5cdd08195e1a5cdd60821b604482015290519081900360640190fd5b610ed18585858561074d565b1515600114610f27576040805162461bcd60e51b815260206004820152600d60248201527f496e76616c696420636c61696d00000000000000000000000000000000000000604482015290519081900360640190fd5b610f3185846106c0565b15610f83576040805162461bcd60e51b815260206004820152600f60248201527f416c726561647920636c61696d65640000000000000000000000000000000000604482015290519081900360640190fd5b600060038660ff1660038110610f9557fe5b6006020190506000610fc28260020154610fbc86856001015461175690919063ffffffff16565b9061168e565b905060008111611019576040805162461bcd60e51b815260206004820152600960248201527f4e6f207265776172640000000000000000000000000000000000000000000000604482015290519081900360640190fd5b60025461102690826115b9565b600255600182015461103890826115b9565b6001830155600282015461104c90856115b9565b60028301556001600160a01b038086166000908152600384016020908152604091829020805460ff19166001908117909155548251631c2d8fb360e31b81527f69e547947a4514871bf84679401f91758bd0fe92e4c005143f6d0e5213dab0cb6004820152925193169263e16c7d98926024808201939291829003018186803b1580156110d857600080fd5b505afa1580156110ec573d6000803e3d6000fd5b505050506040513d602081101561110257600080fd5b5051604080517fa9059cbb0000000000000000000000000000000000000000000000000000000081526001600160a01b038881166004830152602482018590529151919092169163a9059cbb9160448083019260209291908290030181600087803b15801561117057600080fd5b505af1158015611184573d6000803e3d6000fd5b505050506040513d602081101561119a57600080fd5b50506040805160ff891681526001600160a01b038716602082015280820183905290517fe740a8ecbede9b32963c2e92e25e49290fb6af8f0ad19b08efb5442ffabe8eed9181900360600190a1505060016000555050505050565b6001546001600160a01b031681565b600080600080600085611216816103af565b61125a576040805162461bcd60e51b815260206004820152601060248201526f1d985d5b1d081b5d5cdd08195e1a5cdd60821b604482015290519081900360640190fd5b600060038860ff166003811061126c57fe5b600602018054600182015460028301546004840154600590940154929c919b50995091975060ff1695509350505050565b806112a7816103af565b6112eb576040805162461bcd60e51b815260206004820152601060248201526f1d985d5b1d081b5d5cdd08195e1a5cdd60821b604482015290519081900360640190fd5b60015460408051631c2d8fb360e31b81527f15fa0125f52e5705da1148bfcf00974823c4381bee4314203ede255f9477b73e600482015290516001600160a01b039092169163e16c7d9891602480820192602092909190829003018186803b15801561135657600080fd5b505afa15801561136a573d6000803e3d6000fd5b505050506040513d602081101561138057600080fd5b50516040805163d09a20c560e01b81527f8c76b2d2fc4ae4e9d0199f96be776a295610c24a3241321fd18909fa728e1453600482015233602482015290516001600160a01b039092169163d09a20c591604480820192600092909190829003018186803b1580156113f057600080fd5b505afa158015611404573d6000803e3d6000fd5b50505050600060038360ff166003811061141a57fe5b6006020190506000600582015460ff16600181111561143557fe5b14611487576040805162461bcd60e51b815260206004820152601260248201527f5661756c74206d757374206265206f70656e0000000000000000000000000000604482015290519081900360640190fd5b60018181018054600090915560058301805460ff191690921790915580156114d4576002546114b690826115b9565b60025560006114c3611616565b60ff1611156114d4576114d4610a8b565b6040805160ff8616815290517fb24f4f47606a18ba5dba29cfe581aafd052d1b5152b4acc12a04f8dfa11fd17f9181900360200190a150505050565b600081815b85518110156115ae57600086828151811061152c57fe5b6020026020010151905080831161157357828160405160200180838152602001828152602001925050506040516020818303038152906040528051906020012092506115a5565b808360405160200180838152602001828152602001925050506040516020818303038152906040528051906020012092505b50600101611515565b509092149392505050565b600082821115611610576040805162461bcd60e51b815260206004820152601e60248201527f536166654d6174683a207375627472616374696f6e206f766572666c6f770000604482015290519081900360640190fd5b50900390565b600080805b60038160ff1610156116885760038160ff166003811061163757fe5b60060201600401546000141580156116745750600060038260ff166003811061165c57fe5b600602016005015460ff16600181111561167257fe5b145b15611680576001909101905b60010161161b565b50905090565b60008082116116e4576040805162461bcd60e51b815260206004820152601a60248201527f536166654d6174683a206469766973696f6e206279207a65726f000000000000604482015290519081900360640190fd5b8183816116ed57fe5b049392505050565b60008282018381101561174f576040805162461bcd60e51b815260206004820152601b60248201527f536166654d6174683a206164646974696f6e206f766572666c6f770000000000604482015290519081900360640190fd5b9392505050565b600082611765575060006103dc565b8282028284828161177257fe5b041461174f5760405162461bcd60e51b81526004018080602001828103825260218152602001806117b06021913960400191505060405180910390fdfe536166654d6174683a206d756c7469706c69636174696f6e206f766572666c6f77a2646970667358221220fec7f79e464b3760172ae45a36e743dff8062ad801a747ef49612b729c22698164736f6c63430007030033",
  "linkReferences": {},
  "deployedLinkReferences": {}
}