{
  "_format": "hh-sol-artifact-1",
  "contractName": "HysiBatchInteraction",
  "sourceName": "contracts/core/defi/HysiBatchInteraction.sol",
  "abi": [
    {
      "inputs": [
        {
          "internalType": "contract IContractRegistry",
          "name": "contractRegistry_",
          "type": "address"
        },
        {
          "internalType": "contract ISetToken",
          "name": "setToken_",
          "type": "address"
        },
        {
          "internalType": "contract IERC20",
          "name": "threeCrv_",
          "type": "address"
        },
        {
          "internalType": "contract BasicIssuanceModule",
          "name": "basicIssuanceModule_",
          "type": "address"
        },
        {
          "internalType": "address[]",
          "name": "yTokenAddresses_",
          "type": "address[]"
        },
        {
          "components": [
            {
              "internalType": "contract CurveMetapool",
              "name": "curveMetaPool",
              "type": "address"
            },
            {
              "internalType": "contract IERC20",
              "name": "crvLPToken",
              "type": "address"
            }
          ],
          "internalType": "struct HysiBatchInteraction.CurvePoolTokenPair[]",
          "name": "curvePoolTokenPairs_",
          "type": "tuple[]"
        },
        {
          "internalType": "uint256",
          "name": "batchCooldown_",
          "type": "uint256"
        },
        {
          "internalType": "uint256",
          "name": "mintThreshold_",
          "type": "uint256"
        },
        {
          "internalType": "uint256",
          "name": "redeemThreshold_",
          "type": "uint256"
        }
      ],
      "stateMutability": "nonpayable",
      "type": "constructor"
    },
    {
      "anonymous": false,
      "inputs": [
        {
          "indexed": true,
          "internalType": "bytes32",
          "name": "batchId",
          "type": "bytes32"
        },
        {
          "indexed": false,
          "internalType": "uint256",
          "name": "suppliedTokenAmount",
          "type": "uint256"
        },
        {
          "indexed": false,
          "internalType": "uint256",
          "name": "hysiAmount",
          "type": "uint256"
        }
      ],
      "name": "BatchMinted",
      "type": "event"
    },
    {
      "anonymous": false,
      "inputs": [
        {
          "indexed": true,
          "internalType": "bytes32",
          "name": "batchId",
          "type": "bytes32"
        },
        {
          "indexed": false,
          "internalType": "uint256",
          "name": "suppliedTokenAmount",
          "type": "uint256"
        },
        {
          "indexed": false,
          "internalType": "uint256",
          "name": "threeCrvAmount",
          "type": "uint256"
        }
      ],
      "name": "BatchRedeemed",
      "type": "event"
    },
    {
      "anonymous": false,
      "inputs": [
        {
          "indexed": true,
          "internalType": "address",
          "name": "account",
          "type": "address"
        },
        {
          "indexed": false,
          "internalType": "enum HysiBatchInteraction.BatchType",
          "name": "batchType",
          "type": "uint8"
        },
        {
          "indexed": false,
          "internalType": "uint256",
          "name": "shares",
          "type": "uint256"
        },
        {
          "indexed": false,
          "internalType": "uint256",
          "name": "claimedToken",
          "type": "uint256"
        }
      ],
      "name": "Claimed",
      "type": "event"
    },
    {
      "anonymous": false,
      "inputs": [
        {
          "indexed": true,
          "internalType": "address",
          "name": "from",
          "type": "address"
        },
        {
          "indexed": false,
          "internalType": "uint256",
          "name": "deposit",
          "type": "uint256"
        }
      ],
      "name": "Deposit",
      "type": "event"
    },
    {
      "anonymous": false,
      "inputs": [
        {
          "indexed": false,
          "internalType": "uint256",
          "name": "amount",
          "type": "uint256"
        },
        {
          "indexed": false,
          "internalType": "enum HysiBatchInteraction.BatchType",
          "name": "batchType",
          "type": "uint8"
        },
        {
          "indexed": false,
          "internalType": "address",
          "name": "account",
          "type": "address"
        }
      ],
      "name": "MovedUnclaimedDepositsIntoCurrentBatch",
      "type": "event"
    },
    {
      "anonymous": false,
      "inputs": [
        {
          "indexed": false,
          "internalType": "contract ISetToken",
          "name": "setToken",
          "type": "address"
        }
      ],
      "name": "TokenSetAdded",
      "type": "event"
    },
    {
      "anonymous": false,
      "inputs": [
        {
          "indexed": true,
          "internalType": "address",
          "name": "to",
          "type": "address"
        },
        {
          "indexed": false,
          "internalType": "uint256",
          "name": "amount",
          "type": "uint256"
        }
      ],
      "name": "Withdrawal",
      "type": "event"
    },
    {
      "anonymous": false,
      "inputs": [
        {
          "indexed": false,
          "internalType": "bytes32",
          "name": "batchId",
          "type": "bytes32"
        },
        {
          "indexed": false,
          "internalType": "uint256",
          "name": "amount",
          "type": "uint256"
        },
        {
          "indexed": false,
          "internalType": "address",
          "name": "to",
          "type": "address"
        }
      ],
      "name": "WithdrawnFromBatch",
      "type": "event"
    },
    {
      "inputs": [
        {
          "internalType": "bytes32",
          "name": "",
          "type": "bytes32"
        },
        {
          "internalType": "address",
          "name": "",
          "type": "address"
        }
      ],
      "name": "accountBalances",
      "outputs": [
        {
          "internalType": "uint256",
          "name": "",
          "type": "uint256"
        }
      ],
      "stateMutability": "view",
      "type": "function"
    },
    {
      "inputs": [
        {
          "internalType": "address",
          "name": "",
          "type": "address"
        },
        {
          "internalType": "uint256",
          "name": "",
          "type": "uint256"
        }
      ],
      "name": "accountBatches",
      "outputs": [
        {
          "internalType": "bytes32",
          "name": "",
          "type": "bytes32"
        }
      ],
      "stateMutability": "view",
      "type": "function"
    },
    {
      "inputs": [],
      "name": "batchCooldown",
      "outputs": [
        {
          "internalType": "uint256",
          "name": "",
          "type": "uint256"
        }
      ],
      "stateMutability": "view",
      "type": "function"
    },
    {
      "inputs": [
        {
          "internalType": "uint256",
          "name": "",
          "type": "uint256"
        }
      ],
      "name": "batchIds",
      "outputs": [
        {
          "internalType": "bytes32",
          "name": "",
          "type": "bytes32"
        }
      ],
      "stateMutability": "view",
      "type": "function"
    },
    {
      "inputs": [
        {
          "internalType": "uint256",
          "name": "minAmountToMint_",
          "type": "uint256"
        }
      ],
      "name": "batchMint",
      "outputs": [],
      "stateMutability": "nonpayable",
      "type": "function"
    },
    {
      "inputs": [
        {
          "internalType": "uint256",
          "name": "min3crvToReceive_",
          "type": "uint256"
        }
      ],
      "name": "batchRedeem",
      "outputs": [],
      "stateMutability": "nonpayable",
      "type": "function"
    },
    {
      "inputs": [
        {
          "internalType": "bytes32",
          "name": "",
          "type": "bytes32"
        }
      ],
      "name": "batches",
      "outputs": [
        {
          "internalType": "enum HysiBatchInteraction.BatchType",
          "name": "batchType",
          "type": "uint8"
        },
        {
          "internalType": "bytes32",
          "name": "batchId",
          "type": "bytes32"
        },
        {
          "internalType": "bool",
          "name": "claimable",
          "type": "bool"
        },
        {
          "internalType": "uint256",
          "name": "unclaimedShares",
          "type": "uint256"
        },
        {
          "internalType": "uint256",
          "name": "suppliedTokenBalance",
          "type": "uint256"
        },
        {
          "internalType": "uint256",
          "name": "claimableTokenBalance",
          "type": "uint256"
        },
        {
          "internalType": "address",
          "name": "suppliedTokenAddress",
          "type": "address"
        },
        {
          "internalType": "address",
          "name": "claimableTokenAddress",
          "type": "address"
        }
      ],
      "stateMutability": "view",
      "type": "function"
    },
    {
      "inputs": [
        {
          "internalType": "bytes32",
          "name": "batchId_",
          "type": "bytes32"
        },
        {
          "internalType": "address",
          "name": "claimFor_",
          "type": "address"
        }
      ],
      "name": "claim",
      "outputs": [
        {
          "internalType": "uint256",
          "name": "",
          "type": "uint256"
        }
      ],
      "stateMutability": "nonpayable",
      "type": "function"
    },
    {
      "inputs": [],
      "name": "contractName",
      "outputs": [
        {
          "internalType": "bytes32",
          "name": "",
          "type": "bytes32"
        }
      ],
      "stateMutability": "view",
      "type": "function"
    },
    {
      "inputs": [],
      "name": "contractRegistry",
      "outputs": [
        {
          "internalType": "contract IContractRegistry",
          "name": "",
          "type": "address"
        }
      ],
      "stateMutability": "view",
      "type": "function"
    },
    {
      "inputs": [],
      "name": "currentMintBatchId",
      "outputs": [
        {
          "internalType": "bytes32",
          "name": "",
          "type": "bytes32"
        }
      ],
      "stateMutability": "view",
      "type": "function"
    },
    {
      "inputs": [],
      "name": "currentRedeemBatchId",
      "outputs": [
        {
          "internalType": "bytes32",
          "name": "",
          "type": "bytes32"
        }
      ],
      "stateMutability": "view",
      "type": "function"
    },
    {
      "inputs": [
        {
          "internalType": "address",
          "name": "",
          "type": "address"
        }
      ],
      "name": "curvePoolTokenPairs",
      "outputs": [
        {
          "internalType": "contract CurveMetapool",
          "name": "curveMetaPool",
          "type": "address"
        },
        {
          "internalType": "contract IERC20",
          "name": "crvLPToken",
          "type": "address"
        }
      ],
      "stateMutability": "view",
      "type": "function"
    },
    {
      "inputs": [
        {
          "internalType": "uint256",
          "name": "amount_",
          "type": "uint256"
        },
        {
          "internalType": "address",
          "name": "depositFor_",
          "type": "address"
        }
      ],
      "name": "depositForMint",
      "outputs": [],
      "stateMutability": "nonpayable",
      "type": "function"
    },
    {
      "inputs": [
        {
          "internalType": "uint256",
          "name": "amount_",
          "type": "uint256"
        }
      ],
      "name": "depositForRedeem",
      "outputs": [],
      "stateMutability": "nonpayable",
      "type": "function"
    },
    {
      "inputs": [
        {
          "internalType": "address",
          "name": "account",
          "type": "address"
        }
      ],
      "name": "getAccountBatches",
      "outputs": [
        {
          "internalType": "bytes32[]",
          "name": "",
          "type": "bytes32[]"
        }
      ],
      "stateMutability": "view",
      "type": "function"
    },
    {
      "inputs": [],
      "name": "lastMintedAt",
      "outputs": [
        {
          "internalType": "uint256",
          "name": "",
          "type": "uint256"
        }
      ],
      "stateMutability": "view",
      "type": "function"
    },
    {
      "inputs": [],
      "name": "lastRedeemedAt",
      "outputs": [
        {
          "internalType": "uint256",
          "name": "",
          "type": "uint256"
        }
      ],
      "stateMutability": "view",
      "type": "function"
    },
    {
      "inputs": [],
      "name": "mintThreshold",
      "outputs": [
        {
          "internalType": "uint256",
          "name": "",
          "type": "uint256"
        }
      ],
      "stateMutability": "view",
      "type": "function"
    },
    {
      "inputs": [
        {
          "internalType": "bytes32[]",
          "name": "batchIds",
          "type": "bytes32[]"
        },
        {
          "internalType": "uint256[]",
          "name": "shares",
          "type": "uint256[]"
        },
        {
          "internalType": "enum HysiBatchInteraction.BatchType",
          "name": "batchType",
          "type": "uint8"
        }
      ],
      "name": "moveUnclaimedDepositsIntoCurrentBatch",
      "outputs": [],
      "stateMutability": "nonpayable",
      "type": "function"
    },
    {
      "inputs": [],
      "name": "redeemThreshold",
      "outputs": [
        {
          "internalType": "uint256",
          "name": "",
          "type": "uint256"
        }
      ],
      "stateMutability": "view",
      "type": "function"
    },
    {
      "inputs": [],
      "name": "setBasicIssuanceModule",
      "outputs": [
        {
          "internalType": "contract BasicIssuanceModule",
          "name": "",
          "type": "address"
        }
      ],
      "stateMutability": "view",
      "type": "function"
    },
    {
      "inputs": [
        {
          "internalType": "uint256",
          "name": "cooldown_",
          "type": "uint256"
        }
      ],
      "name": "setBatchCooldown",
      "outputs": [],
      "stateMutability": "nonpayable",
      "type": "function"
    },
    {
      "inputs": [
        {
          "internalType": "address[]",
          "name": "yTokenAddresses_",
          "type": "address[]"
        },
        {
          "components": [
            {
              "internalType": "contract CurveMetapool",
              "name": "curveMetaPool",
              "type": "address"
            },
            {
              "internalType": "contract IERC20",
              "name": "crvLPToken",
              "type": "address"
            }
          ],
          "internalType": "struct HysiBatchInteraction.CurvePoolTokenPair[]",
          "name": "curvePoolTokenPairs_",
          "type": "tuple[]"
        }
      ],
      "name": "setCurvePoolTokenPairs",
      "outputs": [],
      "stateMutability": "nonpayable",
      "type": "function"
    },
    {
      "inputs": [
        {
          "internalType": "uint256",
          "name": "threshold_",
          "type": "uint256"
        }
      ],
      "name": "setMintThreshold",
      "outputs": [],
      "stateMutability": "nonpayable",
      "type": "function"
    },
    {
      "inputs": [
        {
          "internalType": "uint256",
          "name": "threshold_",
          "type": "uint256"
        }
      ],
      "name": "setRedeemThreshold",
      "outputs": [],
      "stateMutability": "nonpayable",
      "type": "function"
    },
    {
      "inputs": [],
      "name": "setToken",
      "outputs": [
        {
          "internalType": "contract ISetToken",
          "name": "",
          "type": "address"
        }
      ],
      "stateMutability": "view",
      "type": "function"
    },
    {
      "inputs": [],
      "name": "threeCrv",
      "outputs": [
        {
          "internalType": "contract IERC20",
          "name": "",
          "type": "address"
        }
      ],
      "stateMutability": "view",
      "type": "function"
    },
    {
      "inputs": [
        {
          "internalType": "bytes32",
          "name": "batchId_",
          "type": "bytes32"
        },
        {
          "internalType": "uint256",
          "name": "amountToWithdraw_",
          "type": "uint256"
        },
        {
          "internalType": "address",
          "name": "withdrawFor_",
          "type": "address"
        }
      ],
      "name": "withdrawFromBatch",
      "outputs": [],
      "stateMutability": "nonpayable",
      "type": "function"
    }
  ],
  "bytecode": "0x60a06040527f487973694261746368496e746572616374696f6e0000000000000000000000006080523480156200003557600080fd5b506040516200477738038062004777833981016040819052620000589162000436565b600080546001600160a01b03808c166001600160a01b031992831617909255600180548b8416908316179055600280548a84169083161790556003805492891692909116919091179055620000ae858562000101565b600d839055600e829055600f819055426009819055600a55620000da631b5a5b9d60e21b600062000196565b50620000f16572656465656d60d01b600162000196565b5050505050505050505062000574565b60005b825181101562000191578181815181106200011b57fe5b6020026020010151600460008584815181106200013457fe5b6020908102919091018101516001600160a01b039081168352828201939093526040909101600020835181549084166001600160a01b03199182161782559390910151600191820180549190931693169290921790550162000104565b505050565b600080620001a484620002b2565b6008805460018181019092557ff3f7a9fe364faab93b216da50a3214154f22a0a2b415b23a84c8169e8b636ee30182905560008281526007602052604090208054929350918591839160ff1916908381811115620001fe57fe5b0217905550600180820183905584908111156200021757fe5b6200025857600b8290556002546006820180546001600160a01b039283166001600160a01b0319918216179091556001546007840180549190931691161790555b8360018111156200026557fe5b60011415620002aa57600c8290556001546006820180546001600160a01b039283166001600160a01b0319918216179091556002546007840180549190931691161790555b509392505050565b60004282604051602001620002c99291906200050b565b6040516020818303038152906040528051906020012090505b919050565b600082601f830112620002f8578081fd5b81516200030f62000309826200053d565b62000519565b8181529150602080830190848101818402860182018710156200033157600080fd5b60005b848110156200035d5781516200034a816200055b565b8452928201929082019060010162000334565b505050505092915050565b600082601f83011262000379578081fd5b81516200038a62000309826200053d565b8181529150602080830190848101604080850287018301881015620003ae57600080fd5b6000805b868110156200041c5782848b031215620003ca578182fd5b82518084016001600160401b0381118282101715620003e557fe5b84528451620003f4816200055b565b81528486015162000405816200055b565b8187015286529484019492820192600101620003b2565b5050505050505092915050565b8051620002e2816200055b565b60008060008060008060008060006101208a8c03121562000455578485fd5b895162000462816200055b565b60208b015190995062000475816200055b565b97506200048560408b0162000429565b96506200049560608b0162000429565b60808b01519096506001600160401b0380821115620004b2578687fd5b620004c08d838e01620002e7565b965060a08c0151915080821115620004d6578586fd5b50620004e58c828d0162000368565b94505060c08a0151925060e08a015191506101008a015190509295985092959850929598565b918252602082015260400190565b6040518181016001600160401b03811182821017156200053557fe5b604052919050565b60006001600160401b038211156200055157fe5b5060209081020190565b6001600160a01b03811681146200057157600080fd5b50565b6080516141de6200059960003980610c285280610cfa5280611b2352506141de6000f3fe608060405234801561001057600080fd5b50600436106101cf5760003560e01c806390f2ca8711610104578063b3d346b9116100a2578063d75e952711610071578063d75e952714610395578063ed09e19d146103a8578063ed9cf58c146103bb578063eddcb7d1146103c3576101cf565b8063b3d346b914610335578063c81e25ab14610348578063cd02bd7f1461036f578063d030d2b314610382576101cf565b8063976874cc116100de578063976874cc146102f15780639c8dead214610312578063ab6a55391461031a578063abf410e51461032d576101cf565b806390f2ca87146102c3578063961b7d86146102cb57806396c144f0146102de576101cf565b80633af3bfb5116101715780637190bc291161014b5780637190bc291461028d57806375d0c0dc146102a05780638467be0d146102a857806390d1f245146102bb576101cf565b80633af3bfb51461025f5780633eea44fe146102725780635a3f0ca014610285576101cf565b806328d3ef0b116101ad57806328d3ef0b1461021a5780632a9ca9961461023a5780632da9a6941461024f5780633739158014610257576101cf565b806307da06a5146101d4578063264c7984146101e957806327360d6914610207575b600080fd5b6101e76101e23660046136d9565b6103cb565b005b6101f161065f565b6040516101fe919061399d565b60405180910390f35b6101e761021536600461377d565b610665565b61022d6102283660046134eb565b61079a565b6040516101fe9190613921565b610242610806565b6040516101fe91906138b6565b610242610815565b6101f1610824565b6101e761026d3660046137c4565b61082a565b6101e761028036600461377d565b61097d565b6101f1610aa2565b6101e761029b36600461354e565b610aa8565b6101f1610c26565b6101e76102b636600461377d565b610c4a565b6101f1611600565b6101f1611606565b6101e76102d936600461386c565b61160c565b6101f16102ec366004613795565b6118ae565b6103046102ff3660046134eb565b611a47565b6040516101fe9291906138ee565b6101f1611a6d565b6101e761032836600461377d565b611a73565b61024261219b565b6101f161034336600461377d565b6121aa565b61035b61035636600461377d565b6121c8565b6040516101fe989796959493929190613a21565b6101e761037d36600461377d565b612221565b6101f1610390366004613523565b612346565b6101e76103a336600461377d565b612374565b6101f16103b6366004613795565b612499565b6102426124b6565b6101f16124c5565b8382146103f35760405162461bcd60e51b81526004016103ea90613be7565b60405180910390fd5b6000805b858110156105bd5760006007600089898581811061041157fe5b6020908102929092013583525081810192909252604090810160009081206001808201548352600585528383203384529094529190205460028201549193509160ff9091161515146104755760405162461bcd60e51b81526004016103ea90613b42565b84600181111561048157fe5b825460ff16600181111561049157fe5b146104ae5760405162461bcd60e51b81526004016103ea90613d20565b8686848181106104ba57fe5b905060200201358110156104e05760405162461bcd60e51b81526004016103ea9061404a565b600061051983600301546105138a8a888181106104f957fe5b9050602002013586600501546124cb90919063ffffffff16565b9061250c565b600584015490915061052b908261253e565b600584015561055988888681811061053f57fe5b90506020020135846003015461253e90919063ffffffff16565b600384015561058388888681811061056d57fe5b905060200201358361253e90919063ffffffff16565b600184015460009081526005602090815260408083203384529091529020556105ac8582612566565b945050600190920191506103f79050565b50600081116105de5760405162461bcd60e51b81526004016103ea90613ad4565b8160018111156105ea57fe5b6105fb576105fb81600c543361258b565b81600181111561060757fe5b6001141561061c5761061c81600b543361258b565b7ffacb7348a2212313d980cebc23550b0462adb394310473ee7758995398765c7081833360405161064f939291906140b8565b60405180910390a1505050505050565b60095481565b6001546040516370a0823160e01b815282916001600160a01b0316906370a08231906106959033906004016138b6565b60206040518083038186803b1580156106ad57600080fd5b505afa1580156106c1573d6000803e3d6000fd5b505050506040513d601f19601f820116820180604052508101906106e59190613854565b10156107035760405162461bcd60e51b81526004016103ea90613edc565b6001546040516323b872dd60e01b81526001600160a01b03909116906323b872dd90610737903390309086906004016138ca565b602060405180830381600087803b15801561075157600080fd5b505af1158015610765573d6000803e3d6000fd5b505050506040513d601f19601f82011682018060405250810190610789919061375d565b5061079781600c543361258b565b50565b6001600160a01b0381166000908152600660209081526040918290208054835181840281018401909452808452606093928301828280156107fa57602002820191906000526020600020905b8154815260200190600101908083116107e6575b50505050509050919050565b6003546001600160a01b031681565b6002546001600160a01b031681565b600d5481565b60006108358261266c565b6000858152600760209081526040808320600583528184206001600160a01b0388168552909252909120546002820154929350909160ff161561088a5760405162461bcd60e51b81526004016103ea90613ea5565b848110156108aa5760405162461bcd60e51b81526004016103ea9061404a565b6108b4818661253e565b60008781526005602090815260408083206001600160a01b038916845290915290205560048201546108e6908661253e565b600483015560038201546108fa908661253e565b60038301556000825460ff16600181111561091157fe5b14156109335760025461092e906001600160a01b03168487612923565b61094a565b60015461094a906001600160a01b03168487612923565b7f08afc380d5171e1371c567cd7562cc8ff4e9c38c66d5e479c613fdf38106d84586868660405161064f939291906139df565b600054604051631c2d8fb360e31b81526001600160a01b039091169063e16c7d98906109cd907f15fa0125f52e5705da1148bfcf00974823c4381bee4314203ede255f9477b73e9060040161399d565b60206040518083038186803b1580156109e557600080fd5b505afa1580156109f9573d6000803e3d6000fd5b505050506040513d601f19601f82011682018060405250810190610a1d9190613507565b6001600160a01b031663d09a20c57fd0a4ad96d49edb1c33461cebc6fb2609190f32c904e3c3f5877edb4488dee91e336040518363ffffffff1660e01b8152600401610a6a9291906139a6565b60006040518083038186803b158015610a8257600080fd5b505afa158015610a96573d6000803e3d6000fd5b505050600d9190915550565b600a5481565b600054604051631c2d8fb360e31b81526001600160a01b039091169063e16c7d9890610af8907f15fa0125f52e5705da1148bfcf00974823c4381bee4314203ede255f9477b73e9060040161399d565b60206040518083038186803b158015610b1057600080fd5b505afa158015610b24573d6000803e3d6000fd5b505050506040513d601f19601f82011682018060405250810190610b489190613507565b6001600160a01b031663d09a20c57fd0a4ad96d49edb1c33461cebc6fb2609190f32c904e3c3f5877edb4488dee91e336040518363ffffffff1660e01b8152600401610b959291906139a6565b60006040518083038186803b158015610bad57600080fd5b505afa158015610bc1573d6000803e3d6000fd5b50505050610c21838383808060200260200160405190810160405280939291908181526020016000905b82821015610c1757610c08604083028601368190038101906137fc565b81526020019060010190610beb565b50505050506129a6565b505050565b7f000000000000000000000000000000000000000000000000000000000000000081565b600054604051631c2d8fb360e31b81526001600160a01b039091169063e16c7d9890610c9a907f35ed2e1befd3b2dcf1ec7a6834437fa3212881ed81fd3a13dc97c3438896e1ba9060040161399d565b60206040518083038186803b158015610cb257600080fd5b505afa158015610cc6573d6000803e3d6000fd5b505050506040513d601f19601f82011682018060405250810190610cea9190613507565b6001600160a01b03166355b8efcc7f00000000000000000000000000000000000000000000000000000000000000006000336040518463ffffffff1660e01b8152600401610d3a939291906139bd565b600060405180830381600087803b158015610d5457600080fd5b505af1158015610d68573d6000803e3d6000fd5b5050600b546000908152600760205260409020600d546009549193509150610d9190429061253e565b101580610da45750600e54816004015410155b610dc05760405162461bcd60e51b81526004016103ea90613f13565b600281015460ff1615610de55760405162461bcd60e51b81526004016103ea90614081565b6004808201546002546040516370a0823160e01b815291926001600160a01b03909116916370a0823191610e1b913091016138b6565b60206040518083038186803b158015610e3357600080fd5b505afa158015610e47573d6000803e3d6000fd5b505050506040513d601f19601f82011682018060405250810190610e6b9190613854565b1015610e895760405162461bcd60e51b81526004016103ea90613d57565b600354600154604051637a4ffd0360e01b815260609283926001600160a01b0391821692637a4ffd0392610ecb921690670de0b6b3a764000090600401613908565b60006040518083038186803b158015610ee357600080fd5b505afa158015610ef7573d6000803e3d6000fd5b505050506040513d6000823e601f3d908101601f19168201604052610f1f9190810190613616565b9150915060006060825167ffffffffffffffff81118015610f3f57600080fd5b50604051908082528060200260200182016040528015610f69578160200160208202803683370190505b50905060005b84518110156111dd576000858281518110610f8657fe5b60200260200101516001600160a01b03166399530b066040518163ffffffff1660e01b815260040160206040518083038186803b158015610fc657600080fd5b505afa158015610fda573d6000803e3d6000fd5b505050506040513d601f19601f82011682018060405250810190610ffe9190613854565b905060006110e46004600089868151811061101557fe5b6020908102919091018101516001600160a01b0390811683529082019290925260409081016000205490517fcc2b27d700000000000000000000000000000000000000000000000000000000815291169063cc2b27d79061108590670de0b6b3a764000090600190600401613a90565b60206040518083038186803b15801561109d57600080fd5b505afa1580156110b1573d6000803e3d6000fd5b505050506040513d601f19601f820116820180604052508101906110d59190613854565b671bc16d674ec800009061253e565b905060006110fe670de0b6b3a764000061051385856124cb565b905060006111a7670de0b6b3a7640000610513848c898151811061111e57fe5b60200260200101516001600160a01b03166370a08231306040518263ffffffff1660e01b815260040161115191906138b6565b60206040518083038186803b15801561116957600080fd5b505afa15801561117d573d6000803e3d6000fd5b505050506040513d601f19601f820116820180604052508101906111a19190613854565b906124cb565b9050808686815181106111b657fe5b60209081029190910101526111cb8782612566565b96505060019093019250610f6f915050565b5060048501546000906111f09084612566565b905060005b855181101561146657600061123184838151811061120f57fe5b602002602001015161122b60048661250c90919063ffffffff16565b9061253e565b905061127481600460008a868151811061124757fe5b6020908102919091018101516001600160a01b039081168352908201929092526040016000205416612a3f565b5061138f6004600089858151811061128857fe5b6020908102919091018101516001600160a01b0390811683529082019290925260409081016000206001015490516370a0823160e01b81529116906370a08231906112d79030906004016138b6565b60206040518083038186803b1580156112ef57600080fd5b505afa158015611303573d6000803e3d6000fd5b505050506040513d601f19601f820116820180604052508101906113279190613854565b600460008a868151811061133757fe5b60200260200101516001600160a01b03166001600160a01b0316815260200190815260200160002060010160009054906101000a90046001600160a01b031689858151811061138257fe5b6020026020010151612bad565b600354875161145d916001600160a01b0316908990859081106113ae57fe5b60200260200101516001600160a01b03166370a08231306040518263ffffffff1660e01b81526004016113e191906138b6565b60206040518083038186803b1580156113f957600080fd5b505afa15801561140d573d6000803e3d6000fd5b505050506040513d601f19601f820116820180604052508101906114319190613854565b89858151811061143d57fe5b60200260200101516001600160a01b0316612cd79092919063ffffffff16565b506001016111f5565b50600061149a8560008151811061147957fe5b6020026020010151610513670de0b6b3a76400008960008151811061111e57fe5b905060015b86518110156114ea576114e0826114db8884815181106114bb57fe5b6020026020010151610513670de0b6b3a76400008c878151811061111e57fe5b612d88565b915060010161149f565b508781101561150b5760405162461bcd60e51b81526004016103ea90613fb6565b6003546001546040517f6d78f47a0000000000000000000000000000000000000000000000000000000081526001600160a01b0392831692636d78f47a9261155c92911690859030906004016139fe565b600060405180830381600087803b15801561157657600080fd5b505af115801561158a573d6000803e3d6000fd5b505050506005870181905560028701805460ff1916600117905542600955600b5460048801546040517fa018ec75c77c2e90d17863c91c2f7440710e48d57f99510358116fb0e34bdf6d916115e09185906138a8565b60405180910390a26115f5600b546000612d9e565b505050505050505050565b600c5481565b600f5481565b600054604051631c2d8fb360e31b81526001600160a01b039091169063e16c7d989061165c907f15fa0125f52e5705da1148bfcf00974823c4381bee4314203ede255f9477b73e9060040161399d565b60206040518083038186803b15801561167457600080fd5b505afa158015611688573d6000803e3d6000fd5b505050506040513d601f19601f820116820180604052508101906116ac9190613507565b6001600160a01b03166391d148547fde3f120e60938f665f938e828e860a96c02a4ce6b71b26b4001ac807f65ae33f336040518363ffffffff1660e01b81526004016116f99291906139a6565b60206040518083038186803b15801561171157600080fd5b505afa158015611725573d6000803e3d6000fd5b505050506040513d601f19601f82011682018060405250810190611749919061375d565b8061175c5750336001600160a01b038216145b6117785760405162461bcd60e51b81526004016103ea90613c1e565b6002546040516370a0823160e01b815283916001600160a01b0316906370a08231906117a89033906004016138b6565b60206040518083038186803b1580156117c057600080fd5b505afa1580156117d4573d6000803e3d6000fd5b505050506040513d601f19601f820116820180604052508101906117f89190613854565b10156118165760405162461bcd60e51b81526004016103ea90613bb0565b6002546040516323b872dd60e01b81526001600160a01b03909116906323b872dd9061184a903390309087906004016138ca565b602060405180830381600087803b15801561186457600080fd5b505af1158015611878573d6000803e3d6000fd5b505050506040513d601f19601f8201168201806040525081019061189c919061375d565b506118aa82600b548361258b565b5050565b6000828152600760205260408120600281015460ff166118e05760405162461bcd60e51b81526004016103ea90613b0b565b60006118eb8461266c565b60008681526005602090815260408083206001600160a01b03891684529091529020546003840154919250908111156119365760405162461bcd60e51b81526004016103ea90613db4565b600061195784600301546105138487600501546124cb90919063ffffffff16565b6005850154909150611969908261253e565b6005850155600384015461197d908361253e565b600385015560008781526005602090815260408083206001600160a01b038a1684529091528120819055845460ff1660018111156119b757fe5b14156119d9576001546119d4906001600160a01b03168483612923565b6119f0565b6002546119f0906001600160a01b03168483612923565b83546040516001600160a01b038816917f8d2dd554e7207f2edcec3f94a370536aa5b74554b28e814f77ec34780a18552491611a339160ff169086908690613a71565b60405180910390a293505050505b92915050565b600460205260009081526040902080546001909101546001600160a01b03918216911682565b600e5481565b600054604051631c2d8fb360e31b81526001600160a01b039091169063e16c7d9890611ac3907f35ed2e1befd3b2dcf1ec7a6834437fa3212881ed81fd3a13dc97c3438896e1ba9060040161399d565b60206040518083038186803b158015611adb57600080fd5b505afa158015611aef573d6000803e3d6000fd5b505050506040513d601f19601f82011682018060405250810190611b139190613507565b6001600160a01b03166355b8efcc7f00000000000000000000000000000000000000000000000000000000000000006001336040518463ffffffff1660e01b8152600401611b63939291906139bd565b600060405180830381600087803b158015611b7d57600080fd5b505af1158015611b91573d6000803e3d6000fd5b5050600c546000908152600760205260409020600d54600a549193509150611bba90429061253e565b101580611bcd5750600f54816004015410155b611be95760405162461bcd60e51b81526004016103ea90613f13565b600281015460ff1615611c0e5760405162461bcd60e51b81526004016103ea90613f48565b6004808201546001546040516370a0823160e01b815291926001600160a01b03909116916370a0823191611c44913091016138b6565b60206040518083038186803b158015611c5c57600080fd5b505afa158015611c70573d6000803e3d6000fd5b505050506040513d601f19601f82011682018060405250810190611c949190613854565b1015611cb25760405162461bcd60e51b81526004016103ea90613e48565b600354600154604051637a4ffd0360e01b815260609283926001600160a01b0391821692637a4ffd0392611cf4921690670de0b6b3a764000090600401613908565b60006040518083038186803b158015611d0c57600080fd5b505afa158015611d20573d6000803e3d6000fd5b505050506040513d6000823e601f3d908101601f19168201604052611d489190810190613616565b6003546004860154600154939550919350611d71926001600160a01b0390811692911690612cd7565b6003546001546004808601546040517f5c833bfd0000000000000000000000000000000000000000000000000000000081526001600160a01b0394851694635c833bfd94611dc594911692913091016139fe565b600060405180830381600087803b158015611ddf57600080fd5b505af1158015611df3573d6000803e3d6000fd5b50506002546040516370a0823160e01b8152600093506001600160a01b0390911691506370a0823190611e2a9030906004016138b6565b60206040518083038186803b158015611e4257600080fd5b505afa158015611e56573d6000803e3d6000fd5b505050506040513d601f19601f82011682018060405250810190611e7a9190613854565b905060005b835181101561208057611f33848281518110611e9757fe5b60200260200101516001600160a01b03166370a08231306040518263ffffffff1660e01b8152600401611eca91906138b6565b60206040518083038186803b158015611ee257600080fd5b505afa158015611ef6573d6000803e3d6000fd5b505050506040513d601f19601f82011682018060405250810190611f1a9190613854565b858381518110611f2657fe5b6020026020010151612ecd565b600060046000868481518110611f4557fe5b6020908102919091018101516001600160a01b0390811683529082019290925260409081016000206001015490516370a0823160e01b81529116906370a0823190611f949030906004016138b6565b60206040518083038186803b158015611fac57600080fd5b505afa158015611fc0573d6000803e3d6000fd5b505050506040513d601f19601f82011682018060405250810190611fe49190613854565b90506120768160046000888681518110611ffa57fe5b60200260200101516001600160a01b03166001600160a01b0316815260200190815260200160002060010160009054906101000a90046001600160a01b03166004600089878151811061204957fe5b6020908102919091018101516001600160a01b039081168352908201929092526040016000205416612ff6565b5050600101611e7f565b506002546040516370a0823160e01b81526121079183916001600160a01b03909116906370a08231906120b79030906004016138b6565b60206040518083038186803b1580156120cf57600080fd5b505afa1580156120e3573d6000803e3d6000fd5b505050506040513d601f19601f8201168201806040525081019061122b9190613854565b6005850181905585111561212d5760405162461bcd60e51b81526004016103ea90613fb6565b600c547ffe5f8735d3a150c5afdab27148da5543b04feb55f87613477a9a65621c910ddf856004015486600501546040516121699291906138a8565b60405180910390a260028401805460ff1916600190811790915542600a55600c5461219391612d9e565b505050505050565b6000546001600160a01b031681565b600881815481106121b757fe5b600091825260209091200154905081565b60076020819052600091825260409091208054600182015460028301546003840154600485015460058601546006870154969097015460ff95861697949693909516949193909290916001600160a01b03918216911688565b600054604051631c2d8fb360e31b81526001600160a01b039091169063e16c7d9890612271907f15fa0125f52e5705da1148bfcf00974823c4381bee4314203ede255f9477b73e9060040161399d565b60206040518083038186803b15801561228957600080fd5b505afa15801561229d573d6000803e3d6000fd5b505050506040513d601f19601f820116820180604052508101906122c19190613507565b6001600160a01b031663d09a20c57fd0a4ad96d49edb1c33461cebc6fb2609190f32c904e3c3f5877edb4488dee91e336040518363ffffffff1660e01b815260040161230e9291906139a6565b60006040518083038186803b15801561232657600080fd5b505afa15801561233a573d6000803e3d6000fd5b505050600e9190915550565b6006602052816000526040600020818154811061235f57fe5b90600052602060002001600091509150505481565b600054604051631c2d8fb360e31b81526001600160a01b039091169063e16c7d98906123c4907f15fa0125f52e5705da1148bfcf00974823c4381bee4314203ede255f9477b73e9060040161399d565b60206040518083038186803b1580156123dc57600080fd5b505afa1580156123f0573d6000803e3d6000fd5b505050506040513d601f19601f820116820180604052508101906124149190613507565b6001600160a01b031663d09a20c57fd0a4ad96d49edb1c33461cebc6fb2609190f32c904e3c3f5877edb4488dee91e336040518363ffffffff1660e01b81526004016124619291906139a6565b60006040518083038186803b15801561247957600080fd5b505afa15801561248d573d6000803e3d6000fd5b505050600f9190915550565b600560209081526000928352604080842090915290825290205481565b6001546001600160a01b031681565b600b5481565b6000826124da57506000611a41565b828202828482816124e757fe5b04146125055760405162461bcd60e51b81526004016103ea90613deb565b9392505050565b600080821161252d5760405162461bcd60e51b81526004016103ea90613ce9565b81838161253657fe5b049392505050565b6000828211156125605760405162461bcd60e51b81526004016103ea90613c55565b50900390565b6000828201838110156125055760405162461bcd60e51b81526004016103ea90613b79565b600082815260076020526040902060048101546125a89085612566565b600482015560038101546125bc9085612566565b600382015560008381526005602090815260408083206001600160a01b03861684529091529020546125ee9085612566565b60008481526005602090815260408083206001600160a01b038716808552908352818420949094556006825280832080546001810182559084529190922001859055517fe1fffcc4923d04b559f4d29a8bfc6cda04eb5b0d3c460751c2402c5c5cc9109c9061265e90879061399d565b60405180910390a250505050565b60008054604051631c2d8fb360e31b81526001600160a01b039091169063e16c7d98906126bd907f15fa0125f52e5705da1148bfcf00974823c4381bee4314203ede255f9477b73e9060040161399d565b60206040518083038186803b1580156126d557600080fd5b505afa1580156126e9573d6000803e3d6000fd5b505050506040513d601f19601f8201168201806040525081019061270d9190613507565b6001600160a01b03166391d148547fde3f120e60938f665f938e828e860a96c02a4ce6b71b26b4001ac807f65ae33f336040518363ffffffff1660e01b815260040161275a9291906139a6565b60206040518083038186803b15801561277257600080fd5b505afa158015612786573d6000803e3d6000fd5b505050506040513d601f19601f820116820180604052508101906127aa919061375d565b806127bd5750336001600160a01b038316145b6127d95760405162461bcd60e51b81526004016103ea90613c1e565b600054604051631c2d8fb360e31b815283916001600160a01b03169063e16c7d9890612829907f15fa0125f52e5705da1148bfcf00974823c4381bee4314203ede255f9477b73e9060040161399d565b60206040518083038186803b15801561284157600080fd5b505afa158015612855573d6000803e3d6000fd5b505050506040513d601f19601f820116820180604052508101906128799190613507565b6001600160a01b03166391d148547fde3f120e60938f665f938e828e860a96c02a4ce6b71b26b4001ac807f65ae33f336040518363ffffffff1660e01b81526004016128c69291906139a6565b60206040518083038186803b1580156128de57600080fd5b505afa1580156128f2573d6000803e3d6000fd5b505050506040513d601f19601f82011682018060405250810190612916919061375d565b15611a4157503392915050565b610c218363a9059cbb60e01b8484604051602401612942929190613908565b60408051601f198184030181529190526020810180517bffffffffffffffffffffffffffffffffffffffffffffffffffffffff167fffffffff0000000000000000000000000000000000000000000000000000000090931692909217909152613149565b60005b8251811015610c21578181815181106129be57fe5b6020026020010151600460008584815181106129d657fe5b6020908102919091018101516001600160a01b0390811683528282019390935260409091016000208351815490841673ffffffffffffffffffffffffffffffffffffffff19918216178255939091015160019182018054919093169316929092179055016129a9565b600254604051636eb1769f60e11b815260009182916001600160a01b039091169063dd62ed3e90612a7690309087906004016138ee565b60206040518083038186803b158015612a8e57600080fd5b505afa158015612aa2573d6000803e3d6000fd5b505050506040513d601f19601f82011682018060405250810190612ac69190613854565b600254909150612ae0906001600160a01b031684836131d8565b600254612af9906001600160a01b031684600019612cd7565b60408051808201825260008082526020820187905291517f0b4c7e4d0000000000000000000000000000000000000000000000000000000081526001600160a01b03861692630b4c7e4d92612b5392909190600401613965565b602060405180830381600087803b158015612b6d57600080fd5b505af1158015612b81573d6000803e3d6000fd5b505050506040513d601f19601f82011682018060405250810190612ba59190613854565b505092915050565b604051636eb1769f60e11b81526000906001600160a01b0384169063dd62ed3e90612bde90309086906004016138ee565b60206040518083038186803b158015612bf657600080fd5b505afa158015612c0a573d6000803e3d6000fd5b505050506040513d601f19601f82011682018060405250810190612c2e9190613854565b9050612c446001600160a01b03841683836131d8565b612c5a6001600160a01b03841683600019612cd7565b6040517fb6b55f250000000000000000000000000000000000000000000000000000000081526001600160a01b0383169063b6b55f2590612c9f90879060040161399d565b600060405180830381600087803b158015612cb957600080fd5b505af1158015612ccd573d6000803e3d6000fd5b5050505050505050565b6000612d6182856001600160a01b031663dd62ed3e30876040518363ffffffff1660e01b8152600401612d0b9291906138ee565b60206040518083038186803b158015612d2357600080fd5b505afa158015612d37573d6000803e3d6000fd5b505050506040513d601f19601f82011682018060405250810190612d5b9190613854565b90612566565b9050612d828463095ea7b360e01b8584604051602401612942929190613908565b50505050565b6000818310612d975781612505565b5090919050565b600080612daa8461327c565b6008805460018181019092557ff3f7a9fe364faab93b216da50a3214154f22a0a2b415b23a84c8169e8b636ee30182905560008281526007602052604090208054929350918591839160ff1916908381811115612e0357fe5b021790555060018082018390558490811115612e1b57fe5b612e6857600b8290556002546006820180546001600160a01b0392831673ffffffffffffffffffffffffffffffffffffffff19918216179091556001546007840180549190931691161790555b836001811115612e7457fe5b60011415612ec557600c8290556001546006820180546001600160a01b0392831673ffffffffffffffffffffffffffffffffffffffff19918216179091556002546007840180549190931691161790555b509392505050565b604051636eb1769f60e11b81526000906001600160a01b0383169063dd62ed3e90612efe90309086906004016138ee565b60206040518083038186803b158015612f1657600080fd5b505afa158015612f2a573d6000803e3d6000fd5b505050506040513d601f19601f82011682018060405250810190612f4e9190613854565b9050612f646001600160a01b03831683836131d8565b612f7a6001600160a01b03831683600019612cd7565b6040517f2e1a7d4d0000000000000000000000000000000000000000000000000000000081526001600160a01b03831690632e1a7d4d90612fbf90869060040161399d565b600060405180830381600087803b158015612fd957600080fd5b505af1158015612fed573d6000803e3d6000fd5b50505050505050565b600080836001600160a01b031663dd62ed3e30856040518363ffffffff1660e01b81526004016130279291906138ee565b60206040518083038186803b15801561303f57600080fd5b505afa158015613053573d6000803e3d6000fd5b505050506040513d601f19601f820116820180604052508101906130779190613854565b905061308d6001600160a01b03851684836131d8565b6130a36001600160a01b03851684600019612cd7565b6040517f1a4d01d20000000000000000000000000000000000000000000000000000000081526001600160a01b03841690631a4d01d2906130ee9088906001906000906004016140e3565b602060405180830381600087803b15801561310857600080fd5b505af115801561311c573d6000803e3d6000fd5b505050506040513d601f19601f820116820180604052508101906131409190613854565b50509392505050565b606061319e826040518060400160405280602081526020017f5361666545524332303a206c6f772d6c6576656c2063616c6c206661696c6564815250856001600160a01b03166132ae9092919063ffffffff16565b805190915015610c2157808060200190518101906131bc919061375d565b610c215760405162461bcd60e51b81526004016103ea90613fed565b6000612d618260405180606001604052806029815260200161418060299139604051636eb1769f60e11b81526001600160a01b0388169063dd62ed3e906132259030908a906004016138ee565b60206040518083038186803b15801561323d57600080fd5b505afa158015613251573d6000803e3d6000fd5b505050506040513d601f19601f820116820180604052508101906132759190613854565b91906132c5565b600042826040516020016132919291906138a8565b604051602081830303815290604052805190602001209050919050565b60606132bd84846000856132f1565b949350505050565b600081848411156132e95760405162461bcd60e51b81526004016103ea9190613aa1565b505050900390565b6060824710156133135760405162461bcd60e51b81526004016103ea90613c8c565b61331c856133b2565b6133385760405162461bcd60e51b81526004016103ea90613f7f565b60006060866001600160a01b03168587604051613355919061388c565b60006040518083038185875af1925050503d8060008114613392576040519150601f19603f3d011682016040523d82523d6000602084013e613397565b606091505b50915091506133a78282866133b8565b979650505050505050565b3b151590565b606083156133c7575081612505565b8251156133d75782518084602001fd5b8160405162461bcd60e51b81526004016103ea9190613aa1565b60008083601f840112613402578182fd5b50813567ffffffffffffffff811115613419578182fd5b602083019150836020808302850101111561343357600080fd5b9250929050565b60008083601f84011261344b578182fd5b50813567ffffffffffffffff811115613462578182fd5b60208301915083602060408302850101111561343357600080fd5b600082601f83011261348d578081fd5b81516134a061349b82614120565b6140fc565b8181529150602080830190848101818402860182018710156134c157600080fd5b60005b848110156134e0578151845292820192908201906001016134c4565b505050505092915050565b6000602082840312156134fc578081fd5b81356125058161416a565b600060208284031215613518578081fd5b81516125058161416a565b60008060408385031215613535578081fd5b82356135408161416a565b946020939093013593505050565b600080600060408486031215613562578081fd5b833567ffffffffffffffff80821115613579578283fd5b818601915086601f83011261358c578283fd5b813561359a61349b82614120565b80828252602080830192508086018b8283870289010111156135ba578788fd5b8796505b848710156135e55780356135d18161416a565b8452600196909601959281019281016135be565b5090975088013593505050808211156135fc578283fd5b506136098682870161343a565b9497909650939450505050565b60008060408385031215613628578182fd5b825167ffffffffffffffff8082111561363f578384fd5b818501915085601f830112613652578384fd5b815161366061349b82614120565b80828252602080830192508086018a828387028901011115613680578889fd5b8896505b848710156136ab5780516136978161416a565b845260019690960195928101928101613684565b5088015190965093505050808211156136c2578283fd5b506136cf8582860161347d565b9150509250929050565b6000806000806000606086880312156136f0578081fd5b853567ffffffffffffffff80821115613707578283fd5b61371389838a016133f1565b9097509550602088013591508082111561372b578283fd5b50613738888289016133f1565b90945092505060408601356002811061374f578182fd5b809150509295509295909350565b60006020828403121561376e578081fd5b81518015158114612505578182fd5b60006020828403121561378e578081fd5b5035919050565b600080604083850312156137a7578081fd5b8235915060208301356137b98161416a565b809150509250929050565b6000806000606084860312156137d8578081fd5b833592506020840135915060408401356137f18161416a565b809150509250925092565b60006040828403121561380d578081fd5b6040516040810181811067ffffffffffffffff8211171561382a57fe5b60405282356138388161416a565b815260208301356138488161416a565b60208201529392505050565b600060208284031215613865578081fd5b5051919050565b600080604083850312156137a7578182fd5b6002811061388857fe5b9052565b6000825161389e81846020870161413e565b9190910192915050565b918252602082015260400190565b6001600160a01b0391909116815260200190565b6001600160a01b039384168152919092166020820152604081019190915260600190565b6001600160a01b0392831681529116602082015260400190565b6001600160a01b03929092168252602082015260400190565b6020808252825182820181905260009190848201906040850190845b818110156139595783518352928401929184019160010161393d565b50909695505050505050565b60608101818460005b600281101561398d57815183526020928301929091019060010161396e565b5050508260408301529392505050565b90815260200190565b9182526001600160a01b0316602082015260400190565b92835260ff9190911660208301526001600160a01b0316604082015260600190565b92835260208301919091526001600160a01b0316604082015260600190565b6001600160a01b0393841681526020810192909252909116604082015260600190565b6101008101613a30828b61387e565b602082019890985295151560408701526060860194909452608085019290925260a08401526001600160a01b0390811660c08401521660e090910152919050565b60608101613a7f828661387e565b602082019390935260400152919050565b918252600f0b602082015260400190565b6000602082528251806020840152613ac081604085016020870161413e565b601f01601f19169190910160400192915050565b6020808252601c908201527f746f74616c416d6f756e74206d757374206265206c6172676572203000000000604082015260600190565b60208082526011908201527f6e6f742079657420636c61696d61626c65000000000000000000000000000000604082015260600190565b6020808252601a908201527f686173206e6f7420796574206265656e2070726f636573736564000000000000604082015260600190565b6020808252601b908201527f536166654d6174683a206164646974696f6e206f766572666c6f770000000000604082015260600190565b60208082526013908201527f696e737566666963656e742062616c616e636500000000000000000000000000604082015260600190565b60208082526018908201527f6172726179206c656e67746873206d757374206d617463680000000000000000604082015260600190565b6020808252601d908201527f796f752063616e74207472616e73666572206f746865722066756e6473000000604082015260600190565b6020808252601e908201527f536166654d6174683a207375627472616374696f6e206f766572666c6f770000604082015260600190565b60208082526026908201527f416464726573733a20696e73756666696369656e742062616c616e636520666f60408201527f722063616c6c0000000000000000000000000000000000000000000000000000606082015260800190565b6020808252601a908201527f536166654d6174683a206469766973696f6e206279207a65726f000000000000604082015260600190565b60208082526013908201527f696e636f72726563742062617463685479706500000000000000000000000000604082015260600190565b60208082526031908201527f6163636f756e742068617320696e73756666696369656e742062616c616e636560408201527f206f6620746f6b656e20746f206d696e74000000000000000000000000000000606082015260800190565b60208082526018908201527f636c61696d696e6720746f6f206d616e79207368617265730000000000000000604082015260600190565b60208082526021908201527f536166654d6174683a206d756c7469706c69636174696f6e206f766572666c6f60408201527f7700000000000000000000000000000000000000000000000000000000000000606082015260800190565b60208082526034908201527f636f6e74726163742068617320696e73756666696369656e742062616c616e6360408201527f65206f6620746f6b656e20746f2072656465656d000000000000000000000000606082015260800190565b60208082526011908201527f616c72656164792070726f636573736564000000000000000000000000000000604082015260600190565b60208082526014908201527f696e73756666696369656e742062616c616e6365000000000000000000000000604082015260600190565b6020808252818101527f63616e206e6f74206578656375746520626174636820616374696f6e20796574604082015260600190565b60208082526010908201527f616c72656164792072656465656d656400000000000000000000000000000000604082015260600190565b6020808252601d908201527f416464726573733a2063616c6c20746f206e6f6e2d636f6e7472616374000000604082015260600190565b60208082526011908201527f736c69707061676520746f6f2068696768000000000000000000000000000000604082015260600190565b6020808252602a908201527f5361666545524332303a204552433230206f7065726174696f6e20646964206e60408201527f6f74207375636365656400000000000000000000000000000000000000000000606082015260800190565b6020808252601e908201527f6163636f756e742068617320696e73756666696369656e742066756e64730000604082015260600190565b6020808252600e908201527f616c7265616479206d696e746564000000000000000000000000000000000000604082015260600190565b838152606081016140cc602083018561387e565b6001600160a01b0383166040830152949350505050565b928352600f9190910b6020830152604082015260600190565b60405181810167ffffffffffffffff8111828210171561411857fe5b604052919050565b600067ffffffffffffffff82111561413457fe5b5060209081020190565b60005b83811015614159578181015183820152602001614141565b83811115612d825750506000910152565b6001600160a01b038116811461079757600080fdfe5361666545524332303a2064656372656173656420616c6c6f77616e63652062656c6f77207a65726fa26469706673582212200cc8e71d878176bb1a3817fdc2b5ba80aee1c950b25b9611cc4b2c44c506b0a564736f6c63430007030033",
  "linkReferences": {},
  "deployedLinkReferences": {}
}