{
  "_format": "hh-sol-artifact-1",
  "contractName": "KeeperIncentive",
  "sourceName": "contracts/core/utils/KeeperIncentive.sol",
  "abi": [
    {
      "inputs": [
        {
          "internalType": "contract IContractRegistry",
          "name": "_contractRegistry",
          "type": "address"
        }
      ],
      "stateMutability": "nonpayable",
      "type": "constructor"
    },
    {
      "anonymous": false,
      "inputs": [
        {
          "indexed": false,
          "internalType": "bytes32",
          "name": "contractName",
          "type": "bytes32"
        },
        {
          "indexed": false,
          "internalType": "bool",
          "name": "openToEveryone",
          "type": "bool"
        }
      ],
      "name": "ApprovalToggled",
      "type": "event"
    },
    {
      "anonymous": false,
      "inputs": [
        {
          "indexed": false,
          "internalType": "uint256",
          "name": "oldRate",
          "type": "uint256"
        },
        {
          "indexed": false,
          "internalType": "uint256",
          "name": "newRate",
          "type": "uint256"
        }
      ],
      "name": "BurnRateChanged",
      "type": "event"
    },
    {
      "anonymous": false,
      "inputs": [
        {
          "indexed": false,
          "internalType": "uint256",
          "name": "amount",
          "type": "uint256"
        }
      ],
      "name": "Burned",
      "type": "event"
    },
    {
      "anonymous": false,
      "inputs": [
        {
          "indexed": false,
          "internalType": "bytes32",
          "name": "contractName",
          "type": "bytes32"
        },
        {
          "indexed": false,
          "internalType": "address",
          "name": "contractAddress",
          "type": "address"
        }
      ],
      "name": "ControllerContractAdded",
      "type": "event"
    },
    {
      "anonymous": false,
      "inputs": [
        {
          "indexed": false,
          "internalType": "bytes32",
          "name": "contractName",
          "type": "bytes32"
        },
        {
          "indexed": false,
          "internalType": "uint256",
          "name": "oldReward",
          "type": "uint256"
        },
        {
          "indexed": false,
          "internalType": "uint256",
          "name": "newReward",
          "type": "uint256"
        },
        {
          "indexed": false,
          "internalType": "bool",
          "name": "oldOpenToEveryone",
          "type": "bool"
        },
        {
          "indexed": false,
          "internalType": "bool",
          "name": "newOpenToEveryone",
          "type": "bool"
        }
      ],
      "name": "IncentiveChanged",
      "type": "event"
    },
    {
      "anonymous": false,
      "inputs": [
        {
          "indexed": false,
          "internalType": "bytes32",
          "name": "contractName",
          "type": "bytes32"
        },
        {
          "indexed": false,
          "internalType": "uint256",
          "name": "reward",
          "type": "uint256"
        },
        {
          "indexed": false,
          "internalType": "bool",
          "name": "openToEveryone",
          "type": "bool"
        }
      ],
      "name": "IncentiveCreated",
      "type": "event"
    },
    {
      "anonymous": false,
      "inputs": [
        {
          "indexed": false,
          "internalType": "uint256",
          "name": "amount",
          "type": "uint256"
        }
      ],
      "name": "IncentiveFunded",
      "type": "event"
    },
    {
      "anonymous": false,
      "inputs": [
        {
          "indexed": false,
          "internalType": "bytes32",
          "name": "contractName",
          "type": "bytes32"
        },
        {
          "indexed": false,
          "internalType": "bool",
          "name": "enabled",
          "type": "bool"
        }
      ],
      "name": "IncentiveToggled",
      "type": "event"
    },
    {
      "inputs": [
        {
          "internalType": "bytes32",
          "name": "contractName_",
          "type": "bytes32"
        },
        {
          "internalType": "address",
          "name": "contract_",
          "type": "address"
        }
      ],
      "name": "addControllerContract",
      "outputs": [],
      "stateMutability": "nonpayable",
      "type": "function"
    },
    {
      "inputs": [],
      "name": "burnRate",
      "outputs": [
        {
          "internalType": "uint256",
          "name": "",
          "type": "uint256"
        }
      ],
      "stateMutability": "view",
      "type": "function"
    },
    {
      "inputs": [],
      "name": "contractRegistry",
      "outputs": [
        {
          "internalType": "contract IContractRegistry",
          "name": "",
          "type": "address"
        }
      ],
      "stateMutability": "view",
      "type": "function"
    },
    {
      "inputs": [
        {
          "internalType": "bytes32",
          "name": "",
          "type": "bytes32"
        }
      ],
      "name": "controllerContracts",
      "outputs": [
        {
          "internalType": "address",
          "name": "",
          "type": "address"
        }
      ],
      "stateMutability": "view",
      "type": "function"
    },
    {
      "inputs": [
        {
          "internalType": "bytes32",
          "name": "contractName_",
          "type": "bytes32"
        },
        {
          "internalType": "uint256",
          "name": "_reward",
          "type": "uint256"
        },
        {
          "internalType": "bool",
          "name": "_enabled",
          "type": "bool"
        },
        {
          "internalType": "bool",
          "name": "_openToEveryone",
          "type": "bool"
        }
      ],
      "name": "createIncentive",
      "outputs": [],
      "stateMutability": "nonpayable",
      "type": "function"
    },
    {
      "inputs": [
        {
          "internalType": "uint256",
          "name": "_amount",
          "type": "uint256"
        }
      ],
      "name": "fundIncentive",
      "outputs": [],
      "stateMutability": "nonpayable",
      "type": "function"
    },
    {
      "inputs": [
        {
          "internalType": "bytes32",
          "name": "contractName_",
          "type": "bytes32"
        },
        {
          "internalType": "uint8",
          "name": "i",
          "type": "uint8"
        },
        {
          "internalType": "address",
          "name": "keeper",
          "type": "address"
        }
      ],
      "name": "handleKeeperIncentive",
      "outputs": [],
      "stateMutability": "nonpayable",
      "type": "function"
    },
    {
      "inputs": [],
      "name": "incentiveBudget",
      "outputs": [
        {
          "internalType": "uint256",
          "name": "",
          "type": "uint256"
        }
      ],
      "stateMutability": "view",
      "type": "function"
    },
    {
      "inputs": [
        {
          "internalType": "bytes32",
          "name": "",
          "type": "bytes32"
        },
        {
          "internalType": "uint256",
          "name": "",
          "type": "uint256"
        }
      ],
      "name": "incentives",
      "outputs": [
        {
          "internalType": "uint256",
          "name": "reward",
          "type": "uint256"
        },
        {
          "internalType": "bool",
          "name": "enabled",
          "type": "bool"
        },
        {
          "internalType": "bool",
          "name": "openToEveryone",
          "type": "bool"
        }
      ],
      "stateMutability": "view",
      "type": "function"
    },
    {
      "inputs": [
        {
          "internalType": "bytes32",
          "name": "contractName_",
          "type": "bytes32"
        },
        {
          "internalType": "uint8",
          "name": "i",
          "type": "uint8"
        }
      ],
      "name": "toggleApproval",
      "outputs": [],
      "stateMutability": "nonpayable",
      "type": "function"
    },
    {
      "inputs": [
        {
          "internalType": "bytes32",
          "name": "contractName_",
          "type": "bytes32"
        },
        {
          "internalType": "uint8",
          "name": "i",
          "type": "uint8"
        }
      ],
      "name": "toggleIncentive",
      "outputs": [],
      "stateMutability": "nonpayable",
      "type": "function"
    },
    {
      "inputs": [
        {
          "internalType": "uint256",
          "name": "_burnRate",
          "type": "uint256"
        }
      ],
      "name": "updateBurnRate",
      "outputs": [],
      "stateMutability": "nonpayable",
      "type": "function"
    },
    {
      "inputs": [
        {
          "internalType": "bytes32",
          "name": "contractName_",
          "type": "bytes32"
        },
        {
          "internalType": "uint8",
          "name": "i",
          "type": "uint8"
        },
        {
          "internalType": "uint256",
          "name": "_reward",
          "type": "uint256"
        },
        {
          "internalType": "bool",
          "name": "_enabled",
          "type": "bool"
        },
        {
          "internalType": "bool",
          "name": "_openToEveryone",
          "type": "bool"
        }
      ],
      "name": "updateIncentive",
      "outputs": [],
      "stateMutability": "nonpayable",
      "type": "function"
    }
  ],
  "bytecode": "0x60a06040527b219ab540356cbb839cbe05303d7705fa00000000000000000000000060805234801561003057600080fd5b506040516119bb3803806119bb8339818101604052602081101561005357600080fd5b5051600080546001600160a01b039092166001600160a01b03199092169190911790556703782dace9d9000060045560805160601c61191c61009f6000398061149a525061191c6000f3fe608060405234801561001057600080fd5b50600436106100df5760003560e01c806341267de51161008c578063bcd0dbc911610066578063bcd0dbc914610228578063bed998501461026b578063e96a262d14610273578063f18086a5146102a6576100df565b806341267de5146101d157806355b8efcc146101eb578063abf410e514610220576100df565b80632b788787116100bd5780632b788787146101625780632e3ea85a1461017f5780633d9f4995146101ab576100df565b806319e1f454146100e45780631c5f82eb1461011d5780632b6f6f8d1461013c575b600080fd5b610101600480360360208110156100fa57600080fd5b50356102e2565b604080516001600160a01b039092168252519081900360200190f35b61013a6004803603602081101561013357600080fd5b50356102fd565b005b61013a6004803603604081101561015257600080fd5b508035906020013560ff166103f2565b61013a6004803603602081101561017857600080fd5b503561059e565b61013a6004803603604081101561019557600080fd5b50803590602001356001600160a01b03166106fc565b61013a600480360360408110156101c157600080fd5b508035906020013560ff16610899565b6101d9610a51565b60408051918252519081900360200190f35b61013a6004803603606081101561020157600080fd5b50803590602081013560ff1690604001356001600160a01b0316610a57565b610101610d68565b61024b6004803603604081101561023e57600080fd5b5080359060200135610d77565b604080519384529115156020840152151582820152519081900360600190f35b6101d9610dbc565b61013a6004803603608081101561028957600080fd5b508035906020810135906040810135151590606001351515610dc2565b61013a600480360360a08110156102bc57600080fd5b5080359060ff602082013516906040810135906060810135151590608001351515610f9a565b6003602052600090815260409020546001600160a01b031681565b60005460408051631c2d8fb360e31b81527f69e547947a4514871bf84679401f91758bd0fe92e4c005143f6d0e5213dab0cb600482015290516103ac923392309286926001600160a01b03169163e16c7d98916024808301926020929190829003018186803b15801561036f57600080fd5b505afa158015610383573d6000803e3d6000fd5b505050506040513d602081101561039957600080fd5b50516001600160a01b0316929190611177565b6001546103b990826111ff565b6001556040805182815290517f9ad4c05cff4861564f4d1572799ac5d03d82f40ea702646c7b3bfd552f570cde9181900360200190a150565b60005460408051631c2d8fb360e31b81527f15fa0125f52e5705da1148bfcf00974823c4381bee4314203ede255f9477b73e600482015290516001600160a01b039092169163e16c7d9891602480820192602092909190829003018186803b15801561045d57600080fd5b505afa158015610471573d6000803e3d6000fd5b505050506040513d602081101561048757600080fd5b50516040805163d09a20c560e01b81527fd0a4ad96d49edb1c33461cebc6fb2609190f32c904e3c3f5877edb4488dee91e600482015233602482015290516001600160a01b039092169163d09a20c591604480820192600092909190829003018186803b1580156104f757600080fd5b505afa15801561050b573d6000803e3d6000fd5b505050600083815260026020526040812080549192509060ff841690811061052f57fe5b60009182526020918290206001600290920201908101805460ff19811660ff918216151791829055604080518881529290911615159382019390935282519193507f12da359f5c0e3be0f99345920ec462d30c20b61db9290817368a28851439008b92908290030190a1505050565b60005460408051631c2d8fb360e31b81527f15fa0125f52e5705da1148bfcf00974823c4381bee4314203ede255f9477b73e600482015290516001600160a01b039092169163e16c7d9891602480820192602092909190829003018186803b15801561060957600080fd5b505afa15801561061d573d6000803e3d6000fd5b505050506040513d602081101561063357600080fd5b50516040805163d09a20c560e01b81527fd0a4ad96d49edb1c33461cebc6fb2609190f32c904e3c3f5877edb4488dee91e600482015233602482015290516001600160a01b039092169163d09a20c591604480820192600092909190829003018186803b1580156106a357600080fd5b505afa1580156106b7573d6000803e3d6000fd5b5050600454604080519182526020820185905280517f229952885149023c7b324c7187b4b260b1a8e44dfee2bf619ef6f1296d52706d945091829003019150a1600455565b60005460408051631c2d8fb360e31b81527f15fa0125f52e5705da1148bfcf00974823c4381bee4314203ede255f9477b73e600482015290516001600160a01b039092169163e16c7d9891602480820192602092909190829003018186803b15801561076757600080fd5b505afa15801561077b573d6000803e3d6000fd5b505050506040513d602081101561079157600080fd5b50516040805163d09a20c560e01b81527fd0a4ad96d49edb1c33461cebc6fb2609190f32c904e3c3f5877edb4488dee91e600482015233602482015290516001600160a01b039092169163d09a20c591604480820192600092909190829003018186803b15801561080157600080fd5b505afa158015610815573d6000803e3d6000fd5b50505060008381526003602090815260409182902080547fffffffffffffffffffffffff0000000000000000000000000000000000000000166001600160a01b03861690811790915582518681529182015281517ff6c4dabf3ee4c924bd9069622cd7d390b44d0f38fe8742cf5fdf8f5c5a6be5f893509081900390910190a15050565b60005460408051631c2d8fb360e31b81527f15fa0125f52e5705da1148bfcf00974823c4381bee4314203ede255f9477b73e600482015290516001600160a01b039092169163e16c7d9891602480820192602092909190829003018186803b15801561090457600080fd5b505afa158015610918573d6000803e3d6000fd5b505050506040513d602081101561092e57600080fd5b50516040805163d09a20c560e01b81527fd0a4ad96d49edb1c33461cebc6fb2609190f32c904e3c3f5877edb4488dee91e600482015233602482015290516001600160a01b039092169163d09a20c591604480820192600092909190829003018186803b15801561099e57600080fd5b505afa1580156109b2573d6000803e3d6000fd5b505050600083815260026020526040812080549192509060ff84169081106109d657fe5b60009182526020918290206001600290920201908101805460ff610100808304821615810261ff0019909316929092179283905560408051898152929093041615159381019390935280519193507f8e7eb7be6cb0d1a07f05197e6d857593753decc27b9d7294da4c6ee65c3191f6928290030190a1505050565b60015481565b6000838152600360205260409020546001600160a01b03163314610aac5760405162461bcd60e51b815260040180806020018281038252602e81526020018061188f602e913960400191505060405180910390fd5b610ab4611827565b6000848152600260205260409020805460ff8516908110610ad157fe5b6000918252602091829020604080516060810182526002909302909101805483526001015460ff808216151594840194909452610100900490921615159181018290529150610c3a5760005460408051631c2d8fb360e31b81527f15fa0125f52e5705da1148bfcf00974823c4381bee4314203ede255f9477b73e600482015290516001600160a01b039092169163e16c7d9891602480820192602092909190829003018186803b158015610b8557600080fd5b505afa158015610b99573d6000803e3d6000fd5b505050506040513d6020811015610baf57600080fd5b50516040805163d09a20c560e01b81527f4f78afe9dfc9a0cb0441c27b9405070cd2a48b490636a7bdd09f355e33a5d7de60048201526001600160a01b0385811660248301529151919092169163d09a20c5916044808301926000929190829003018186803b158015610c2157600080fd5b505afa158015610c35573d6000803e3d6000fd5b505050505b80602001518015610c4e5750600154815111155b15610d62578051600154610c6191611262565b6001556004548151600091610c8a91670de0b6b3a764000091610c8491906112bf565b90611318565b8251909150600090610c9c9083611262565b9050610d56848260008054906101000a90046001600160a01b03166001600160a01b031663e16c7d987f69e547947a4514871bf84679401f91758bd0fe92e4c005143f6d0e5213dab0cb6040518263ffffffff1660e01b81526004018082815260200191505060206040518083038186803b158015610d1a57600080fd5b505afa158015610d2e573d6000803e3d6000fd5b505050506040513d6020811015610d4457600080fd5b50516001600160a01b0316919061137f565b610d5f826113eb565b50505b50505050565b6000546001600160a01b031681565b60026020528160005260406000208181548110610d9057fe5b60009182526020909120600290910201805460019091015490925060ff80821692506101009091041683565b60045481565b60005460408051631c2d8fb360e31b81527f15fa0125f52e5705da1148bfcf00974823c4381bee4314203ede255f9477b73e600482015290516001600160a01b039092169163e16c7d9891602480820192602092909190829003018186803b158015610e2d57600080fd5b505afa158015610e41573d6000803e3d6000fd5b505050506040513d6020811015610e5757600080fd5b50516040805163d09a20c560e01b81527fd0a4ad96d49edb1c33461cebc6fb2609190f32c904e3c3f5877edb4488dee91e600482015233602482015290516001600160a01b039092169163d09a20c591604480820192600092909190829003018186803b158015610ec757600080fd5b505afa158015610edb573d6000803e3d6000fd5b50505060008581526002602081815260408084208151606080820184528a8252891515828601908152891515838601818152855460018181018855968b529988902094519990980290930197885551969092018054955115156101000261ff001997151560ff1990971696909617969096169490941790945580518981529182018890528181019290925290517f880fd3397515485fabc2f3d44892d2dabbc45bc79a356562afe1b34f1301a87093509081900390910190a150505050565b60005460408051631c2d8fb360e31b81527f15fa0125f52e5705da1148bfcf00974823c4381bee4314203ede255f9477b73e600482015290516001600160a01b039092169163e16c7d9891602480820192602092909190829003018186803b15801561100557600080fd5b505afa158015611019573d6000803e3d6000fd5b505050506040513d602081101561102f57600080fd5b50516040805163d09a20c560e01b81527fd0a4ad96d49edb1c33461cebc6fb2609190f32c904e3c3f5877edb4488dee91e600482015233602482015290516001600160a01b039092169163d09a20c591604480820192600092909190829003018186803b15801561109f57600080fd5b505afa1580156110b3573d6000803e3d6000fd5b505050600086815260026020526040812080549192509060ff87169081106110d757fe5b6000918252602091829020600290910201805460018201805488845586151561010081810261ff00198b151560ff198616171617909355604080518d81529687018590528681018b905260ff93909204929092168015156060870152608086019290925251929450909290917f248e6a6ffe6039c6908db49d17064442179a7e2854e33d9f55c7eaacdde06b239181900360a00190a15050505050505050565b604080516001600160a01b0380861660248301528416604482015260648082018490528251808303909101815260849091019091526020810180517bffffffffffffffffffffffffffffffffffffffffffffffffffffffff167f23b872dd00000000000000000000000000000000000000000000000000000000179052610d62908590611557565b600082820183811015611259576040805162461bcd60e51b815260206004820152601b60248201527f536166654d6174683a206164646974696f6e206f766572666c6f770000000000604482015290519081900360640190fd5b90505b92915050565b6000828211156112b9576040805162461bcd60e51b815260206004820152601e60248201527f536166654d6174683a207375627472616374696f6e206f766572666c6f770000604482015290519081900360640190fd5b50900390565b6000826112ce5750600061125c565b828202828482816112db57fe5b04146112595760405162461bcd60e51b815260040180806020018281038252602181526020018061186e6021913960400191505060405180910390fd5b600080821161136e576040805162461bcd60e51b815260206004820152601a60248201527f536166654d6174683a206469766973696f6e206279207a65726f000000000000604482015290519081900360640190fd5b81838161137757fe5b049392505050565b604080516001600160a01b038416602482015260448082018490528251808303909101815260649091019091526020810180517bffffffffffffffffffffffffffffffffffffffffffffffffffffffff1663a9059cbb60e01b1790526113e6908490611557565b505050565b60005460408051631c2d8fb360e31b81527f69e547947a4514871bf84679401f91758bd0fe92e4c005143f6d0e5213dab0cb600482015290516001600160a01b039092169163e16c7d9891602480820192602092909190829003018186803b15801561145657600080fd5b505afa15801561146a573d6000803e3d6000fd5b505050506040513d602081101561148057600080fd5b50516040805163a9059cbb60e01b81526001600160a01b037f000000000000000000000000000000000000000000000000000000000000000081166004830152602482018590529151919092169163a9059cbb9160448083019260209291908290030181600087803b1580156114f557600080fd5b505af1158015611509573d6000803e3d6000fd5b505050506040513d602081101561151f57600080fd5b50506040805182815290517fd83c63197e8e676d80ab0122beba9a9d20f3828839e9a1d6fe81d242e9cd7e6e9181900360200190a150565b60606115ac826040518060400160405280602081526020017f5361666545524332303a206c6f772d6c6576656c2063616c6c206661696c6564815250856001600160a01b03166116089092919063ffffffff16565b8051909150156113e6578080602001905160208110156115cb57600080fd5b50516113e65760405162461bcd60e51b815260040180806020018281038252602a8152602001806118bd602a913960400191505060405180910390fd5b60606116178484600085611621565b90505b9392505050565b6060824710156116625760405162461bcd60e51b81526004018080602001828103825260268152602001806118486026913960400191505060405180910390fd5b61166b8561177d565b6116bc576040805162461bcd60e51b815260206004820152601d60248201527f416464726573733a2063616c6c20746f206e6f6e2d636f6e7472616374000000604482015290519081900360640190fd5b60006060866001600160a01b031685876040518082805190602001908083835b602083106116fb5780518252601f1990920191602091820191016116dc565b6001836020036101000a03801982511681845116808217855250505050505090500191505060006040518083038185875af1925050503d806000811461175d576040519150601f19603f3d011682016040523d82523d6000602084013e611762565b606091505b5091509150611772828286611783565b979650505050505050565b3b151590565b6060831561179257508161161a565b8251156117a25782518084602001fd5b8160405162461bcd60e51b81526004018080602001828103825283818151815260200191508051906020019080838360005b838110156117ec5781810151838201526020016117d4565b50505050905090810190601f1680156118195780820380516001836020036101000a031916815260200191505b509250505060405180910390fd5b60408051606081018252600080825260208201819052918101919091529056fe416464726573733a20696e73756666696369656e742062616c616e636520666f722063616c6c536166654d6174683a206d756c7469706c69636174696f6e206f766572666c6f7743616e206f6e6c792062652063616c6c65642062792074686520636f6e74726f6c6c696e6720636f6e74726163745361666545524332303a204552433230206f7065726174696f6e20646964206e6f742073756363656564a264697066735822122041ffa4f08fec429ad3bc4d95a0c2a363373eefc8d526a5c7707f985f393d141b64736f6c63430007030033",
  "linkReferences": {},
  "deployedLinkReferences": {}
}