{
  "_format": "hh-sol-artifact-1",
  "contractName": "GrantElections",
  "sourceName": "contracts/core/dao/GrantElections.sol",
  "abi": [
    {
      "inputs": [
        {
          "internalType": "contract IContractRegistry",
          "name": "_contractRegistry",
          "type": "address"
        }
      ],
      "stateMutability": "nonpayable",
      "type": "constructor"
    },
    {
      "anonymous": false,
      "inputs": [
        {
          "indexed": false,
          "internalType": "address",
          "name": "_beneficiary",
          "type": "address"
        },
        {
          "indexed": false,
          "internalType": "uint256",
          "name": "_electionId",
          "type": "uint256"
        }
      ],
      "name": "BeneficiaryRegistered",
      "type": "event"
    },
    {
      "anonymous": false,
      "inputs": [
        {
          "indexed": false,
          "internalType": "uint256",
          "name": "_electionId",
          "type": "uint256"
        },
        {
          "indexed": false,
          "internalType": "bytes32",
          "name": "_merkleRoot",
          "type": "bytes32"
        }
      ],
      "name": "ElectionFinalized",
      "type": "event"
    },
    {
      "anonymous": false,
      "inputs": [
        {
          "indexed": false,
          "internalType": "enum GrantElections.ElectionTerm",
          "name": "_term",
          "type": "uint8"
        },
        {
          "indexed": false,
          "internalType": "bytes32",
          "name": "_region",
          "type": "bytes32"
        },
        {
          "indexed": false,
          "internalType": "uint256",
          "name": "_startTime",
          "type": "uint256"
        }
      ],
      "name": "ElectionInitialized",
      "type": "event"
    },
    {
      "anonymous": false,
      "inputs": [
        {
          "indexed": false,
          "internalType": "uint256",
          "name": "_electionId",
          "type": "uint256"
        },
        {
          "indexed": false,
          "internalType": "bytes32",
          "name": "_merkleRoot",
          "type": "bytes32"
        }
      ],
      "name": "FinalizationProposed",
      "type": "event"
    },
    {
      "anonymous": false,
      "inputs": [
        {
          "indexed": false,
          "internalType": "address",
          "name": "_user",
          "type": "address"
        },
        {
          "indexed": false,
          "internalType": "enum GrantElections.ElectionTerm",
          "name": "_term",
          "type": "uint8"
        }
      ],
      "name": "UserVoted",
      "type": "event"
    },
    {
      "inputs": [
        {
          "internalType": "address",
          "name": "_beneficiary",
          "type": "address"
        },
        {
          "internalType": "uint256",
          "name": "_electionId",
          "type": "uint256"
        }
      ],
      "name": "_isEligibleBeneficiary",
      "outputs": [
        {
          "internalType": "bool",
          "name": "",
          "type": "bool"
        }
      ],
      "stateMutability": "view",
      "type": "function"
    },
    {
      "inputs": [
        {
          "internalType": "bytes32",
          "name": "",
          "type": "bytes32"
        },
        {
          "internalType": "uint256",
          "name": "",
          "type": "uint256"
        }
      ],
      "name": "activeElections",
      "outputs": [
        {
          "internalType": "uint256",
          "name": "",
          "type": "uint256"
        }
      ],
      "stateMutability": "view",
      "type": "function"
    },
    {
      "inputs": [
        {
          "internalType": "uint256",
          "name": "_electionId",
          "type": "uint256"
        },
        {
          "internalType": "bytes32",
          "name": "_merkleRoot",
          "type": "bytes32"
        }
      ],
      "name": "approveFinalization",
      "outputs": [],
      "stateMutability": "nonpayable",
      "type": "function"
    },
    {
      "inputs": [],
      "name": "contractName",
      "outputs": [
        {
          "internalType": "bytes32",
          "name": "",
          "type": "bytes32"
        }
      ],
      "stateMutability": "view",
      "type": "function"
    },
    {
      "inputs": [
        {
          "internalType": "uint256",
          "name": "",
          "type": "uint256"
        }
      ],
      "name": "electionDefaults",
      "outputs": [
        {
          "internalType": "uint8",
          "name": "ranking",
          "type": "uint8"
        },
        {
          "internalType": "uint8",
          "name": "awardees",
          "type": "uint8"
        },
        {
          "internalType": "bool",
          "name": "useChainLinkVRF",
          "type": "bool"
        },
        {
          "internalType": "uint256",
          "name": "registrationPeriod",
          "type": "uint256"
        },
        {
          "internalType": "uint256",
          "name": "votingPeriod",
          "type": "uint256"
        },
        {
          "internalType": "uint256",
          "name": "cooldownPeriod",
          "type": "uint256"
        },
        {
          "components": [
            {
              "internalType": "bool",
              "name": "required",
              "type": "bool"
            },
            {
              "internalType": "uint256",
              "name": "amount",
              "type": "uint256"
            }
          ],
          "internalType": "struct GrantElections.BondRequirements",
          "name": "bondRequirements",
          "type": "tuple"
        },
        {
          "internalType": "uint256",
          "name": "finalizationIncentive",
          "type": "uint256"
        },
        {
          "internalType": "bool",
          "name": "enabled",
          "type": "bool"
        },
        {
          "internalType": "enum GrantElections.ShareType",
          "name": "shareType",
          "type": "uint8"
        }
      ],
      "stateMutability": "view",
      "type": "function"
    },
    {
      "inputs": [
        {
          "internalType": "uint256",
          "name": "_electionId",
          "type": "uint256"
        }
      ],
      "name": "electionEnabled",
      "outputs": [
        {
          "internalType": "bool",
          "name": "",
          "type": "bool"
        }
      ],
      "stateMutability": "view",
      "type": "function"
    },
    {
      "inputs": [
        {
          "internalType": "uint256",
          "name": "",
          "type": "uint256"
        }
      ],
      "name": "elections",
      "outputs": [
        {
          "internalType": "enum GrantElections.ElectionTerm",
          "name": "electionTerm",
          "type": "uint8"
        },
        {
          "internalType": "enum GrantElections.ElectionState",
          "name": "electionState",
          "type": "uint8"
        },
        {
          "components": [
            {
              "internalType": "uint8",
              "name": "ranking",
              "type": "uint8"
            },
            {
              "internalType": "uint8",
              "name": "awardees",
              "type": "uint8"
            },
            {
              "internalType": "bool",
              "name": "useChainLinkVRF",
              "type": "bool"
            },
            {
              "internalType": "uint256",
              "name": "registrationPeriod",
              "type": "uint256"
            },
            {
              "internalType": "uint256",
              "name": "votingPeriod",
              "type": "uint256"
            },
            {
              "internalType": "uint256",
              "name": "cooldownPeriod",
              "type": "uint256"
            },
            {
              "components": [
                {
                  "internalType": "bool",
                  "name": "required",
                  "type": "bool"
                },
                {
                  "internalType": "uint256",
                  "name": "amount",
                  "type": "uint256"
                }
              ],
              "internalType": "struct GrantElections.BondRequirements",
              "name": "bondRequirements",
              "type": "tuple"
            },
            {
              "internalType": "uint256",
              "name": "finalizationIncentive",
              "type": "uint256"
            },
            {
              "internalType": "bool",
              "name": "enabled",
              "type": "bool"
            },
            {
              "internalType": "enum GrantElections.ShareType",
              "name": "shareType",
              "type": "uint8"
            }
          ],
          "internalType": "struct GrantElections.ElectionConfiguration",
          "name": "electionConfiguration",
          "type": "tuple"
        },
        {
          "internalType": "uint256",
          "name": "startTime",
          "type": "uint256"
        },
        {
          "internalType": "uint256",
          "name": "randomNumber",
          "type": "uint256"
        },
        {
          "internalType": "bytes32",
          "name": "merkleRoot",
          "type": "bytes32"
        },
        {
          "internalType": "bytes32",
          "name": "vaultId",
          "type": "bytes32"
        },
        {
          "internalType": "bytes32",
          "name": "region",
          "type": "bytes32"
        }
      ],
      "stateMutability": "view",
      "type": "function"
    },
    {
      "inputs": [
        {
          "internalType": "uint256",
          "name": "_amount",
          "type": "uint256"
        }
      ],
      "name": "fundKeeperIncentive",
      "outputs": [],
      "stateMutability": "nonpayable",
      "type": "function"
    },
    {
      "inputs": [
        {
          "internalType": "uint256",
          "name": "_electionId",
          "type": "uint256"
        }
      ],
      "name": "getElectionMerkleRoot",
      "outputs": [
        {
          "internalType": "bytes32",
          "name": "merkleRoot",
          "type": "bytes32"
        }
      ],
      "stateMutability": "view",
      "type": "function"
    },
    {
      "inputs": [
        {
          "internalType": "uint256",
          "name": "_electionId",
          "type": "uint256"
        }
      ],
      "name": "getElectionMetadata",
      "outputs": [
        {
          "components": [
            {
              "internalType": "address",
              "name": "voter",
              "type": "address"
            },
            {
              "internalType": "address",
              "name": "beneficiary",
              "type": "address"
            },
            {
              "internalType": "uint256",
              "name": "weight",
              "type": "uint256"
            }
          ],
          "internalType": "struct GrantElections.Vote[]",
          "name": "votes_",
          "type": "tuple[]"
        },
        {
          "internalType": "enum GrantElections.ElectionTerm",
          "name": "term_",
          "type": "uint8"
        },
        {
          "internalType": "address[]",
          "name": "registeredBeneficiaries_",
          "type": "address[]"
        },
        {
          "internalType": "enum GrantElections.ElectionState",
          "name": "state_",
          "type": "uint8"
        },
        {
          "internalType": "uint8[2]",
          "name": "awardeesRanking_",
          "type": "uint8[2]"
        },
        {
          "internalType": "bool",
          "name": "useChainLinkVRF_",
          "type": "bool"
        },
        {
          "internalType": "uint256[3]",
          "name": "periods_",
          "type": "uint256[3]"
        },
        {
          "internalType": "uint256",
          "name": "startTime_",
          "type": "uint256"
        },
        {
          "components": [
            {
              "internalType": "bool",
              "name": "required",
              "type": "bool"
            },
            {
              "internalType": "uint256",
              "name": "amount",
              "type": "uint256"
            }
          ],
          "internalType": "struct GrantElections.BondRequirements",
          "name": "bondRequirements_",
          "type": "tuple"
        },
        {
          "internalType": "enum GrantElections.ShareType",
          "name": "shareType_",
          "type": "uint8"
        },
        {
          "internalType": "uint256",
          "name": "randomNumber_",
          "type": "uint256"
        }
      ],
      "stateMutability": "view",
      "type": "function"
    },
    {
      "inputs": [
        {
          "internalType": "uint256",
          "name": "_electionId",
          "type": "uint256"
        }
      ],
      "name": "getRandomNumber",
      "outputs": [],
      "stateMutability": "nonpayable",
      "type": "function"
    },
    {
      "inputs": [
        {
          "internalType": "uint256",
          "name": "_electionId",
          "type": "uint256"
        }
      ],
      "name": "getRegisteredBeneficiaries",
      "outputs": [
        {
          "internalType": "address[]",
          "name": "beneficiaries",
          "type": "address[]"
        }
      ],
      "stateMutability": "view",
      "type": "function"
    },
    {
      "inputs": [],
      "name": "incentiveBudget",
      "outputs": [
        {
          "internalType": "uint256",
          "name": "",
          "type": "uint256"
        }
      ],
      "stateMutability": "view",
      "type": "function"
    },
    {
      "inputs": [
        {
          "internalType": "enum GrantElections.ElectionTerm",
          "name": "_grantTerm",
          "type": "uint8"
        },
        {
          "internalType": "bytes32",
          "name": "_region",
          "type": "bytes32"
        }
      ],
      "name": "initialize",
      "outputs": [],
      "stateMutability": "nonpayable",
      "type": "function"
    },
    {
      "inputs": [
        {
          "internalType": "uint256",
          "name": "_electionId",
          "type": "uint256"
        },
        {
          "internalType": "bytes32",
          "name": "_merkleRoot",
          "type": "bytes32"
        }
      ],
      "name": "proposeFinalization",
      "outputs": [],
      "stateMutability": "nonpayable",
      "type": "function"
    },
    {
      "inputs": [
        {
          "internalType": "uint256",
          "name": "_electionId",
          "type": "uint256"
        }
      ],
      "name": "refreshElectionState",
      "outputs": [],
      "stateMutability": "nonpayable",
      "type": "function"
    },
    {
      "inputs": [
        {
          "internalType": "address",
          "name": "_beneficiary",
          "type": "address"
        },
        {
          "internalType": "uint256",
          "name": "_electionId",
          "type": "uint256"
        }
      ],
      "name": "registerForElection",
      "outputs": [],
      "stateMutability": "nonpayable",
      "type": "function"
    },
    {
      "inputs": [
        {
          "internalType": "enum GrantElections.ElectionTerm",
          "name": "_term",
          "type": "uint8"
        },
        {
          "internalType": "uint8",
          "name": "_ranking",
          "type": "uint8"
        },
        {
          "internalType": "uint8",
          "name": "_awardees",
          "type": "uint8"
        },
        {
          "internalType": "bool",
          "name": "_useChainLinkVRF",
          "type": "bool"
        },
        {
          "internalType": "uint256",
          "name": "_registrationPeriod",
          "type": "uint256"
        },
        {
          "internalType": "uint256",
          "name": "_votingPeriod",
          "type": "uint256"
        },
        {
          "internalType": "uint256",
          "name": "_cooldownPeriod",
          "type": "uint256"
        },
        {
          "internalType": "uint256",
          "name": "_bondAmount",
          "type": "uint256"
        },
        {
          "internalType": "bool",
          "name": "_bondRequired",
          "type": "bool"
        },
        {
          "internalType": "uint256",
          "name": "_finalizationIncentive",
          "type": "uint256"
        },
        {
          "internalType": "bool",
          "name": "_enabled",
          "type": "bool"
        },
        {
          "internalType": "enum GrantElections.ShareType",
          "name": "_shareType",
          "type": "uint8"
        }
      ],
      "name": "setConfiguration",
      "outputs": [],
      "stateMutability": "nonpayable",
      "type": "function"
    },
    {
      "inputs": [
        {
          "internalType": "enum GrantElections.ElectionTerm",
          "name": "_term",
          "type": "uint8"
        }
      ],
      "name": "toggleRegistrationBondRequirement",
      "outputs": [],
      "stateMutability": "nonpayable",
      "type": "function"
    },
    {
      "inputs": [
        {
          "internalType": "address[]",
          "name": "_beneficiaries",
          "type": "address[]"
        },
        {
          "internalType": "uint256[]",
          "name": "_voiceCredits",
          "type": "uint256[]"
        },
        {
          "internalType": "uint256",
          "name": "_electionId",
          "type": "uint256"
        }
      ],
      "name": "vote",
      "outputs": [],
      "stateMutability": "nonpayable",
      "type": "function"
    }
  ],
  "bytecode": "0x60a06040526d4772616e74456c656374696f6e7360901b6080523480156200002657600080fd5b50604051620042b2380380620042b283398101604081905262000049916200018e565b600080546001600160a01b0319166001600160a01b0383161790556200006e62000075565b50620001be565b600380546201000061010061ff00199283161760ff19908116841762ff0000199081168317909455600780548216600190811782556802b5e3af16b188000060085562093a806005818155600491909155621baf80600655686c6b935b8bbd4000006009819055600a80548616841788169055600b8054881661020017861690921788168617909155600f805485168317905568056bc75e2d6310000060105562127500600d819055600c55626d6c80600e556011819055601280548516831787169055601380548716610300178516909317909616909317905560178054821683179055683635c9adc5dea0000060185562278d0060158190556014556301d7f900601655601993909355601a805490931617169055565b600060208284031215620001a0578081fd5b81516001600160a01b0381168114620001b7578182fd5b9392505050565b6080516140ca620001e860003980610970528061115f528061159752806120df52506140ca6000f3fe608060405234801561001057600080fd5b506004361061016c5760003560e01c806398aab812116100cd578063ceacf60f11610081578063ebb8dbbd11610066578063ebb8dbbd146102e4578063ee075a62146102f7578063faf2ef63146103215761016c565b8063ceacf60f146102be578063d61f0fc0146102d15761016c565b8063b1af93eb116100b2578063b1af93eb14610285578063b37217a414610298578063c96d6968146102ab5761016c565b806398aab8121461025257806399ac5f91146102725761016c565b80635e6fef011161012457806375c52d241161010957806375c52d241461022457806375d0c0dc1461023757806380d1876e1461023f5761016c565b80635e6fef01146101ea57806369d80dce146102115761016c565b80632911679d116101555780632911679d146101af5780632be26a3c146101c257806341267de5146101e25761016c565b806302a09585146101715780632222e16414610186575b600080fd5b61018461017f3660046131c7565b61034a565b005b6101996101943660046132a7565b610ad8565b6040516101a6919061356d565b60405180910390f35b6101846101bd3660046131ad565b610b06565b6101d56101d03660046132a7565b610c89565b6040516101a69190613578565b6101d5610cb1565b6101fd6101f83660046132a7565b610cb7565b6040516101a69897969594939291906135ff565b61018461021f3660046131e2565b610dc1565b6101846102323660046132a7565b610ff6565b6101d561115d565b61018461024d36600461318c565b611181565b6102656102603660046132a7565b61165b565b6040516101a69190613462565b61019961028036600461304c565b6116db565b6101d561029336600461318c565b61183f565b6101846102a63660046132a7565b611861565b6101846102b93660046132a7565b611a55565b6101846102cc366004613077565b611c5d565b6101846102df36600461304c565b6121a0565b6101846102f236600461318c565b61240e565b61030a6103053660046132a7565b612809565b6040516101a69b9a99989796959493929190613475565b61033461032f3660046132a7565b612a5c565b6040516101a69a99989796959493929190613f94565b60008054604051631c2d8fb360e31b81526001600160a01b039091169063e16c7d989061039b907f169c5aa5b339507e0d95e149f6ebeaf527bb9067f2601a2d762aec9d5850b8b190600401613578565b60206040518083038186803b1580156103b357600080fd5b505afa1580156103c7573d6000803e3d6000fd5b505050506040513d601f19601f820116820180604052508101906103eb9190613030565b6040517fbe856eda0000000000000000000000000000000000000000000000000000000081529091506001600160a01b0382169063be856eda90610433908590600401613578565b60206040518083038186803b15801561044b57600080fd5b505afa15801561045f573d6000803e3d6000fd5b505050506040513d601f19601f820116820180604052508101906104839190613143565b6104a85760405162461bcd60e51b815260040161049f90613c10565b60405180910390fd5b60008360028111156104b657fe5b6001549091501561059b57600083815260026020526040812060019060ff8416600381106104e057fe5b0154815481106104ec57fe5b9060005260206000209060120201905084600281111561050857fe5b600482015460ff16600281111561051b57fe5b14801561052b5750600d81015415155b156105995760048082810154610100900460ff169081111561054957fe5b146105665760405162461bcd60e51b815260040161049f906137e2565b6008810154600d82015461057b904290612ad0565b10156105995760405162461bcd60e51b815260040161049f90613978565b505b6040517f5c2cc7ae0000000000000000000000000000000000000000000000000000000081526000906001600160a01b03841690635c2cc7ae906105e3908790600401613578565b60206040518083038186803b1580156105fb57600080fd5b505afa15801561060f573d6000803e3d6000fd5b505050506040513d601f19601f820116820180604052508101906106339190613030565b6040517f1ff870680000000000000000000000000000000000000000000000000000000081529091506001600160a01b03821690631ff870689061067b908590600401613f73565b60206040518083038186803b15801561069357600080fd5b505afa1580156106a7573d6000803e3d6000fd5b505050506040513d601f19601f820116820180604052508101906106cb9190613143565b15610748576040517fdd5c7e4d0000000000000000000000000000000000000000000000000000000081526001600160a01b0382169063dd5c7e4d90610715908590600401613f73565b600060405180830381600087803b15801561072f57600080fd5b505af1158015610743573d6000803e3d6000fd5b505050505b6001546000858152600260205260409020819060ff85166003811061076957fe5b0155600180548101808255600082815291908390811061078557fe5b9060005260206000209060120201905060038460ff16600381106107a557fe5b60089081029190910180546005808501805460ff1990811660ff948516178083558554610100908190048616810261ff00199283161780855587546201000090819004881615150262ff0000199091161784556001808801546006808c019190915560028901546007808d019190915560038a01549a8c019a909a55600489015460098c018054918a16151591871691909117905595880154600a8b015594870154600b8a01559686018054600c8a0180549188161515919094161780845590549697939684900490951694919391169190849081111561088257fe5b0217905550505060048101805461ff00198116825588919061ffff191660018360028111156108ad57fe5b021790555042600d8201556011810186905560008054604051631c2d8fb360e31b815282916001600160a01b03169063e16c7d9890610910907f9bdd3bade36b8fa56237528cbb4c98556891be00a9524cd32bef9dfd5c2a5b4b90600401613578565b60206040518083038186803b15801561092857600080fd5b505afa15801561093c573d6000803e3d6000fd5b505050506040513d601f19601f820116820180604052508101906109609190613030565b6001600160a01b03166366308e137f000000000000000000000000000000000000000000000000000000000000000088426040516020016109a29291906133bf565b60405160208183030381529060405280519060200120610a0360038b60ff16600381106109cb57fe5b60080201600201546109fd60038d60ff16600381106109e657fe5b600802016001015442612af890919063ffffffff16565b90612af8565b6040518463ffffffff1660e01b8152600401610a21939291906135ca565b6040805180830381600087803b158015610a3a57600080fd5b505af1158015610a4e573d6000803e3d6000fd5b505050506040513d601f19601f82011682018060405250810190610a72919061315f565b915091508115610a8457601083018190555b6004830154600d8401546040517f91da4b146c466c9a14928592e7e6751ecbc5a732f68d0067118ba2a95bdc4af292610ac59260ff909116918c91906135e0565b60405180910390a1505050505050505050565b600060018281548110610ae757fe5b60009182526020909120600c601290920201015460ff1690505b919050565b600054604051631c2d8fb360e31b81526001600160a01b039091169063e16c7d9890610b56907f15fa0125f52e5705da1148bfcf00974823c4381bee4314203ede255f9477b73e90600401613578565b60206040518083038186803b158015610b6e57600080fd5b505afa158015610b82573d6000803e3d6000fd5b505050506040513d601f19601f82011682018060405250810190610ba69190613030565b6001600160a01b031663d09a20c57fd0a4ad96d49edb1c33461cebc6fb2609190f32c904e3c3f5877edb4488dee91e336040518363ffffffff1660e01b8152600401610bf3929190613581565b60006040518083038186803b158015610c0b57600080fd5b505afa158015610c1f573d6000803e3d6000fd5b505050506003816002811115610c3157fe5b60ff1660038110610c3e57fe5b600802016004015460ff16156003826002811115610c5857fe5b60ff1660038110610c6557fe5b6008020160040160000160006101000a81548160ff02191690831515021790555050565b600060018281548110610c9857fe5b9060005260206000209060120201600f01549050919050565b601b5481565b60018181548110610cc457fe5b6000918252602091829020600460129092020190810154604080516101408101825260058401805460ff81811684526101008083048216858a01526201000090920481161515848601526006870154606085015260078701546080850152600887015460a085015284518086019095526009870154811615158552600a8701549785019790975260c0830193909352600b85015460e0830152600c850154808716151583850152868516975093839004861695919390926101208501929104166001811115610d8f57fe5b6001811115610d9a57fe5b815250509080600d01549080600e01549080600f0154908060100154908060110154905088565b600054604051631c2d8fb360e31b81526001600160a01b039091169063e16c7d9890610e11907f15fa0125f52e5705da1148bfcf00974823c4381bee4314203ede255f9477b73e90600401613578565b60206040518083038186803b158015610e2957600080fd5b505afa158015610e3d573d6000803e3d6000fd5b505050506040513d601f19601f82011682018060405250810190610e619190613030565b6001600160a01b031663d09a20c57fd0a4ad96d49edb1c33461cebc6fb2609190f32c904e3c3f5877edb4488dee91e336040518363ffffffff1660e01b8152600401610eae929190613581565b60006040518083038186803b158015610ec657600080fd5b505afa158015610eda573d6000803e3d6000fd5b50505050600060038d6002811115610eee57fe5b60ff1660038110610efb57fe5b6008020190508b8160000160006101000a81548160ff021916908360ff1602179055508a8160000160016101000a81548160ff021916908360ff160217905550898160000160026101000a81548160ff021916908315150217905550888160010181905550878160020181905550868160030181905550858160040160010181905550848160040160000160006101000a81548160ff021916908315150217905550838160060181905550828160070160006101000a81548160ff021916908315150217905550818160070160016101000a81548160ff02191690836001811115610fe257fe5b021790555050505050505050505050505050565b60008054604051631c2d8fb360e31b81526001600160a01b039091169063e16c7d9890611047907f69e547947a4514871bf84679401f91758bd0fe92e4c005143f6d0e5213dab0cb90600401613578565b60206040518083038186803b15801561105f57600080fd5b505afa158015611073573d6000803e3d6000fd5b505050506040513d601f19601f820116820180604052508101906110979190613030565b905081816001600160a01b03166370a08231336040518263ffffffff1660e01b81526004016110c691906133f4565b60206040518083038186803b1580156110de57600080fd5b505afa1580156110f2573d6000803e3d6000fd5b505050506040513d601f19601f8201168201806040525081019061111691906132bf565b10156111345760405162461bcd60e51b815260040161049f906139fb565b6111496001600160a01b038216333085612b1d565b601b546111569083612af8565b601b555050565b7f000000000000000000000000000000000000000000000000000000000000000081565b600054604051631c2d8fb360e31b81526001600160a01b039091169063e16c7d98906111d1907f15fa0125f52e5705da1148bfcf00974823c4381bee4314203ede255f9477b73e90600401613578565b60206040518083038186803b1580156111e957600080fd5b505afa1580156111fd573d6000803e3d6000fd5b505050506040513d601f19601f820116820180604052508101906112219190613030565b6001600160a01b031663d09a20c57f59111b0fdefbd71dc97dea4e42c296f9b5202aef85e65a6432713cfa954a391c336040518363ffffffff1660e01b815260040161126e929190613581565b60006040518083038186803b15801561128657600080fd5b505afa15801561129a573d6000803e3d6000fd5b505050506000600183815481106112ad57fe5b60009182526020909120601290910201905060048082810154610100900460ff16908111156112d857fe5b14156112f65760405162461bcd60e51b815260040161049f90613afd565b6003600482810154610100900460ff169081111561131057fe5b1461132d5760405162461bcd60e51b815260040161049f90613b34565b8181600f0154146113505760405162461bcd60e51b815260040161049f90613a32565b60008054604051631c2d8fb360e31b81526001600160a01b039091169063e16c7d98906113a1907f169c5aa5b339507e0d95e149f6ebeaf527bb9067f2601a2d762aec9d5850b8b190600401613578565b60206040518083038186803b1580156113b957600080fd5b505afa1580156113cd573d6000803e3d6000fd5b505050506040513d601f19601f820116820180604052508101906113f19190613030565b6001600160a01b0316635c2cc7ae83601101546040518263ffffffff1660e01b81526004016114209190613578565b60206040518083038186803b15801561143857600080fd5b505afa15801561144c573d6000803e3d6000fd5b505050506040513d601f19601f820116820180604052508101906114709190613030565b60048301549091506001600160a01b038216906330ca9d599060ff16600281111561149757fe5b856040518363ffffffff1660e01b81526004016114b5929190613f81565b600060405180830381600087803b1580156114cf57600080fd5b505af11580156114e3573d6000803e3d6000fd5b5050600054604051631c2d8fb360e31b81526001600160a01b03909116925063e16c7d989150611537907f9bdd3bade36b8fa56237528cbb4c98556891be00a9524cd32bef9dfd5c2a5b4b90600401613578565b60206040518083038186803b15801561154f57600080fd5b505afa158015611563573d6000803e3d6000fd5b505050506040513d601f19601f820116820180604052508101906115879190613030565b6001600160a01b031663efff46dd7f000000000000000000000000000000000000000000000000000000000000000084601001546040518363ffffffff1660e01b81526004016115d8929190613598565b600060405180830381600087803b1580156115f257600080fd5b505af1158015611606573d6000803e3d6000fd5b5050505060048201805461ff0019166104001790556040517faae7be5557b6925a30dd5a81debf9c5cf4dc4d724818c52ba410eaef5a5870fb9061164d9086908690613598565b60405180910390a150505050565b60606001828154811061166a57fe5b90600052602060002090601202016003018054806020026020016040519081016040528092919081815260200182805480156116cf57602002820191906000526020600020905b81546001600160a01b031681526001909101906020018083116116b1575b50505050509050919050565b6000600182815481106116ea57fe5b600091825260208083206001600160a01b03871684526001601290930201919091019052604090205460ff1680156118385750600054604051631c2d8fb360e31b81526001600160a01b039091169063e16c7d989061176d907fc06005761aecdce9d8037400137cccfbffed4be85bf152e41fc11b29e23182e790600401613578565b60206040518083038186803b15801561178557600080fd5b505afa158015611799573d6000803e3d6000fd5b505050506040513d601f19601f820116820180604052508101906117bd9190613030565b6001600160a01b03166375e71d6d846040518263ffffffff1660e01b81526004016117e891906133f4565b60206040518083038186803b15801561180057600080fd5b505afa158015611814573d6000803e3d6000fd5b505050506040513d601f19601f820116820180604052508101906118389190613143565b9392505050565b6002602052816000526040600020816003811061185857fe5b01549150829050565b60006001828154811061187057fe5b906000526020600020906012020190508060050160000160029054906101000a900460ff16151560011515146118b85760405162461bcd60e51b815260040161049f9061374e565b6002600482810154610100900460ff16908111156118d257fe5b146118ef5760405162461bcd60e51b815260040161049f90613d12565b600e810154156119115760405162461bcd60e51b815260040161049f90613e4b565b60008054604051631c2d8fb360e31b81526001600160a01b039091169063e16c7d9890611962907f730405404390f1a78548e2509ce78cdc1f740848c79bf77260561e0bd394992e90600401613578565b60206040518083038186803b15801561197a57600080fd5b505afa15801561198e573d6000803e3d6000fd5b505050506040513d601f19601f820116820180604052508101906119b29190613030565b6001600160a01b031663aea2035f846040518263ffffffff1660e01b81526004016119dd9190613578565b60206040518083038186803b1580156119f557600080fd5b505afa158015611a09573d6000803e3d6000fd5b505050506040513d601f19601f82011682018060405250810190611a2d91906132bf565b905080611a4c5760405162461bcd60e51b815260040161049f90613717565b600e9091015550565b600060018281548110611a6457fe5b90600052602060002090601202019050611a9d81600501600201546109fd836005016001015484600d0154612af890919063ffffffff16565b4210611c115760048101805461ff001916610200179055600581015462010000900460ff1615611c0c57600054604051631c2d8fb360e31b81526001600160a01b039091169063e16c7d9890611b17907f730405404390f1a78548e2509ce78cdc1f740848c79bf77260561e0bd394992e90600401613578565b60206040518083038186803b158015611b2f57600080fd5b505afa158015611b43573d6000803e3d6000fd5b505050506040513d601f19601f82011682018060405250810190611b679190613030565b6001600160a01b0316636e68fc0a83424340604051602001611b8a929190613598565b60408051601f198184030181529082905280516020909101207fffffffff0000000000000000000000000000000000000000000000000000000060e085901b168252611bd99291600401613598565b600060405180830381600087803b158015611bf357600080fd5b505af1158015611c07573d6000803e3d6000fd5b505050505b611c59565b6006810154600d820154611c2491612af8565b4210611c405760048101805461ff001916610100179055611c59565b80600d01544210611c595760048101805461ff00191690555b5050565b600060018281548110611c6c57fe5b90600052602060002090601202019050600584511115611c9e5760405162461bcd60e51b815260040161049f90613ba2565b600583511115611cc05760405162461bcd60e51b815260040161049f90613941565b6000835111611ce15760405162461bcd60e51b815260040161049f90613b6b565b6000845111611d025760405162461bcd60e51b815260040161049f90613db7565b611d0b82611a55565b6001600482810154610100900460ff1690811115611d2557fe5b14611d425760405162461bcd60e51b815260040161049f906137ab565b33600090815260028201602052604090205460ff1615611d745760405162461bcd60e51b815260040161049f90613850565b60008054604051631c2d8fb360e31b815282916001600160a01b03169063e16c7d9890611dc5907f1df41cd916959d1163dc8f0671a666ea8a3e434c13e40faef527133b5d16703490600401613578565b60206040518083038186803b158015611ddd57600080fd5b505afa158015611df1573d6000803e3d6000fd5b505050506040513d601f19601f82011682018060405250810190611e159190613030565b6001600160a01b031663034f98e5336040518263ffffffff1660e01b8152600401611e4091906133f4565b60206040518083038186803b158015611e5857600080fd5b505afa158015611e6c573d6000803e3d6000fd5b505050506040513d601f19601f82011682018060405250810190611e9091906132bf565b905060008111611eb25760405162461bcd60e51b815260040161049f90613e82565b60005b865181101561200457611edb878281518110611ecd57fe5b6020026020010151866116db565b611ef75760405162461bcd60e51b815260040161049f90613bd9565b611f1d868281518110611f0657fe5b602002602001015184612af890919063ffffffff16565b92506000611f3d878381518110611f3057fe5b6020026020010151612ba8565b9050611f47612f2f565b6040518060600160405280336001600160a01b031681526020018a8581518110611f6d57fe5b6020908102919091018101516001600160a01b03908116835291810194909452875460018181018a5560008a81528681208551600390940201805493851673ffffffffffffffffffffffffffffffffffffffff199485161781558588015181840180549190961694169390931790935560409384015160029283015533835290890190945220805460ff1916831790555001611eb5565b50808211156120255760405162461bcd60e51b815260040161049f90613f3c565b60108301541561215757600054604051631c2d8fb360e31b81526001600160a01b039091169063e16c7d989061207f907f9bdd3bade36b8fa56237528cbb4c98556891be00a9524cd32bef9dfd5c2a5b4b90600401613578565b60206040518083038186803b15801561209757600080fd5b505afa1580156120ab573d6000803e3d6000fd5b505050506040513d601f19601f820116820180604052508101906120cf9190613030565b6001600160a01b031663db4dc5f07f0000000000000000000000000000000000000000000000000000000000000000856010015433866040518563ffffffff1660e01b815260040161212494939291906135a6565b600060405180830381600087803b15801561213e57600080fd5b505af1158015612152573d6000803e3d6000fd5b505050505b60048301546040517fb43d7bd4f48dae3cf3852206130adcff9ea51699276e60589ebec297e4e883609161219091339160ff1690613408565b60405180910390a1505050505050565b6000600182815481106121af57fe5b906000526020600020906012020190506121c882611a55565b6000600482810154610100900460ff16908111156121e257fe5b146121ff5760405162461bcd60e51b815260040161049f906138ad565b600054604051631c2d8fb360e31b81526001600160a01b039091169063e16c7d989061224f907fc06005761aecdce9d8037400137cccfbffed4be85bf152e41fc11b29e23182e790600401613578565b60206040518083038186803b15801561226757600080fd5b505afa15801561227b573d6000803e3d6000fd5b505050506040513d601f19601f8201168201806040525081019061229f9190613030565b6001600160a01b03166375e71d6d846040518263ffffffff1660e01b81526004016122ca91906133f4565b60206040518083038186803b1580156122e257600080fd5b505afa1580156122f6573d6000803e3d6000fd5b505050506040513d601f19601f8201168201806040525081019061231a9190613143565b6123365760405162461bcd60e51b815260040161049f90613c7e565b6001600160a01b038316600090815260018201602052604090205460ff16156123715760405162461bcd60e51b815260040161049f90613cdb565b61237a81612bf9565b6001600160a01b0383166000818152600183810160209081526040808420805460ff19168417905560038601805493840181558452922001805473ffffffffffffffffffffffffffffffffffffffff1916909217909155517fff65a2f5a5680b4db6dadbe5e90a02bc72e5ad8534ac312ef33392750b297594906124019085908590613449565b60405180910390a1505050565b600054604051631c2d8fb360e31b81526001600160a01b039091169063e16c7d989061245e907f15fa0125f52e5705da1148bfcf00974823c4381bee4314203ede255f9477b73e90600401613578565b60206040518083038186803b15801561247657600080fd5b505afa15801561248a573d6000803e3d6000fd5b505050506040513d601f19601f820116820180604052508101906124ae9190613030565b6001600160a01b031663d09a20c57ff823490376190fb1d13a6ead3a1fd0abca698c503eee6ed5b1521d155924ae54336040518363ffffffff1660e01b81526004016124fb929190613581565b60006040518083038186803b15801561251357600080fd5b505afa158015612527573d6000803e3d6000fd5b5050505060006001838154811061253a57fe5b6000918252602090912060129091020190506002600482810154610100900460ff169081111561256657fe5b148061258957506003600482810154610100900460ff169081111561258757fe5b145b6125a55760405162461bcd60e51b815260040161049f90613d49565b8054600111156125c75760405162461bcd60e51b815260040161049f90613819565b600581015462010000900460ff16156125fb57600e8101546125fb5760405162461bcd60e51b815260040161049f90613c47565b600481015460009060039060ff16600281111561261457fe5b60ff166003811061262157fe5b6008020160060154905080601b541015801561265557506003600483810154610100900460ff169081111561265257fe5b14155b156127bf5760008054604051631c2d8fb360e31b81526001600160a01b039091169063e16c7d98906126ab907f69e547947a4514871bf84679401f91758bd0fe92e4c005143f6d0e5213dab0cb90600401613578565b60206040518083038186803b1580156126c357600080fd5b505afa1580156126d7573d6000803e3d6000fd5b505050506040513d601f19601f820116820180604052508101906126fb9190613030565b6040517f095ea7b30000000000000000000000000000000000000000000000000000000081529091506001600160a01b0382169063095ea7b3906127459030908690600401613449565b602060405180830381600087803b15801561275f57600080fd5b505af1158015612773573d6000803e3d6000fd5b505050506040513d601f19601f820116820180604052508101906127979190613143565b506127ad6001600160a01b038216303385612b1d565b601b546127ba9083612ad0565b601b55505b600f820183905560048201805461ff0019166103001790556040517f40f97c00b3f2b6aa7df918c31f5d4dea43f8346de7a764dad479144d5f6a1f6d9061164d9086908690613598565b6060600060606000612819612f4f565b6000612823612f6d565b600061282d612f8b565b600080600060018d8154811061283f57fe5b9060005260206000209060120201905080600001805480602002602001604051908101604052809291908181526020016000905b828210156128cd576000848152602090819020604080516060810182526003860290920180546001600160a01b03908116845260018083015490911684860152600290910154918301919091529083529092019101612873565b505050509b508060040160009054906101000a900460ff169a508060030180548060200260200160405190810160405280929190818152602001828054801561293f57602002820191906000526020600020905b81546001600160a01b03168152600190910190602001808311612921575b505050505099508060040160019054906101000a900460ff16985060405180604001604052808260050160000160019054906101000a900460ff1660ff1660ff1681526020018260050160000160009054906101000a900460ff1660ff1660ff1681525097508060050160000160029054906101000a900460ff169650604051806060016040528082600501600301548152602001826005016001015481526020018260050160020154815250955080600d01549450806005016004016040518060400160405290816000820160009054906101000a900460ff1615151515815260200160018201548152505093508060050160070160019054906101000a900460ff16925080600e015491505091939597999b90929496989a50565b60038160038110612a6957fe5b60080201805460018201546002830154600384015460408051808201909152600486015460ff90811615158252600587015460208301526006870154600790970154818716985061010080880483169862010000909804831697928281169291909104168a565b600082821115612af25760405162461bcd60e51b815260040161049f90613a69565b50900390565b6000828201838110156118385760405162461bcd60e51b815260040161049f9061390a565b612ba2846323b872dd60e01b858585604051602401612b3e93929190613425565b60408051601f198184030181529190526020810180517bffffffffffffffffffffffffffffffffffffffffffffffffffffffff167fffffffff0000000000000000000000000000000000000000000000000000000090931692909217909152612d84565b50505050565b60006003821115612beb575080600160028204015b81811015612be557809150600281828581612bd457fe5b040181612bdd57fe5b049050612bbd565b50610b01565b8115610b0157506001919050565b60008054604051631c2d8fb360e31b81526001600160a01b039091169063e16c7d9890612c4a907f69e547947a4514871bf84679401f91758bd0fe92e4c005143f6d0e5213dab0cb90600401613578565b60206040518083038186803b158015612c6257600080fd5b505afa158015612c76573d6000803e3d6000fd5b505050506040513d601f19601f82011682018060405250810190612c9a9190613030565b600983015490915060ff16151560011415611c5957600a8201546040517f70a082310000000000000000000000000000000000000000000000000000000081526001600160a01b038316906370a0823190612cf99033906004016133f4565b60206040518083038186803b158015612d1157600080fd5b505afa158015612d25573d6000803e3d6000fd5b505050506040513d601f19601f82011682018060405250810190612d4991906132bf565b1015612d675760405162461bcd60e51b815260040161049f90613edf565b600a820154611c59906001600160a01b0383169033903090612b1d565b6060612dd9826040518060400160405280602081526020017f5361666545524332303a206c6f772d6c6576656c2063616c6c206661696c6564815250856001600160a01b0316612e189092919063ffffffff16565b805190915015612e135780806020019051810190612df79190613143565b612e135760405162461bcd60e51b815260040161049f90613dee565b505050565b6060612e278484600085612e2f565b949350505050565b606082471015612e515760405162461bcd60e51b815260040161049f90613aa0565b612e5a85612ef0565b612e765760405162461bcd60e51b815260040161049f90613d80565b60006060866001600160a01b03168587604051612e9391906133a3565b60006040518083038185875af1925050503d8060008114612ed0576040519150601f19603f3d011682016040523d82523d6000602084013e612ed5565b606091505b5091509150612ee5828286612ef6565b979650505050505050565b3b151590565b60608315612f05575081611838565b825115612f155782518084602001fd5b8160405162461bcd60e51b815260040161049f91906136e4565b604080516060810182526000808252602082018190529181019190915290565b60405180604001604052806002906020820280368337509192915050565b60405180606001604052806003906020820280368337509192915050565b604080518082019091526000808252602082015290565b600082601f830112612fb2578081fd5b8135612fc5612fc082614024565b614000565b818152915060208083019084810181840286018201871015612fe657600080fd5b60005b8481101561300557813584529282019290820190600101612fe9565b505050505092915050565b803560038110610b0157600080fd5b803560ff81168114610b0157600080fd5b600060208284031215613041578081fd5b81516118388161406e565b6000806040838503121561305e578081fd5b82356130698161406e565b946020939093013593505050565b60008060006060848603121561308b578081fd5b833567ffffffffffffffff808211156130a2578283fd5b818601915086601f8301126130b5578283fd5b81356130c3612fc082614024565b80828252602080830192508086018b8283870289010111156130e3578788fd5b8796505b8487101561310e5780356130fa8161406e565b8452600196909601959281019281016130e7565b509097508801359350505080821115613125578283fd5b5061313286828701612fa2565b925050604084013590509250925092565b600060208284031215613154578081fd5b815161183881614086565b60008060408385031215613171578182fd5b825161317c81614086565b6020939093015192949293505050565b6000806040838503121561319e578182fd5b50508035926020909101359150565b6000602082840312156131be578081fd5b61183882613010565b600080604083850312156131d9578182fd5b61306983613010565b6000806000806000806000806000806000806101808d8f031215613204578788fd5b61320d8d613010565b9b5061321b60208e0161301f565b9a5061322960408e0161301f565b995060608d013561323981614086565b985060808d0135975060a08d0135965060c08d0135955060e08d013594506101008d013561326681614086565b93506101208d013592506101408d013561327f81614086565b91506101608d013560028110613293578182fd5b809150509295989b509295989b509295989b565b6000602082840312156132b8578081fd5b5035919050565b6000602082840312156132d0578081fd5b5051919050565b6000815180845260208085019450808401835b8381101561330f5781516001600160a01b0316875295820195908201906001016132ea565b509495945050505050565b8060005b6003811015612ba257815184526020938401939091019060010161331e565b8060005b6002811015612ba257815160ff16845260209384019390910190600101613341565b15159052565b6005811061337357fe5b9052565b6003811061337357fe5b6002811061337357fe5b805115158252602090810151910152565b60ff169052565b600082516133b5818460208701614042565b9190910192915050565b60f89290921b7fff00000000000000000000000000000000000000000000000000000000000000168252600182015260210190565b6001600160a01b0391909116815260200190565b6001600160a01b0383168152604081016118386020830184613377565b6001600160a01b039384168152919092166020820152604081019190915260600190565b6001600160a01b03929092168252602082015260400190565b60006020825261183860208301846132d7565b60006101e082526101e082018d518082526102008401915060208f01835b828110156134da5781516001600160a01b03808251168652806020830151166020870152506040810151604086015250606084019350602082019150600181019050613493565b5050506134ea602084018e613377565b82810360408401526134fc818d6132d7565b91505061350c606083018b613369565b613519608083018a61333d565b61352660c0830189613363565b61353360e083018861331a565b8561014083015261354861016083018661338b565b6135566101a0830185613381565b826101c08301529c9b505050505050505050505050565b901515815260200190565b90815260200190565b9182526001600160a01b0316602082015260400190565b918252602082015260400190565b93845260208401929092526001600160a01b03166040830152606082015260800190565b9283526020830191909152604082015260600190565b606081016135ee8286613377565b602082019390935260400152919050565b610240810161360e828b613377565b61361b602083018a613369565b61362960408301895161339c565b602088015161363b606084018261339c565b50604088015161364e6080840182613363565b50606088015160a0830152608088015160c083015260a088015160e083015260c08801516101006136818185018361338b565b60e08a0151610140850152890151905061369f610160840182613363565b506101208801516136b4610180840182613381565b506101a08201969096526101c08101949094526101e0840192909252610200830152610220909101529392505050565b6000602082528251806020840152613703816040850160208701614042565b601f01601f19169190910160400192915050565b6020808252601d908201527f72616e646f6d206e756d626572206e6f74207965742063726561746564000000604082015260600190565b60208082526022908201527f656c656374696f6e20646f65736e74206e6565642072616e646f6d206e756d6260408201527f6572000000000000000000000000000000000000000000000000000000000000606082015260800190565b6020808252601c908201527f456c656374696f6e206e6f74206f70656e20666f7220766f74696e6700000000604082015260600190565b6020808252601a908201527f656c656374696f6e206e6f74207965742066696e616c697a6564000000000000604082015260600190565b60208082526014908201527f6e6f20656c656769626c65206177617264656573000000000000000000000000604082015260600190565b60208082526027908201527f6164647265737320616c726561647920766f74656420666f7220656c6563746960408201527f6f6e207465726d00000000000000000000000000000000000000000000000000606082015260800190565b60208082526022908201527f656c656374696f6e206e6f74206f70656e20666f72207265676973747261746960408201527f6f6e000000000000000000000000000000000000000000000000000000000000606082015260800190565b6020808252601b908201527f536166654d6174683a206164646974696f6e206f766572666c6f770000000000604082015260600190565b6020808252600e908201527f746f6f206d616e7920766f746573000000000000000000000000000000000000604082015260600190565b60208082526045908201527f63616e2774207374617274206e657720656c656374696f6e2c206e6f7420656e60408201527f6f7567682074696d6520656c61707365642073696e6365206c61737420656c6560608201527f6374696f6e000000000000000000000000000000000000000000000000000000608082015260a00190565b6020808252600e908201527f6e6f7420656e6f75676820706f70000000000000000000000000000000000000604082015260600190565b6020808252600e908201527f496e636f727265637420726f6f74000000000000000000000000000000000000604082015260600190565b6020808252601e908201527f536166654d6174683a207375627472616374696f6e206f766572666c6f770000604082015260600190565b60208082526026908201527f416464726573733a20696e73756666696369656e742062616c616e636520666f60408201527f722063616c6c0000000000000000000000000000000000000000000000000000606082015260800190565b6020808252601a908201527f656c656374696f6e20616c72656164792066696e616c697a6564000000000000604082015260600190565b6020808252601d908201527f66696e616c697a6174696f6e206e6f74207965742070726f706f736564000000604082015260600190565b6020808252601a908201527f566f696365206372656469747320617265207265717569726564000000000000604082015260600190565b60208082526016908201527f746f6f206d616e792062656e6566696369617269657300000000000000000000604082015260600190565b60208082526016908201527f696e656c696769626c652062656e656669636961727900000000000000000000604082015260600190565b60208082526013908201527f726567696f6e20646f65736e7420657869737400000000000000000000000000604082015260600190565b60208082526015908201527f72616e646f6d4e756d6265722072657175697265640000000000000000000000604082015260600190565b60208082526028908201527f61646472657373206973206e6f7420656c696769626c6520666f72207265676960408201527f7374726174696f6e000000000000000000000000000000000000000000000000606082015260800190565b60208082526012908201527f6f6e6c79207265676973746572206f6e63650000000000000000000000000000604082015260600190565b60208082526017908201527f656c656374696f6e206d75737420626520636c6f736564000000000000000000604082015260600190565b60208082526014908201527f77726f6e6720656c656374696f6e207374617465000000000000000000000000604082015260600190565b6020808252601d908201527f416464726573733a2063616c6c20746f206e6f6e2d636f6e7472616374000000604082015260600190565b6020808252601a908201527f42656e6566696369617269657320617265207265717569726564000000000000604082015260600190565b6020808252602a908201527f5361666545524332303a204552433230206f7065726174696f6e20646964206e60408201527f6f74207375636365656400000000000000000000000000000000000000000000606082015260800190565b60208082526018908201527f72616e646f6d4e756d62657220616c7265616479207365740000000000000000604082015260600190565b60208082526024908201527f6d757374206861766520766f69636520637265646974732066726f6d2073746160408201527f6b696e6700000000000000000000000000000000000000000000000000000000606082015260800190565b60208082526026908201527f696e73756666696369656e7420726567697374726174696f6e20626f6e64206260408201527f616c616e63650000000000000000000000000000000000000000000000000000606082015260800190565b6020808252601a908201527f496e73756666696369656e7420766f6963652063726564697473000000000000604082015260600190565b60ff91909116815260200190565b60ff929092168252602082015260400190565b60006101608201905060ff8c16825260ff8b16602083015289151560408301528860608301528760808301528660a0830152613fd360c083018761338b565b84610100830152831515610120830152613ff1610140830184613381565b9b9a5050505050505050505050565b60405181810167ffffffffffffffff8111828210171561401c57fe5b604052919050565b600067ffffffffffffffff82111561403857fe5b5060209081020190565b60005b8381101561405d578181015183820152602001614045565b83811115612ba25750506000910152565b6001600160a01b038116811461408357600080fd5b50565b801515811461408357600080fdfea2646970667358221220d29fa4c88e541b6f4fda902399f3f13215a705c47d006412738e25d2bcb22f7464736f6c63430007030033",
  "linkReferences": {},
  "deployedLinkReferences": {}
}