{
  "_format": "hh-sol-artifact-1",
  "contractName": "ParticipationReward",
  "sourceName": "contracts/core/utils/ParticipationReward.sol",
  "abi": [
    {
      "inputs": [
        {
          "internalType": "contract IContractRegistry",
          "name": "_contractRegistry",
          "type": "address"
        }
      ],
      "stateMutability": "nonpayable",
      "type": "constructor"
    },
    {
      "anonymous": false,
      "inputs": [
        {
          "indexed": false,
          "internalType": "bytes32",
          "name": "contractName_",
          "type": "bytes32"
        },
        {
          "indexed": false,
          "internalType": "address",
          "name": "contract_",
          "type": "address"
        }
      ],
      "name": "ControllerContractAdded",
      "type": "event"
    },
    {
      "anonymous": false,
      "inputs": [
        {
          "indexed": false,
          "internalType": "address",
          "name": "account",
          "type": "address"
        },
        {
          "indexed": false,
          "internalType": "uint256",
          "name": "amount",
          "type": "uint256"
        }
      ],
      "name": "RewardBalanceIncreased",
      "type": "event"
    },
    {
      "anonymous": false,
      "inputs": [
        {
          "indexed": false,
          "internalType": "bytes32",
          "name": "contractName_",
          "type": "bytes32"
        },
        {
          "indexed": false,
          "internalType": "uint256",
          "name": "amount",
          "type": "uint256"
        }
      ],
      "name": "RewardBudgetChanged",
      "type": "event"
    },
    {
      "anonymous": false,
      "inputs": [
        {
          "indexed": false,
          "internalType": "bytes32",
          "name": "vaultId",
          "type": "bytes32"
        },
        {
          "indexed": false,
          "internalType": "address",
          "name": "account_",
          "type": "address"
        },
        {
          "indexed": false,
          "internalType": "uint256",
          "name": "amount",
          "type": "uint256"
        }
      ],
      "name": "RewardClaimed",
      "type": "event"
    },
    {
      "anonymous": false,
      "inputs": [
        {
          "indexed": false,
          "internalType": "address",
          "name": "account_",
          "type": "address"
        },
        {
          "indexed": false,
          "internalType": "uint256",
          "name": "amount",
          "type": "uint256"
        }
      ],
      "name": "RewardsClaimed",
      "type": "event"
    },
    {
      "anonymous": false,
      "inputs": [
        {
          "indexed": false,
          "internalType": "bytes32",
          "name": "contractName_",
          "type": "bytes32"
        },
        {
          "indexed": false,
          "internalType": "bool",
          "name": "prevState",
          "type": "bool"
        },
        {
          "indexed": false,
          "internalType": "bool",
          "name": "newState",
          "type": "bool"
        }
      ],
      "name": "RewardsToggled",
      "type": "event"
    },
    {
      "anonymous": false,
      "inputs": [
        {
          "indexed": false,
          "internalType": "bytes32",
          "name": "vaultId_",
          "type": "bytes32"
        },
        {
          "indexed": false,
          "internalType": "address",
          "name": "account_",
          "type": "address"
        },
        {
          "indexed": false,
          "internalType": "uint256",
          "name": "shares_",
          "type": "uint256"
        }
      ],
      "name": "SharesAdded",
      "type": "event"
    },
    {
      "anonymous": false,
      "inputs": [
        {
          "indexed": false,
          "internalType": "bytes32",
          "name": "vaultId",
          "type": "bytes32"
        }
      ],
      "name": "VaultClosed",
      "type": "event"
    },
    {
      "anonymous": false,
      "inputs": [
        {
          "indexed": false,
          "internalType": "bytes32",
          "name": "vaultId",
          "type": "bytes32"
        }
      ],
      "name": "VaultInitialized",
      "type": "event"
    },
    {
      "anonymous": false,
      "inputs": [
        {
          "indexed": false,
          "internalType": "bytes32",
          "name": "vaultId",
          "type": "bytes32"
        }
      ],
      "name": "VaultOpened",
      "type": "event"
    },
    {
      "inputs": [
        {
          "internalType": "bytes32",
          "name": "contractName_",
          "type": "bytes32"
        },
        {
          "internalType": "address",
          "name": "contract_",
          "type": "address"
        }
      ],
      "name": "addControllerContract",
      "outputs": [],
      "stateMutability": "nonpayable",
      "type": "function"
    },
    {
      "inputs": [
        {
          "internalType": "bytes32",
          "name": "contractName_",
          "type": "bytes32"
        },
        {
          "internalType": "bytes32",
          "name": "vaultId_",
          "type": "bytes32"
        },
        {
          "internalType": "address",
          "name": "account_",
          "type": "address"
        },
        {
          "internalType": "uint256",
          "name": "shares_",
          "type": "uint256"
        }
      ],
      "name": "addShares",
      "outputs": [],
      "stateMutability": "nonpayable",
      "type": "function"
    },
    {
      "inputs": [
        {
          "internalType": "uint256",
          "name": "index_",
          "type": "uint256"
        }
      ],
      "name": "claimReward",
      "outputs": [],
      "stateMutability": "nonpayable",
      "type": "function"
    },
    {
      "inputs": [
        {
          "internalType": "uint256[]",
          "name": "indices_",
          "type": "uint256[]"
        }
      ],
      "name": "claimRewards",
      "outputs": [],
      "stateMutability": "nonpayable",
      "type": "function"
    },
    {
      "inputs": [],
      "name": "contractRegistry",
      "outputs": [
        {
          "internalType": "contract IContractRegistry",
          "name": "",
          "type": "address"
        }
      ],
      "stateMutability": "view",
      "type": "function"
    },
    {
      "inputs": [
        {
          "internalType": "uint256",
          "name": "amount",
          "type": "uint256"
        }
      ],
      "name": "contributeReward",
      "outputs": [],
      "stateMutability": "nonpayable",
      "type": "function"
    },
    {
      "inputs": [
        {
          "internalType": "bytes32",
          "name": "",
          "type": "bytes32"
        }
      ],
      "name": "controllerContracts",
      "outputs": [
        {
          "internalType": "address",
          "name": "",
          "type": "address"
        }
      ],
      "stateMutability": "view",
      "type": "function"
    },
    {
      "inputs": [
        {
          "internalType": "address",
          "name": "account",
          "type": "address"
        }
      ],
      "name": "getUserVaults",
      "outputs": [
        {
          "internalType": "bytes32[]",
          "name": "",
          "type": "bytes32[]"
        }
      ],
      "stateMutability": "view",
      "type": "function"
    },
    {
      "inputs": [
        {
          "internalType": "bytes32",
          "name": "vaultId_",
          "type": "bytes32"
        }
      ],
      "name": "getVaultStatus",
      "outputs": [
        {
          "internalType": "enum ParticipationReward.VaultStatus",
          "name": "",
          "type": "uint8"
        }
      ],
      "stateMutability": "view",
      "type": "function"
    },
    {
      "inputs": [
        {
          "internalType": "bytes32",
          "name": "vaultId_",
          "type": "bytes32"
        },
        {
          "internalType": "address",
          "name": "beneficiary_",
          "type": "address"
        }
      ],
      "name": "hasClaim",
      "outputs": [
        {
          "internalType": "bool",
          "name": "",
          "type": "bool"
        }
      ],
      "stateMutability": "view",
      "type": "function"
    },
    {
      "inputs": [
        {
          "internalType": "bytes32",
          "name": "contractName_",
          "type": "bytes32"
        },
        {
          "internalType": "bytes32",
          "name": "vaultId_",
          "type": "bytes32"
        },
        {
          "internalType": "uint256",
          "name": "endTime_",
          "type": "uint256"
        }
      ],
      "name": "initializeVault",
      "outputs": [
        {
          "internalType": "bool",
          "name": "",
          "type": "bool"
        },
        {
          "internalType": "bytes32",
          "name": "",
          "type": "bytes32"
        }
      ],
      "stateMutability": "nonpayable",
      "type": "function"
    },
    {
      "inputs": [
        {
          "internalType": "bytes32",
          "name": "vaultId_",
          "type": "bytes32"
        },
        {
          "internalType": "address",
          "name": "beneficiary_",
          "type": "address"
        }
      ],
      "name": "isClaimable",
      "outputs": [
        {
          "internalType": "bool",
          "name": "",
          "type": "bool"
        }
      ],
      "stateMutability": "view",
      "type": "function"
    },
    {
      "inputs": [
        {
          "internalType": "bytes32",
          "name": "contractName_",
          "type": "bytes32"
        },
        {
          "internalType": "bytes32",
          "name": "vaultId_",
          "type": "bytes32"
        }
      ],
      "name": "openVault",
      "outputs": [],
      "stateMutability": "nonpayable",
      "type": "function"
    },
    {
      "inputs": [],
      "name": "rewardBalance",
      "outputs": [
        {
          "internalType": "uint256",
          "name": "",
          "type": "uint256"
        }
      ],
      "stateMutability": "view",
      "type": "function"
    },
    {
      "inputs": [
        {
          "internalType": "bytes32",
          "name": "",
          "type": "bytes32"
        }
      ],
      "name": "rewardBudgets",
      "outputs": [
        {
          "internalType": "uint256",
          "name": "",
          "type": "uint256"
        }
      ],
      "stateMutability": "view",
      "type": "function"
    },
    {
      "inputs": [
        {
          "internalType": "bytes32",
          "name": "",
          "type": "bytes32"
        }
      ],
      "name": "rewardsEnabled",
      "outputs": [
        {
          "internalType": "bool",
          "name": "",
          "type": "bool"
        }
      ],
      "stateMutability": "view",
      "type": "function"
    },
    {
      "inputs": [
        {
          "internalType": "bytes32",
          "name": "contractName_",
          "type": "bytes32"
        },
        {
          "internalType": "uint256",
          "name": "amount",
          "type": "uint256"
        }
      ],
      "name": "setRewardsBudget",
      "outputs": [],
      "stateMutability": "nonpayable",
      "type": "function"
    },
    {
      "inputs": [
        {
          "internalType": "bytes32",
          "name": "contractName_",
          "type": "bytes32"
        }
      ],
      "name": "toggleRewards",
      "outputs": [],
      "stateMutability": "nonpayable",
      "type": "function"
    },
    {
      "inputs": [],
      "name": "totalVaultsBudget",
      "outputs": [
        {
          "internalType": "uint256",
          "name": "",
          "type": "uint256"
        }
      ],
      "stateMutability": "view",
      "type": "function"
    },
    {
      "inputs": [
        {
          "internalType": "address",
          "name": "",
          "type": "address"
        },
        {
          "internalType": "uint256",
          "name": "",
          "type": "uint256"
        }
      ],
      "name": "userVaults",
      "outputs": [
        {
          "internalType": "bytes32",
          "name": "",
          "type": "bytes32"
        }
      ],
      "stateMutability": "view",
      "type": "function"
    },
    {
      "inputs": [
        {
          "internalType": "bytes32",
          "name": "",
          "type": "bytes32"
        }
      ],
      "name": "vaults",
      "outputs": [
        {
          "internalType": "enum ParticipationReward.VaultStatus",
          "name": "status",
          "type": "uint8"
        },
        {
          "internalType": "uint256",
          "name": "endTime",
          "type": "uint256"
        },
        {
          "internalType": "uint256",
          "name": "shares",
          "type": "uint256"
        },
        {
          "internalType": "uint256",
          "name": "tokenBalance",
          "type": "uint256"
        }
      ],
      "stateMutability": "view",
      "type": "function"
    }
  ],
  "bytecode": "0x608060405234801561001057600080fd5b506040516120a53803806120a58339818101604052602081101561003357600080fd5b50516001600081905580546001600160a01b039092166001600160a01b031990921691909117905561203b8061006a6000396000f3fe608060405234801561001057600080fd5b50600436106101775760003560e01c80639559e147116100d8578063cca23bf21161008c578063e7f3c69c11610066578063e7f3c69c146104aa578063efff46dd14610520578063fcd2ae701461054357610177565b8063cca23bf214610402578063db4dc5f014610455578063e5202c3e1461048d57610177565b8063aa5c3ab4116100bd578063aa5c3ab4146103d5578063abf410e5146103dd578063ae169a50146103e557610177565b80639559e147146103865780639c841fef146103a957610177565b806352b456ac1161012f5780635eac6239116101145780635eac6239146102ca57806366308e131461033a57806388ea20d31461037e57610177565b806352b456ac1461025d5780635b994ad21461029b57610177565b80632e3ea85a116101605780632e3ea85a146101f557806332705d2a14610223578063410473521461024057610177565b8063068140dd1461017c57806319e1f454146101bc575b600080fd5b6101a86004803603604081101561019257600080fd5b50803590602001356001600160a01b031661056f565b604080519115158252519081900360200190f35b6101d9600480360360208110156101d257600080fd5b503561065d565b604080516001600160a01b039092168252519081900360200190f35b6102216004803603604081101561020b57600080fd5b50803590602001356001600160a01b0316610678565b005b6102216004803603602081101561023957600080fd5b503561082a565b6101a86004803603602081101561025657600080fd5b503561097c565b61027a6004803603602081101561027357600080fd5b5035610991565b6040518082600181111561028a57fe5b815260200191505060405180910390f35b6102b8600480360360208110156102b157600080fd5b50356109a6565b60408051918252519081900360200190f35b610221600480360360208110156102e057600080fd5b8101906020810181356401000000008111156102fb57600080fd5b82018360208201111561030d57600080fd5b8035906020019184602083028401116401000000008311171561032f57600080fd5b5090925090506109b8565b6103636004803603606081101561035057600080fd5b5080359060208101359060400135610cde565b60408051921515835260208301919091528051918290030190f35b6102b8610ef2565b6102216004803603604081101561039c57600080fd5b5080359060200135610ef8565b6102b8600480360360408110156103bf57600080fd5b506001600160a01b0381351690602001356110bb565b6102b86110e9565b6101d96110ef565b610221600480360360208110156103fb57600080fd5b50356110fe565b61041f6004803603602081101561041857600080fd5b50356112b6565b6040518085600181111561042f57fe5b815260200184815260200183815260200182815260200194505050505060405180910390f35b6102216004803603608081101561046b57600080fd5b508035906020810135906001600160a01b0360408201351690606001356112e1565b610221600480360360208110156104a357600080fd5b50356114bc565b6104d0600480360360208110156104c057600080fd5b50356001600160a01b0316611648565b60408051602080825283518183015283519192839290830191858101910280838360005b8381101561050c5781810151838201526020016104f4565b505050509050019250505060405180910390f35b6102216004803603604081101561053657600080fd5b50803590602001356116b4565b6101a86004803603604081101561055957600080fd5b50803590602001356001600160a01b0316611899565b60008281526005602052604081206001015483906105d4576040805162461bcd60e51b815260206004820152601860248201527f556e696e697469616c697a6564207661756c7420736c6f740000000000000000604482015290519081900360640190fd5b600160008581526005602052604090205460ff1660018111156105f357fe5b148015610624575060008481526005602090815260408083206001600160a01b038716845260040190915290205415155b8015610655575060008481526005602081815260408084206001600160a01b0388168552909201905290205460ff16155b949350505050565b6007602052600090815260409020546001600160a01b031681565b60015460408051631c2d8fb360e31b81527f15fa0125f52e5705da1148bfcf00974823c4381bee4314203ede255f9477b73e600482015290516001600160a01b039092169163e16c7d9891602480820192602092909190829003018186803b1580156106e357600080fd5b505afa1580156106f7573d6000803e3d6000fd5b505050506040513d602081101561070d57600080fd5b50516040805163d09a20c560e01b81527fd0a4ad96d49edb1c33461cebc6fb2609190f32c904e3c3f5877edb4488dee91e600482015233602482015290516001600160a01b039092169163d09a20c591604480820192600092909190829003018186803b15801561077d57600080fd5b505afa158015610791573d6000803e3d6000fd5b505050600083815260076020908152604080832080547fffffffffffffffffffffffff0000000000000000000000000000000000000000166001600160a01b0387169081179091556008835292819020805460ff1916600117905580518681529182019290925281517ff6c4dabf3ee4c924bd9069622cd7d390b44d0f38fe8742cf5fdf8f5c5a6be5f893509081900390910190a15050565b6000811161087f576040805162461bcd60e51b815260206004820152601060248201527f6d757374206265206c6172676572203000000000000000000000000000000000604482015290519081900360640190fd5b60015460408051631c2d8fb360e31b81527f69e547947a4514871bf84679401f91758bd0fe92e4c005143f6d0e5213dab0cb6004820152905161092e923392309286926001600160a01b03169163e16c7d98916024808301926020929190829003018186803b1580156108f157600080fd5b505afa158015610905573d6000803e3d6000fd5b505050506040513d602081101561091b57600080fd5b50516001600160a01b031692919061195e565b60025461093b90826119ec565b600255604080513381526020810183905281517f27c1a614c467759cd1aef8a5219f67898e35f6a6b619887e18a15b528d777c69929181900390910190a150565b60086020526000908152604090205460ff1681565b60009081526005602052604090205460ff1690565b60046020526000908152604090205481565b60026000541415610a10576040805162461bcd60e51b815260206004820152601f60248201527f5265656e7472616e637947756172643a207265656e7472616e742063616c6c00604482015290519081900360640190fd5b600260005560148110610a6a576040805162461bcd60e51b815260206004820152601860248201527f636c61696d696e6720746f6f206d616e79207661756c74730000000000000000604482015290519081900360640190fd5b6000805b82811015610b3057336000908152600660205260408120858584818110610a9157fe5b9050602002013581548110610aa257fe5b6000918252602090912001549050600160008281526005602052604090205460ff166001811115610acf57fe5b148015610af857506000818152600560208181526040808420338552909201905290205460ff16155b15610b2757610b24610b1d82878786818110610b1057fe5b9050602002013533611a4f565b84906119ec565b92505b50600101610a6e565b5060008111610b73576040805162461bcd60e51b815260206004820152600a6024820152696e6f207265776172647360b01b604482015290519081900360640190fd5b600254811115610bca576040805162461bcd60e51b815260206004820152601b60248201527f6e6f7420656e6f7567682066756e647320666f72207061796f75740000000000604482015290519081900360640190fd5b600354610bd79082611b33565b600355600254610be79082611b33565b60025560015460408051631c2d8fb360e31b81527f69e547947a4514871bf84679401f91758bd0fe92e4c005143f6d0e5213dab0cb60048201529051610c9992339285926001600160a01b039092169163e16c7d9891602480820192602092909190829003018186803b158015610c5d57600080fd5b505afa158015610c71573d6000803e3d6000fd5b505050506040513d6020811015610c8757600080fd5b50516001600160a01b03169190611b90565b604080513381526020810183905281517ffc30cddea38e2bf4d6ea7d3f9ed3b6ad7f176419f4963bd81318067a4aee73fe929181900390910190a15050600160005550565b600083815260076020526040812054819085906001600160a01b03163314610d375760405162461bcd60e51b815260040180806020018281038252602e815260200180611fae602e913960400191505060405180910390fd5b60008681526008602052604090205460ff16610d845760405162461bcd60e51b8152600401808060200182810382526036815260200180611f576036913960400191505060405180910390fd5b60008581526005602052604090206001015415610de8576040805162461bcd60e51b815260206004820152601460248201527f5661756c74206d757374206e6f74206578697374000000000000000000000000604482015290519081900360640190fd5b428411610e3c576040805162461bcd60e51b815260206004820152601960248201527f656e64206d75737420626520696e207468652066757475726500000000000000604482015290519081900360640190fd5b600086815260046020526040812054600354610e57916119ec565b9050600254811180610e695750600254155b15610e7b576000809350935050610ee9565b60038181556000878152600560209081526040808320600181018a90558b8452600483529281902054938301939093558251898152925191927f19d13963668fd7f19816e2da6d8a8864e93a626ab66f6bd6e6abf5f8839d1411929081900390910190a16001879450945050505b50935093915050565b60035481565b60015460408051631c2d8fb360e31b81527f15fa0125f52e5705da1148bfcf00974823c4381bee4314203ede255f9477b73e600482015290516001600160a01b039092169163e16c7d9891602480820192602092909190829003018186803b158015610f6357600080fd5b505afa158015610f77573d6000803e3d6000fd5b505050506040513d6020811015610f8d57600080fd5b50516040805163d09a20c560e01b81527fd0a4ad96d49edb1c33461cebc6fb2609190f32c904e3c3f5877edb4488dee91e600482015233602482015290516001600160a01b039092169163d09a20c591604480820192600092909190829003018186803b158015610ffd57600080fd5b505afa158015611011573d6000803e3d6000fd5b505050506000811161106a576040805162461bcd60e51b815260206004820152601060248201527f6d757374206265206c6172676572203000000000000000000000000000000000604482015290519081900360640190fd5b600082815260046020908152604091829020839055815184815290810183905281517f75727c9b45c833cb72140f38a953f79839e659fc206f190eea1b07045617e065929181900390910190a15050565b600660205281600052604060002081815481106110d457fe5b90600052602060002001600091509150505481565b60025481565b6001546001600160a01b031681565b60026000541415611156576040805162461bcd60e51b815260206004820152601f60248201527f5265656e7472616e637947756172643a207265656e7472616e742063616c6c00604482015290519081900360640190fd5b6002600090815533815260066020526040812080548390811061117557fe5b6000918252602090912001549050600160008281526005602052604090205460ff1660018111156111a257fe5b146111f4576040805162461bcd60e51b815260206004820152601160248201527f7661756c74206973206e6f74206f70656e000000000000000000000000000000604482015290519081900360640190fd5b6000818152600560208181526040808420338552909201905290205460ff1615611265576040805162461bcd60e51b815260206004820152600f60248201527f616c726561647920636c61696d65640000000000000000000000000000000000604482015290519081900360640190fd5b6000611272828433611a4f565b905060008111610b73576040805162461bcd60e51b815260206004820152600a6024820152696e6f207265776172647360b01b604482015290519081900360640190fd5b600560205260009081526040902080546001820154600283015460039093015460ff90921692909184565b60008481526007602052604090205484906001600160a01b031633146113385760405162461bcd60e51b815260040180806020018281038252602e815260200180611fae602e913960400191505060405180910390fd5b600084815260056020526040902060010154849061139d576040805162461bcd60e51b815260206004820152601860248201527f556e696e697469616c697a6564207661756c7420736c6f740000000000000000604482015290519081900360640190fd5b60008581526005602052604081205460ff1660018111156113ba57fe5b1461140c576040805162461bcd60e51b815260206004820152601960248201527f5661756c74206d75737420626520696e697469616c697a656400000000000000604482015290519081900360640190fd5b60008581526005602052604090206002015461142890846119ec565b600086815260056020908152604080832060028101949094556001600160a01b0388168084526004909401825280832087905560068252808320805460018101825590845292829020909201889055815188815290810192909252818101859052517fbac56fd2879311ebf368181dfbf41a90a7cfa7560f55c36563bcfce2a776f4a29181900360600190a1505050505050565b60015460408051631c2d8fb360e31b81527f15fa0125f52e5705da1148bfcf00974823c4381bee4314203ede255f9477b73e600482015290516001600160a01b039092169163e16c7d9891602480820192602092909190829003018186803b15801561152757600080fd5b505afa15801561153b573d6000803e3d6000fd5b505050506040513d602081101561155157600080fd5b50516040805163d09a20c560e01b81527fd0a4ad96d49edb1c33461cebc6fb2609190f32c904e3c3f5877edb4488dee91e600482015233602482015290516001600160a01b039092169163d09a20c591604480820192600092909190829003018186803b1580156115c157600080fd5b505afa1580156115d5573d6000803e3d6000fd5b505050600082815260086020908152604091829020805460ff19811660ff9182168015918217938490558551888152911594820194909452911615158184015291519092507fb5892f43148bca6ca8a82cc9087f6e71b528358bf884d904ec5cca65ff5c5f939181900360600190a15050565b6001600160a01b0381166000908152600660209081526040918290208054835181840281018401909452808452606093928301828280156116a857602002820191906000526020600020905b815481526020019060010190808311611694575b50505050509050919050565b60008281526007602052604090205482906001600160a01b0316331461170b5760405162461bcd60e51b815260040180806020018281038252602e815260200180611fae602e913960400191505060405180910390fd5b6000828152600560205260409020600101548290611770576040805162461bcd60e51b815260206004820152601860248201527f556e696e697469616c697a6564207661756c7420736c6f740000000000000000604482015290519081900360640190fd5b60008381526005602052604081205460ff16600181111561178d57fe5b146117df576040805162461bcd60e51b815260206004820152601960248201527f5661756c74206d75737420626520696e697469616c697a656400000000000000604482015290519081900360640190fd5b600083815260056020526040902060010154421015611845576040805162461bcd60e51b815260206004820152601960248201527f776169742074696c6c20656e6454696d65206973206f76657200000000000000604482015290519081900360640190fd5b600083815260056020908152604091829020805460ff19166001179055815185815291517f31b0aa36783855ee03b759334d419a25ead53cf249ce84862eec1138dcefe5259281900390910190a150505050565b60008281526005602052604081206001015483906118fe576040805162461bcd60e51b815260206004820152601860248201527f556e696e697469616c697a6564207661756c7420736c6f740000000000000000604482015290519081900360640190fd5b60008481526005602090815260408083206001600160a01b0387168452600401909152902054158015906106555750505060009182526005602081815260408085206001600160a01b0394909416855292909101905290205460ff161590565b604080516001600160a01b0380861660248301528416604482015260648082018490528251808303909101815260849091019091526020810180517bffffffffffffffffffffffffffffffffffffffffffffffffffffffff167f23b872dd000000000000000000000000000000000000000000000000000000001790526119e6908590611c15565b50505050565b600082820183811015611a46576040805162461bcd60e51b815260206004820152601b60248201527f536166654d6174683a206164646974696f6e206f766572666c6f770000000000604482015290519081900360640190fd5b90505b92915050565b60008381526005602090815260408083206001600160a01b03851684526004019091528120548015611b265760008581526005602052604081206002810154600390910154611aa99190611aa39085611cc6565b90611d1f565b600087815260056020526040902060030154909150611ac89082611b33565b600087815260056020818152604080842060038101959095556001600160a01b0389168452939091018152828220805460ff191660011790556006905220805486908110611b1257fe5b60009182526020822001559150611b2c9050565b60009150505b9392505050565b600082821115611b8a576040805162461bcd60e51b815260206004820152601e60248201527f536166654d6174683a207375627472616374696f6e206f766572666c6f770000604482015290519081900360640190fd5b50900390565b604080516001600160a01b038416602482015260448082018490528251808303909101815260649091019091526020810180517bffffffffffffffffffffffffffffffffffffffffffffffffffffffff167fa9059cbb00000000000000000000000000000000000000000000000000000000179052611c10908490611c15565b505050565b6060611c6a826040518060400160405280602081526020017f5361666545524332303a206c6f772d6c6576656c2063616c6c206661696c6564815250856001600160a01b0316611d869092919063ffffffff16565b805190915015611c1057808060200190516020811015611c8957600080fd5b5051611c105760405162461bcd60e51b815260040180806020018281038252602a815260200180611fdc602a913960400191505060405180910390fd5b600082611cd557506000611a49565b82820282848281611ce257fe5b0414611a465760405162461bcd60e51b8152600401808060200182810382526021815260200180611f8d6021913960400191505060405180910390fd5b6000808211611d75576040805162461bcd60e51b815260206004820152601a60248201527f536166654d6174683a206469766973696f6e206279207a65726f000000000000604482015290519081900360640190fd5b818381611d7e57fe5b049392505050565b6060610655848460008585611d9a85611eac565b611deb576040805162461bcd60e51b815260206004820152601d60248201527f416464726573733a2063616c6c20746f206e6f6e2d636f6e7472616374000000604482015290519081900360640190fd5b60006060866001600160a01b031685876040518082805190602001908083835b60208310611e2a5780518252601f199092019160209182019101611e0b565b6001836020036101000a03801982511681845116808217855250505050505090500191505060006040518083038185875af1925050503d8060008114611e8c576040519150601f19603f3d011682016040523d82523d6000602084013e611e91565b606091505b5091509150611ea1828286611eb2565b979650505050505050565b3b151590565b60608315611ec1575081611b2c565b825115611ed15782518084602001fd5b8160405162461bcd60e51b81526004018080602001828103825283818151815260200191508051906020019080838360005b83811015611f1b578181015183820152602001611f03565b50505050905090810190601f168015611f485780820380516001836020036101000a031916815260200191505b509250505060405180910390fdfe70617274696369706174696f6e5265776172647320617265206e6f7420656e61626c656420666f72207468697320636f6e7472616374536166654d6174683a206d756c7469706c69636174696f6e206f766572666c6f7743616e206f6e6c792062652063616c6c65642062792074686520636f6e74726f6c6c696e6720636f6e74726163745361666545524332303a204552433230206f7065726174696f6e20646964206e6f742073756363656564a2646970667358221220778d8ba8879ceffb4ac1baf94e53db347717287dbc66b2c722cf2e7555b627df64736f6c63430007030033",
  "linkReferences": {},
  "deployedLinkReferences": {}
}