{
  "_format": "hh-sol-artifact-1",
  "contractName": "BeneficiaryGovernance",
  "sourceName": "contracts/core/dao/BeneficiaryGovernance.sol",
  "abi": [
    {
      "inputs": [
        {
          "internalType": "contract IContractRegistry",
          "name": "_contractRegistry",
          "type": "address"
        }
      ],
      "stateMutability": "nonpayable",
      "type": "constructor"
    },
    {
      "anonymous": false,
      "inputs": [
        {
          "indexed": false,
          "internalType": "address",
          "name": "_address",
          "type": "address"
        },
        {
          "indexed": false,
          "internalType": "uint256",
          "name": "amount",
          "type": "uint256"
        }
      ],
      "name": "BondWithdrawn",
      "type": "event"
    },
    {
      "anonymous": false,
      "inputs": [
        {
          "indexed": true,
          "internalType": "uint256",
          "name": "proposalId",
          "type": "uint256"
        }
      ],
      "name": "Finalize",
      "type": "event"
    },
    {
      "anonymous": false,
      "inputs": [
        {
          "indexed": true,
          "internalType": "uint256",
          "name": "proposalId",
          "type": "uint256"
        },
        {
          "indexed": true,
          "internalType": "address",
          "name": "proposer",
          "type": "address"
        },
        {
          "indexed": true,
          "internalType": "address",
          "name": "beneficiary",
          "type": "address"
        },
        {
          "indexed": false,
          "internalType": "bytes",
          "name": "applicationCid",
          "type": "bytes"
        }
      ],
      "name": "ProposalCreated",
      "type": "event"
    },
    {
      "anonymous": false,
      "inputs": [
        {
          "indexed": true,
          "internalType": "uint256",
          "name": "proposalId",
          "type": "uint256"
        },
        {
          "indexed": true,
          "internalType": "address",
          "name": "voter",
          "type": "address"
        },
        {
          "indexed": true,
          "internalType": "uint256",
          "name": "weight",
          "type": "uint256"
        }
      ],
      "name": "Vote",
      "type": "event"
    },
    {
      "inputs": [],
      "name": "DefaultConfigurations",
      "outputs": [
        {
          "internalType": "uint256",
          "name": "votingPeriod",
          "type": "uint256"
        },
        {
          "internalType": "uint256",
          "name": "vetoPeriod",
          "type": "uint256"
        },
        {
          "internalType": "uint256",
          "name": "proposalBond",
          "type": "uint256"
        }
      ],
      "stateMutability": "view",
      "type": "function"
    },
    {
      "inputs": [
        {
          "internalType": "address",
          "name": "",
          "type": "address"
        }
      ],
      "name": "beneficiaryProposals",
      "outputs": [
        {
          "internalType": "uint256",
          "name": "",
          "type": "uint256"
        }
      ],
      "stateMutability": "view",
      "type": "function"
    },
    {
      "inputs": [
        {
          "internalType": "uint256",
          "name": "proposalId",
          "type": "uint256"
        }
      ],
      "name": "claimBond",
      "outputs": [],
      "stateMutability": "nonpayable",
      "type": "function"
    },
    {
      "inputs": [],
      "name": "contractRegistry",
      "outputs": [
        {
          "internalType": "contract IContractRegistry",
          "name": "",
          "type": "address"
        }
      ],
      "stateMutability": "view",
      "type": "function"
    },
    {
      "inputs": [
        {
          "internalType": "address",
          "name": "_beneficiary",
          "type": "address"
        },
        {
          "internalType": "bytes32",
          "name": "_region",
          "type": "bytes32"
        },
        {
          "internalType": "bytes",
          "name": "_applicationCid",
          "type": "bytes"
        },
        {
          "internalType": "enum BeneficiaryGovernance.ProposalType",
          "name": "_type",
          "type": "uint8"
        }
      ],
      "name": "createProposal",
      "outputs": [
        {
          "internalType": "uint256",
          "name": "",
          "type": "uint256"
        }
      ],
      "stateMutability": "nonpayable",
      "type": "function"
    },
    {
      "inputs": [
        {
          "internalType": "uint256",
          "name": "proposalId",
          "type": "uint256"
        }
      ],
      "name": "finalize",
      "outputs": [],
      "stateMutability": "nonpayable",
      "type": "function"
    },
    {
      "inputs": [
        {
          "internalType": "enum BeneficiaryGovernance.ProposalType",
          "name": "_type",
          "type": "uint8"
        }
      ],
      "name": "getNumberOfProposals",
      "outputs": [
        {
          "internalType": "uint256",
          "name": "",
          "type": "uint256"
        }
      ],
      "stateMutability": "view",
      "type": "function"
    },
    {
      "inputs": [
        {
          "internalType": "uint256",
          "name": "proposalId",
          "type": "uint256"
        }
      ],
      "name": "getNumberOfVoters",
      "outputs": [
        {
          "internalType": "uint256",
          "name": "",
          "type": "uint256"
        }
      ],
      "stateMutability": "view",
      "type": "function"
    },
    {
      "inputs": [
        {
          "internalType": "uint256",
          "name": "proposalId",
          "type": "uint256"
        }
      ],
      "name": "getStatus",
      "outputs": [
        {
          "internalType": "enum BeneficiaryGovernance.ProposalStatus",
          "name": "",
          "type": "uint8"
        }
      ],
      "stateMutability": "view",
      "type": "function"
    },
    {
      "inputs": [
        {
          "internalType": "uint256",
          "name": "proposalId",
          "type": "uint256"
        },
        {
          "internalType": "address",
          "name": "voter",
          "type": "address"
        }
      ],
      "name": "hasVoted",
      "outputs": [
        {
          "internalType": "bool",
          "name": "",
          "type": "bool"
        }
      ],
      "stateMutability": "view",
      "type": "function"
    },
    {
      "inputs": [
        {
          "internalType": "uint256",
          "name": "",
          "type": "uint256"
        }
      ],
      "name": "nominations",
      "outputs": [
        {
          "internalType": "uint256",
          "name": "",
          "type": "uint256"
        }
      ],
      "stateMutability": "view",
      "type": "function"
    },
    {
      "inputs": [
        {
          "internalType": "uint256",
          "name": "",
          "type": "uint256"
        }
      ],
      "name": "proposals",
      "outputs": [
        {
          "internalType": "enum BeneficiaryGovernance.ProposalStatus",
          "name": "status",
          "type": "uint8"
        },
        {
          "internalType": "address",
          "name": "beneficiary",
          "type": "address"
        },
        {
          "internalType": "bytes",
          "name": "applicationCid",
          "type": "bytes"
        },
        {
          "internalType": "address",
          "name": "proposer",
          "type": "address"
        },
        {
          "internalType": "uint256",
          "name": "startTime",
          "type": "uint256"
        },
        {
          "internalType": "bytes32",
          "name": "region",
          "type": "bytes32"
        },
        {
          "internalType": "uint256",
          "name": "yesCount",
          "type": "uint256"
        },
        {
          "internalType": "uint256",
          "name": "noCount",
          "type": "uint256"
        },
        {
          "internalType": "uint256",
          "name": "voterCount",
          "type": "uint256"
        },
        {
          "internalType": "enum BeneficiaryGovernance.ProposalType",
          "name": "proposalType",
          "type": "uint8"
        },
        {
          "components": [
            {
              "internalType": "uint256",
              "name": "votingPeriod",
              "type": "uint256"
            },
            {
              "internalType": "uint256",
              "name": "vetoPeriod",
              "type": "uint256"
            },
            {
              "internalType": "uint256",
              "name": "proposalBond",
              "type": "uint256"
            }
          ],
          "internalType": "struct BeneficiaryGovernance.ConfigurationOptions",
          "name": "configurationOptions",
          "type": "tuple"
        },
        {
          "internalType": "bytes32",
          "name": "vaultId",
          "type": "bytes32"
        }
      ],
      "stateMutability": "view",
      "type": "function"
    },
    {
      "inputs": [
        {
          "internalType": "uint256",
          "name": "proposalId",
          "type": "uint256"
        }
      ],
      "name": "refreshState",
      "outputs": [],
      "stateMutability": "nonpayable",
      "type": "function"
    },
    {
      "inputs": [
        {
          "internalType": "uint256",
          "name": "_votingPeriod",
          "type": "uint256"
        },
        {
          "internalType": "uint256",
          "name": "_vetoPeriod",
          "type": "uint256"
        },
        {
          "internalType": "uint256",
          "name": "_proposalBond",
          "type": "uint256"
        }
      ],
      "name": "setConfiguration",
      "outputs": [],
      "stateMutability": "nonpayable",
      "type": "function"
    },
    {
      "inputs": [
        {
          "internalType": "uint256",
          "name": "",
          "type": "uint256"
        }
      ],
      "name": "takedowns",
      "outputs": [
        {
          "internalType": "uint256",
          "name": "",
          "type": "uint256"
        }
      ],
      "stateMutability": "view",
      "type": "function"
    },
    {
      "inputs": [
        {
          "internalType": "uint256",
          "name": "proposalId",
          "type": "uint256"
        },
        {
          "internalType": "enum BeneficiaryGovernance.VoteOption",
          "name": "_vote",
          "type": "uint8"
        }
      ],
      "name": "vote",
      "outputs": [],
      "stateMutability": "nonpayable",
      "type": "function"
    }
  ],
  "bytecode": "0x60a06040523480156200001157600080fd5b5060405162002ad938038062002ad9833981016040819052620000349162000072565b6001600160601b0319606082901b166080526200005062000057565b50620000a2565b6202a3006005819055600655686c6b935b8bbd400000600755565b60006020828403121562000084578081fd5b81516001600160a01b03811681146200009b578182fd5b9392505050565b60805160601c6129d3620001066000398061048d52806106ae52806107db52806109c45280610c875280610deb5280610e595280610fae528061110952806112fc528061161c5280611780528061196a5280611b035280611c8a52506129d36000f3fe608060405234801561001057600080fd5b50600436106101005760003560e01c80634385963211610097578063943e821611610066578063943e821614610237578063abf410e51461024a578063f2f7233f1461025f578063f7d03cf91461027257610100565b806343859632146101cd5780635c622a0e146101ed5780635ddb48c21461020d578063757509291461022057610100565b80631c08c08e116100d35780631c08c08e1461018157806326f34782146101945780632aff3e3b146101a7578063426f8c41146101ba57610100565b8063013cf08b1461010557806305261aea14610139578063196b89b31461014e5780631afb276f1461016e575b600080fd5b61011861011336600461214e565b610285565b6040516101309c9b9a9998979695949392919061240e565b60405180910390f35b61014c61014736600461214e565b6103b4565b005b61016161015c36600461214e565b6105e5565b6040516101309190612377565b61016161017c366004612016565b610603565b61014c61018f36600461214e565b610615565b6101616101a236600461214e565b6108e4565b6101616101b536600461214e565b61090d565b6101616101c8366004612132565b61091a565b6101e06101db36600461217e565b610940565b604051610130919061236c565b6102006101fb36600461214e565b610984565b6040516101309190612400565b61014c61021b3660046121d1565b6109ad565b610228610af7565b604051610130939291906123bb565b61014c6102453660046121ad565b610b03565b610252610de9565b6040516101309190612279565b61014c61026d36600461214e565b610e0d565b61016161028036600461204e565b610e39565b6002818154811061029257fe5b6000918252602091829020600e919091020180546002808301805460408051610100600184161581026000190190931694909404601f810188900488028501880190915280845260ff8516975093046001600160a01b031694919290918301828280156103405780601f1061031557610100808354040283529160200191610340565b820191906000526020600020905b81548152906001019060200180831161032357829003601f168201915b50505060038401546004850154600586015460068701546007880154600889015460098a015460408051606081018252600a8d01548152600b8d01546020820152600c8d015491810191909152600d909b0154999a6001600160a01b039097169995985093965091949093919260ff16918c565b6000600282815481106103c357fe5b90600052602060002090600e020190506103dc81611507565b6002815460ff1660048111156103ee57fe5b146104145760405162461bcd60e51b815260040161040b9061272a565b60405180910390fd5b806007015481600601541161042f57805460ff191660041781555b80600701548160060154111561045357805460ff19166003178155610453816115ea565b805461046c9061010090046001600160a01b03166118aa565b600d810154156105b657604051631c2d8fb360e31b81526001600160a01b037f0000000000000000000000000000000000000000000000000000000000000000169063e16c7d98906104e2907f9bdd3bade36b8fa56237528cbb4c98556891be00a9524cd32bef9dfd5c2a5b4b90600401612377565b60206040518083038186803b1580156104fa57600080fd5b505afa15801561050e573d6000803e3d6000fd5b505050506040513d601f19601f820116820180604052508101906105329190612032565b6001600160a01b031663efff46dd7f42656e6566696369617279476f7665726e616e6365000000000000000000000083600d01546040518363ffffffff1660e01b815260040161058392919061226b565b600060405180830381600087803b15801561059d57600080fd5b505af11580156105b1573d6000803e3d6000fd5b505050505b60405182907f5ab25e4916e9bcbaf83240dae72af1ebdcbe16d0bf417681ecbadab3ce031b9690600090a25050565b600481815481106105f257fe5b600091825260209091200154905081565b60016020526000908152604090205481565b60006002828154811061062457fe5b60009182526020909120600e9091020160038101549091506001600160a01b031633146106635760405162461bcd60e51b815260040161040b906126cd565b6003815460ff16600481111561067557fe5b146106925760405162461bcd60e51b815260040161040b906124b4565b600c810154604051631c2d8fb360e31b81526001600160a01b037f0000000000000000000000000000000000000000000000000000000000000000169063e16c7d9890610703907f69e547947a4514871bf84679401f91758bd0fe92e4c005143f6d0e5213dab0cb90600401612377565b60206040518083038186803b15801561071b57600080fd5b505afa15801561072f573d6000803e3d6000fd5b505050506040513d601f19601f820116820180604052508101906107539190612032565b6001600160a01b031663095ea7b330836040518363ffffffff1660e01b815260040161078092919061228d565b602060405180830381600087803b15801561079a57600080fd5b505af11580156107ae573d6000803e3d6000fd5b505050506040513d601f19601f820116820180604052508101906107d291906120ed565b506108a63033837f00000000000000000000000000000000000000000000000000000000000000006001600160a01b031663e16c7d987f69e547947a4514871bf84679401f91758bd0fe92e4c005143f6d0e5213dab0cb6040518263ffffffff1660e01b81526004016108459190612377565b60206040518083038186803b15801561085d57600080fd5b505afa158015610871573d6000803e3d6000fd5b505050506040513d601f19601f820116820180604052508101906108959190612032565b6001600160a01b03169291906118cb565b7f0d41118e36df44efb77a471fc49fb9c0be0406d802ef95520e9fbf606e65b45533826040516108d792919061228d565b60405180910390a1505050565b6000600282815481106108f357fe5b90600052602060002090600e02016008015490505b919050565b600381815481106105f257fe5b60008082600181111561092957fe5b14156109385750600354610908565b505060045490565b60006002838154811061094f57fe5b600091825260208083206001600160a01b03861684526001600e90930201919091019052604090205460ff1690505b92915050565b60006002828154811061099357fe5b60009182526020909120600e909102015460ff1692915050565b604051631c2d8fb360e31b81526001600160a01b037f0000000000000000000000000000000000000000000000000000000000000000169063e16c7d9890610a19907f15fa0125f52e5705da1148bfcf00974823c4381bee4314203ede255f9477b73e90600401612377565b60206040518083038186803b158015610a3157600080fd5b505afa158015610a45573d6000803e3d6000fd5b505050506040513d601f19601f82011682018060405250810190610a699190612032565b6001600160a01b031663d09a20c57fd0a4ad96d49edb1c33461cebc6fb2609190f32c904e3c3f5877edb4488dee91e336040518363ffffffff1660e01b8152600401610ab6929190612380565b60006040518083038186803b158015610ace57600080fd5b505afa158015610ae2573d6000803e3d6000fd5b50505060059390935560069190915560075550565b60055460065460075483565b600060028381548110610b1257fe5b90600052602060002090600e02019050610b2b81611507565b6000815460ff166004811115610b3d57fe5b1480610b5857506001815460ff166004811115610b5657fe5b145b610b745760405162461bcd60e51b815260040161040b906128e6565b33600090815260018201602052604090205460ff1615610ba65760405162461bcd60e51b815260040161040b90612602565b6000610bb133611950565b33600090815260018481016020526040909120805460ff1916821790556008840154919250610be09190611aac565b60088301556000836001811115610bf357fe5b1415610c3d576000825460ff166004811115610c0b57fe5b14610c285760405162461bcd60e51b815260040161040b9061282c565b6006820154610c379082611aac565b60068301555b6001836001811115610c4b57fe5b1415610c66576007820154610c609082611aac565b60078301555b600d82015415610db457604051631c2d8fb360e31b81526001600160a01b037f0000000000000000000000000000000000000000000000000000000000000000169063e16c7d9890610cdc907f9bdd3bade36b8fa56237528cbb4c98556891be00a9524cd32bef9dfd5c2a5b4b90600401612377565b60206040518083038186803b158015610cf457600080fd5b505afa158015610d08573d6000803e3d6000fd5b505050506040513d601f19601f82011682018060405250810190610d2c9190612032565b6001600160a01b031663db4dc5f07f42656e6566696369617279476f7665726e616e6365000000000000000000000084600d015433856040518563ffffffff1660e01b8152600401610d819493929190612397565b600060405180830381600087803b158015610d9b57600080fd5b505af1158015610daf573d6000803e3d6000fd5b505050505b6040518190339086907f710b36627495d2e7af3a196c85bf3e51efd906f54516753e5e801b3a22b18f7890600090a450505050565b7f000000000000000000000000000000000000000000000000000000000000000081565b600060028281548110610e1c57fe5b90600052602060002090600e02019050610e3581611507565b5050565b600085600754604051631c2d8fb360e31b81523391906001600160a01b037f0000000000000000000000000000000000000000000000000000000000000000169063e16c7d9890610eae907f69e547947a4514871bf84679401f91758bd0fe92e4c005143f6d0e5213dab0cb90600401612377565b60206040518083038186803b158015610ec657600080fd5b505afa158015610eda573d6000803e3d6000fd5b505050506040513d601f19601f82011682018060405250810190610efe9190612032565b6001600160a01b03166370a08231836040518263ffffffff1660e01b8152600401610f299190612279565b60206040518083038186803b158015610f4157600080fd5b505afa158015610f55573d6000803e3d6000fd5b505050506040513d601f19601f82011682018060405250810190610f799190612166565b1015610f975760405162461bcd60e51b815260040161040b90612696565b604051631c2d8fb360e31b81526001600160a01b037f0000000000000000000000000000000000000000000000000000000000000000169063e16c7d9890611003907f169c5aa5b339507e0d95e149f6ebeaf527bb9067f2601a2d762aec9d5850b8b190600401612377565b60206040518083038186803b15801561101b57600080fd5b505afa15801561102f573d6000803e3d6000fd5b505050506040513d601f19601f820116820180604052508101906110539190612032565b6001600160a01b031663be856eda886040518263ffffffff1660e01b815260040161107e9190612377565b60206040518083038186803b15801561109657600080fd5b505afa1580156110aa573d6000803e3d6000fd5b505050506040513d601f19601f820116820180604052508101906110ce91906120ed565b6110ea5760405162461bcd60e51b815260040161040b9061265f565b6110f48489611ad8565b600754156111735761117333306005600201547f00000000000000000000000000000000000000000000000000000000000000006001600160a01b031663e16c7d987f69e547947a4514871bf84679401f91758bd0fe92e4c005143f6d0e5213dab0cb6040518263ffffffff1660e01b81526004016108459190612377565b6002805460018101825560009182529085600181111561118f57fe5b14156111cf57600380546001810182556000919091527fc2575a0e9e593c00f959f8c92f12db2869c3395a3b0502d05e2516446f71f85b01819055611205565b600480546001810182556000919091527f8a35acfbc15ff81a39ae7d344fd709f28e8600b4aa8c65c6b64bfe7fe36bd19b018190555b60006002828154811061121457fe5b60009182526020909120600e90910201805460ff197fffffffffffffffffffffff0000000000000000000000000000000000000000009091166101006001600160a01b038e160217168155905061126f600282018989611f73565b506003810180547fffffffffffffffffffffffff000000000000000000000000000000000000000016331790554260048201556005810189905560098101805487919060ff1916600183818111156112c357fe5b0217905550600554600a820155600654600b820155600754600c820155604051631c2d8fb360e31b815260009081906001600160a01b037f0000000000000000000000000000000000000000000000000000000000000000169063e16c7d9890611351907f9bdd3bade36b8fa56237528cbb4c98556891be00a9524cd32bef9dfd5c2a5b4b90600401612377565b60206040518083038186803b15801561136957600080fd5b505afa15801561137d573d6000803e3d6000fd5b505050506040513d601f19601f820116820180604052508101906113a19190612032565b6001600160a01b03166366308e137f42656e6566696369617279476f7665726e616e6365000000000000000000000086426040516020016113e392919061226b565b60408051601f198184030181529190528051602090910120600554611409904290611aac565b6040518463ffffffff1660e01b8152600401611427939291906123bb565b6040805180830381600087803b15801561144057600080fd5b505af1158015611454573d6000803e3d6000fd5b505050506040513d601f19601f820116820180604052508101906114789190612107565b91509150811561148a57600d83018190555b6001600160a01b038c16600081815260208181526040808320805460ff191660019081179091556002549252918290205551339086907fafb8af1622fac52af66e378e4111b7b383b7d0149709e0d2bb86ea8cac344b62906114ef908f908f906123d1565b60405180910390a450919a9950505050505050505050565b6004815460ff16600481111561151957fe5b148061153457506003815460ff16600481111561153257fe5b145b1561153e576115e7565b600a810154600b82015460048301548183019061155b9084611aac565b4210158015611577575060048401546115749082611aac565b42105b156115c2576001845460ff16600481111561158e57fe5b146115c2578360070154846006015410156115b6575050815460ff19166002178255506115e7565b835460ff191660011784555b60048401546115d19082611aac565b42106115e357835460ff191660021784555b5050505b50565b6000600982015460ff1660018111156115ff57fe5b141561174e57604051631c2d8fb360e31b81526001600160a01b037f0000000000000000000000000000000000000000000000000000000000000000169063e16c7d9890611671907fc06005761aecdce9d8037400137cccfbffed4be85bf152e41fc11b29e23182e790600401612377565b60206040518083038186803b15801561168957600080fd5b505afa15801561169d573d6000803e3d6000fd5b505050506040513d601f19601f820116820180604052508101906116c19190612032565b815460058301546040517f8f5735020000000000000000000000000000000000000000000000000000000081526001600160a01b0393841693638f5735029361171b936101009091049091169160028701906004016122ca565b600060405180830381600087803b15801561173557600080fd5b505af1158015611749573d6000803e3d6000fd5b505050505b6001600982015460ff16600181111561176357fe5b14156115e757604051631c2d8fb360e31b81526001600160a01b037f0000000000000000000000000000000000000000000000000000000000000000169063e16c7d98906117d5907fc06005761aecdce9d8037400137cccfbffed4be85bf152e41fc11b29e23182e790600401612377565b60206040518083038186803b1580156117ed57600080fd5b505afa158015611801573d6000803e3d6000fd5b505050506040513d601f19601f820116820180604052508101906118259190612032565b81546040517f46dd6fcd0000000000000000000000000000000000000000000000000000000081526001600160a01b03928316926346dd6fcd926118759261010090910490911690600401612279565b600060405180830381600087803b15801561188f57600080fd5b505af11580156118a3573d6000803e3d6000fd5b5050505050565b6001600160a01b03166000908152602081905260409020805460ff19169055565b6115e3846323b872dd60e01b8585856040516024016118ec939291906122a6565b60408051601f198184030181529190526020810180517bffffffffffffffffffffffffffffffffffffffffffffffffffffffff167fffffffff0000000000000000000000000000000000000000000000000000000090931692909217909152611dc8565b604051631c2d8fb360e31b81526000906001600160a01b037f0000000000000000000000000000000000000000000000000000000000000000169063e16c7d98906119bf907f1df41cd916959d1163dc8f0671a666ea8a3e434c13e40faef527133b5d16703490600401612377565b60206040518083038186803b1580156119d757600080fd5b505afa1580156119eb573d6000803e3d6000fd5b505050506040513d601f19601f82011682018060405250810190611a0f9190612032565b6001600160a01b031663034f98e5836040518263ffffffff1660e01b8152600401611a3a9190612279565b60206040518083038186803b158015611a5257600080fd5b505afa158015611a66573d6000803e3d6000fd5b505050506040513d601f19601f82011682018060405250810190611a8a9190612166565b9050600081116109085760405162461bcd60e51b815260040161040b90612889565b600082820183811015611ad15760405162461bcd60e51b815260040161040b9061256e565b9392505050565b816001811115611ae457fe5b60011415611c3f57604051631c2d8fb360e31b81526001600160a01b037f0000000000000000000000000000000000000000000000000000000000000000169063e16c7d9890611b58907fc06005761aecdce9d8037400137cccfbffed4be85bf152e41fc11b29e23182e790600401612377565b60206040518083038186803b158015611b7057600080fd5b505afa158015611b84573d6000803e3d6000fd5b505050506040513d601f19601f82011682018060405250810190611ba89190612032565b6001600160a01b03166375e71d6d826040518263ffffffff1660e01b8152600401611bd39190612279565b60206040518083038186803b158015611beb57600080fd5b505afa158015611bff573d6000803e3d6000fd5b505050506040513d601f19601f82011682018060405250810190611c2391906120ed565b611c3f5760405162461bcd60e51b815260040161040b90612798565b816001811115611c4b57fe5b610e35576001600160a01b03811660009081526020819052604090205460ff16158015611dac5750604051631c2d8fb360e31b81526001600160a01b037f0000000000000000000000000000000000000000000000000000000000000000169063e16c7d9890611cdf907fc06005761aecdce9d8037400137cccfbffed4be85bf152e41fc11b29e23182e790600401612377565b60206040518083038186803b158015611cf757600080fd5b505afa158015611d0b573d6000803e3d6000fd5b505050506040513d601f19601f82011682018060405250810190611d2f9190612032565b6001600160a01b03166375e71d6d826040518263ffffffff1660e01b8152600401611d5a9190612279565b60206040518083038186803b158015611d7257600080fd5b505afa158015611d86573d6000803e3d6000fd5b505050506040513d601f19601f82011682018060405250810190611daa91906120ed565b155b610e355760405162461bcd60e51b815260040161040b90612511565b6060611e1d826040518060400160405280602081526020017f5361666545524332303a206c6f772d6c6576656c2063616c6c206661696c6564815250856001600160a01b0316611e5c9092919063ffffffff16565b805190915015611e575780806020019051810190611e3b91906120ed565b611e575760405162461bcd60e51b815260040161040b906127cf565b505050565b6060611e6b8484600085611e73565b949350505050565b606082471015611e955760405162461bcd60e51b815260040161040b906125a5565b611e9e85611f34565b611eba5760405162461bcd60e51b815260040161040b90612761565b60006060866001600160a01b03168587604051611ed7919061224f565b60006040518083038185875af1925050503d8060008114611f14576040519150601f19603f3d011682016040523d82523d6000602084013e611f19565b606091505b5091509150611f29828286611f3a565b979650505050505050565b3b151590565b60608315611f49575081611ad1565b825115611f595782518084602001fd5b8160405162461bcd60e51b815260040161040b91906124a1565b828054600181600116156101000203166002900490600052602060002090601f016020900481019282601f10611fb45782800160ff19823516178555611fe1565b82800160010185558215611fe1579182015b82811115611fe1578235825591602001919060010190611fc6565b50611fed929150611ff1565b5090565b5b80821115611fed5760008155600101611ff2565b8051801515811461090857600080fd5b600060208284031215612027578081fd5b8135611ad18161297b565b600060208284031215612043578081fd5b8151611ad18161297b565b600080600080600060808688031215612065578081fd5b85356120708161297b565b945060208601359350604086013567ffffffffffffffff80821115612093578283fd5b818801915088601f8301126120a6578283fd5b8135818111156120b4578384fd5b8960208285010111156120c5578384fd5b60208301955080945050505060608601356120df81612990565b809150509295509295909350565b6000602082840312156120fe578081fd5b611ad182612006565b60008060408385031215612119578182fd5b61212283612006565b9150602083015190509250929050565b600060208284031215612143578081fd5b8135611ad181612990565b60006020828403121561215f578081fd5b5035919050565b600060208284031215612177578081fd5b5051919050565b60008060408385031215612190578182fd5b8235915060208301356121a28161297b565b809150509250929050565b600080604083850312156121bf578182fd5b8235915060208301356121a281612990565b6000806000606084860312156121e5578283fd5b505081359360208301359350604090920135919050565b6000815180845261221481602086016020860161294f565b601f01601f19169290920160200192915050565b6005811061223257fe5b9052565b8051825260208082015190830152604090810151910152565b6000825161226181846020870161294f565b9190910192915050565b918252602082015260400190565b6001600160a01b0391909116815260200190565b6001600160a01b03929092168252602082015260400190565b6001600160a01b039384168152919092166020820152604081019190915260600190565b6000606082016001600160a01b0386168352602085818501526060604085015282855460018082166000811461230757600181146123255761235d565b60028304607f16865260ff198316608089015260a08801935061235d565b600283048087526123358a612943565b885b828110156123535781548b820160800152908401908701612337565b8a01608001955050505b50919998505050505050505050565b901515815260200190565b90815260200190565b9182526001600160a01b0316602082015260400190565b93845260208401929092526001600160a01b03166040830152606082015260800190565b9283526020830191909152604082015260600190565b60006020825282602083015282846040840137818301604090810191909152601f909201601f19160101919050565b6020810161097e8284612228565b600061241a828f612228565b6001600160a01b03808e1660208401526101c060408401526124406101c084018e6121fc565b9150808c166060840152508960808301528860a08301528760c08301528660e0830152856101008301526002851061247457fe5b84610120830152612489610140830185612236565b826101a08301529d9c50505050505050505050505050565b600060208252611ad160208301846121fc565b60208082526021908201527f50726f706f73616c206661696c6564206f722069732070726f63657373696e6760408201527f2100000000000000000000000000000000000000000000000000000000000000606082015260800190565b60208082526032908201527f42656e65666963696172792070726f706f73616c2069732070656e64696e672060408201527f6f7220616c726561647920657869737473210000000000000000000000000000606082015260800190565b6020808252601b908201527f536166654d6174683a206164646974696f6e206f766572666c6f770000000000604082015260600190565b60208082526026908201527f416464726573733a20696e73756666696369656e742062616c616e636520666f60408201527f722063616c6c0000000000000000000000000000000000000000000000000000606082015260800190565b60208082526026908201527f6164647265737320616c726561647920766f74656420666f722074686520707260408201527f6f706f73616c0000000000000000000000000000000000000000000000000000606082015260800190565b60208082526013908201527f726567696f6e20646f65736e7420657869737400000000000000000000000000604082015260600190565b6020808252601b908201527f70726f706f73616c20626f6e64206973206e6f7420656e6f7567680000000000604082015260600190565b60208082526028908201527f6f6e6c79207468652070726f706f736572206d61792063616c6c20746869732060408201527f66756e6374696f6e000000000000000000000000000000000000000000000000606082015260800190565b60208082526018908201527f46696e616c697a6174696f6e206e6f7420616c6c6f7765640000000000000000604082015260600190565b6020808252601d908201527f416464726573733a2063616c6c20746f206e6f6e2d636f6e7472616374000000604082015260600190565b60208082526019908201527f42656e656669636961727920646f65736e742065786973742100000000000000604082015260600190565b6020808252602a908201527f5361666545524332303a204552433230206f7065726174696f6e20646964206e60408201527f6f74207375636365656400000000000000000000000000000000000000000000606082015260800190565b6020808252602b908201527f496e697469616c20766f74696e6720706572696f642068617320616c7265616460408201527f792066696e697368656421000000000000000000000000000000000000000000606082015260800190565b60208082526024908201527f6d757374206861766520766f69636520637265646974732066726f6d2073746160408201527f6b696e6700000000000000000000000000000000000000000000000000000000606082015260800190565b60208082526026908201527f50726f706f73616c206973206e6f206c6f6e67657220696e20766f74696e672060408201527f706572696f640000000000000000000000000000000000000000000000000000606082015260800190565b60009081526020902090565b60005b8381101561296a578181015183820152602001612952565b838111156115e35750506000910152565b6001600160a01b03811681146115e757600080fd5b600281106115e757600080fdfea26469706673582212206a6e3273bacffebf89148d302fd4ec0d9849e7dbf4a11d52afd7137444dc552f64736f6c63430007030033",
  "linkReferences": {},
  "deployedLinkReferences": {}
}